:030000000220F4E7
:0C20F400787FE4F6D8FD75818002213B66
:1018FF00041A00000000410077004100AE0C4100C7
:10190F00AF404400A5000000004400880000000024
:10191F0044008C000000004400CB00000000440095
:10192F00B5000000004400D2000000004200990002
:10193F0001420086000041007D004100A3004200EB
:10194F00D7000042007E0000410071084100B10045
:10195F004100D900011E00011F0041008500410018
:10196F00900141009B0A4100B4004100B00A4100C0
:10197F00A2004100A40042007B000041007300025E
:10198F007F0000027D0000017B00017A00017800DA
:10199F0041007A004100CF004100840042009100D5
:1019AF00004200A000004100D0004100740042003E
:1019BF00750000410072004100980041009C0041F9
:1019CF0000AD00017C000179004200B20000500020
:1019DF00BB0000000000000000000000000000003D
:0619EF0000420078000038
:10166C00EF24A0FFEE340FFEE43DFDE43CFC120839
:10167C00B1D302086EE49000B1F09000AF7440F06A
:10168C009000A37402F09000717406F0E49000775F
:10169C00F09000CB229000881208A59000A51208AB
:1016AC00B11207129000881208BD9000880208A59C
:1016BC009000A51208B1C302086EE4FCFD120712DB
:1016CC009000D20208BD9000A91208A5EF2470FF6B
:1016DC00EE3417FEE43DFDE43CFC90008822122D14
:1016EC00E7E47BE87A03F9F89000800208A5E4753A
:1016FC00F0010206FC9000AFE0FF900077E0C39F82
:10170C0022D390009AE09400900099E09400221269
:10171C0008A590008C1208B1020712120695AC06AF
:10172C00AD07E41201C3E4FBFA79C8784202012147
:10173C009000800208BD9000A50208A5E4FFFEFD04
:10174C007C3F12002D0201FCF0E0540F4480F0228B
:10175C00D39000D8E094009000D7E0940022900041
:10176C009BE09000B0F0227F071227EC90009DEFD9
:10177C00F09000D1227F647E00022DE7F09000B53E
:10178C000208A59000D20208B1D39DEC6480F874D5
:10179C00809822E47B02FAF9F80207B890008802DC
:0C17AC0008B17E2F122CB67F107E272281
:102ADB008E238F248B258A268927AF051DEF602136
:102AEB000524E524AE237002052314F5828E83E4BE
:102AFB0093FF7825E475F001120906EF1206618049
:022B0B00D922CD
:102BF4008F828E83E4F51DF51CF51BF51AAF82AEAA
:102C040083E4FCFDAB1DAA1CA91BA81AC312086E01
:082C1400500543BD1080E622CB
:092DDE00E0FF7C2F122C1C7F6425
:102DE700E4FDFCC3ED9FEC9E50070DBD00010C8078
:012DF700F2E9
:012DF80022B8
:10000300758E5190FE917401F0A37410F075BD5F6D
:0700130090FEA07420F02212
:102DA200E490FE80F0758901758DFA758BCB43A88E
:0E2DB20008438840758CCB758AEB438810224D
:102B0D0090FF10E054F04408F090FF02E054F044C0
:102B1D0002F0D28490FFA07420F0A37404F075CC61
:102B2D000675CEFF75CD98759E0275981043A81049
:012B3D002275
:102E130043B40343B4807F147E00122DE7E4F5B579
:072E230090FE9B744BF022AE
:102BCA0090FF0812175590FF00E054F044031217C3
:102BDA0054A3E054F0440812175490FF03E0540F32
:0A2BEA004430F090FF13121755223B
:0B2E95008F99E59830E1FB5398FD2277
:1027EC008FB543B440E5B430E5FB53B4DF12178129
:1027FC00E4FBFAF943B440E5B430E5FB53B4DFE550
:10280C00B62BFBE5B73AFA7F147E00122DE709B917
:0F281C0010E2E4F5B5A9027F64FE122DE7AF01CB
:01282B00228A
:1017B8007B017A0079BB7D107F007E2F122ADB9097
:1017C80000BBE0FFE4FCFDFE12173C1216F478089B
:1017D80012089212173C9000801208B19000BCE0E9
:1017E800FFE4FCFDFE12071212173C1216F4E47B0C
:1017F800E87A03F9F812072D12173CE47F307E755A
:10180800FDFC9000801216BF40107F007E097D3DD0
:101818007C0090008012167A400A9000801208C955
:1018280000009C409000BDE09000D6F07002800758
:101838009000D6E0B4FE0374FFF09000BEE0FF9085
:10184800009EE4F0A3EFF0E0F8E4F0E890009EF0EA
:101858009000BFE0FF90009EE48FF01206FC90001D
:101868009EE0FEA3E0FF4E6009D3EF9408EE9407D4
:10187800400990009EE4F0A37405F09000C0E09049
:10188800009BF09000A4F09000C1E0900093F060FD
:1018980006E0D394FF40069000937401F09000C2D4
:1018A800E0F45401900090F09000C3E05401787B7C
:1018B800F6A3E05401900085F09000C5E054019033
:1018C8000084F09000C6E090007AF07B017A0079FD
:1018D800787D027F807E2F122ADB900078E09000CE
:1018E800A2F0900079E09000CFF01220529000CF43
:0718F800E07003122B9D229A
:10093C00E51E6003020E1343B440E5B430E5FB53EF
:10094C00B4DF85B72385B6249000861216FA1217E9
:10095C008FAE23AF241216C69000B9E0FEA3E0FFC1
:10096C00C39524EE9523500DC3E5249FF524E52370
:10097C009EF523800BC3EF9524F524EE9523F523E8
:10098C0090008C1208B1AE23AF24E4FCFD120712C8
:10099C0090008C1208BD900086E05401FEA3E04E3E
:1009AC00705212175C40179000B0E09464503DE018
:1009BC002402F0E0D3946440337464F0802E9000F1
:1009CC007EE07004A3E06401702A90009BE0FF902D
:1009DC0000B0E0FED39F4014EE94024004E024FEED
:1009EC00F09000B0E0C39F500312176A9000B0E083
:1009FC00FF1222E5C3900086E094205003020E42C1
:100A0C0043BD10E4F0A3F09000B1E00412178890FD
:100A1C0000D21217219000B51208BD9000B1E0C3AE
:100A2C0094084030E4121788781012087F9000B5B3
:100A3C001208BD1217899000B9EE8FF01206FC90C7
:100A4C0000B9E0C313F0A3E013F09000B51208C98D
:100A5C0000000000900071E0C394085005E004F021
:100A6C0080409000D7E07002A3E07036121773E05C
:100A7C00FE2402FDE433FCEF121795501890009DF4
:100A8C00E02402FDE433FCEE12179550089000D1DF
:100A9C00E090009DF090009DE09000D1F0E490007B
:100AAC0071F0E4FFFEFDFC9000881216BF703690CA
:100ABC00008C1208A5EF2488FFEE34131216DF12F7
:100ACC0008BD900099E07002A3E070197F407E424F
:100ADC007D0FFC90008812167A400A90008812084C
:100AEC00C9000F4240900077E0701690008C1208FD
:100AFC00A59000A51208BD9000941208C900000032
:100B0C000190009412171B1216BC4003020CC190EA
:100B1C0000941208A59000A512172190008C1216B3
:100B2C00BF4003020CC1900077E004F09000CB12A0
:100B3C00171B9000CB1208BD900077E0FFFBE4FA86
:100B4C00F9F89000CB1208A51207B89000A512086E
:100B5C00BD121742780312087F9000941208BDE46E
:100B6C007F207E4EFDFC9000941216BF500A900020
:100B7C00941208C900004E20E47F607EEAFDFC90D0
:100B8C00009412167A400A9000941208C90000EAE8
:100B9C006012174290008812167A403E9000A512FF
:100BAC0008B11216B612071F1216CC7F807E387D44
:100BBC00017C009000D212167A40089000AE7406A8
:100BCC00F0801DE47F407E9CFDFC9000D212167AD2
:100BDC009000AE40087409F080069000AE740CF0E2
:100BEC009000AE121704403B1216B61216BC5033CE
:100BFC009000AFE094105003020CD09000AEE0D304
:100C0C009409500512174280111217429000881255
:100C1C00166C400C1216A112179F9000881208BD7A
:100C2C00020CC11217015003020CD01216B6900020
:100C3C00A512166C40771217A812174212071F1232
:100C4C0016CC7F007E127D7A7C001216BC505E7F23
:100C5C00807E1A7D067C009000D21216BF504E90FA
:100C6C0000AFE09410400280387FE07E937D047CDE
:100C7C00009000D212167A40089000AF7410F080E9
:100C8C001B7FF07E497D027C009000D212167A9078
:100C9C0000AF4005740CF080037408F0121701408B
:100CAC000C1216A112179F9000881208BD12170182
:100CBC004012E48004E4900077F09000CB1208C955
:100CCC00000000009000A3E0D394004036E014F044
:100CDC001216D212167A5003020DCF9000A91208E8
:100CEC00A5EF2498FFEE343AFEE43DFDE43CFC9085
:100CFC00008C1216BF4003020DCF1216D21208BD83
:100D0C00020DCF12170D405774FFF5F01206FC12AE
:100D1C00170D404B7F007E127D7A7C00900088126C
:100D2C00167A400C9000801208C9000C3500802FF8
:100D3C001216F41217A81216C97F407E547D897CB6
:100D4C00009000D212167A40161217A8C374409B5A
:100D5C00FF74549AFE748999FDE498FC12173C12A6
:100D6C0016F490008812172190008C12167A4053BA
:100D7C009000D6E0FF90009DE0D39F400512170D28
:100D8C0040419000D7E07002A3E070091216B690B3
:100D9C0000A91208BD9000D7E4F0A304F0787AF60D
:100DAC009000911216FA9000987401F09000AF74B4
:100DBC0008F0E490007EF0A3F0787FF608F6787DDA
:100DCC00F608F69000D21208C90000000090008CC2
:100DDC001208C9000000009000D7E0FEA3E0FFD38A
:100DEC009400EE9400404F90009EE0FCA3E0FDD3F5
:100DFC00EF9DEE9C4040E49000D7F0A3F0751E01EF
:100E0C00787AF67878F62290007EE4F0A304F0E489
:100E1C00F51E90007BF0A3F0900073F07FFAFE12A9
:100E2C002BF49000B51208C90000000012168112B4
:060E3C0008C900000000DF
:010E4200228D
:10234500E4F5249000D21208C900000000E4F5234A
:1023550043B440E5B430E5FB53B4DF12178FAFB695
:10236500AEB71216C60523E523B480E47F907E013F
:10237500122BF49000D21208A5780B12087F8F2338
:10238500E523D3940C400CE523948D5006E5249465
:0D23950014500A0524E524D3945040A722DB
:0123A2002218
:102400009000D21208C900000000E4F523E4F5268C
:10241000F52743B440E5B430E5FB53B4DF85B7247A
:1024200085B62512178FAE24AF251216C60527E5EF
:102430002770020526B400DAE526B420D543BD1086
:102440000523E523B408C69000D21208A57810121F
:0A245000087F9000B9EEF0A3EFF052
:01245A00225F
:10256400BF0105E4FCFD802E7E007C017DFF120688
:10257400951C7D641206A7AC06AD07E41201C38F57
:10258400428E418D408C3FAB42AA41A940A83F12E4
:102594001748AC06AD0790FF907427F075DA017503
:0E25A400E30175E2FF8CE58DE475E10F7F0029
:0125B2002206
:1029D300BF0104E4FE801E7E007C007DFF121727EA
:1029E3008F428E418D408C3FAB42AA41A940A83F04
:1029F300121748AE0790FF9C7401F075DEFF8EDF5F
:052A030075DD947F0069
:012A080022AB
:0222E5008F3D2B
:1022E700787CE6B53D037F0022787CA63DE53D700E
:1022F700069000D0048016E53DB4640CE49000D04D
:10230700F090009C04F0800B9000D07402F0E490F1
:10231700009CF0E53DFD7C0090007AE0FF7E001216
:102327001727E4FBFAF9783F12174E8F3EC3E53DB6
:0D233700953EFF122564AF3E1229D37F00B2
:012344002276
:1012B200122E58120003122BCA122DA2122B0D123B
:1012C2002E1375BBAA90FEA774FFF053BBF7D2AFE3
:1012D2007FC87E00122BF4121773F0C2AF1217B838
:1012E2007F641222E59000A2E004F07F807E2F123C
:1012F2002CB67F107E27122DE79000A2E0FF7D80A2
:101302007C2F122C1C121781D2AF12234590009B06
:10131200E0FF9000B0F01222E57F2C7E01122BF448
:101322001224009000D21208C9000000009000A20E
:10133200E0C394034005E4F0122B9D7879E6602324
:101342007F641214D1E4FF1214D19000B21216FA83
:10135200C39000B3E0942C9000B2E094014004E406
:101362007879F6900074E0FF9000D0E0FD6F600D98
:101372007F7612286C9000D0E0900074F09000AD5F
:10138200E0FF90009CE0FD6F600D7F7712286C906B
:10139200009CE09000ADF0900072E064017041901A
:1013A2000098E0B4013AE4900072F0900098F09056
:1013B2000091E0FEA3E0FF9000A0E06E7003A3E0C6
:1013C2006F601DE48F458E44F543F5427F74122110
:1013D20080900091E0FFA3E09000A0CFF0A3EFF097
:1013E20043BD101214DC900090E06401600302140B
:1013F2009CE51F701CF51E751F0112176A9000B53F
:101402001208C9000000001216811208C90000006B
:101412000012093CD390007FE0940090007EE0949B
:10142200004033900073E0B4012CE4F090007E128F
:1014320016FB900093E0FFC390007FE09F90007E38
:10144200E094004011E4F0A3F0900084E0640160B5
:1014520005E4FF1222E512175C400F787EE6640174
:1014620018467006F608F61216FB787BE6640160F1
:101472000302132F18E6FF787866700302132FA673
:10148200079000D7E4F0A304F0E4F522E522C39428
:1014920008400302132F052280F2E4F51F90008515
:1014A200E07007FF1222E502132F9000A4E0FF1262
:1014B20022E5E4F51E12176A9000B51208C9000071
:0F14C20000001216811208C90000000002132F4B
:0B14D1001222E57F647E00122BF42243
:03001B00021E358D
:101E3500C0E0C0F0C083C082C0D075D000C000C073
:101E450001C002C003C004C005C006C007AF1DAE77
:101E55001CAD1BAC1AEF2401FFE43EFEE43DFDE49E
:101E65003C8F1D8E1C8D1BF51A90007B1216FA9067
:101E7500007BE0FEA3E0FFE4FCFD7B607AEAF9F875
:101E8500D3120858500C90007BE4F0A3F090007337
:101E950004F0788006E618700106C37880E694E8B9
:101EA50018E69403400C7600087600787D760008E5
:101EB50076019000751216FAC3900076E094E890CA
:101EC5000075E094034009E4F0A3F090007204F07B
:101ED500D007D006D005D004D003D002D001D00061
:0B1EE500D0D0D082D083D0F0D0E0320B
:030023000226DBD7
:1026DB00C0E0C0F0C083C082C0D075D000C000C0C5
:0D26EB0001C002C003C004C005C006C00746
:0F26F800E59830E00AAF991224B65398FED2AF9E
:10270700D007D006D005D004D003D002D001D00026
:0B271700D0D0D082D083D0F0D0E032D0
:102CB60053BBF7C280E5BB20E3F6D280C2AF75FDF9
:102CC600F075FC0F8EFA8FF975FDD275FC2D75FD2A
:052CD600E175FC1E2267
:102C1C0053BBF7C280E5BB20E3F6D280C2AF8FFB7B
:102C2C0075FDF075FC0F8CFA8DF975FDB475FC4BC8
:072C3C0075FDE175FC1E228D
:102052007F001217AE1216EA1207B8780812087F2C
:102062007D007C2F122C1C7F647E001216EA120760
:10207200B87D017C2F122C1C1217819000D67D0294
:10208200122DDE90009E7D03122DDEA3E0FF7D0463
:10209200122DE090009BE0FF7D05122DE090009351
:1020A200E0FF7D06122DE0900090E0F4FF7D071224
:1020B2002DE0787BE6FF7D08122DE0900085E0FFA1
:1020C2007D09122DE0900084E0FF7D0A122DE09040
:1020D200007AE0FF7D0B122DE07F801217AE122DE9
:1020E200E77D807C2FE4FF122C1C0D0F122C1CD2DA
:0120F200AF3E
:0120F30022CA
:102C6A00637263206572726F7220286372633A30EE
:102C7A00782558202062757420646174613A30782E
:062C8A002558290D0A0087
:0419F5000276000076
:101FA800120634FFE5464FFFE545FEE544FDE543EF
:101FB8008F468E458D44F543FC78081208928F466B
:101FC8008E458D4422AF45AE44AD43AC4212087FE6
:101FD800AD0722AD07E4FBFA900001E02274022568
:101FE80024F974003523FA7B01E52624FFFDE52555
:101FF80034FFFC22E475F001020906AA06AB077D4E
:10200800037F0722AF75AE74AD73AC7202087FFE12
:10201800E554FDE553FCE47BFF22E4F540F53FF58C
:102028003EF53D22120634AB49AA4AA94B22AB60C1
:10203800AA61A96202061BAB63AA64A96502061B12
:0A204800755A01755B00755C2222D9
:10220700EFC39430400CEFD39439500674D02FFFAE
:102217008022EFC39441400CEFD394465006EF243D
:10222700C9FF8010EFC39461400AEFD3946650044E
:10223700EF24A9FFEF540FC454F0FFEDC3943040CF
:102247000CEDD39439500674D02DFD801EEDC39448
:10225700414008EDD394465002800CEDC394614091
:102267000AEDD394665004ED24A9FDED540F4207FF
:012277002244
:062766008B3A8A3B893C1E
:10276C00122022E94A4B7005FFFEFDFC22122022AA
:10277C00783A121FFC12061B601AE5402401FFE494
:10278C00353FFEE4353EFDE4353D8F408E3F8D3EBA
:0C279C00F53D80DCAF40AE3FAD3EAC3DF3
:0127A800220E
:062A74008B088A09890AA3
:102A7A008B0E8A0F8910E94A4B7004FBFAF922E59A
:102A8A000D150DAE0C7002150C4E600B780E121F50
:0D2A9A00FCED12066180E8AB08AA09A90A4C
:012AA700220C
:061BE9008B418A42894392
:101BEF008B498A4A894B85444C85454D85464EE93C
:101BFF004A4B6008E5464545454470077B007A002F
:101C0F00790022D3854D83854E82E54B9582E54A37
:101C1F0095834019E54E2548F9E54D3547FA8A83F6
:101C2F008982D3E54B9582E54A95834032E4F54F9F
:101C3F00F550C3E5509548E54F9547505BAB4CAA1F
:101C4F004DA94E855082854F8312202C8550828559
:101C5F004F831206730550E55070D7054F80D3851B
:101C6F00474F854850D3E5509400E54F94004028E6
:101C7F00AB4CAA4DA94EE55024FFFFE54F34FFFEB4
:101C8F008F82F58312202C8F828E83120673E5507C
:0E1C9F00155070D1154F80CDAB41AA42A9431C
:011CAD002214
:0628E8008B118A12891316
:1028EE008B178A188919AB14AA15A91612061B6024
:1028FE00147814121FFC12061BFF7811121FFCEF26
:10290E0012066180E1AB11AA12A913E4120661ABA3
:05291E0017AA18A91919
:012923002291
:102722008B608A618962122036FF602012203F602E
:102732001BB5071874012562F562E43561F5617411
:10274200012565F565E43564F56480DA12203FFF02
:102752003395E0FE122036FD3395E0FCC3ED9FFF7A
:04276200EC9EFE22C9
:102AA8008F758E748D738C72781812087FEF1206EA
:102AB80061781012200C900001EF1206737808124A
:102AC800200C900002EF120673E575FF900003EFEB
:032AD80002067380
:1025B300E4F546F545F544F54312061BFFE48F4663
:1025C300F545F544F543AE45AD44AC43121FC18C0C
:1025D30043900001121FA88C43900002121FA88C85
:1025E30043900003120634FFE5464FFFE545FEE541
:0A25F30044FDE543121FC6F543FC4A
:0125FD0022BB
:062692008B678A6889696C
:10269800121FDBB401037F0122AF03AE02122E88A2
:1026A800AA06AB07E41226D2E56A1226D2AD6B124F
:1026B8002E88AB67AA68A969856A3F856B40122B8B
:0926C8006E12200312250F7F01A0
:0A26D10022FD122E88AA06AB072294
:0425FE008D3DAC075C
:10260200121FDDB401037F0122AF03AE02AD04123B
:102612002637E4FD122637E53D7003FD8006AF0341
:10262200AE027D01122E88AA06AB077D037F071238
:04263200250F7F01F0
:1026360022122E88AA06AB077D01122E88AA06ABA7
:02264600072269
:10218000121FDBB401037F0122AF03AE02122E88BF
:102190007D021221F3E4FD122E887D041221F3C08A
:1021A00006C0077818121FCDD007D0061221FFC035
:1021B00006C0077810121FCDD007D0061221FFC02D
:1021C00006C007AF45AE44AD43AC42780812087F65
:1021D000AD07D007D006122E88AA06AB07C007E5C8
:1021E00045FFE4AD07D007122E8812200312250FF9
:0221F0007F016D
:1021F20022AA06AB07122E88AA06AB0722122E8845
:05220200AA06AB072253
:062648008B6D8A6E896FA4
:10264E00121FDBB401037F0122AF03AE0212268AF2
:10265E007D0312268AE570FD122E88AA06AB07AD01
:10266E0071122E88AB6DAA6EA96F85703F85714071
:0B267E00122B6E12200312250F7F01AB
:0926890022122E88AA06AB0722DA
:04286C008D3DAC07EB
:10287000121FDDB401037F0122AF03AE02AD0412CB
:102880002E887D0412289FE4FD122E887D011228D7
:0E2890009FAD3D122E8812200312250F7F01EE
:0D289E0022AA06AB07122E88AA06AB07225D
:021D7200AD07BB
:101D7400E4F557F558900001E0B401037F01221205
:101D84001E157D05121E2DE4FD121E2D74FFFFE5A8
:101D940055122017FAF9F8C312086E70097D011262
:101DA4001E15AD56803D74FFFF1220177AFFF9F817
:101DB400C312086E70047D0280197D04121E2178FE
:101DC40018121DFCAF56AE55AD54AC537810120822
:101DD4007FAD07121E217808121DFCE556FFE4AD05
:101DE40007AF58122E888E578F58AB58AA577D03C9
:071DF4007F0712250F7F019C
:101DFB0022AF56AE55AD54AC5312087FAD07AF585A
:101E0B00AE57122E888E578F5822AF58AE57122EC0
:101E1B00888E578F5822AF58AE57122E888E578FF9
:0A1E2B005822122E888E578F58227D
:082EB4008C3D8D3E12061BFF50
:012EBC0022F3
:082EBD008C3D8D3E12061BFF47
:012EC50022EA
:072EC6008C418D421225B37F
:012ECD0022E2
:1024B6008F51C3E55F955CFFE55E955BFEEF6401BA
:1024C6004E6045D3855E83855F82E55C9582E55BDC
:1024D60095834015E55C955FFFE55B955EFEC3EF72
:1024E6009417EE64809480501FC3900039E55C9584
:1024F60082E55B958340077A007922122048785A54
:09250600121FFCE55112066122CE
:1014DC00E4F523F524F525F526C3E577941FE57689
:1014EC0094005024122DC0EFD39400401B12282CD2
:1014FC000577E577AC7670020576142402F58274D4
:10150C00003CF583EFF080D1C3E5779407E5769442
:10151C0000500302166BC3E5779524FDE576952301
:10152C00FCC3ED9407EC94005003021634740225AE
:10153C0024F58274003523F583E06455600A052494
:10154C00E52470D2052380CE74032524F582740023
:10155C003523F583E064AA600A0524E52470B705F9
:10156C002380B374042524F58274003523F583E0BD
:10157C0060047402803C74062524F58274003523C3
:10158C00F583E0752600F52574072524F582740093
:10159C003523F583E02407FFE433FEEF2526F526FB
:1015AC00EE3525F525D3E5269426E5259400400A4D
:1015BC0074032524F524E402162DC3ED9526EC9531
:1015CC00254065121FE5122C90E5242526FDE52308
:1015DC003525FC74012DF58274003CF583E06F60B9
:1015EC0031121FE5122C908F2A7BFF7A2C796AE539
:1015FC00242526FFE5233525FE74012FF582740082
:10160C003EF583E0F52B120EA574032524F524E496
:10161C00800FAF24AE23121A29E5262524F524E5E4
:10162C00253523F523021522C3E5779524F577E5B7
:10163C00769523F576D3E5779400E5769400401FF4
:10164C0074022524F974003523754401F545894647
:0F165C008576478577487B017A007902121BE972
:01166B00225C
:102E5800122048755D01755E00755F2290007074E0
:032E6800FFF02256
:062ECE00900021E0FF224C
:0E2E7A00E4900021F0FBFA7D037F0402250F97
:062ED400900000E0FF2267
:022E2A00AD07F2
:102E2C00E4FF900000F0FE122E88EFFB7A007D0389
:052E3C007F0502250FD7
:062EDA00900070E0FF22F1
:0A2EA000E4FBFA7D037F2B02250FEF
:1019F9004100DE004400DA000000005E00DF14014F
:101A090016026504660267016802690271017201C2
:0C1A1900730174027501760477049602D4
:102A0900AB37AA38A939AD3BAC3A2290007AE0FF3E
:102A1900E48F45F544F543F54222900091E0FEA389
:102A2900E0FFE48F458E44F543F54222E0FFE4FCE4
:062A3900FDFEC302086E61
:102B9D007F55122E957FAA122E957F03122E957FAB
:102BAD0005122E95E4FF122E957F01122E95E4FF4E
:0D2BBD00122E957F08122E95787976012250
:03001E00022E951A
:101CAE00900000E0FD7F141225FE900085E0FD7F80
:101CBE00711225FE90009B122A177F16122180901A
:101CCE0000D6E0FFB4FF05E4F52F801EEFB4C80583
:101CDE00752F028015EFB42805752F03800CEFB415
:101CEE001405752F048003752F05AD2F7F651228FF
:101CFE006C90009E122A267F66122180900090E042
:101D0E00FD7F671225FE900093122A177F6812211D
:101D1E0080E47B107A27F9F89000801208A512074C
:101D2E00B8C374329F122A187F69122180787BE61D
:101D3E00FD7F721225FE900084E0FD7F731225FE5A
:101D4E00122A237F741221809000D0E0FD7F76123C
:101D5E00286C90009CE0FD7F7712286C122A147F6D
:041D6E009602218038
:102E4100122EB4900000EFF0FD7F141225FEBF0199
:062E5100037F01227F0057
:012E57002258
:10295F00122EC68F408E3F8D3E8C3D90009BAB401C
:10296F00AA3FA93EA83D122A357002FF22AF409020
:10297F00009BEFF0FE9000A4F0122A197F1612218F
:09298F0080BF01037F01227F00DB
:01299800221C
:102B3E00122EC690007AE0B507037F002290007A2D
:102B4E00EFF0E4FF1222E59000A4E0FF1222E5125E
:0F2B5E002A147F96122180BF01037F01227F007E
:012B6D002245
:1023A300122EBD9000DEE0B507037F0022EF14601C
:1023B3001014601514601A14601F1460242405702F
:1023C300289000D674FFF080209000D674C8F08067
:1023D300189000D67428F080109000D67414F08002
:1023E3000890009DE09000D6F09000DEEFF0FD7FB6
:0C23F3006512286CBF01037F01227F00EF
:0123FF0022BB
:1027A900122EC68F408E3F8D3E8C3D90009EE0FEDE
:1027B900A3E0FFE4FCFDAB40AA3FA93EA83DC3123C
:1027C900086E7002FF22AE3FAF4090009EEEF0A36C
:1027D900EFF0122A2B7F66122180BF01037F0122AD
:0227E9007F006F
:0127EB0022CB
:102D2000122EB4900090E0B507037F00229000902F
:102D3000EFF0FD7F671225FEBF01037F01227F00B8
:012D40002270
:102A3F00122EC68F408E3F8D3E8C3D900093AB4043
:102A4F00AA3FA93EA83D122A357002FF22AF40903F
:102A5F000093EFF0122A197F68122180BF01037FC4
:042A6F0001227F00C1
:012A73002240
:10227800122EC68F408E3F8D3E8C3D9000DA12089C
:10228800A5AB40AA3FA93EA83DC312086E7002FF45
:1022980022AF40AE3FAD3EAC3D9000DA1208BDC360
:1022A80074329540FFE4953FFEE4953EFDE4953D8C
:1022B800FCE47B107A27F9F812072D9000801208A9
:1022C800BD9000DA1208A58F458E448D438C427F5D
:0C22D80069122180BF01037F01227F00FA
:0122E40022D7
:10299900122EB4900085E0B507037F0022EF700680
:1029A900900085F08011900090E0B40104787A7667
:1029B900019000857401F0900085E0FD7F7112257A
:0929C900FEBF01037F01227F0023
:0129D20022E2
:102D8300122EB4787BE6B507037F0022787BEFF63B
:0E2D9300FD7F721225FEBF01037F01227F002B
:012DA100220F
:102D4100122EB4900084E0B507037F002290008426
:102D5100EFF0FD7F731225FEBF01037F01227F008B
:012D6100224F
:102DF900122EB4EF7002FF22E4900091F0A3F012BA
:092E09002A237F741221807F014D
:012E1200229D
:061EF0008B378A388939A6
:101EF600EF1209161F22141F44161F56651F5E6631
:101F06001F66671F6E681F76691F7E711F86721FA8
:101F16008E731F96751F4D9600001FA0122A091278
:101F26002E418F3CE53C640170759000B4E004F0EE
:101F3600E0C394054069E4F0122B9D021FA5122A06
:101F46000912295F021F9C122A09122B3E021F9CAE
:101F5600122A091223A3803E122A091227A98036C3
:101F6600122A09122D20802E122A09122A3F8026B3
:101F7600122A09122278801E122A0912299980161D
:101F8600122A09122D83800E122A09122D4180066B
:101F9600122A09122DF98F3C8000E49000B4F0AFAC
:011FA6003CFE
:011FA7002217
:032EE0007F0F223F
:0F2E6B00EF24FC60028007122052E47879F622EF
:102924007B2270223A220071676B6A35796D636786
:102934007261706A676A3000222C2276223A220081
:10294400312E302E3000222C226D223A0030007DB0
:0B295400000000000000000000000078
:031A250001590064
:102CDB0074082528F58274003527F583E022743FAC
:102CEB002FF974003EFA7B0122E475F001120906FC
:032CFB0002061BB3
:0C2E8800122CE9ED1206610FBF00010ED4
:012E9400221B
:0A2B6E008E3A8F3B8B3C8A3D893E76
:102B7800122CE9853C44853D45853E46853F478581
:102B88004048121BE9E540253BF53BE53F353AF562
:042B98003AFEAF3B17
:012B9C002216
:0A2C90008B488A49894A8C4B8D4C11
:102C9A00E4FFFDFCC3ED954CEC954B500E784812C1
:0B2CAA002CF42FFF0DBD00010C80E991
:012CB50022FC
:1028AB008B488A49894A8C4B8D4CE94A4B602DE504
:1028BB004C454B6027E54C154CAE4B7002154B4EFF
:1028CB00601AAB48AA49A94A12061BFF12001E74D4
:0D28DB0001254AF54AE43549F54980D92226
:04250F008A468B4726
:102513009000397455F0A374AAF0A3EDF0A3EFF083
:10252300E546A3F0E547A3F02407F547E43546F570
:10253300467B017A007939E54724FFFDE54634FF00
:10254300FC122C90AE0774382547F582740035468B
:10255300F583EFF07B017A007939AD47AC46022869
:01256300ABCC
:102CFE00E4FFE559700AFEFD122E88755901800712
:102D0E007E007D01122E88EFFB7A007D03E4FF0228
:022D1E00250F7F
:101B1E00E4F52F78307C00FD7BFF7A297955FE7F26
:101B2E000A1205F57A297924121BB97A2979241219
:101B3E002B6E8F2F7A29792B121BB97A29792B12BA
:101B4E002B6E8F2F7A29793C121BC97A29793C1278
:101B5E002B6E8F2F7A297944121BC97A2979441258
:101B6E002B6E8F2F7A29794A121BD97A29794A122C
:101B7E002B6E8F2F7A297951121BD97A297951120E
:101B8E002B6E8F2F7BFF7A2979531227668E3F8F0C
:101B9E0040AF2F7E007BFF7A297953122B6E8F2F49
:0B1BAE00EFFB7A007D037F0102250F92
:101BB9007BFF1227668E3F8F40AF2F7E007BFF226F
:101BC9007BFF1227668E3F8F40AF2F7E007BFF225F
:101BD9007BFF1227668E3F8F40AF2F7E007BFF224F
:0A2EAA00E4FBFA7D037F0202250F0E
:022D62008F36AA
:102D6400122EE0E4FEEEC39F501275F002EE9000C6
:0E2D7400DF1208FAE0653660030E80E9AF0654
:012D8200222E
:06245B008B2F8A3089314D
:1024610012061BF532900001120634F5339000027A
:10247100120634753500F534900003120634253503
:10248100F535E43534F534AF32122D6275F002EFD3
:102491009000E01208FAE0653360037F0022AB2F61
:1024A100E5312404F9E43530FA85343A85353BAF1A
:0424B10032121EF0D5
:0124B5002204
:041A29008E278F284D
:101A2D0074052FF58274003EF583E0FF1209161A36
:101A3D005B001A5E011A61021A64031A75041A7AA0
:101A4D00051A81061B13081B162B00001B1D022CEB
:101A5D00FE021B1E022EAA122CDB900070F0E4FB7E
:101A6D00FA7D037F0302250F900021800390000073
:101A7D007401F02274062528F58274003527F5834C
:101A8D00E0FE74072528F58274003527F583E0FD07
:101A9D00EEF52DEDF52EE4F52BF52CC3E52C952E5D
:101AAD00E52B952D506AE528252CFDE527352BFCDA
:101ABD00740A2DF58274003CF583E0752A00F52932
:101ACD00740B2DF58274003CF583E0252AF52AE48C
:101ADD003529F52974082528F974003527FA7B0175
:101AED00E9252CF9EA352BFA12245BBF01031220EC
:101AFD0052E52A2404FFE43529FEEF252CF52CEEC2
:101B0D00352BF52B8095021CAE122CDBFF122E6BA4
:011B1D0022A5
:102DC000E55D855E83855F82655A700AE55C658294
:0E2DD0007004E55B658360037F01227F0022B3
:10282C00AB5DAA5EA95FE55A855B83855C82655DBD
:10283C00700AE55F65827004E55E65836021C39074
:10284C000039E55F9582E55E9583400D7A0079222B
:0F285C00755D01755E00755F22785D122CF4FFCB
:01286B00224A
:10002600020268E86480F8E933E83360110460F09E
:10003600ED33EC337009E8FCE9FDEAFEEBFF220440
:1000460060DED3EB9FEA9EE99DE8C2E78CF0C2F73B
:1000560095F0400CE8CCF8E9CDF9EACEFAEBCFFB07
:1000660012023385D0F05804700320D5B3E804702B
:10007600075002B2D502027292D5EC0460F7E4CCC6
:10008600C0E0C398F8603B94186008400DD0E0FBD0
:1000960002024AE4FBFAC9FC8028E830E406E4C917
:1000A600FBE4CAFCE830E305E4C9CACBFCE8540724
:1000B6006010F8C3E913F9EA13FAEB13FBEC13FC2F
:1000C600D8F130F52FC3E49CFCEF9BFFEE9AFEEDD2
:1000D60099FDD0E0FBEF4E4D4C701222DB0302027D
:1000E6006FEC2CFCEF33FFEE33FEED33FDED30E726
:1000F600EB02024AEF2BFFEE3AFEED39FDD0E0FBB4
:1001060050130BBB0003020272ED13FDEE13FEEF5C
:0801160013FFEC13FC02024A86
:10011E00020272EC5D046005E85904700302026885
:10012E00120233580460F6EC4860F2EC7004FDFEE7
:10013E00FF22C860DB2481C85009C39860025006B4
:10014E0002026F9850CAF582E9294B4A7005AB82BC
:10015E0002025E75F0007C1A7880C3EF9BEE9AED7A
:10016E0099400DC3EF9BFFEE9AFEED99FDE842F02C
:10017E00DC23ACF0D0E0FFD0E0FED0E0FDAB82207F
:10018E00E7101BEB60BAEC2CFCEF33FFEE33FEED09
:10019E0033FD02024AE803F830E705C0F075F000BF
:1001AE00EF2FFFEE33FEED33FD40B830E7C280AAED
:1001BE0075F020800E75F010800575F0087D007EBC
:1001CE00007F003392D530D50312084AEC3340102D
:1001DE00EF33FFEE33FEED33FDEC33FCD5F0ED22C5
:0E01EE00E5F0247EA2D513CC92E7CDCEFF2201
:1001FC00EDD2E7CD33EC3392D524814006E4FFFEFB
:10020C00FDFC22FCE4CFCECDCC24E0501174FF8059
:10021C00EDC3CC13CCCD13CDCE13CECF13CF0470F6
:07022C00F030D5DE02084AA4
:100E4300E53E242AF8E6053E227827300702782A71
:100E5300E475F00112090602061B2000EB7F2ED277
:100E6300008018EF540F2490D43440D4FF30040B87
:100E7300EF24BFB41A0050032461FFE53F6002155D
:100E83003F0542E5427002054130070D7827E475BE
:100E9300F001120906EF020661022C437403D20724
:100EA3008003E4C207F53E8B278A288929E4F53FAE
:100EB300F541F542E53F60077F20120E7E80F57510
:100EC30040FFC201C200C202C203C205C206C20879
:100ED300120E4CFF700D3007057F00120E8FAF42CC
:100EE300AE4122B4255FC2D5C204120E4CFF24D0FA
:100EF300B40A00501A75F00A783F30D50508B6FFDA
:100F03000106C6A426F620D5047002D20380D92494
:100F1300CFB41A00EF5004C2E5D20402117CD2010F
:100F230080C6D20080C0D20280BCD2D580BAD2059E
:100F330080B47F20120E7E2002077401B53F00406B
:100F4300F1120E43FF120E7E020EB7D208D20680B4
:100F530095120E43FB120E43FA120E43F94A4B70DD
:100F63000679737A127BFF20022EE53F602A7E000A
:100F73008E8275830012063460060EEE654070F0B3
:100F8300C2D5EBC0E0EAC0E0E9C0E0EE1211DCD06C
:100F9300E0F9D0E0FAD0E0FB12061BFF60AAEBC039
:100FA300E0EAC0E0E9C0E0120E7ED0E02401F9D00F
:100FB300E03400FAD0E0FBE5400460DCD540D980A2
:100FC30087D20280A21211BF60F7E54070010412BC
:100FD300027DA940600DE540600914F540121266D8
:100FE300EF60F3EA30E702F404C3995077EAF4259B
:100FF300400430E701E404F540800D1211BF60C1E5
:10100300EA0540254012027DEA783DF630E701E427
:10101300254004D54004200501141211DCE4C0E08E
:10102300121266783DE6601320E70714F6120E6687
:10103300802204F6D0E014C0E07F00120E66E54083
:101043006007120E5D1540800B300503120E5DD054
:10105300E0020EB7D0E00480C51211BF60A0E540E6
:101063000412027D783DEAF6E540200502600104A2
:0510730024041211DC51
:1010780074FF04C0E0121266120E66E540200502F5
:101088006003120E5DD0E0B540E87F45120E70781F
:101098003DE67F2B30E7047F2DF404C0E0120E7E7E
:1010A800D0E075F00A84C0F0120E67D0E0120E6727
:1010B800020EB7791080027908C206C2088008D2E9
:1010C800D5790A8004790AC2D5E540047002F54052
:1010D800E4FAFDFEFF120E43FC7B08200113120EFA
:1010E80043FD7B1030000A120E43FE120E43FF7BB5
:1010F80020EC3382D592D55013C3E43000069FFF0D
:10110800E49EFEE42001039DFDE49CFCE4CBF8C2D0
:1011180001EC700CCFCECDCCE824F8F870F3801732
:10112800C3EF33FFEE33FEED33FDEC33FCEB33FB63
:10113800994002FB0FD8E9EB300105F8D0E0C4482C
:10114800B201C0E00AEC4D4E4F78207B0070C2EA35
:10115800B5400040BCC0E01211DED0F0D0E0200164
:1011680004C4C0E0C4B201C0F0120E67D0F0D5F0DC
:10117800EB020EB71209160F545310BB580F254C2B
:101188000F214210BF4F10C74410C7490F3A4310F0
:10119800CD550FFE46105C450FC8471293500F29D6
:1011A8002D0F2D2E0F502B0F31230F4E20127C2A7E
:1011B8000EE94800000F48E540B4FF0375400612E9
:1011C8000E43FC120E43FD120E43FE120E43FF782F
:1011D800360202AC790AA2D5200314300509B910E9
:1011E800020404B9080104A2D52006025001042013
:1011F80002689202B53F005034C0E07F20300319E6
:101208007F30A20272067205500F121235C202C256
:1012180006C205C2087F30800F300503E9C0E0121E
:101228000E7E300503D0E0F9D0E0B53FCC3005178D
:101238007F30B9100C120E7E7F583004077F7880FB
:1012480003B90803120E7E3002057F2D020E7E7F41
:10125800202008F87F2B2006F322920280CF7F00FF
:10126800B4070050052436F8E6FF22286E756C6C2A
:101278002900D201120E433001F8C201783F30D55F
:101288000108F6020EE92D50434958120E43240373
:10129800B405004001E490128E93120E6F743A1256
:0A12A8000E6FD203753F040210BB65
:10023300E9D2E7C933E833F892D5EDD2E7CD33EC11
:0702430033FC5002B2D5228A
:10024A00EC30E7100FBF000C0EBE00080DBD000415
:10025A000BEB6014A2D5EB13FCED92E7FD2274FFC1
:10026A00FCFDFEFF22E480F8A2D574FF13FC7D801A
:03027A00E480EF2E
:10027D00F920E72824F950037907E4F42402FB1848
:10028D00DBFDE624FB5014E9600DE4F618E604F6F8
:0F029D00B40A08E4F6D9F57401F60A22C2D52294
:1002AC00ED33EC3392D5FA602AB4FF33EDC2E77B21
:1002BC00FF60067A0279D1E4227A0279DA20D50439
:1002CC007A0279D5224E614E002B494E46002D49BB
:1002DC004E4600E47A08F608DAFC7B00740722E844
:1002EC00C0E0ECC0E0EDC0E0EEC0E0EFC0E0EA75CD
:1002FC00F010A4CAABF075F04DA42BFBE435F0FC68
:10030C00EA2410FAEB34C5FBEC34D9FCEDC2E7FF60
:10031C0075F056A4F42411C5F0F434C58FF0A42A5A
:10032C00E5F03BE43CF620E7141204E5D0E0FFD006
:10033C00E0FED0E0FDD0E0FC1201218014F40412A8
:10034C0004E5D0E0FFD0E0FED0E0FDD0E0FC1203ED
:10035C00AFD0E0F8E6FAEDD2E7CD33EC332482FBF4
:10036C00E4C3CF33CFCE33CECD33CD33DBF37B07EA
:10037C0075F00A846004F6081B0AE5F0F6088FF0A5
:10038C00740AA4FFACF08EF0740AA42CFEACF050EE
:10039C00010C8DF0740AA42CFDE435F0F608DBDEBC
:0303AC00740722B1
:1003AF00EC4D6011E8497017ED33EC3304600DE448
:1003BF00FCFFFEFD22E933E8330470F802026812F5
:1003CF00023358046009E4CC2481500628500902F6
:1003DF00027228400302026FC0E0EB4A7044B980FA
:1003EF0006D0E0FB02025EEF4E701CBD8008EBFFF3
:1003FF00EAFEE9FD80EBE98DF0A4FEE5F00204983A
:10040F00E9CDF9EAFEEBFFEF89F0A4FCE5F0CE8928
:10041F00F0A42EFFE435F0CD89F0A42DFEE435F0E5
:10042F008067EF4E7005BD80D780C3EF8BF0A4AC13
:10043F00F0EE8BF0A42CFCE435F0F8EF8AF0A42C4E
:10044F00E5F038FCE433CB8DF0A42CFCE5F03BF861
:10045F00EE8AF0A42CFCE5F038F8E433CF89F0A451
:10046F002CFCE5F038CF3400CE89F0A42FFFE5F057
:10047F003EFEE433C98DF0A42EFEE5F039CD8AF0AF
:10048F00A42FFFE5F03EFEE43DFD33D0E0FB500727
:10049F000BBB000F020272EC2CFCEF33FFEE33FEAE
:0604AF00ED33FD02024ADC
:1004B5003F8000004120000042C80000447A00004F
:1004C500461C400047C35000497424004B189680D1
:1004D5004CBEBC205A0E1BCA6753C21C749DC5AEC8
:1004E500FB60065407601C2323120513EB54386088
:1004F500091204FF12050E1203AFECF8EDF9EEFA3E
:10050500EFCB22EB12050E80F1543803241C900426
:10051500B5FE93FC0EEE93FD0EEE930ECE93FF22E9
:102100000212B2E493A3F8E493A34003F68001F231
:1021100008DFF48029E493A3F85407240CC8C333E0
:10212000C4540F4420C8834004F456800146F6DFAF
:10213000E4800B01020408102040809018FFE47E28
:10214000019360BCA3FF543F30E509541FFEE493A4
:10215000A360010ECF54C025E060A840B8E493A36B
:10216000FAE493A3F8E493A3C8C582C8CAC583CA96
:10217000F0A3C8C582C8CAC583CADFE9DEE780BE4E
:011A280000BD
:10052500E709F608DFFA8046E709F208DFFA803EB8
:1005350088828C83E709F0A3DFFA8032E309F608A5
:10054500DFFA8078E309F208DFFA807088828C830D
:10055500E309F0A3DFFA806489828A83E0A3F608C1
:10056500DFFA805889828A83E0A3F208DFFA804C9B
:1005750080D280FA80C680D4806980F28033801072
:1005850080A680EA809A80A880DA80E280CA8033DB
:1005950089828A83ECFAE493A3C8C582C8CCC58353
:1005A500CCF0A3C8C582C8CCC583CCDFE9DEE78023
:1005B5000D89828A83E493A3F608DFF9ECFAA9F0A2
:1005C500EDFB2289828A83ECFAE0A3C8C582C8CCF8
:1005D500C583CCF0A3C8C582C8CCC583CCDFEADE11
:1005E500E880DB89828A83E493A3F208DFF980CC73
:1005F50088F0EF60010E4E60C388F0ED2402B4046C
:100605000050B9F582EB2402B4040050AF23234512
:06061500822390057573BD
:10061B00BB010689828A83E0225002E722BBFE02DD
:09062B00E32289828A83E4932210
:10063400BB010CE58229F582E5833AF583E022507B
:1006440006E92582F8E622BBFE06E92582F8E222C5
:0D065400E58229F582E5833AF583E49322DF
:10066100BB010689828A83F0225002F722BBFE0178
:02067100F32272
:10067300F8BB010DE58229F582E5833AF583E8F0BD
:10068300225006E92582C8F622BBFE05E92582C869
:02069300F22251
:10069500EF8DF0A4A8F0CF8CF0A428CE8DF0A42E79
:0206A500FE2233
:1006A700BC000BBE0029EF8DF084FFADF022E4CC37
:1006B700F875F008EF2FFFEE33FEEC33FCEE9DEC00
:1006C700984005FCEE9DFE0FD5F0E9E4CEFD22ED46
:1006D700F8F5F0EE8420D21CFEADF075F008EF2F90
:1006E700FFED33FD4007985006D5F0F222C398FD81
:0506F7000FD5F0EA221E
:1006FC00C5F0F8A3E028F0C5F0F8E5821582700289
:06070C001583E038F02225
:0D071200EF2BFFEE3AFEED39FDEC38FC2236
:0E071F00C3EF9BFFEE9AFEED99FDEC98FC22D5
:10072D00E88FF0A4CC8BF0A42CFCE98EF0A42CFC6B
:10073D008AF0EDA42CFCEA8EF0A4CDA8F08BF0A4E9
:10074D002DCC3825F0FDE98FF0A42CCD35F0FCEB48
:10075D008EF0A4FEA9F0EB8FF0A4CFC5F02ECD390D
:0F076D00FEE43CFCEAA42DCE35F0FDE43CFC227A
:10077C0075F008758200EF2FFFEE33FECD33CDCC34
:10078C0033CCC58233C5829BED9AEC99E5829840B7
:10079C000CF582EE9BFEED9AFDEC99FC0FD5F0D694
:1007AC00E4CEFBE4CDFAE4CCF9A88222B800C1B9BE
:1007BC000059BA002DEC8BF084CFCECDFCE5F0CBFC
:1007CC00F97818EF2FFFEE33FEED33FDEC33FCEB35
:1007DC0033FB10D703994004EB99FB0FD8E5E4F9F0
:1007EC00FA227818EF2FFFEE33FEED33FDEC33FCDD
:1007FC00C933C910D7059BE99A4007EC9BFCE99AD1
:10080C00F90FD8E0E4C9FAE4CCFB2275F010EF2F15
:10081C00FFEE33FEED33FDCC33CCC833C810D70715
:10082C009BEC9AE899400AED9BFDEC9AFCE899F850
:0E083C000FD5F0DAE4CDFBE4CCFAE4C8F922E3
:0E084A00C3E49FFFE49EFEE49DFDE49CFC22BF
:10085800EB9FF5F0EA9E42F0E99D42F0EC6480C817
:0608680064809845F022B7
:10086E00EB9FF5F0EA9E42F0E99D42F0E89C45F0E0
:01087E002257
:10087F00E8600FECC313FCED13FDEE13FEEF13FF57
:03088F00D8F1227B
:10089200E8600FEFC333FFEE33FEED33FDEC33FCC4
:0308A200D8F12268
:0C08A500E0FCA3E0FDA3E0FEA3E0FF22C6
:0C08B100E0F8A3E0F9A3E0FAA3E0FB22CA
:0C08BD00ECF0A3EDF0A3EEF0A3EFF022AE
:1008C900A8828583F0D083D0821208E01208E01252
:1008D90008E01208E0E473E493A3C583C5F0C58377
:1008E900C8C582C8F0A3C583C5F0C583C8C582C879
:0108F90022DC
:0C08FA00A42582F582E5F03583F5832209
:10090600FAE6FB0808E6F925F0F618E6CA3AF622F2
:10091600D083D082F8E4937012740193700DA3A370
:1009260093F8740193F5828883E473740293686084
:06093600EFA3A3A380DF84
:102C4300EFB40A07740D122C4E740A309811A89928
:102C5300B8130CC2983098FDA899C298B811F630F1
:072C630099FDC299F59922C9
:00000001FF
