:03000000021E924B
:0C1E9200787FE4F6D8FD758198021ED917
:1016AB00041A00000000410077004100A80C410023
:1016BB00A9404400A0000000004400860000000088
:1016CB0044008A000000004400BD000000004400FC
:1016DB00AD000000004400C4000000004200940074
:1016EB0001420084000041007B0041009D0042004C
:1016FB00C9000042007C0000410075084100AB00AE
:10170B004100CB00011E00011F004100C20041003F
:10171B00830041008E014100970A4100AC0041005B
:10172B00AA0A41009C0041009E0042007900004142
:10173B0000760002970000029500004100820041F4
:10174B0000C10041009F0010850000000000000058
:10175B000000000000000000000181000182000178
:10176B0084000183000180004A00B30000000000E8
:09177B00000000000041007800AC
:10158500EF24A0FFEE340FFEE43DFDE43CFC120821
:1015950074D3020831E49000ABF09000A97440F0D8
:1015A50090009D7402F09000757406F0E490007749
:1015B500F09000BD229000861208689000A01208E5
:1015C500741206D59000861208809000860208687D
:1015D5009000A0120874C3020831E4FCFD1206D580
:1015E5009000C40208809000A4120868EF2470FFE0
:1015F500EE3417FEE43DFDE43CFC90008622122B00
:101605006DE47BE87A03F9F890007E0208689000A3
:10161500A9E0FF900077E0C39F22D3900095E09466
:1016250000900094E094002212086890008A120845
:10163500740206D590007E0208809000A00208681A
:10164500E475F0010206BFD39000CAE09400900053
:10165500C9E0940022900097E09000AAF0227F0A4A
:10166500122546900098EFF09000C322F09000AD4F
:101675000208689000C4020874D39DEC6480F87475
:10168500809822E47B02FAF9F802077B9000860233
:1016950008747E2F122A5E7F107E27227C2F122946
:0616A500C47F647E0022F8
:1028E1008E238F248B258A268927AF051DEF602132
:1028F1000524E524AE237002052314F5828E83E4BA
:1029010093FF7825E475F0011208C9EF120679806A
:02291100D922C9
:102BC400E4FDFCC3ED9FEC9E50070DBD00010C809D
:012BD400F20E
:012BD50022DD
:10299C008F828E83E4F51DF51CF51BF51AAF82AE04
:1029AC0083E4FCFDAB1DAA1CA91BA81AC312083199
:0829BC00500543BD1080E62226
:092B6400E0FF7C2F1229C47F64FC
:102B6D00E4FDFCC3ED9FEC9E50070DBD00010C80F4
:012B7D00F265
:012B7E002234
:10000300758E5190FE917401F0A37410F075BD5F6D
:0700130090FEA07420F02212
:102B0C00E490FE80F0758901758DFA758BCB43A826
:0E2B1C0008438840758CCB758AEB43881022E5
:1029130090FF10E054F04408F090FF02E054F044BC
:1029230002F0D28490FFA07420F0A37404F075CC5D
:102933000675CEFF75CD98759E0275981043A81045
:012943002271
:102B7F0043B40343B4807F147E00122BC475B50198
:072B8F0090FE9B744BF02245
:102B480090FF08E054F04408F090FF00E0540F4470
:0C2B580030F090FF11E054F04403F02234
:0B2BF1008F99E59830E1FB5398FD221E
:102546008FB543B440E5B430E5FB53B4DF7F647E1A
:1025560000122BC4E4FBFAF943B440E5B430E5FBC2
:1025660053B4DFE5B62BFBE5B73AFA7F147E0012CB
:102576002BC409B910E275B501A9027F647E001269
:042586002BC4AF01B2
:01258A00222E
:1017C1007B017A0079B37D0A7F007E2F1228E19098
:1017D10000B3E0FFE4FCFDFE12163912160D780885
:1017E10012085512163990007E1208749000B4E068
:1017F100FFE4FCFDFE1206D512163912160DE47B2C
:10180100E87A03F9F81206F0121639E47F307E7592
:10181100FDFC90007E1215D840107F007E097D3DB1
:101821007C0090007E121593400A90007E12088C75
:1018310000009C409000B5E09000C8F07002800765
:101841009000C8E0B4FE0374FFF09000B6E0FF9092
:101851000099E4F0A3EFF0E0F8E4F0E8900099F0EB
:101861009000B7E0FF900099E48FF01206BF90005E
:1018710099E0FEA3E0FF4E6009D3EF9408EE9407D0
:101881004009900099E4F0A37405F09000B8E0904D
:101891000097F090009EF09000B9E090008FF0600A
:1018A10006E0D394FF400690008F7401F09000BAD7
:1018B100E0540190008EF07B017A0079787D017F00
:0F18C100807E2F1228E1900078E090009CF022AA
:1008FF00E51E6003020DCA43B440E5B430E5FB5377
:10090F00B4DF85B72385B6249000841216451216DE
:10091F0078AE23AF241215DF9000B1E0FEA3E0FF05
:10092F00C39524EE9523500DC3E5249FF524E523AD
:10093F009EF523800BC3EF9524F524EE9523F52325
:10094F0090008A120874AE23AF24E4FCFD1206D582
:10095F0090008A120880900084E05401FEA3E04EBC
:10096F00705212164C40179000AAE09464503DE06C
:10097F002402F0E0D3946440337464F0802E90002E
:10098F007CE07004A3E06401702A900097E0FF9070
:10099F0000AAE0FED39F4014EE94024004E024FE30
:1009AF00F09000AAE0C39F500312165A9000AAE0DD
:1009BF00FF12233CC3900084E094205003020DF9F2
:1009CF0043BD10E4F0A3F09000ABE0041216719059
:1009DF0000C41216339000AD1208809000ABE0C334
:1009EF0094084030E412167178101208429000AD4E
:1009FF001208801216729000B1EE8FF01206BF909F
:100A0F0000B1E0C313F0A3E013F09000AD12088C17
:100A1F0000000000900075E0C394085005E004F05A
:100A2F0080409000C9E07002A3E07036121663E0B8
:100A3F00FE2402FDE433FCEF12167E50189000984E
:100A4F00E02402FDE433FCEE12167E50089000C342
:100A5F00E0900098F0900098E09000C3F0E49000D0
:100A6F0075F0E4FFFEFDFC9000861215D8703690ED
:100A7F00008A120868EF2488FFEE34131215F8125B
:100A8F000880900094E07002A3E070197F407E42CE
:100A9F007D0FFC900086121593400A900086120875
:100AAF008C000F4240900077E0701690008A120879
:100ABF00689000A012088090009012088C0000002F
:100ACF000190009012162D1215D54003020C849040
:100ADF0000901208689000A012163390008A121529
:100AEF00D84003020C84900077E004F09000BD1210
:100AFF00162D9000BD120880900077E0FFFBE4FAFE
:100B0F00F9F89000BD12086812077B9000A0120838
:100B1F008012163F7803120842900090120880E46A
:100B2F007F207E4EFDFC9000901215D8500A900049
:100B3F009012088C00004E20E47F607EEAFDFC904E
:100B4F000090121593400A90009012088C0000EA52
:100B5F006012163F900086121593403E9000A0122F
:100B6F0008741215CF1206E21215E57F807E387DCC
:100B7F00017C009000C412159340089000A87406E1
:100B8F00F0801DE47F407E9CFDFC9000C412159305
:100B9F009000A840087409F080069000A8740CF02B
:100BAF009000A8121616403B1215CF1215D55033D0
:100BBF009000A9E094105003020C939000A8E0D38A
:100BCF009409500512163F801112163F900086129D
:100BDF001585400C1215BA121688900086120880DF
:100BEF00020C841216135003020C931215CF9000AF
:100BFF00A0121585407712169112163F1206E212B7
:100C0F0015E57F007E127D7A7C001215D5505E7F30
:100C1F00807E1A7D067C009000C41215D8504E902D
:100C2F0000A9E09410400280387FE07E937D047C21
:100C3F00009000C412159340089000A97410F08022
:100C4F001B7FF07E497D027C009000C412159390AB
:100C5F0000A94005740CF080037408F012161340BD
:100C6F000C1215BA121688900086120880121613ED
:100C7F004012E48004E4900077F09000BD12088CDD
:100C8F000000000090009DE0D394004036E014F087
:100C9F001215EB1215935003020D869000A4120843
:100CAF0068EF2498FFEE343AFEE43DFDE43CFC90FF
:100CBF00008A1215D84003020D861215EB12088018
:100CCF00020D8612161F405774FFF5F01206BF1261
:100CDF00161F404B7F007E127D7A7C00900086129B
:100CEF001593400C90007E12088C000C3500802F5D
:100CFF0012160D1216911215E27F407E547D897CDB
:100D0F00009000C41215934016121691C374409BA5
:100D1F00FF74549AFE748999FDE498FC12163912E7
:100D2F00160D90008612163390008A1215934047C5
:100D3F009000C8E0FF900098E0D39F400512161F67
:100D4F0040359000C9E07002A3E070091215CF90F2
:100D5F0000A41208809000C9E4F0A304F07883F691
:100D6F009000A97408F0E490007CF0A3F07897F657
:100D7F0008F67895F608F69000C412088C0000006B
:100D8F000090008A12088C000000009000C9E0FE5D
:100D9F00A3E0FFD39400EE9400404F900099E0FC45
:100DAF00A3E0FDD3EF9DEE9C4040E49000C9F0A37B
:100DBF00F0751E017883F67880F62290007CE4F0BF
:100DCF00A304F0E4F51E900079F0A3F0900076F004
:100DDF007FFAFE12299C9000AD12088C00000000D3
:0A0DEF0012159A12088C0000000093
:010DF90022D7
:10217A00E4F5249000C412088C00000000E4F52362
:10218A0043B440E5B430E5FB53B4DF121678AFB67A
:10219A00AEB71215DF0523E523B480E47F907E01F4
:1021AA0012299C9000C4120868780B1208428F23E7
:1021BA00E523D3940C400CE523948D5006E5249432
:0D21CA0014500A0524E524D3945040A722A8
:0121D70022E5
:1021D8009000C412088C00000000E4F523E4F52602
:1021E800F52743B440E5B430E5FB53B4DF85B724A5
:1021F80085B625121678AE24AF251215DF0527E51A
:102208002770020526B400DAE526B420D543BD10B0
:102218000523E523B408C69000C412086878101294
:0A22280008429000B1EEF0A3EFF0C1
:012232002289
:10233C00BF0104E4FE80397E007C007DFF1206ADF7
:10234C00AC06AD07E41201DBE4FBFA79C878421263
:10235C0001398F288E278D268C25E4FFFEFD7C3FCE
:10236C00AB28AA27A926A825120045120214AE07ED
:10237C0090FF9C7410F075DEFF8EDF75DD947F008E
:01238C00222E
:1013F900120026120003122B487F6412233C122B81
:101409000C122913122B7F75BBAA90FEA774FFF04B
:1014190053BBF7D2AF7FC87E0012299C7F64122389
:101429003C9000C27401F0121663F0C2AF1217C1EA
:1014390090009CE004F07F807E2F122A5E7F107E50
:1014490027122B6D90009CE0FF7D807C2F1229C410
:101459007F647E00122B6DD2AF12217A900097E043
:10146900FF9000AAF012233C7F2C7E0112299C12C6
:1014790021D89000C412088C0000000090009CE064
:10148900C394034005E4F0122A8343BD10E51E709E
:101499000B900085E0541F700312126990008EE0D2
:1014A90064016003021550E51F701CF51E751F01CC
:1014B90012165A9000AD12088C0000000012159AFD
:1014C90012088C000000001208FFD390007DE09400
:1014D9000090007CE09400402A900076E0B401235B
:1014E900E4F090007C12164690008FE0FFC3900054
:1014F9007DE09F90007CE094004008E4F0A3F0FFB9
:1015090012233C12164C400F7896E6640118467077
:1015190006F608F61216467884E66401600302149A
:101529008518E6FF7880667003021485A607900087
:10153900C9E4F0A304F0E4F522E522C394084003CA
:10154900021485052280F2E4F51F900083E07007FC
:10155900FF12233C02148590009EE0FF12233CE415
:10156900F51E12165A9000AD12088C0000000012E8
:0C157900159A12088C0000000002148576
:03001B00021CCCF8
:101CCC00C0E0C0F0C083C082C0D075D000C000C0DE
:101CDC0001C002C003C004C005C006C007AF1DAEE2
:101CEC001CAD1BAC1AEF2401FFE43EFEE43DFDE409
:101CFC003C8F1D8E1C8D1BF51A9000791216459089
:101D0C000079E0FEA3E0FFE4FCFD7B607AEAF9F8E1
:101D1C00D312081B500C900079E4F0A3F0900076DD
:101D2C0004F0789806E618700106C37898E694E8F3
:101D3C0018E694034012788176017897760008763D
:101D4C000078957600087601D007D006D005D0042F
:101D5C00D003D002D001D000D0D0D082D083D0F02C
:031D6C00D0E03292
:030023000224FFB5
:1024FF00C0E0C0F0C083C082C0D075D000C000C0A3
:0D250F0001C002C003C004C005C006C00723
:0F251C00E59830E00AAF9912228E5398FED2AFA5
:10252B00D007D006D005D004D003D002D001D00004
:0B253B00D0D0D082D083D0F0D0E032AE
:03003B0002001AA6
:01001A0032B3
:102A5E0053BBF7C280E5BB20E3F6D280C2AF75FD53
:102A6E00F075FC0F8EFA8FF975FDD275FC2D75FD84
:052A7E00E175FC1E22C1
:1029C40053BBF7C280E5BB20E3F6D280C2AF8FFBD6
:1029D40075FDF075FC0F8CFA8DF975FDB475FC4B23
:0729E40075FDE175FC1E22E8
:10210D007F0012169712160312077B7808120842E9
:10211D007D001216A112160312077B7D011216A166
:10212D00122B6D9000C87D02122B649000997D03D7
:10213D00122B64A3E0FF7D04122B66900097E0FF45
:10214D007D05122B6690008FE0FF7D06122B6690A9
:10215D00008EE0FF7D07122B667F80121697122BE3
:0C216D006D7D807C2FE4FF1229C4D2AFEE
:012179002243
:102A1200637263206572726F7220286372633A3048
:102A2200782558202062757420646174613A307888
:062A32002558290D0A00E1
:04178400027E0000E1
:101C220012064CFFE5474FFFE546FEE545FDE5445C
:101C32008F478E468D45F544FC78081208558F472C
:101C42008E468D4522AF46AE45AD44AC43120842A6
:101C5200AD0722AD07E4FBFA900001E022740225F1
:101C620024F974003523FA7B01E52624FFFDE525DE
:101C720034FFFC22E475F0010208C9AA06AB077D15
:101C8200037F0722AF7DAE7CAD7BAC7A020842FEB9
:101C9200E555FDE554FCE47BFF22E4F541F540F512
:101CA2003FF53E2212064CAB4AAA4BA94C22AB6826
:101CB200AA69A96A020633AB6BAA6CA96D02063344
:0A1CC200756201756300756422224B
:10209C00EFC39430400CEFD39439500674D02FFF1B
:1020AC008022EFC39441400CEFD394465006EF24AA
:1020BC00C9FF8010EFC39461400AEFD394665004BB
:1020CC00EF24A9FFEF540FC454F0FFEDC39430403C
:1020DC000CEDD39439500674D02DFD801EEDC394B5
:1020EC00414008EDD394465002800CEDC3946140FE
:1020FC000AEDD394665004ED24A9FDED540F42076C
:01210C0022B0
:062613008B3B8A3C893D6F
:10261900121C9CE94A4B7005FFFEFDFC22121C9C12
:10262900783B121C76120633601AE5412401FFE457
:102639003540FEE4353FFDE4353E8F418E408D3F08
:0C264900F53E80DCAF41AE40AD3FAC3E42
:012655002262
:06287A008B088A09890A9F
:102880008B0E8A0F8910E94A4B7004FBFAF922E596
:102890000D150DAE0C7002150C4E600B780E121C4F
:0D28A00076ED12067980E8AB08AA09A90AB6
:0128AD002208
:061A9A008B428A438944DF
:101AA0008B4A8A4B894C85454D85464E85474FE983
:101AB0004A4B6008E5474546454570077B007A007C
:101AC000790022D3854E83854F82E54C9582E54B84
:101AD00095834019E54F2549F9E54E3548FA8A8343
:101AE0008982D3E54C9582E54B95834032E4F550ED
:101AF000F551C3E5519549E5509548505BAB4DAA6A
:101B00004EA94F855182855083121CA6855182852E
:101B1000508312068B0551E55170D7055080D3854F
:101B20004850854951D3E5519400E5509400402830
:101B3000AB4DAA4EA94FE55124FFFFE55034FFFEFF
:101B40008F82F583121CA68F828E8312068BE5513D
:0E1B5000155170D1155080CDAB42AA43A94467
:011B5E002264
:062795008B118A1289136A
:10279B008B178A188919AB14AA15A9161206336060
:1027AB00147814121C76120633FF7811121C76EF74
:1027BB0012067980E1AB11AA12A913E4120679ABC8
:0527CB0017AA18A9196E
:0127D00022E6
:10258B008B688A69896A121CB0FF6020121CB960C3
:10259B001BB507187401256AF56AE43569F569748A
:1025AB0001256DF56DE4356CF56C80DA121CB9FF05
:1025BB003395E0FE121CB0FD3395E0FCC3ED9FFF9D
:0425CB00EC9EFE2262
:1028AE008F7D8E7C8D7B8C7A7818120842EF120603
:1028BE00797810121C86900001EF12068B780812A0
:1028CE001C86900002EF12068BE57DFF900003EF51
:0328DE0002068B64
:10238D00E4F547F546F545F544120633FFE48F476E
:10239D00F546F545F544AE46AD45AC44121C3B8CB7
:1023AD0044900001121C228C44900002121C228CBD
:1023BD004490000312064CFFE5474FFFE546FEE54E
:0A23CD0045FDE544121C40F544FCF8
:0123D70022E3
:0624B6008B6F8A70897132
:1024BC00121C55B401037F0122AF03AE02122BE4B0
:1024CC00AA06AB07E41224F6E5721224F6AD7312D9
:1024DC002BE4AB6FAA70A9718572408573411229E8
:0924EC0044121C7D1222E77F015D
:0A24F50022FD122BE4AA06AB072219
:0423D8008D3EAC0783
:1023DC00121C57B401037F0122AF03AE02AD0412ED
:1023EC002411E4FD122411E53E7003FD8006AF03B9
:1023FC00AE027D01122BE4AA06AB077D037F071208
:04240C0022E77F0143
:1024100022122BE4AA06AB077D01122BE4AA06AB1D
:02242000072291
:101F1E00121C55B401037F0122AF03AE02122BE453
:101F2E007D02121F91E4FD122BE47D04121F91C05D
:101F3E0006C0077818121C47D007D006121F9DC086
:101F4E0006C0077810121C47D007D006121F9DC07E
:101F5E0006C007AF46AE45AD44AC43780812084202
:101F6E00AD07D007D006122BE4AA06AB07C007E5D3
:101F7E0046FFE4AD07D007122BE4121C7D1222E7B8
:021F8E007F01D1
:101F900022AA06AB07122BE4AA06AB0722122BE4F7
:051FA000AA06AB0722B8
:062422008B758A768977B4
:10242800121C55B401037F0122AF03AE02122464CB
:102438007D03122464E578FD122BE4AA06AB07ADF0
:1024480079122BE4AB75AA76A9778578408579410E
:0B245800122944121C7D1222E77F01B4
:0924630022122BE4AA06AB0722A9
:042719008D3EAC073E
:10271D00121C57B401037F0122AF03AE02AD0412A8
:10272D002BE47D0412274CE4FD122BE47D011227CE
:0E273D004CAD3E122BE4121C7D1222E77F01F0
:0D274B0022AA06AB07122BE4AA06AB072258
:021B5F00AD07D0
:101B6100E4F558F559900001E0B401037F01221218
:101B71001C027D05121C1AE4FD121C1A74FFFFE5FC
:101B810056121C91FAF9F8C312083170097D01123D
:101B91001C02AD57803D74FFFF121C917AFFF9F8CA
:101BA100C312083170047D0280197D04121C0E7865
:101BB10018121BE9AF57AE56AD55AC547810120848
:101BC10042AD07121C0E7808121BE9E557FFE4AD80
:101BD10007AF59122BE48E588F59AB59AA587D0380
:071BE1007F071222E77F01DC
:101BE80022AF57AE56AD55AC54120842AD07AF59A7
:101BF800AE58122BE48E588F5922AF59AE58122B7B
:101C0800E48E588F5922AF59AE58122BE48E588F54
:0A1C18005922122BE48E588F592236
:082C10008C3E8D3F120633FFDC
:012C18002299
:082C19008C3E8D3F120633FFD3
:012C21002290
:072C22008C428D4312238D4B
:012C29002288
:10228E008F52C3E5679564FFE5669563FEEF6401C3
:10229E004E6045D3856683856782E5649582E563E6
:1022AE0095834015E5649567FFE5639566FEC3EF7C
:1022BE00941BEE64809480501FC390003DE564959E
:1022CE0082E563958340077A007922121CC27862F8
:0922DE00121C76E5521206792269
:10126900E4F523F524F525F526C3E57F941FE57EEE
:1012790094005024122B2AEFD39400401B1226D934
:10128900057FE57FAC7E7002057E142402F5827429
:10129900003CF583EFF080D1C3E57F9407E57E94A8
:1012A9000050030213F8C3E57F9524FDE57E9523DD
:1012B900FCC3ED9407EC940050030213C17402259A
:1012C90024F58274003523F583E06455600A05240A
:1012D900E52470D2052380CE74032524F582740099
:1012E9003523F583E064AA600A0524E52470B7056F
:1012F9002380B374042524F58274003523F583E033
:1013090060047402803C74062524F5827400352338
:10131900F583E0752600F52574072524F582740008
:101329003523F583E02407FFE433FEEF2526F52670
:10133900EE3525F525D3E5269426E5259400400AC2
:1013490074032524F524E40213BAC3ED9526EC951C
:10135900254065121C5F122A38E5242526FDE52360
:101369003525FC74012DF58274003CF583E06F602E
:1013790031121C5F122A388F2A7BFF7A2A7912E5EB
:10138900242526FFE5233525FE74012FF5827400F7
:101399003EF583E0F52B120E5C74032524F524E455
:1013A900800FAF24AE231218D0E5262524F524E5B5
:1013B900253523F5230212AFC3E57F9524F57FE593
:1013C9007E9523F57ED3E57F9400E57E9400401F4A
:1013D90074022524F974003523754501F5468947BA
:0F13E900857E48857F497B017A007902121A9A26
:0113F80022D2
:10002600121CC275650175660075672290007474AE
:03003600FFF022B6
:062C2A00900021E0FF22F2
:0E2BD600E4900021F0FBFA7D037F040222E769
:062C3000900000E0FF220D
:022B9600AD0789
:102B9800E4FF900000F0FE122BE4EFFB7A007D03C7
:052BA8007F050222E799
:062C3600900074E0FF2293
:0A2BFC00E4FBFA7D037F0E0222E7DE
:101788004100D0004400CC00000000015F00015C73
:1017980000015B00015A00015E00015D000160006C
:1017A8005200D114011602650466026701680269D5
:0517B800027101720145
:10280C00AB38AA39A93AAD3CAC3B22900097E0FF1B
:10281C00E48F46F545F544F54322900099E0FEA37C
:10282C00E0FFE48F468E45F544F5437F6622E0FFDA
:08283C00E4FCFDFEC3020831BB
:102A83007F55122BF17FAA122BF17F03122BF17FBB
:102A930004122BF1E4FF122BF1E4FF122BF17F065A
:032AA300022BF112
:032C3C00022BF177
:101E0400900000E0FD7F141223D8900083E0FD7F52
:101E1400711223D81228177F16121F1E9000C8E0D3
:101E2400FFB4FF05E4F530801EEFB4C80575300239
:101E34008015EFB42805753003800CEFB4140575D4
:101E440030048003753005AD307F651227191228E0
:101E540026121F1E90008EE0FD7F671223D890008B
:101E64008F12281A7F68121F1EE47B107A27F9F854
:101E740090007E12086812077BC374329F12281BDD
:0E1E84007F69121F1E7884E6FD7F720223D84C
:102BAD00122C10900000EFF0FD7F141223D8BF01FE
:062BBD00037F01227F00EE
:012BC30022EF
:1025CF00122C228F418E408D3F8C3E055B900097E1
:1025DF00AB41AA40A93FA83E12283A6008E4F55B38
:1025EF00FF0FBF08FCAF41900097EFF090009EF0F7
:1025FF0012210D1228177F16121F1EBF01037F0114
:03260F00227F0027
:0126120022A5
:101FA500122C19055A9000D0E0B50714BF051990F9
:101FB50000C8E0FE900098E06E600DE4F55A8008D8
:101FC500E4F55AFE0EBE08FCEF14601014601514FB
:101FD500601A14601F146024240570289000C874CA
:101FE500FFF080209000C874C8F080189000C87475
:101FF50028F080109000C87414F08008900098E0D4
:102005009000C8F09000D0EFF012210D9000D0E0C4
:0E201500FD7F65122719BF01037F01227F00A6
:01202300229A
:10246C00122C228F418E408D3F8C3E055E90009940
:10247C00E0FEA3E0FFE4FCFDAB41AA40A93FA83E6F
:10248C00C31208316008E4F55EFF0FBF08FC900032
:10249C0099E540F0A3E541F012210D122826121FF8
:0924AC001EBF01037F01227F0025
:0124B5002204
:10284400122C10055C90008EE06F6008E4F55CFECD
:102854000EBE08FCEF90008E7003F080037401F04C
:1028640012210D90008EE0FD7F671223D8BF010373
:052874007F01227F003E
:01287900223C
:10265600122C228F418E408D3F8C3E055D90008F5F
:10266600AB41AA40A93FA83E12283A6008E4F55DAE
:10267600FF0FBF08FC90008FE541F012210D90007E
:102686008F12281A7F68121F1EBF01037F01227F47
:012696000043
:012697002220
:10202400122C228F418E408D3F8C3E05609000CC57
:10203400120868AB41AA40A93FA83EC31208316008
:1020440008E4F560FF0FBF08FCAF41AE40AD3FAC04
:102054003E9000CC120880C374329541FFE4954051
:10206400FEE4953FFDE4953EFCE47B107A27F9F805
:102074001206F090007E12088012210D9000CC12FE
:1020840008688F468E458D448C437F69121F1EBF9E
:0720940001037F01227F0020
:01209B002222
:10269800122C10055F900083E06F6008E4F55FFE80
:1026A8000EBE08FCEF7006900083F0801190008E3B
:1026B800E0B40104788376019000837401F09000FF
:1026C80083E0FD7F711223D8BF01037F01227F00C1
:0126D80022DF
:10297300122C10AD077884E66D6006E4FF0FBF08E4
:10298300FCED78847003F6800276017F721223D8FF
:08299300BF01037F01227F0058
:01299B002219
:061D6F008B388A39893A25
:101D7500EF1208D91D98141DBA161DC2651DCA6635
:101D85001DD2671DDA681DE2691DEA711DF2720038
:101D9500001DFC12280C122BAD8F3DE53D64017032
:101DA5005B9000ACE004F0E0C39405404FE4F01212
:101DB5002A83021E0112280C1225CF803612280C08
:101DC500121FA5802E12280C12246C802612280CB6
:101DD500122844801E12280C122656801612280C32
:101DE500122024800E12280C122698800612280C28
:0E1DF5001229738F3D8000E49000ACF0AF3DEA
:011E030022BC
:032C3F007F0922E8
:05001E008F308D31223E
:1027D1007B2270223A22003762616A696A30797518
:1027E1006D6F6B796F667600222C2276223A220079
:1027F100312E302E3000222C226D223A0030007D05
:0B2801000000000000000000000000CC
:0317BD00016100C7
:102AA60074082528F58274003527F583E0227443DF
:102AB6002FF974003EFA7B0122E475F0011208C971
:032AC600020633D2
:0C2BE400122AB4ED1206790FBF00010E9A
:012BF00022C2
:0A2944008E3B8F3C8B3D8A3E893F9D
:10294E00122AB4853D45853E46853F4785404885DC
:10295E004149121A9AE541253CF53CE540353BF5D7
:04296E003BFEAF3C41
:012972002242
:0A2A38008B498A4A894B8C4C8D4D66
:102A4200E4FFFDFCC3ED954DEC954C500E78491218
:0B2A52002ABF2FFF0DBD00010C80E922
:012A5D002256
:102758008B498A4A894B8C4C8D4DE94A4B602DE553
:102768004D454C6027E54D154DAE4C7002154C4E4D
:10277800601AAB49AA4AA94B120633FF122C3C74C3
:0D27880001254BF54BE4354AF54A80D92276
:0422E7008A478B484F
:1022EB0090003D7455F0A374AAF0A3EDF0A3EFF0AA
:1022FB00E547A3F0E548A3F02407F548E43547F597
:10230B00477B017A00793DE54824FFFDE54734FF23
:10231B00FC122A38AE07743C2548F5827400354709
:10232B00F583EFF07B017A00793DAD48AC4702278E
:01233B005849
:102AC900E4FFE561700AFEFD122BE47561018007E0
:102AD9007E007D01122BE4EFFB7A007D03E4FF0207
:022AE90022E7E2
:1019CF00E4F53078317C00FD7BFF7A287902FE7FC9
:1019DF000A12060D7A2779D1121A6A7A2779D1124B
:1019EF0029448F307A2779D8121A6A7A2779D81230
:1019FF0029448F307A2779E9121A7A7A2779E912EE
:101A0F0029448F307A2779F1121A7A7A2779F112CD
:101A1F0029448F307A2779F7121A8A7A2779F712A1
:101A2F0029448F307A2779FE121A8A7A2779FE1283
:101A3F0029448F307BFF7A2879001226138E408F2E
:101A4F0041AF307E007BFF7A2879001229448F3016
:0B1A5F00EFFB7A007D037F010222E70D
:101A6A007BFF1226138E408F41AF307E007BFF2210
:101A7A007BFF1226138E408F41AF307E007BFF2200
:101A8A007BFF1226138E408F41AF307E007BFF22F0
:0A2C0600E4FBFA7D037F020222E7DF
:022AEB008F3723
:102AED00122C3FE4FEEEC39F501275F002EE9000E3
:0E2AFD00D11208BDE0653760030E80E9AF0618
:012B0B0022A7
:062233008B308A31893274
:10223900120633F53390000112064CF53490000272
:1022490012064C753600F53590000312064C2536FA
:10225900F536E43535F535AF33122AEB75F002EF73
:102269009000D21208BDE0653460037F0022AB30D4
:10227900E5322404F9E43531FA85353B85363CAF3E
:0422890033121D6F80
:01228D00222E
:0418D0008E278F28A8
:1018D40074052FF58274003EF583E0FF1208D919D0
:1018E4000200190501190802190B03191C04192116
:1018F4000519280619B60819B90E000019CE022ACE
:10190400C90219CF022C06122AA6900074F0E4FB37
:10191400FA7D037F030222E79000218003900000F8
:101924007401F02274062528F58274003527F583A6
:10193400E0FE74072528F58274003527F583E0FD61
:10194400EEF52EEDF52FE4F52CF52DC3E52D952FB1
:10195400E52C952E5074E528252DFDE527352CFC26
:10196400740A2DF58274003CF583E0752A00F5298C
:10197400740B2DF58274003CF583E0252AF52AE4E6
:101984003529F52974082528F974003527FA7B01CF
:10199400E9252DF9EA352CFA1222338F2BE52A2476
:1019A40004FFE43529FEEF252DF52DEE352CF52C1D
:1019B4008099021E04122AA6FF74092528F5827450
:0A19C400003527F583E0FD12001E38
:0119CE0022F6
:102B2A00E5658566838567826562700AE564658204
:0E2B3A007004E563658360037F01227F002243
:1026D900AB65AA66A967E5628563838564826565DA
:1026E900700AE56765827004E56665836021C390B9
:1026F900003DE5679582E5669583400D7A0079226C
:0F2709007565017566007567227865122ABFFF36
:01271800229E
:10003E00020280E86480F8E933E83360110460F06E
:10004E00ED33EC337009E8FCE9FDEAFEEBFF220428
:10005E0060DED3EB9FEA9EE99DE8C2E78CF0C2F723
:10006E0095F0400CE8CCF8E9CDF9EACEFAEBCFFBEF
:10007E0012024B85D0F05804700320D5B3E80470FB
:10008E00075002B2D502028A92D5EC0460F7E4CC96
:10009E00C0E0C398F8603B94186008400DD0E0FBB8
:1000AE00020262E4FBFAC9FC8028E830E406E4C9E7
:1000BE00FBE4CAFCE830E305E4C9CACBFCE854070C
:1000CE006010F8C3E913F9EA13FAEB13FBEC13FC17
:1000DE00D8F130F52FC3E49CFCEF9BFFEE9AFEEDBA
:1000EE0099FDD0E0FBEF4E4D4C701222DB03020265
:1000FE0087EC2CFCEF33FFEE33FEED33FDED30E7F6
:10010E00EB020262EF2BFFEE3AFEED39FDD0E0FB83
:10011E0050130BBB000302028AED13FDEE13FEEF2C
:08012E0013FFEC13FC02026256
:1001360002028AEC5D046005E8590470030202803D
:1001460012024B580460F6EC4860F2EC7004FDFEB7
:10015600FF22C860DB2481C85009C398600250069C
:100166000202879850CAF582E9294B4A7005AB828C
:1001760002027675F0007C1A7880C3EF9BEE9AED4A
:1001860099400DC3EF9BFFEE9AFEED99FDE842F014
:10019600DC23ACF0D0E0FFD0E0FED0E0FDAB822067
:1001A600E7101BEB60BAEC2CFCEF33FFEE33FEEDF1
:1001B60033FD020262E803F830E705C0F075F0008F
:1001C600EF2FFFEE33FEED33FD40B830E7C280AAD5
:1001D60075F020800E75F010800575F0087D007EA4
:1001E600007F003392D530D50312080DEC33401052
:1001F600EF33FFEE33FEED33FDEC33FCD5F0ED22AD
:0E020600E5F0247EA2D513CC92E7CDCEFF22E8
:10021400EDD2E7CD33EC3392D524814006E4FFFEE2
:10022400FDFC22FCE4CFCECDCC24E0501174FF8041
:10023400EDC3CC13CCCD13CDCE13CECF13CF0470DE
:07024400F030D5DE02080DC9
:100DFA00E53E242AF8E6053E227827300702782ABB
:100E0A00E475F0011208C90206332000EB7F2ED2E6
:100E1A00008018EF540F2490D43440D4FF30040BD0
:100E2A00EF24BFB41A0050032461FFE53F600215A6
:100E3A003F0542E5427002054130070D7827E47507
:100E4A00F0011208C9EF0206790229EB7403D207EE
:100E5A008003E4C207F53E8B278A288929E4F53FF7
:100E6A00F541F542E53F60077F20120E3580F575A2
:100E7A0040FFC201C200C202C203C205C206C208C2
:100E8A00120E03FF700D3007057F00120E46AF42A7
:100E9A00AE4122B4255FC2D5C204120E03FF24D08C
:100EAA00B40A00501A75F00A783F30D50508B6FF23
:100EBA000106C6A426F620D5047002D20380D924DE
:100ECA00CFB41A00EF5004C2E5D204021133D201A2
:100EDA0080C6D20080C0D20280BCD2D580BAD205E8
:100EEA0080B47F20120E352002077401B53F0040FE
:100EFA00F1120DFAFF120E35020E6ED208D20680DA
:100F0A0095120DFAFB120DFAFA120DFAF94A4B7004
:100F1A0006792A7A127BFF20022EE53F602A7E009C
:100F2A008E8275830012064C60060EEE654070F0E4
:100F3A00C2D5EBC0E0EAC0E0E9C0E0EE121193D0FE
:100F4A00E0F9D0E0FAD0E0FB120633FF60AAEBC06A
:100F5A00E0EAC0E0E9C0E0120E35D0E02401F9D0A1
:100F6A00E03400FAD0E0FBE5400460DCD540D980EB
:100F7A0087D20280A212117660F7E540700104124E
:100F8A000295A940600DE540600914F54012121D52
:100F9A00EF60F3EA30E702F404C3995077EAF425E4
:100FAA00400430E701E404F540800D12117660C177
:100FBA00EA05402540120295EA783DF630E701E459
:100FCA00254004D5400420050114121193E4C0E021
:100FDA0012121D783DE6601320E70714F6120E1D63
:100FEA00802204F6D0E014C0E07F00120E1DE54016
:100FFA006007120E141540800B300503120E14D030
:10100A00E0020E6ED0E00480C512117660A0E540C1
:10101A0004120295783DEAF6E540200502600104D3
:05102A002404121193E3
:10102F0074FF04C0E012121D120E1DE540200502D0
:10103F006003120E14D0E0B540E87F45120E2778FA
:10104F003DE67F2B30E7047F2DF404C0E0120E3510
:10105F00D0E075F00A84C0F0120E1ED0E0120E1E02
:10106F00020E6E791080027908C206C2088008D27B
:10107F00D5790A8004790AC2D5E540047002F5409B
:10108F00E4FAFDFEFF120DFAFC7B08200113120D8E
:10109F00FAFD7B1030000A120DFAFE120DFAFF7BDB
:1010AF0020EC3382D592D55013C3E43000069FFF56
:1010BF00E49EFEE42001039DFDE49CFCE4CBF8C21A
:1010CF0001EC700CCFCECDCCE824F8F870F380177C
:1010DF00C3EF33FFEE33FEED33FDEC33FCEB33FBAD
:1010EF00994002FB0FD8E9EB300105F8D0E0C44876
:1010FF00B201C0E00AEC4D4E4F78207B0070C2EA7F
:10110F00B5400040BCC0E0121195D0F0D0E02001F6
:10111F0004C4C0E0C4B201C0F0120E1ED0F0D5F06E
:10112F00EB020E6E1208D90F0B531072580EDC4CD7
:10113F000ED84210764F107E44107E490EF14310A8
:10114F0084550FB5461013450F7F47124A500EE0D6
:10115F002D0EE42E0F072B0EE8230F052012332A36
:10116F000EA04800000EFFE540B4FF0375400612C5
:10117F000DFAFC120DFAFD120DFAFE120DFAFF78A0
:10118F00360202C4790AA2D5200314300509B9101A
:10119F00020404B9080104A2D5200602500104205C
:1011AF0002689202B53F005034C0E07F203003192F
:1011BF007F30A20272067205500F1211ECC202C2EA
:1011CF0006C205C2087F30800F300503E9C0E01268
:1011DF000E35300503D0E0F9D0E0B53FCC30051720
:1011EF007F30B9100C120E357F583004077F78808E
:1011FF0003B90803120E353002057F2D020E357F1D
:10120F00202008F87F2B2006F322920280CF7F0048
:10121F00B4070050052436F8E6FF22286E756C6C73
:10122F002900D201120DFA3001F8C201783F30D5F2
:10123F000108F6020EA02D50434958120DFA24034F
:10124F00B405004001E490124593120E26743A1231
:0A125F000E26D203753F0402107240
:10024B00E9D2E7C933E833F892D5EDD2E7CD33ECF9
:07025B0033FC5002B2D52272
:10026200EC30E7100FBF000C0EBE00080DBD0004FD
:100272000BEB6014A2D5EB13FCED92E7FD2274FFA9
:10028200FCFDFEFF22E480F8A2D574FF13FC7D8002
:03029200E480EF16
:10029500F920E72824F950037907E4F42402FB1830
:1002A500DBFDE624FB5014E9600DE4F618E604F6E0
:0F02B500B40A08E4F6D9F57401F60A22C2D5227C
:1002C400ED33EC3392D5FA602AB4FF33EDC2E77B09
:1002D400FF60067A0279E9E4227A0279F220D504F1
:1002E4007A0279ED224E614E002B494E46002D498B
:1002F4004E4600E47A08F608DAFC7B00740722E82C
:10030400C0E0ECC0E0EDC0E0EEC0E0EFC0E0EA75B4
:10031400F010A4CAABF075F04DA42BFBE435F0FC4F
:10032400EA2410FAEB34C5FBEC34D9FCEDC2E7FF48
:1003340075F056A4F42411C5F0F434C58FF0A42A42
:10034400E5F03BE43CF620E7141204FDD0E0FFD0D6
:10035400E0FED0E0FDD0E0FC1201398014F4041278
:1003640004FDD0E0FFD0E0FED0E0FDD0E0FC1203BD
:10037400C7D0E0F8E6FAEDD2E7CD33EC332482FBC4
:10038400E4C3CF33CFCE33CECD33CD33DBF37B07D2
:1003940075F00A846004F6081B0AE5F0F6088FF08D
:1003A400740AA4FFACF08EF0740AA42CFEACF050D6
:1003B400010C8DF0740AA42CFDE435F0F608DBDEA4
:0303C40074072299
:1003C700EC4D6011E8497017ED33EC3304600DE430
:1003D700FCFFFEFD22E933E8330470F802028012C5
:1003E700024B58046009E4CC2481500628500902C6
:1003F700028A284003020287C0E0EB4A7044B980B2
:1004070006D0E0FB020276EF4E701CBD8008EBFFC2
:10041700EAFEE9FD80EBE98DF0A4FEE5F00204B009
:10042700E9CDF9EAFEEBFFEF89F0A4FCE5F0CE8910
:10043700F0A42EFFE435F0CD89F0A42DFEE435F0CD
:100447008067EF4E7005BD80D780C3EF8BF0A4ACFB
:10045700F0EE8BF0A42CFCE435F0F8EF8AF0A42C36
:10046700E5F038FCE433CB8DF0A42CFCE5F03BF849
:10047700EE8AF0A42CFCE5F038F8E433CF89F0A439
:100487002CFCE5F038CF3400CE89F0A42FFFE5F03F
:100497003EFEE433C98DF0A42EFEE5F039CD8AF097
:1004A700A42FFFE5F03EFEE43DFD33D0E0FB50070F
:1004B7000BBB000F02028AEC2CFCEF33FFEE33FE7E
:0604C700ED33FD020262AC
:1004CD003F8000004120000042C80000447A000037
:1004DD00461C400047C35000497424004B189680B9
:1004ED004CBEBC205A0E1BCA6753C21C749DC5AEB0
:1004FD00FB60065407601C232312052BEB54386058
:10050D00091205171205261203C7ECF8EDF9EEFADC
:10051D00EFCB22EB12052680F1543803241C9004F6
:10052D00CDFE93FC0EEE93FD0EEE930ECE93FF22B9
:101E9E000213F9E493A3F8E493A34003F68001F24E
:101EAE0008DFF48029E493A3F85407240CC8C33345
:101EBE00C4540F4420C8834004F456800146F6DF14
:101ECE00E4800B01020408102040809016ABE47EE3
:101EDE00019360BCA3FF543F30E509541FFEE49309
:101EEE00A360010ECF54C025E060A840B8E493A3D0
:101EFE00FAE493A3F8E493A3C8C582C8CAC583CAFB
:101F0E00F0A3C8C582C8CAC583CADFE9DEE780BEB2
:0117C0000028
:10053D00E709F608DFFA8046E709F208DFFA803EA0
:10054D0088828C83E709F0A3DFFA8032E309F6088D
:10055D00DFFA8078E309F208DFFA807088828C83F5
:10056D00E309F0A3DFFA806489828A83E0A3F608A9
:10057D00DFFA805889828A83E0A3F208DFFA804C83
:10058D0080D280FA80C680D4806980F2803380105A
:10059D0080A680EA809A80A880DA80E280CA8033C3
:1005AD0089828A83ECFAE493A3C8C582C8CCC5833B
:1005BD00CCF0A3C8C582C8CCC583CCDFE9DEE7800B
:1005CD000D89828A83E493A3F608DFF9ECFAA9F08A
:1005DD00EDFB2289828A83ECFAE0A3C8C582C8CCE0
:1005ED00C583CCF0A3C8C582C8CCC583CCDFEADEF9
:1005FD00E880DB89828A83E493A3F208DFF980CC5B
:10060D0088F0EF60010E4E60C388F0ED2402B40453
:10061D000050B9F582EB2402B4040050AF232345FA
:06062D00822390058D738D
:10063300BB010689828A83E0225002E722BBFE02C5
:09064300E32289828A83E49322F8
:10064C00BB010CE58229F582E5833AF583E0225063
:10065C0006E92582F8E622BBFE06E92582F8E222AD
:0D066C00E58229F582E5833AF583E49322C7
:10067900BB010689828A83F0225002F722BBFE0160
:02068900F3225A
:10068B00F8BB010DE58229F582E5833AF583E8F0A5
:10069B00225006E92582C8F622BBFE05E92582C851
:0206AB00F22239
:1006AD00EF8DF0A4A8F0CF8CF0A428CE8DF0A42E61
:0206BD00FE221B
:1006BF00C5F0F8A3E028F0C5F0F8E58215827002C6
:0606CF001583E038F02263
:0D06D500EF2BFFEE3AFEED39FDEC38FC2274
:0E06E200C3EF9BFFEE9AFEED99FDEC98FC2213
:1006F000E88FF0A4CC8BF0A42CFCE98EF0A42CFCA9
:100700008AF0EDA42CFCEA8EF0A4CDA8F08BF0A426
:100710002DCC3825F0FDE98FF0A42CCD35F0FCEB85
:100720008EF0A4FEA9F0EB8FF0A4CFC5F02ECD394A
:0F073000FEE43CFCEAA42DCE35F0FDE43CFC22B7
:10073F0075F008758200EF2FFFEE33FECD33CDCC71
:10074F0033CCC58233C5829BED9AEC99E5829840F4
:10075F000CF582EE9BFEED9AFDEC99FC0FD5F0D6D1
:10076F00E4CEFBE4CDFAE4CCF9A88222B800C1B9FB
:10077F000059BA002DEC8BF084CFCECDFCE5F0CB39
:10078F00F97818EF2FFFEE33FEED33FDEC33FCEB72
:10079F0033FB10D703994004EB99FB0FD8E5E4F92D
:1007AF00FA227818EF2FFFEE33FEED33FDEC33FC1A
:1007BF00C933C910D7059BE99A4007EC9BFCE99A0E
:1007CF00F90FD8E0E4C9FAE4CCFB2275F010EF2F53
:1007DF00FFEE33FEED33FDCC33CCC833C810D70753
:1007EF009BEC9AE899400AED9BFDEC9AFCE899F88E
:0E07FF000FD5F0DAE4CDFBE4CCFAE4C8F92221
:0E080D00C3E49FFFE49EFEE49DFDE49CFC22FC
:10081B00EB9FF5F0EA9E42F0E99D42F0EC6480C854
:06082B0064809845F022F4
:10083100EB9FF5F0EA9E42F0E99D42F0E89C45F01D
:010841002294
:10084200E8600FECC313FCED13FDEE13FEEF13FF94
:03085200D8F122B8
:10085500E8600FEFC333FFEE33FEED33FDEC33FC01
:03086500D8F122A5
:0C086800E0FCA3E0FDA3E0FEA3E0FF2203
:0C087400E0F8A3E0F9A3E0FAA3E0FB2207
:0C088000ECF0A3EDF0A3EEF0A3EFF022EB
:10088C00A8828583F0D083D0821208A31208A31209
:10089C0008A31208A3E473E493A3C583C5F0C5832E
:1008AC00C8C582C8F0A3C583C5F0C583C8C582C8B6
:0108BC002219
:0C08BD00A42582F582E5F03583F5832246
:1008C900FAE6FB0808E6F925F0F618E6CA3AF62230
:1008D900D083D082F8E4937012740193700DA3A3AE
:1008E90093F8740193F5828883E4737402936860C2
:0608F900EFA3A3A380DFC2
:1029EB00EFB40A07740D1229F6740A309811A899DE
:1029FB00B8130CC2983098FDA899C298B811F6304C
:072A0B0099FDC299F5992223
:00000001FF
