:03000000021EE7F6
:0C1EE700787FE4F6D8FD758198021F2E6C
:1016D000041A00000000410077004100AB0C4100FB
:1016E000AC404400A300000000440087000000005C
:1016F00044008B000000004400C0000000004400D3
:10170000B0000000004400C7000000004200970045
:1017100001420085000041007B004100A000420022
:10172000CC000042007C0000410075084100AE0082
:101730004100CE00011E00011F004100C500410014
:10174000840041008F0141009A0A4100AF0041002E
:10175000AD0A41009F004100A10042007900004114
:1017600000760002970000029500004100820041CF
:1017700000C4004100A2001085000000000000002D
:101780000000000000000000000181000182000153
:10179000840001830001800041008300420090002A
:1017A000004A00B6000000000000000000004100F8
:0217B0007800BF
:1015AA00EF24A0FFEE340FFEE43DFDE43CFC1208FC
:1015BA0074D3020831E49000AEF09000AC7440F0AD
:1015CA009000A07402F09000757406F0E490007721
:1015DA00F09000C0229000871208689000A31208B9
:1015EA00741206D590008712088090008702086856
:1015FA009000A3120874C3020831E4FCFD1206D558
:10160A009000C70208809000A7120868EF2470FFB4
:10161A00EE3417FEE43DFDE43CFC90008722122BD9
:10162A00E7E47BE87A03F9F890007E020868900004
:10163A00ACE0FF900077E0C39F22D3900098E0943B
:10164A0000900097E094002212086890008B12081C
:10165A00740206D5E475F0010206BF90007E020806
:10166A00809000A3020868D39000CDE09400900017
:10167A00CCE094002290009AE09000ADF0227F0A1C
:10168A0012259E90009BEFF09000C622F09000B0C9
:10169A000208689000C7020874D39DEC6480F8744D
:1016AA00809822E47B02FAF9F802077B900087020D
:1016BA0008747E2F122AB47F107E27227C2F122ACA
:0616CA001A7F647E00227D
:102937008E238F248B258A268927AF051DEF6021DB
:102947000524E524AE237002052314F5828E83E463
:1029570093FF7825E475F0011208C9EF1206798014
:02296700D92273
:102C3E00E4FDFCC3ED9FEC9E50070DBD00010C8022
:012C4E00F293
:012C4F002262
:1029F2008F828E83E4F51DF51CF51BF51AAF82AEAE
:102A020083E4FCFDAB1DAA1CA91BA81AC312083142
:082A1200500543BD1080E622CF
:092BDE00E0FF7C2F122A1A7F642B
:102BE700E4FDFCC3ED9FEC9E50070DBD00010C807A
:012BF700F2EB
:012BF80022BA
:10000300758E5190FE917401F0A37410F075BD5F6D
:0700130090FEA07420F02212
:102B8600E490FE80F0758901758DFA758BCB43A8AC
:0E2B960008438840758CCB758AEB438810226B
:1029690090FF10E054F04408F090FF02E054F04466
:1029790002F0D28490FFA07420F0A37404F075CC07
:102989000675CEFF75CD98759E0275981043A810EF
:01299900221B
:102BF90043B40343B4807F147E00122C3E75B501A3
:072C090090FE9B744BF022CA
:102BC20090FF08E054F04408F090FF00E0540F44F6
:0C2BD20030F090FF11E054F04403F022BA
:0B2C6B008F99E59830E1FB5398FD22A3
:10259E008FB543B440E5B430E5FB53B4DF7F647EC2
:1025AE0000122C3EE4FBFAF943B440E5B430E5FBEF
:1025BE0053B4DFE5B62BFBE5B73AFA7F147E001273
:1025CE002C3E09B910E275B501A9027F647E001296
:0425DE002C3EAF01DF
:0125E20022D6
:1017F3007B017A0079B67D0A7F007E2F122937900C
:1018030000B6E0FFE4FCFDFE1216651216327808FE
:1018130012085512166590007E1208749000B7E006
:10182300FFE4FCFDFE1206D5121665121632E47BA8
:10183300E87A03F9F81206F0121665E47F307E7534
:10184300FDFC90007E1215FD40107F007E097D3D5A
:101853007C0090007E1215B8400A90007E12088C1E
:1018630000009C409000B8E09000CBF0700280072D
:101873009000CBE0B4FE0374FFF09000B9E0FF905A
:10188300009CE4F0A3EFF0E0F8E4F0E890009CF0B3
:101893009000BAE0FF90009CE48FF01206BF900026
:1018A3009CE0FEA3E0FF4E6009D3EF9408EE94079B
:1018B300400990009CE4F0A37405F09000BBE09015
:1018C300009AF09000A1F09000BCE0900092F060CC
:1018D30006E0D394FF40069000927401F09000BD9F
:1018E300E0F4540190008FF07B017A0079787D0158
:1018F3007F807E2F122937900078E090009FF0229E
:1008FF00E51E6003020DE643B440E5B430E5FB535B
:10090F00B4DF85B72385B62490008512165E1216C4
:10091F009DAE23AF241216049000B4E0FEA3E0FFB7
:10092F00C39524EE9523500DC3E5249FF524E523AD
:10093F009EF523800BC3EF9524F524EE9523F52325
:10094F0090008B120874AE23AF24E4FCFD1206D581
:10095F0090008B120880900085E05401FEA3E04EBA
:10096F00705212167140179000ADE09464503DE044
:10097F002402F0E0D3946440337464F0802E90002E
:10098F007CE07004A3E06401702A90009AE0FF906D
:10099F0000ADE0FED39F4014EE94024004E024FE2D
:1009AF00F09000ADE0C39F500312167F9000ADE0B2
:1009BF00FF122392C3900085E094205003020E157E
:1009CF0043BD10E4F0A3F09000AEE0041216969031
:1009DF0000C71216589000B01208809000AEE0C306
:1009EF0094084030E412169678101208429000B026
:1009FF001208801216979000B4EE8FF01206BF9077
:100A0F0000B4E0C313F0A3E013F09000B012088C11
:100A1F0000000000900075E0C394085005E004F05A
:100A2F0080409000CCE07002A3E07036121688E090
:100A3F00FE2402FDE433FCEF1216A3501890009B26
:100A4F00E02402FDE433FCEE1216A350089000C61A
:100A5F00E090009BF090009BE09000C6F0E49000C7
:100A6F0075F0E4FFFEFDFC9000871215FD703690C7
:100A7F00008B120868EF2488FFEE341312161D1234
:100A8F000880900097E07002A3E070197F407E42CB
:100A9F007D0FFC9000871215B8400A90008712084E
:100AAF008C000F4240900077E0701690008B120878
:100ABF00689000A312088090009312088C00000029
:100ACF00019000931216521215FA4003020C8490F3
:100ADF0000931208689000A312165890008B1215FD
:100AEF00FD4003020C84900077E004F09000C012E8
:100AFF0016529000C0120880900077E0FFFBE4FAD6
:100B0F00F9F89000C012086812077B9000A3120832
:100B1F008012166B7803120842900093120880E43B
:100B2F007F207E4EFDFC9000931215FD500A900021
:100B3F009312088C00004E20E47F607EEAFDFC904B
:100B4F0000931215B8400A90009312088C0000EA27
:100B5F006012166B9000871215B8403E9000A312DA
:100B6F0008741215F41206E212160A7F807E387D81
:100B7F00017C009000C71215B840089000AB7406B6
:100B8F00F0801DE47F407E9CFDFC9000C71215B8DD
:100B9F009000AB40087409F080069000AB740CF025
:100BAF009000AB12163B403B1215F41215FA50335E
:100BBF009000ACE094105003020C939000ABE0D384
:100BCF009409500512166B801112166B9000871244
:100BDF0015AA400C1215DF1216AD9000871208806F
:100BEF00020C841216385003020C931215F4900065
:100BFF00A31215AA40771216B612166B1206E2123E
:100C0F00160A7F007E127D7A7C001215FA505E7FE5
:100C1F00807E1A7D067C009000C71215FD504E9005
:100C2F0000ACE09410400280387FE07E937D047C1E
:100C3F00009000C71215B840089000AC7410F080F7
:100C4F001B7FF07E497D027C009000C71215B89083
:100C5F0000AC4005740CF080037408F01216384095
:100C6F000C1215DF1216AD9000871208801216387D
:100C7F004012E48004E4900077F09000C012088CDA
:100C8F00000000009000A0E0D394004036E014F084
:100C9F001216101215B85003020DA29000A71208D9
:100CAF0068EF2498FFEE343AFEE43DFDE43CFC90FF
:100CBF00008B1215FD4003020DA2121610120880B0
:100CCF00020DA2121644405774FFF5F01206BF1220
:100CDF001644404B7F007E127D7A7C009000871275
:100CEF0015B8400C90007E12088C000C3500802F38
:100CFF001216321216B61216077F407E547D897C6B
:100D0F00009000C71215B840161216B6C374409B58
:100D1F00FF74549AFE748999FDE498FC12166512BB
:100D2F00163290008712165890008B1215B8406338
:100D3F009000CBE0FF90009BE0D39F40051216443C
:100D4F0040519000CCE07002A3E070091215F490AE
:100D5F0000A71208809000CCE4F0A304F07883F68B
:100D6F0090009012165E900090E0FEA3E0FFE48FDB
:100D7F00468E45F544F5437F74121F739000AC7493
:100D8F0008F0E490007CF0A3F07897F608F67895D9
:100D9F00F608F69000C712088C0000000090008B38
:100DAF0012088C000000009000CCE0FEA3E0FFD3FF
:100DBF009400EE9400404F90009CE0FCA3E0FDD324
:100DCF00EF9DEE9C4040E49000CCF0A3F0751E0127
:100DDF007883F67880F62290007CE4F0A304F0E4A8
:100DEF00F51E900079F0A3F0900076F07FFAFE12D6
:100DFF0029F29000B012088C000000001215BF12EB
:060E0F00088C0000000049
:010E150022BA
:1021D000E4F5249000C712088C00000000E4F52309
:1021E00043B440E5B430E5FB53B4DF12169DAFB6FF
:1021F000AEB71216040523E523B480E47F907E0178
:102200001229F29000C7120868780B1208428F2337
:10221000E523D3940C400CE523948D5006E52494DB
:0D22200014500A0524E524D3945040A72251
:01222D00228E
:10222E009000C712088C00000000E4F523E4F526A8
:10223E00F52743B440E5B430E5FB53B4DF85B7244E
:10224E0085B62512169DAE24AF251216040527E578
:10225E002770020526B400DAE526B420D543BD105A
:10226E000523E523B408C69000C71208687810123B
:0A227E0008429000B4EEF0A3EFF068
:012288002233
:10239200BF0104E4FE80397E007C007DFF1206ADA1
:1023A200AC06AD07E41201DBE4FBFA79C87842120D
:1023B20001398F288E278D268C25E4FFFEFD7C3F78
:1023C200AB28AA27A926A825120045120214AE0797
:1023D20090FF9C7410F075DEFF8EDF75DD947F0038
:0123E20022D8
:10128500120026120003122BC27F64122392122B26
:1012950086122969122BF975BBAA90FEA774FFF077
:1012A50053BBF7D2AF7FC87E001229F27F641223A9
:1012B500929000C57401F0121688F0C2AF1217F3B0
:1012C50090009FE004F07F807E2F122AB47F107E6D
:1012D50027122BE790009FE0FF7D807C2F122A1AB2
:1012E5007F647E00122BE7D2AF1221D090009AE0E6
:1012F500FF9000ADF01223927F2C7E011229F2128D
:10130500222E9000C712088C0000000090009FE07C
:10131500C394034005E4F0122AFD43BD10E51E7099
:101325000B900086E0541F700312141A90008FE092
:10133500640160030213E5E51F701CF51E751F01AE
:1013450012167F9000B012088C000000001215BF25
:1013550012088C000000001208FFD390007DE09475
:101365000090007CE094004033900076E0B4012CBE
:10137500E4F090007C12165F900092E0FFC39000AD
:101385007DE09F90007CE094004011E4F0A3F09094
:101395000083E064016005E4FF1223921216714098
:1013A5000F7896E6640118467006F608F612165F81
:1013B5007884E66401600302131118E6FF788066FD
:1013C5007003021311A6079000CCE4F0A304F0E427
:1013D500F522E522C394084003021311052280F289
:1013E500E4F51F900084E07007FF122392021311A9
:1013F5009000A1E0FF122392E4F51E12167F9000E3
:10140500B012088C000000001215BF12088C0000F5
:051415000000021311AC
:03001B00021DA41F
:101DA400C0E0C0F0C083C082C0D075D000C000C005
:101DB40001C002C003C004C005C006C007AF1DAE09
:101DC4001CAD1BAC1AEF2401FFE43EFEE43DFDE430
:101DD4003C8F1D8E1C8D1BF51A90007912165E9097
:101DE4000079E0FEA3E0FFE4FCFD7B607AEAF9F809
:101DF400D312081B500C900079E4F0A3F090007605
:101E040004F0789806E618700106C37898E694E81A
:101E140018E6940340127881760178977600087664
:101E24000078957600087601D007D006D005D00456
:101E3400D003D002D001D000D0D0D082D083D0F053
:031E4400D0E032B9
:030023000225575C
:10255700C0E0C0F0C083C082C0D075D000C000C04A
:0D25670001C002C003C004C005C006C007CB
:0F257400E59830E00AAF991222E45398FED2AFF7
:10258300D007D006D005D004D003D002D001D000AC
:0B259300D0D0D082D083D0F0D0E03256
:03003B0002001AA6
:01001A0032B3
:102AB40053BBF7C280E5BB20E3F6D280C2AF75FDFD
:102AC400F075FC0F8EFA8FF975FDD275FC2D75FD2E
:052AD400E175FC1E226B
:102A1A0053BBF7C280E5BB20E3F6D280C2AF8FFB7F
:102A2A0075FDF075FC0F8CFA8DF975FDB475FC4BCC
:072A3A0075FDE175FC1E2291
:102162007F001216BC12162812077B78081208424A
:102172007D001216C612162812077B7D011216C6A2
:10218200122BE79000CB7D02122BDE90009C7D0388
:10219200122BDEA3E0FF7D04122BE090009AE0FFF9
:1021A2007D05122BE0900092E0FF7D06122BE0905D
:1021B200008FE0F4FF7D07122BE07F801216BC1225
:0D21C2002BE77D807C2FE4FF122A1AD2AF9C
:0121CF0022ED
:102A6800637263206572726F7220286372633A30F2
:102A7800782558202062757420646174613A307832
:062A88002558290D0A008B
:0417B200027E0000B3
:101C550012064CFFE5474FFFE546FEE545FDE54429
:101C65008F478E468D45F544FC78081208558F47F9
:101C75008E468D4522AF46AE45AD44AC4312084273
:101C8500AD0722AD07E4FBFA900001E022740225BE
:101C950024F974003523FA7B01E52624FFFDE525AB
:101CA50034FFFC22E475F0010208C9AA06AB077DE2
:101CB500037F0722AF7DAE7CAD7BAC7A020842FE86
:101CC500E555FDE554FCE47BFF22E4F541F540F5DF
:101CD5003FF53E2212064CAB4AAA4BA94C22AB68F3
:101CE500AA69A96A020633AB6BAA6CA96D02063311
:0A1CF5007562017563007564222218
:1020F100EFC39430400CEFD39439500674D02FFFC6
:102101008022EFC39441400CEFD394465006EF2454
:10211100C9FF8010EFC39461400AEFD39466500465
:10212100EF24A9FFEF540FC454F0FFEDC3943040E6
:102131000CEDD39439500674D02DFD801EEDC3945F
:10214100414008EDD394465002800CEDC3946140A8
:102151000AEDD394665004ED24A9FDED540F420716
:01216100225B
:06266B008B3B8A3C893D17
:10267100121CCFE94A4B7005FFFEFDFC22121CCF54
:10268100783B121CA9120633601AE5412401FFE4CC
:102691003540FEE4353FFDE4353E8F418E408D3FB0
:0C26A100F53E80DCAF41AE40AD3FAC3EEA
:0126AD00220A
:0628D0008B088A09890A49
:1028D6008B0E8A0F8910E94A4B7004FBFAF922E540
:1028E6000D150DAE0C7002150C4E600B780E121CF9
:0D28F600A9ED12067980E8AB08AA09A90A2D
:0129030022B1
:061ACD008B428A438944AC
:101AD3008B4A8A4B894C85454D85464E85474FE950
:101AE3004A4B6008E5474546454570077B007A0049
:101AF300790022D3854E83854F82E54C9582E54B51
:101B030095834019E54F2549F9E54E3548FA8A830F
:101B13008982D3E54C9582E54B95834032E4F550B9
:101B2300F551C3E5519549E5509548505BAB4DAA36
:101B33004EA94F855182855083121CD985518285C8
:101B4300508312068B0551E55170D7055080D3851C
:101B53004850854951D3E5519400E55094004028FD
:101B6300AB4DAA4EA94FE55124FFFFE55034FFFECC
:101B73008F82F583121CD98F828E8312068BE551D7
:0E1B8300155170D1155080CDAB42AA43A94434
:011B91002231
:0627ED008B118A12891312
:1027F3008B178A188919AB14AA15A9161206336008
:10280300147814121CA9120633FF7811121CA9EFB5
:1028130012067980E1AB11AA12A913E4120679AB6F
:0528230017AA18A91915
:01282800228D
:1025E3008B688A69896A121CE3FF6020121CEC6005
:1025F3001BB507187401256AF56AE43569F5697432
:1026030001256DF56DE4356CF56C80DA121CECFF79
:102613003395E0FE121CE3FD3395E0FCC3ED9FFF11
:04262300EC9EFE2209
:102904008F7D8E7C8D7B8C7A7818120842EF1206AC
:10291400797810121CB9900001EF12068B78081216
:102924001CB9900002EF12068BE57DFF900003EFC7
:0329340002068B0D
:10242F00E4F547F546F545F544120633FFE48F47CB
:10243F00F546F545F544AE46AD45AC44121C6E8CE1
:10244F0044900001121C558C44900002121C558CB4
:10245F004490000312064CFFE5474FFFE546FEE5AB
:0A246F0045FDE544121C73F544FC22
:012479002240
:06250E008B6F8A708971D9
:10251400121C88B401037F0122AF03AE02122C5EA9
:10252400AA06AB07E412254EE57212254EAD7312CE
:102534002C5EAB6FAA70A971857240857341122914
:092544009A121CB012233D7F0124
:0A254D0022FD122C5EAA06AB072245
:04247A008D3EAC07E0
:10247E00121C8AB401037F0122AF03AE02AD041217
:10248E0024B3E4FD1224B3E53E7003FD8006AF03D2
:10249E00AE027D01122C5EAA06AB077D037F0712EA
:0424AE00233D7F014A
:1024B20022122C5EAA06AB077D01122C5EAA06AB85
:0224C2000722EF
:101F7300121C88B401037F0122AF03AE02122C5E50
:101F83007D02121FE6E4FD122C5E7D04121FE6C0E3
:101F930006C0077818121C7AD007D006121FF2C0A9
:101FA30006C0077810121C7AD007D006121FF2C0A1
:101FB30006C007AF46AE45AD44AC437808120842AD
:101FC300AD07D007D006122C5EAA06AB07C007E503
:101FD30046FFE4AD07D007122C5E121CB012233D5E
:021FE3007F017C
:101FE50022AA06AB07122C5EAA06AB0722122C5EAC
:051FF500AA06AB072263
:0624C4008B758A76897712
:1024CA00121C88B401037F0122AF03AE0212250653
:1024DA007D03122506E578FD122C5EAA06AB07AD30
:1024EA0079122C5EAB75AA76A977857840857941F1
:0B24FA0012299A121CB012233D7F0132
:0925050022122C5EAA06AB07228B
:042771008D3EAC07E6
:10277500121C8AB401037F0122AF03AE02AD04121D
:102785002C5E7D041227A4E4FD122C5E7D01122728
:0E279500A4AD3E122C5E121CB012233D7F013B
:0D27A30022AA06AB07122C5EAA06AB072285
:021B9200AD079D
:101B9400E4F558F559900001E0B401037F012212E5
:101BA4001C357D05121C4DE4FD121C4D74FFFFE530
:101BB40056121CC4FAF9F8C312083170097D0112D7
:101BC4001C35AD57803D74FFFF121CC47AFFF9F831
:101BD400C312083170047D0280197D04121C4178FF
:101BE40018121C1CAF57AE56AD55AC5478101208E1
:101BF40042AD07121C417808121C1CE557FFE4ADE6
:101C040007AF59122C5E8E588F59AB59AA587D03D1
:071C14007F0712233D7F0151
:101C1B0022AF57AE56AD55AC54120842AD07AF5973
:101C2B00AE58122C5E8E588F5922AF59AE58122CCB
:101C3B005E8E588F5922AF59AE58122C5E8E588F2C
:0A1C4B005922122C5E8E588F592288
:082C8A008C3E8D3F120633FF62
:012C9200221F
:082C93008C3E8D3F120633FF59
:012C9B002216
:072C9C008C428D4312242F2E
:012CA300220E
:1022E4008F52C3E5679564FFE5669563FEEF64016D
:1022F4004E6045D3856683856782E5649582E56390
:1023040095834015E5649567FFE5639566FEC3EF25
:10231400941BEE64809480501FC390003DE5649547
:1023240082E563958340077A007922121CF578626E
:09233400121CA9E55212067922DF
:10141A00E4F523F524F525F526C3E57F941FE57E3B
:10142A0094005024122BA4EFD39400401B122731AE
:10143A00057FE57FAC7E7002057E142402F5827476
:10144A00003CF583EFF080D1C3E57F9407E57E94F5
:10145A000050030215A9C3E57F9524FDE57E952377
:10146A00FCC3ED9407EC9400500302157274022534
:10147A0024F58274003523F583E06455600A052457
:10148A00E52470D2052380CE74032524F5827400E6
:10149A003523F583E064AA600A0524E52470B705BC
:1014AA002380B374042524F58274003523F583E080
:1014BA0060047402803C74062524F5827400352386
:1014CA00F583E0752600F52574072524F582740056
:1014DA003523F583E02407FFE433FEEF2526F526BE
:1014EA00EE3525F525D3E5269426E5259400400A10
:1014FA0074032524F524E402156BC3ED9526EC95B7
:10150A00254065121C92122A8EE5242526FDE52324
:10151A003525FC74012DF58274003CF583E06F607B
:10152A0031121C92122A8E8F2A7BFF7A2A7968E559
:10153A00242526FFE5233525FE74012FF582740044
:10154A003EF583E0F52B120E7874032524F524E486
:10155A00800FAF24AE23121903E5262524F524E5CE
:10156A00253523F523021460C3E57F9524F57FE52D
:10157A007E9523F57ED3E57F9400E57E9400401F97
:10158A0074022524F974003523754501F546894707
:0F159A00857E48857F497B017A007902121ACD40
:0115A900221F
:10002600121CF5756501756600756722900074747B
:03003600FFF022B6
:062CA400900021E0FF2278
:0E2C5000E4900021F0FBFA7D037F0402233D97
:062CAA00900000E0FF2293
:022C1000AD070E
:102C1200E4FF900000F0FE122C5EEFFB7A007D03D1
:052C22007F0502233DC7
:062CB000900074E0FF2219
:0A2C7600E4FBFA7D037F0E02233D0C
:1017B6004100D3004400CF00000000015F00015C3F
:1017C60000015B00015A00015E00015D000160003E
:1017D6005600D414011602650466026701680269A0
:0917E60002710172017301740229
:10289A00AB38AA39A93AAD3CAC3B2290009AE0FF8A
:1028AA00E48F46F545F544F5432290009CE0FEA3EB
:1028BA00E0FFE48F468E45F544F54322E0FFE4FC51
:0628CA00FDFEC30208310F
:102AFD007F55122C6B7FAA122C6B7F03122C6B7FD0
:102B0D0004122C6BE4FF122C6BE4FF122C6B7F066E
:032B1D00022C6B1C
:032CB600022C6B82
:101CFF00900000E0FD7F1412247A900084E0FD7FB5
:101D0F007112247A1228A57F16121F739000CBE050
:101D1F00FFB4FF05E4F530801EEFB4C8057530023F
:101D2F008015EFB42805753003800CEFB4140575DA
:101D3F0030048003753005AD307F6512277112288E
:101D4F00B47F66121F7390008FE0FD7F6712247AB5
:101D5F009000921228A87F68121F73E47B107A27D5
:101D6F00F9F890007E12086812077BC374329F1235
:101D7F0028A97F69121F737884E6FD7F7212247A77
:101D8F00900083E0FD7F7312247A9000901228B7A1
:051D9F007F74021F73B8
:102C2700122C8A900000EFF0FD7F1412247ABF0166
:062C3700037F01227F0073
:012C3D002274
:10262700122C9C8F418E408D3F8C3E055B90009A0B
:10263700AB41AA40A93FA83E1228C66008E4F55B53
:10264700FF0FBF08FCAF4190009AEFF09000A1F098
:102657001221621228A57F16121F73BF01037F0183
:03266700227F00CF
:01266A00224D
:101FFA00122C93055A9000D3E0B50714BF05199027
:10200A0000CBE0FE90009BE06E600DE4F55A80087C
:10201A00E4F55AFE0EBE08FCEF14601014601514A5
:10202A00601A14601F146024240570289000CB7471
:10203A00FFF080209000CB74C8F080189000CB7419
:10204A0028F080109000CB7414F0800890009BE078
:10205A009000CBF09000D3EFF01221629000D3E011
:0E206A00FD7F65122771BF01037F01227F00F9
:012078002245
:1023E300122C9C8F418E408D3F8C3E055E90009C4D
:1023F300E0FEA3E0FFE4FCFDAB41AA40A93FA83EF9
:10240300C31208316008E4F55EFF0FBF08FC9000BB
:102413009CE540F0A3E541F01221621228B47F66E7
:0B242300121F73BF01037F01227F0026
:01242E00228B
:10286400122C8A055C90008FE06F6008E4F55CFE32
:102874000EBE08FCEF90008F7003F080037401F02B
:1028840012216290008FE0FD7F6712247ABF01035A
:052894007F01227F001E
:01289900221C
:1026AE00122C9C8F418E408D3F8C3E055D9000928A
:1026BE00AB41AA40A93FA83E1228C66008E4F55DCA
:1026CE00FF0FBF08FC900092E541F01221629000CE
:1026DE00921228A87F68121F73BF01037F01227F09
:0126EE0000EB
:0126EF0022C8
:10207900122C9C8F418E408D3F8C3E05609000CF85
:10208900120868AB41AA40A93FA83EC312083160B3
:1020990008E4F560FF0FBF08FCAF41AE40AD3FACAF
:1020A9003E9000CF120880C374329541FFE49540F9
:1020B900FEE4953FFDE4953EFCE47B107A27F9F8B0
:1020C9001206F090007E1208801221629000CF1251
:1020D90008688F468E458D448C437F69121F73BFF4
:0720E90001037F01227F00CB
:0120F00022CD
:1026F000122C8A055F900084E06F6008E4F55FFEAD
:102700000EBE08FCEF7006900084F0801190008FE0
:10271000E0B40104788376019000847401F09000A5
:1027200084E0FD7F7112247ABF01037F01227F00C4
:012730002286
:1029C900122C8AAD077884E66D6006E4FF0FBF0814
:1029D900FCED78847003F6800276017F7212247A06
:0829E900BF01037F01227F0002
:0129F10022C3
:102AD900122C8A900083E06F6006E4FE0EBE08FCAB
:102AE900900083EFF0FD7F7312247ABF01037F0109
:032AF900227F0039
:012AFC0022B7
:061E47008B388A39893A4C
:101E4D00EF1208D91E73141E95161E9D651EA566EC
:101E5D001EAD671EB5681EBD691EC5711ECD721EF5
:101E6D00D57300001EDF12289A122C278F3DE53DF9
:101E7D00640170639000AFE004F0E0C39405405737
:101E8D00E4F0122AFD021EE412289A122627803E43
:101E9D0012289A121FFA803612289A1223E3802EE6
:101EAD0012289A122864802612289A1226AE801EB5
:101EBD0012289A122079801612289A1226F0800E76
:101ECD0012289A1229C9800612289A122AD98F3DF2
:091EDD008000E49000AFF0AF3D7D
:011EE60022D9
:032CB9007F0B226C
:05001E008F308D31223E
:102829007B2270223A22003762616A696A307975BF
:102839006D6F6B796F667600222C2276223A220020
:10284900312E302E3000222C226D223A0030007DAC
:0B285900000000000000000000000074
:0317EF0001610095
:102B200074082528F58274003527F583E022744364
:102B30002FF974003EFA7B0122E475F0011208C9F6
:032B400002063357
:0C2C5E00122B2EED1206790FBF00010EA4
:012C6A002247
:0A299A008E3B8F3C8B3D8A3E893F47
:1029A400122B2E853D45853E46853F47854048850B
:1029B4004149121ACDE541253CF53CE540353BF54E
:0429C4003BFEAF3CEB
:0129C80022EC
:0A2A8E008B498A4A894B8C4C8D4D10
:102A9800E4FFFDFCC3ED954DEC954C500E784912C2
:0B2AA8002B392FFF0DBD00010C80E951
:012AB3002200
:1027B0008B498A4A894B8C4C8D4DE94A4B602DE5FB
:1027C0004D454C6027E54D154DAE4C7002154C4EF5
:1027D000601AAB49AA4AA94B120633FF122CB674F1
:0D27E00001254BF54BE4354AF54A80D9221E
:04233D008A478B48F8
:1023410090003D7455F0A374AAF0A3EDF0A3EFF053
:10235100E547A3F0E548A3F02407F548E43547F540
:10236100477B017A00793DE54824FFFDE54734FFCD
:10237100FC122A8EAE07743C2548F582740035475D
:10238100F583EFF07B017A00793DAD48AC47022738
:01239100B09B
:102B4300E4FFE561700AFEFD122C5E7561018007EA
:102B53007E007D01122C5EEFFB7A007D03E4FF0211
:022B6300233D10
:101A0200E4F53078317C00FD7BFF7A28795AFE7F3D
:101A12000A12060D7A287929121A9D7A2879291232
:101A2200299A8F307A287930121A9D7A28793012C1
:101A3200299A8F307A287941121AAD7A287941127F
:101A4200299A8F307A287949121AAD7A287949125F
:101A5200299A8F307A28794F121ABD7A28794F1233
:101A6200299A8F307A287956121ABD7A2879561215
:101A7200299A8F307BFF7A28795812266B8E408FF5
:101A820041AF307E007BFF7A28795812299A8F3035
:0B1A9200EFFB7A007D037F0102233D83
:101A9D007BFF12266B8E408F41AF307E007BFF2285
:101AAD007BFF12266B8E408F41AF307E007BFF2275
:101ABD007BFF12266B8E408F41AF307E007BFF2265
:0A2C8000E4FBFA7D037F0202233D0E
:022B65008F37A8
:102B6700122CB9E4FEEEC39F501275F002EE9000EE
:0E2B7700D41208BDE0653760030E80E9AF069A
:012B8500222D
:062289008B308A3189321E
:10228F00120633F53390000112064CF5349000021C
:10229F0012064C753600F53590000312064C2536A4
:1022AF00F536E43535F535AF33122B6575F002EFA2
:1022BF009000D51208BDE0653460037F0022AB307B
:1022CF00E5322404F9E43531FA85353B85363CAFE8
:0422DF0033121E4751
:0122E30022D8
:041903008E278F2874
:1019070074052FF58274003EF583E0FF1208D9199C
:101917003500193801193B02193E03194F041954B0
:1019270005195B0619E90819EC0E00001A01022BCC
:1019370043021A02022C80122B20900074F0E4FB61
:10194700FA7D037F0302233D90002180039000006E
:101957007401F02274062528F58274003527F58373
:10196700E0FE74072528F58274003527F583E0FD2E
:10197700EEF52EEDF52FE4F52CF52DC3E52D952F7E
:10198700E52C952E5074E528252DFDE527352CFCF3
:10199700740A2DF58274003CF583E0752A00F52959
:1019A700740B2DF58274003CF583E0252AF52AE4B3
:1019B7003529F52974082528F974003527FA7B019C
:1019C700E9252DF9EA352CFA1222898F2BE52A24ED
:1019D70004FFE43529FEEF252DF52DEE352CF52CEA
:1019E7008099021CFF122B20FF74092528F58274A9
:0A19F700003527F583E0FD12001E05
:011A010022C2
:102BA400E5658566838567826562700AE56465828A
:0E2BB4007004E563658360037F01227F0022C9
:10273100AB65AA66A967E562856383856482656581
:10274100700AE56765827004E56665836021C39060
:10275100003DE5679582E5669583400D7A00792213
:0F2761007565017566007567227865122B39FF63
:012770002246
:10003E00020280E86480F8E933E83360110460F06E
:10004E00ED33EC337009E8FCE9FDEAFEEBFF220428
:10005E0060DED3EB9FEA9EE99DE8C2E78CF0C2F723
:10006E0095F0400CE8CCF8E9CDF9EACEFAEBCFFBEF
:10007E0012024B85D0F05804700320D5B3E80470FB
:10008E00075002B2D502028A92D5EC0460F7E4CC96
:10009E00C0E0C398F8603B94186008400DD0E0FBB8
:1000AE00020262E4FBFAC9FC8028E830E406E4C9E7
:1000BE00FBE4CAFCE830E305E4C9CACBFCE854070C
:1000CE006010F8C3E913F9EA13FAEB13FBEC13FC17
:1000DE00D8F130F52FC3E49CFCEF9BFFEE9AFEEDBA
:1000EE0099FDD0E0FBEF4E4D4C701222DB03020265
:1000FE0087EC2CFCEF33FFEE33FEED33FDED30E7F6
:10010E00EB020262EF2BFFEE3AFEED39FDD0E0FB83
:10011E0050130BBB000302028AED13FDEE13FEEF2C
:08012E0013FFEC13FC02026256
:1001360002028AEC5D046005E8590470030202803D
:1001460012024B580460F6EC4860F2EC7004FDFEB7
:10015600FF22C860DB2481C85009C398600250069C
:100166000202879850CAF582E9294B4A7005AB828C
:1001760002027675F0007C1A7880C3EF9BEE9AED4A
:1001860099400DC3EF9BFFEE9AFEED99FDE842F014
:10019600DC23ACF0D0E0FFD0E0FED0E0FDAB822067
:1001A600E7101BEB60BAEC2CFCEF33FFEE33FEEDF1
:1001B60033FD020262E803F830E705C0F075F0008F
:1001C600EF2FFFEE33FEED33FD40B830E7C280AAD5
:1001D60075F020800E75F010800575F0087D007EA4
:1001E600007F003392D530D50312080DEC33401052
:1001F600EF33FFEE33FEED33FDEC33FCD5F0ED22AD
:0E020600E5F0247EA2D513CC92E7CDCEFF22E8
:10021400EDD2E7CD33EC3392D524814006E4FFFEE2
:10022400FDFC22FCE4CFCECDCC24E0501174FF8041
:10023400EDC3CC13CCCD13CDCE13CECF13CF0470DE
:07024400F030D5DE02080DC9
:100E1600E53E242AF8E6053E227827300702782A9E
:100E2600E475F0011208C90206332000EB7F2ED2CA
:100E3600008018EF540F2490D43440D4FF30040BB4
:100E4600EF24BFB41A0050032461FFE53F6002158A
:100E56003F0542E5427002054130070D7827E475EB
:100E6600F0011208C9EF020679022A417403D2077B
:100E76008003E4C207F53E8B278A288929E4F53FDB
:100E8600F541F542E53F60077F20120E5180F5756A
:100E960040FFC201C200C202C203C205C206C208A6
:100EA600120E1FFF700D3007057F00120E62AF4253
:100EB600AE4122B4255FC2D5C204120E1FFF24D054
:100EC600B40A00501A75F00A783F30D50508B6FF07
:100ED6000106C6A426F620D5047002D20380D924C2
:100EE600CFB41A00EF5004C2E5D20402114FD2016A
:100EF60080C6D20080C0D20280BCD2D580BAD205CC
:100F060080B47F20120E512002077401B53F0040C5
:100F1600F1120E16FF120E51020E8AD208D2068068
:100F260095120E16FB120E16FA120E16F94A4B7091
:100F36000679467A127BFF20022EE53F602A7E0064
:100F46008E8275830012064C60060EEE654070F0C8
:100F5600C2D5EBC0E0EAC0E0E9C0E0EE1211AFD0C6
:100F6600E0F9D0E0FAD0E0FB120633FF60AAEBC04E
:100F7600E0EAC0E0E9C0E0120E51D0E02401F9D069
:100F8600E03400FAD0E0FBE5400460DCD540D980CF
:100F960087D20280A212119260F7E5407001041216
:100FA6000295A940600DE540600914F5401212391A
:100FB600EF60F3EA30E702F404C3995077EAF425C8
:100FC600400430E701E404F540800D12119260C13F
:100FD600EA05402540120295EA783DF630E701E43D
:100FE600254004D54004200501141211AFE4C0E0E9
:100FF600121239783DE6601320E70714F6120E390F
:10100600802204F6D0E014C0E07F00120E39E540DD
:101016006007120E301540800B300503120E30D0DB
:10102600E0020E8AD0E00480C512119260A0E5406D
:1010360004120295783DEAF6E540200502600104B7
:0510460024041211AFAB
:10104B0074FF04C0E0121239120E39E5402005027C
:10105B006003120E30D0E0B540E87F45120E4378A6
:10106B003DE67F2B30E7047F2DF404C0E0120E51D8
:10107B00D0E075F00A84C0F0120E3AD0E0120E3AAE
:10108B00020E8A791080027908C206C2088008D243
:10109B00D5790A8004790AC2D5E540047002F5407F
:1010AB00E4FAFDFEFF120E16FC7B08200113120E54
:1010BB0016FD7B1030000A120E16FE120E16FF7B69
:1010CB0020EC3382D592D55013C3E43000069FFF3A
:1010DB00E49EFEE42001039DFDE49CFCE4CBF8C2FE
:1010EB0001EC700CCFCECDCCE824F8F870F3801760
:1010FB00C3EF33FFEE33FEED33FDEC33FCEB33FB91
:10110B00994002FB0FD8E9EB300105F8D0E0C44859
:10111B00B201C0E00AEC4D4E4F78207B0070C2EA62
:10112B00B5400040BCC0E01211B1D0F0D0E02001BE
:10113B0004C4C0E0C4B201C0F0120E3AD0F0D5F036
:10114B00EB020E8A1208D90F2753108E580EF84C4B
:10115B000EF44210924F109A44109A490F0D4310FF
:10116B00A0550FD146102F450F9B471266500EFC12
:10117B002D0F002E0F232B0F04230F2120124F2A8C
:10118B000EBC4800000F1BE540B4FF037540061270
:10119B000E16FC120E16FD120E16FE120E16FF7810
:1011AB00360202C4790AA2D5200314300509B910FE
:1011BB00020404B9080104A2D52006025001042040
:1011CB0002689202B53F005034C0E07F2030031913
:1011DB007F30A20272067205500F121208C202C2B1
:1011EB0006C205C2087F30800F300503E9C0E0124C
:1011FB000E51300503D0E0F9D0E0B53FCC300517E8
:10120B007F30B9100C120E517F583004077F788055
:10121B0003B90803120E513002057F2D020E517FC8
:10122B00202008F87F2B2006F322920280CF7F002C
:10123B00B4070050052436F8E6FF22286E756C6C57
:10124B002900D201120E163001F8C201783F30D5B9
:10125B000108F6020EBC2D50434958120E162403FA
:10126B00B405004001E490126193120E42743A12DD
:0A127B000E42D203753F0402108EEC
:10024B00E9D2E7C933E833F892D5EDD2E7CD33ECF9
:07025B0033FC5002B2D52272
:10026200EC30E7100FBF000C0EBE00080DBD0004FD
:100272000BEB6014A2D5EB13FCED92E7FD2274FFA9
:10028200FCFDFEFF22E480F8A2D574FF13FC7D8002
:03029200E480EF16
:10029500F920E72824F950037907E4F42402FB1830
:1002A500DBFDE624FB5014E9600DE4F618E604F6E0
:0F02B500B40A08E4F6D9F57401F60A22C2D5227C
:1002C400ED33EC3392D5FA602AB4FF33EDC2E77B09
:1002D400FF60067A0279E9E4227A0279F220D504F1
:1002E4007A0279ED224E614E002B494E46002D498B
:1002F4004E4600E47A08F608DAFC7B00740722E82C
:10030400C0E0ECC0E0EDC0E0EEC0E0EFC0E0EA75B4
:10031400F010A4CAABF075F04DA42BFBE435F0FC4F
:10032400EA2410FAEB34C5FBEC34D9FCEDC2E7FF48
:1003340075F056A4F42411C5F0F434C58FF0A42A42
:10034400E5F03BE43CF620E7141204FDD0E0FFD0D6
:10035400E0FED0E0FDD0E0FC1201398014F4041278
:1003640004FDD0E0FFD0E0FED0E0FDD0E0FC1203BD
:10037400C7D0E0F8E6FAEDD2E7CD33EC332482FBC4
:10038400E4C3CF33CFCE33CECD33CD33DBF37B07D2
:1003940075F00A846004F6081B0AE5F0F6088FF08D
:1003A400740AA4FFACF08EF0740AA42CFEACF050D6
:1003B400010C8DF0740AA42CFDE435F0F608DBDEA4
:0303C40074072299
:1003C700EC4D6011E8497017ED33EC3304600DE430
:1003D700FCFFFEFD22E933E8330470F802028012C5
:1003E700024B58046009E4CC2481500628500902C6
:1003F700028A284003020287C0E0EB4A7044B980B2
:1004070006D0E0FB020276EF4E701CBD8008EBFFC2
:10041700EAFEE9FD80EBE98DF0A4FEE5F00204B009
:10042700E9CDF9EAFEEBFFEF89F0A4FCE5F0CE8910
:10043700F0A42EFFE435F0CD89F0A42DFEE435F0CD
:100447008067EF4E7005BD80D780C3EF8BF0A4ACFB
:10045700F0EE8BF0A42CFCE435F0F8EF8AF0A42C36
:10046700E5F038FCE433CB8DF0A42CFCE5F03BF849
:10047700EE8AF0A42CFCE5F038F8E433CF89F0A439
:100487002CFCE5F038CF3400CE89F0A42FFFE5F03F
:100497003EFEE433C98DF0A42EFEE5F039CD8AF097
:1004A700A42FFFE5F03EFEE43DFD33D0E0FB50070F
:1004B7000BBB000F02028AEC2CFCEF33FFEE33FE7E
:0604C700ED33FD020262AC
:1004CD003F8000004120000042C80000447A000037
:1004DD00461C400047C35000497424004B189680B9
:1004ED004CBEBC205A0E1BCA6753C21C749DC5AEB0
:1004FD00FB60065407601C232312052BEB54386058
:10050D00091205171205261203C7ECF8EDF9EEFADC
:10051D00EFCB22EB12052680F1543803241C9004F6
:10052D00CDFE93FC0EEE93FD0EEE930ECE93FF22B9
:101EF300021285E493A3F8E493A34003F68001F26E
:101F030008DFF48029E493A3F85407240CC8C333EF
:101F1300C4540F4420C8834004F456800146F6DFBE
:101F2300E4800B01020408102040809016D0E47E68
:101F3300019360BCA3FF543F30E509541FFEE493B3
:101F4300A360010ECF54C025E060A840B8E493A37A
:101F5300FAE493A3F8E493A3C8C582C8CAC583CAA5
:101F6300F0A3C8C582C8CAC583CADFE9DEE780BE5D
:0117F20000F6
:10053D00E709F608DFFA8046E709F208DFFA803EA0
:10054D0088828C83E709F0A3DFFA8032E309F6088D
:10055D00DFFA8078E309F208DFFA807088828C83F5
:10056D00E309F0A3DFFA806489828A83E0A3F608A9
:10057D00DFFA805889828A83E0A3F208DFFA804C83
:10058D0080D280FA80C680D4806980F2803380105A
:10059D0080A680EA809A80A880DA80E280CA8033C3
:1005AD0089828A83ECFAE493A3C8C582C8CCC5833B
:1005BD00CCF0A3C8C582C8CCC583CCDFE9DEE7800B
:1005CD000D89828A83E493A3F608DFF9ECFAA9F08A
:1005DD00EDFB2289828A83ECFAE0A3C8C582C8CCE0
:1005ED00C583CCF0A3C8C582C8CCC583CCDFEADEF9
:1005FD00E880DB89828A83E493A3F208DFF980CC5B
:10060D0088F0EF60010E4E60C388F0ED2402B40453
:10061D000050B9F582EB2402B4040050AF232345FA
:06062D00822390058D738D
:10063300BB010689828A83E0225002E722BBFE02C5
:09064300E32289828A83E49322F8
:10064C00BB010CE58229F582E5833AF583E0225063
:10065C0006E92582F8E622BBFE06E92582F8E222AD
:0D066C00E58229F582E5833AF583E49322C7
:10067900BB010689828A83F0225002F722BBFE0160
:02068900F3225A
:10068B00F8BB010DE58229F582E5833AF583E8F0A5
:10069B00225006E92582C8F622BBFE05E92582C851
:0206AB00F22239
:1006AD00EF8DF0A4A8F0CF8CF0A428CE8DF0A42E61
:0206BD00FE221B
:1006BF00C5F0F8A3E028F0C5F0F8E58215827002C6
:0606CF001583E038F02263
:0D06D500EF2BFFEE3AFEED39FDEC38FC2274
:0E06E200C3EF9BFFEE9AFEED99FDEC98FC2213
:1006F000E88FF0A4CC8BF0A42CFCE98EF0A42CFCA9
:100700008AF0EDA42CFCEA8EF0A4CDA8F08BF0A426
:100710002DCC3825F0FDE98FF0A42CCD35F0FCEB85
:100720008EF0A4FEA9F0EB8FF0A4CFC5F02ECD394A
:0F073000FEE43CFCEAA42DCE35F0FDE43CFC22B7
:10073F0075F008758200EF2FFFEE33FECD33CDCC71
:10074F0033CCC58233C5829BED9AEC99E5829840F4
:10075F000CF582EE9BFEED9AFDEC99FC0FD5F0D6D1
:10076F00E4CEFBE4CDFAE4CCF9A88222B800C1B9FB
:10077F000059BA002DEC8BF084CFCECDFCE5F0CB39
:10078F00F97818EF2FFFEE33FEED33FDEC33FCEB72
:10079F0033FB10D703994004EB99FB0FD8E5E4F92D
:1007AF00FA227818EF2FFFEE33FEED33FDEC33FC1A
:1007BF00C933C910D7059BE99A4007EC9BFCE99A0E
:1007CF00F90FD8E0E4C9FAE4CCFB2275F010EF2F53
:1007DF00FFEE33FEED33FDCC33CCC833C810D70753
:1007EF009BEC9AE899400AED9BFDEC9AFCE899F88E
:0E07FF000FD5F0DAE4CDFBE4CCFAE4C8F92221
:0E080D00C3E49FFFE49EFEE49DFDE49CFC22FC
:10081B00EB9FF5F0EA9E42F0E99D42F0EC6480C854
:06082B0064809845F022F4
:10083100EB9FF5F0EA9E42F0E99D42F0E89C45F01D
:010841002294
:10084200E8600FECC313FCED13FDEE13FEEF13FF94
:03085200D8F122B8
:10085500E8600FEFC333FFEE33FEED33FDEC33FC01
:03086500D8F122A5
:0C086800E0FCA3E0FDA3E0FEA3E0FF2203
:0C087400E0F8A3E0F9A3E0FAA3E0FB2207
:0C088000ECF0A3EDF0A3EEF0A3EFF022EB
:10088C00A8828583F0D083D0821208A31208A31209
:10089C0008A31208A3E473E493A3C583C5F0C5832E
:1008AC00C8C582C8F0A3C583C5F0C583C8C582C8B6
:0108BC002219
:0C08BD00A42582F582E5F03583F5832246
:1008C900FAE6FB0808E6F925F0F618E6CA3AF62230
:1008D900D083D082F8E4937012740193700DA3A3AE
:1008E90093F8740193F5828883E4737402936860C2
:0608F900EFA3A3A380DFC2
:102A4100EFB40A07740D122A4C740A309811A89930
:102A5100B8130CC2983098FDA899C298B811F630F5
:072A610099FDC299F59922CD
:00000001FF
