:03000000022103D7
:0C210300787FE4F6D8FD75818002214A47
:10190A00041A00000000410077004100AE0C4100BB
:10191A00AF404400A5000000004400880000000019
:10192A0044008C000000004400CB0000000044008A
:10193A00B5000000004400D30000000042009900F6
:10194A0001420086000041007D004100A3004200E0
:10195A00D8000042007E0000410071084100B10039
:10196A004100DA00011E00011F004100D1004100C0
:10197A0085004100900141009B0A4100B4004100EA
:10198A00B00A4100A2004100A40042007B000041CD
:10199A00007300027F0000027D0000017B00017AD3
:1019AA000001780041007A004100CF004100840024
:1019BA0042009100004200A000004100D000410016
:1019CA007400420075000041007200410098004115
:1019DA00009C004100AD00017C000179004200B288
:1019EA0000005000BB0000000000000000000000E2
:0A19FA000000000000420078000029
:10167700EF24A0FFEE340FFEE43DFDE43CFC12082E
:10168700B1D302086EE49000B1F09000AF7440F05F
:101697009000A37402F09000717406F0E490007754
:1016A700F09000CB229000881208A59000A51208A0
:1016B700B11207129000881208BD9000880208A591
:1016C7009000A51208B1C302086EE4FCFD120712D0
:1016D7009000D30208BD9000A91208A5EF2470FF5F
:1016E700EE3417FEE43DFDE43CFC90008822122D09
:1016F700F4E47BE87A03F9F89000800208A5E47522
:10170700F0010206FC9000AFE0FF900077E0C39F76
:1017170022D390009AE09400900099E0940022125E
:1017270008A590008C1208B1020712120695AC06A4
:10173700AD07E41201C3E4FBFA79C878420201213C
:101747009000800208BD9000A50208A5E4FFFEFDF9
:101757007C3F12002D0201FCF0E0540F4480F02280
:10176700D39000D9E094009000D8E0940022900034
:101777009BE09000B0F0227F071227F990009DEFC1
:10178700F09000D2227F647E00022DF4F09000B525
:101797000208A59000D30208B1D39DEC6480F874C9
:1017A700809822E47B02FAF9F80207B890008802D1
:0C17B70008B17E2F122CC37F107E272269
:102AE8008E238F248B258A268927AF051DEF602129
:102AF8000524E524AE237002052314F5828E83E4B1
:102B080093FF7825E475F001120906EF120661803B
:022B1800D922C0
:102C01008F828E83E4F51DF51CF51BF51AAF82AE9C
:102C110083E4FCFDAB1DAA1CA91BA81AC312086EF4
:082C2100500543BD1080E622BE
:092DEB00E0FF7C2F122C297F640B
:102DF400E4FDFCC3ED9FEC9E50070DBD00010C806B
:012E0400F2DB
:012E050022AA
:10000300758E5190FE917401F0A37410F075BD5F6D
:0700130090FEA07420F02212
:102DAF00E490FE80F0758901758DFA758BCB43A881
:0E2DBF0008438840758CCB758AEB4388102240
:102B1A0090FF10E054F04408F090FF02E054F044B3
:102B2A0002F0D28490FFA07420F0A37404F075CC54
:102B3A000675CEFF75CD98759E0275981043A8103C
:012B4A002268
:102E200043B40343B4807F147E00122DF4E4F5B55F
:072E300090FE9B744BF022A1
:102BD70090FF0812176090FF00E054F044031217AB
:102BE7005FA3E054F0440812175F90FF03E0540F0F
:0A2BF7004430F090FF131217602223
:0B2EA2008F99E59830E1FB5398FD226A
:1027F9008FB543B440E5B430E5FB53B4DF12178C11
:10280900E4FBFAF943B440E5B430E5FB53B4DFE542
:10281900B62BFBE5B73AFA7F147E00122DF409B9FD
:0F28290010E2E4F5B5A9027F64FE122DF4AF01B1
:01283800227D
:1017C3007B017A0079BB7D107F007E2F122AE8907F
:1017D30000BBE0FFE4FCFDFE1217471216FF78087A
:1017E3001208921217479000801208B19000BCE0D3
:1017F300FFE4FCFDFE1207121217471216FFE47BEB
:10180300E87A03F9F812072D121747E47F307E7543
:10181300FDFC9000801216CA40107F007E097D3DBA
:101823007C00900080121685400A9000801208C93F
:1018330000009C409000BDE09000D7F0700280074C
:101843009000D7E0B4FE0374FFF09000BEE0FF9079
:10185300009EE4F0A3EFF0E0F8E4F0E890009EF0DF
:101863009000BFE0FF90009EE48FF01206FC900012
:101873009EE0FEA3E0FF4E6009D3EF9408EE9407C9
:10188300400990009EE4F0A37405F09000C0E0903E
:10189300009BF09000A4F09000C1E0900093F060F2
:1018A30006E0D394FF40069000937401F09000C2C9
:1018B300E0F45401900090F09000C3E05401787B71
:1018C300F6A3E05401900085F09000C5E054019028
:1018D3000084F09000C6E090007AF07B017A0079F2
:1018E300787D027F807E2F122AE8900078E09000B6
:1018F300A2F0900079E09000CFF01220619000CF29
:07190300E07003122BAA2281
:10093C00E51E6003020E1343B440E5B430E5FB53EF
:10094C00B4DF85B72385B6249000861217051217DD
:10095C009AAE23AF241216D19000B9E0FEA3E0FFAB
:10096C00C39524EE9523500DC3E5249FF524E52370
:10097C009EF523800BC3EF9524F524EE9523F523E8
:10098C0090008C1208B1AE23AF24E4FCFD120712C8
:10099C0090008C1208BD900086E05401FEA3E04E3E
:1009AC00705212176740179000B0E09464503DE00D
:1009BC002402F0E0D3946440337464F0802E9000F1
:1009CC007EE07004A3E06401702A90009BE0FF902D
:1009DC0000B0E0FED39F4014EE94024004E024FEED
:1009EC00F09000B0E0C39F50031217759000B0E078
:1009FC00FF122352C3900086E094205003020E4253
:100A0C0043BD10E4F0A3F09000B1E00412179390F2
:100A1C0000D312172C9000B51208BD9000B1E0C3A2
:100A2C0094084030E4121793781012087F9000B5A8
:100A3C001208BD1217949000B9EE8FF01206FC90BC
:100A4C0000B9E0C313F0A3E013F09000B51208C98D
:100A5C0000000000900071E0C394085005E004F021
:100A6C0080409000D8E07002A3E0703612177EE050
:100A7C00FE2402FDE433FCEF1217A0501890009DE9
:100A8C00E02402FDE433FCEE1217A050089000D2D3
:100A9C00E090009DF090009DE09000D2F0E490007A
:100AAC0071F0E4FFFEFDFC9000881216CA703690BF
:100ABC00008C1208A5EF2488FFEE34131216EA12EC
:100ACC0008BD900099E07002A3E070197F407E424F
:100ADC007D0FFC900088121685400A900088120841
:100AEC00C9000F4240900077E0701690008C1208FD
:100AFC00A59000A51208BD9000941208C900000032
:100B0C00019000941217261216C74003020CC190D4
:100B1C0000941208A59000A512172C90008C1216A8
:100B2C00CA4003020CC1900077E004F09000CB1295
:100B3C0017269000CB1208BD900077E0FFFBE4FA7B
:100B4C00F9F89000CB1208A51207B89000A512086E
:100B5C00BD12174D780312087F9000941208BDE463
:100B6C007F207E4EFDFC9000941216CA500A900015
:100B7C00941208C900004E20E47F607EEAFDFC90D0
:100B8C000094121685400A9000941208C90000EADD
:100B9C006012174D900088121685403E9000A512E9
:100BAC0008B11216C112071F1216D77F807E387D2E
:100BBC00017C009000D312168540089000AE74069C
:100BCC00F0801DE47F407E9CFDFC9000D3121685C6
:100BDC009000AE40087409F080069000AE740CF0E2
:100BEC009000AE12170F403B1216C11216C75033AD
:100BFC009000AFE094105003020CD09000AEE0D304
:100C0C009409500512174D801112174D900088123F
:100C1C001677400C1216AC1217AA9000881208BD59
:100C2C00020CC112170C5003020CD01216C190000A
:100C3C00A512167740771217B312174D12071F1211
:100C4C0016D77F007E127D7A7C001216C7505E7F0D
:100C5C00807E1A7D067C009000D31216CA504E90EE
:100C6C0000AFE09410400280387FE07E937D047CDE
:100C7C00009000D312168540089000AF7410F080DD
:100C8C001B7FF07E497D027C009000D3121685906C
:100C9C0000AF4005740CF080037408F012170C4080
:100CAC000C1216AC1217AA9000881208BD12170C61
:100CBC004012E48004E4900077F09000CB1208C955
:100CCC00000000009000A3E0D394004036E014F044
:100CDC001216DD1216855003020DCF9000A91208D2
:100CEC00A5EF2498FFEE343AFEE43DFDE43CFC9085
:100CFC00008C1216CA4003020DCF1216DD1208BD6D
:100D0C00020DCF121718405774FFF5F01206FC12A3
:100D1C001718404B7F007E127D7A7C009000881261
:100D2C001685400C9000801208C9000C3500802FED
:100D3C001216FF1217B31216D47F407E547D897C95
:100D4C00009000D312168540161217B3C374409B43
:100D5C00FF74549AFE748999FDE498FC121747129B
:100D6C0016FF90008812172C90008C121685405399
:100D7C009000D7E0FF90009DE0D39F40051217181C
:100D8C0040419000D8E07002A3E070091216C190A7
:100D9C0000A91208BD9000D8E4F0A304F0787AF60C
:100DAC009000911217059000987401F09000AF74A8
:100DBC0008F0E490007EF0A3F0787FF608F6787DDA
:100DCC00F608F69000D31208C90000000090008CC1
:100DDC001208C9000000009000D8E0FEA3E0FFD389
:100DEC009400EE9400404F90009EE0FCA3E0FDD3F5
:100DFC00EF9DEE9C4040E49000D8F0A3F0751E01EE
:100E0C00787AF67878F62290007EE4F0A304F0E489
:100E1C00F51E90007BF0A3F0900073F07FFAFE12A9
:100E2C002C019000B51208C90000000012168C129B
:060E3C0008C900000000DF
:010E4200228D
:1022F400E4F5249000D31208C900000000E4F5239B
:1023040043B440E5B430E5FB53B4DF12179AAFB6DB
:10231400AEB71216D10523E523B480E47F907E0185
:10232400122C019000D31208A5780B12087F8F237A
:10233400E523D3940C400CE523948D5006E52494B6
:0D23440014500A0524E524D3945040A7222C
:012351002269
:10240D009000D31208C900000000E4F523E4F5267E
:10241D00F52743B440E5B430E5FB53B4DF85B7246D
:10242D0085B62512179AAE24AF251216D10527E5CC
:10243D002770020526B400DAE526B420D543BD1079
:10244D000523E523B408C69000D31208A578101211
:0A245D00087F9000B9EEF0A3EFF045
:012467002252
:10257100BF0105E4FCFD802E7E007C017DFF12067B
:10258100951C7D641206A7AC06AD07E41201C38F4A
:10259100428E418D408C3FAB42AA41A940A83F12D7
:1025A1001753AC06AD0790FF907427F075DA0175EB
:0E25B100E30175E2FF8CE58DE475E10F7F001C
:0125BF0022F9
:1029E000BF0104E4FE801E7E007C007DFF121732D2
:1029F0008F428E418D408C3FAB42AA41A940A83FF7
:102A0000121753AE0790FF9C7401F075DEFF8EDF46
:052A100075DD947F005C
:012A1500229E
:022352008F3DBD
:10235400787CE6B53D037F0022787CA63DE53D70A0
:10236400069000D0048016E53DB4640CE49000D0DF
:10237400F090009C04F0800B9000D07402F0E49084
:10238400009CF0E53DFD7C0090007AE0FF7E0012A9
:102394001732E4FBFAF9783F121759C3E53D9FF56C
:0B23A4003E122571AF3E1229E07F00C1
:0123AF00220B
:1012B200122E65120003122BD77F64122352122DB5
:1012C200AF122B1A122E2075BBAA90FEA774FFF044
:1012D20053BBF7D2AF7FC87E00122C017F6412236A
:1012E200529000D17401F012177EF0C2AF1217C3F0
:1012F2009000A2E004F07F807E2F122CC37F107E2C
:1013020027122DF49000A2E0FF7D807C2F122C2961
:1013120012178CD2AF1222F490009BE0FF9000B023
:10132200F01223527F2C7E01122C0112240D900008
:10133200D31208C9000000009000A2E0C394034049
:1013420005E4F0122BAA7879E660237F641214DC9C
:10135200E4FF1214DC9000B2121705C39000B3E050
:10136200942C9000B2E094014004E47879F6900065
:1013720074E0FF9000D0E0FD6F600D7F7612287957
:101382009000D0E0900074F09000ADE0FF90009CDF
:10139200E0FD6F600D7F7712287990009CE090004D
:1013A200ADF0900072E064017041900098E0B401E9
:1013B2003AE4900072F0900098F0900091E0FEA361
:1013C200E0FF9000A0E06E7003A3E06F601DE48F69
:1013D200458E44F543F5427F7412218F900091E0CF
:1013E200FFA3E09000A0CFF0A3EFF043BD101214D2
:1013F200E7900090E0640160030214A7E51F701CEF
:10140200F51E751F011217759000B51208C900006C
:10141200000012168C1208C90000000012093CD309
:1014220090007FE0940090007EE0940040339000B2
:1014320073E0B4012CE4F090007E12170690009342
:10144200E0FFC390007FE09F90007EE09400401197
:10145200E4F0A3F0900084E064016005E4FF12234D
:1014620052121767400F787EE6640118467006F63E
:1014720008F6121706787BE66401600302133A1835
:10148200E6FF787866700302133AA6079000D8E464
:10149200F0A304F0E4F522E522C39408400302130A
:1014A2003A052280F2E4F51F900085E07007FF12F2
:1014B200235202133A9000A4E0FF122352E4F51ED5
:1014C2001217759000B51208C90000000012168CA0
:0A14D2001208C90000000002133ADE
:0B14DC001223527F647E00122C0122BC
:03001B00021E447E
:101E4400C0E0C0F0C083C082C0D075D000C000C064
:101E540001C002C003C004C005C006C007AF1DAE68
:101E64001CAD1BAC1AEF2401FFE43EFEE43DFDE48F
:101E74003C8F1D8E1C8D1BF51A90007B121705904C
:101E8400007BE0FEA3E0FFE4FCFD7B607AEAF9F866
:101E9400D3120858500C90007BE4F0A3F090007328
:101EA40004F0788006E618700106C37880E694E8AA
:101EB40018E69403400C7600087600787D760008D6
:101EC4007601900075121705C3900076E094E890AF
:101ED4000075E094034009E4F0A3F090007204F06C
:101EE400D007D006D005D004D003D002D001D00052
:0B1EF400D0D0D082D083D0F0D0E032FC
:030023000226E8CA
:1026E800C0E0C0F0C083C082C0D075D000C000C0B8
:0D26F80001C002C003C004C005C006C00739
:0F270500E59830E00AAF991224C35398FED2AF83
:10271400D007D006D005D004D003D002D001D00019
:0B272400D0D0D082D083D0F0D0E032C3
:102CC30053BBF7C280E5BB20E3F6D280C2AF75FDEC
:102CD300F075FC0F8EFA8FF975FDD275FC2D75FD1D
:052CE300E175FC1E225A
:102C290053BBF7C280E5BB20E3F6D280C2AF8FFB6E
:102C390075FDF075FC0F8CFA8DF975FDB475FC4BBB
:072C490075FDE175FC1E2280
:102061007F001217B91216F51207B8780812087F07
:102071007D007C2F122C297F647E001216F5120739
:10208100B87D017C2F122C2912178C9000D77D026C
:10209100122DEB90009E7D03122DEBA3E0FF7D043A
:1020A100122DED90009BE0FF7D05122DED90009328
:1020B100E0FF7D06122DED900090E0F4FF7D071208
:1020C1002DED787BE6FF7D08122DED900085E0FF78
:1020D1007D09122DED900084E0FF7D0A122DED9017
:1020E100007AE0FF7D0B122DED7F801217B9122DC2
:1020F100F47D807C2FE4FF122C290D0F122C29D2A4
:01210100AF2E
:0121020022BA
:102C7700637263206572726F7220286372633A30E1
:102C8700782558202062757420646174613A307821
:062C97002558290D0A007A
:041A04000276000066
:101FB700120634FFE5464FFFE545FEE544FDE543E0
:101FC7008F468E458D44F543FC78081208928F465C
:101FD7008E458D4422AF45AE44AD43AC4212087FD7
:101FE700AD0722AD07E4FBFA900001E02274022559
:101FF70024F974003523FA7B01E52624FFFDE52546
:1020070034FFFC22E475F001020906AA06AB077D3E
:10201700037F0722AF75AE74AD73AC7202087FFE03
:10202700E554FDE553FCE47BFF22E4F540F53FF57D
:102037003EF53D22120634AB49AA4AA94B22AB60B2
:10204700AA61A96202061BAB63AA64A96502061B03
:0A205700755A01755B00755C2222CA
:10221600EFC39430400CEFD39439500674D02FFF9F
:102226008022EFC39441400CEFD394465006EF242E
:10223600C9FF8010EFC39461400AEFD3946650043F
:10224600EF24A9FFEF540FC454F0FFEDC3943040C0
:102256000CEDD39439500674D02DFD801EEDC39439
:10226600414008EDD394465002800CEDC394614082
:102276000AEDD394665004ED24A9FDED540F4207F0
:012286002235
:062773008B3A8A3B893C11
:10277900122031E94A4B7005FFFEFDFC221220317F
:10278900783A12200B12061B601AE5402401FFE477
:10279900353FFEE4353EFDE4353D8F408E3F8D3EAD
:0C27A900F53D80DCAF40AE3FAD3EAC3DE6
:0127B5002201
:062A81008B088A09890A96
:102A87008B0E8A0F8910E94A4B7004FBFAF922E58D
:102A97000D150DAE0C7002150C4E600B780E122042
:0D2AA7000BED12066180E8AB08AA09A90A30
:012AB40022FF
:061BF8008B418A42894383
:101BFE008B498A4A894B85444C85454D85464EE92D
:101C0E004A4B6008E5464545454470077B007A001F
:101C1E00790022D3854D83854E82E54B9582E54A28
:101C2E0095834019E54E2548F9E54D3547FA8A83E7
:101C3E008982D3E54B9582E54A95834032E4F54F90
:101C4E00F550C3E5509548E54F9547505BAB4CAA10
:101C5E004DA94E855082854F8312203B855082853B
:101C6E004F831206730550E55070D7054F80D3850C
:101C7E00474F854850D3E5509400E54F94004028D7
:101C8E00AB4CAA4DA94EE55024FFFFE54F34FFFEA5
:101C9E008F82F58312203B8F828E83120673E5505E
:0E1CAE00155070D1154F80CDAB41AA42A9430D
:011CBC002205
:0628F5008B118A12891309
:1028FB008B178A188919AB14AA15A91612061B6017
:10290B0014781412200B12061BFF781112200BEFF8
:10291B0012066180E1AB11AA12A913E4120661AB96
:05292B0017AA18A9190C
:012930002284
:10272F008B608A618962122045FF602012204E6003
:10273F001BB5071874012562F562E43561F5617404
:10274F00012565F565E43564F56480DA12204EFFE6
:10275F003395E0FE122045FD3395E0FCC3ED9FFF5E
:04276F00EC9EFE22BC
:102AB5008F758E748D738C72781812087FEF1206DD
:102AC50061781012201B900001EF1206737808122E
:102AD500201B900002EF120673E575FF900003EFCF
:032AE50002067373
:1025C000E4F546F545F544F54312061BFFE48F4656
:1025D000F545F544F543AE45AD44AC43121FD08CF0
:1025E00043900001121FB78C43900002121FB78C5A
:1025F00043900003120634FFE5464FFFE545FEE534
:0A26000044FDE543121FD5F543FC2D
:01260A0022AD
:06269F008B678A6889695F
:1026A500121FEAB401037F0122AF03AE02122E9579
:1026B500AA06AB07E41226DFE56A1226DFAD6B1228
:1026C5002E95AB67AA68A969856A3F856B40122B71
:0926D5007B12201212251C7F016A
:0A26DE0022FD122E95AA06AB07227A
:04260B008D3DAC074E
:10260F00121FECB401037F0122AF03AE02AD04121F
:10261F002644E4FD122644E53D7003FD8006AF031A
:10262F00AE027D01122E95AA06AB077D037F07121E
:04263F00251C7F01D6
:1026430022122E95AA06AB077D01122E95AA06AB80
:0226530007225C
:10218F00121FEAB401037F0122AF03AE02122E9594
:10219F007D02122202E4FD122E957D04122202C04E
:1021AF0006C0077818121FDCD007D00612220EC007
:1021BF0006C0077810121FDCD007D00612220EC0FF
:1021CF0006C007AF45AE44AD43AC42780812087F56
:1021DF00AD07D007D006122E95AA06AB07C007E5AC
:1021EF0045FFE4AD07D007122E9512201212251CC1
:0221FF007F015E
:1022010022AA06AB07122E95AA06AB0722122E951B
:05221100AA06AB072244
:062655008B6D8A6E896F97
:10265B00121FEAB401037F0122AF03AE02122697C9
:10266B007D03122697E570FD122E95AA06AB07ADDA
:10267B0071122E95AB6DAA6EA96F85703F85714057
:0B268B00122B7B12201212251C7F0175
:0926960022122E95AA06AB0722C0
:042879008D3DAC07DE
:10287D00121FECB401037F0122AF03AE02AD0412AF
:10288D002E957D041228ACE4FD122E957D011228A3
:0E289D00ACAD3D122E9512201212251C7F01AB
:0D28AB0022AA06AB07122E95AA06AB072243
:021D8100AD07AC
:101D8300E4F557F558900001E0B401037F012212F6
:101D93001E247D05121E3CE4FD121E3C74FFFFE56C
:101DA30055122026FAF9F8C312086E70097D011244
:101DB3001E24AD56803D74FFFF1220267AFFF9F8EA
:101DC300C312086E70047D0280197D04121E3078E0
:101DD30018121E0BAF56AE55AD54AC537810120803
:101DE3007FAD07121E307808121E0BE556FFE4ADD7
:101DF30007AF58122E958E578F58AB58AA577D03AD
:071E03007F0712251C7F017F
:101E0A0022AF56AE55AD54AC5312087FAD07AF584A
:101E1A00AE57122E958E578F5822AF58AE57122EA4
:101E2A00958E578F5822AF58AE57122E958E578FD0
:0A1E3A005822122E958E578F582261
:082EC1008C3D8D3E12061BFF43
:012EC90022E6
:082ECA008C3D8D3E12061BFF3A
:012ED20022DD
:072ED3008C418D421225C065
:012EDA0022D5
:1024C3008F51C3E55F955CFFE55E955BFEEF6401AD
:1024D3004E6045D3855E83855F82E55C9582E55BCF
:1024E30095834015E55C955FFFE55B955EFEC3EF65
:1024F3009417EE64809480501FC3900039E55C9577
:1025030082E55B958340077A007922122057785A37
:0925130012200BE55112066122B1
:1014E700E4F523F524F525F526C3E577941FE5767E
:1014F70094005024122DCDEFD39400401B122839AD
:101507000577E577AC7670020576142402F58274C8
:10151700003CF583EFF080D1C3E5779407E5769437
:10152700005003021676C3E5779524FDE5769523EB
:10153700FCC3ED9407EC9400500302163F74022598
:1015470024F58274003523F583E06455600A052489
:10155700E52470D2052380CE74032524F582740018
:101567003523F583E064AA600A0524E52470B705EE
:101577002380B374042524F58274003523F583E0B2
:1015870060047402803C74062524F58274003523B8
:10159700F583E0752600F52574072524F582740088
:1015A7003523F583E02407FFE433FEEF2526F526F0
:1015B700EE3525F525D3E5269426E5259400400A42
:1015C70074032524F524E4021638C3ED9526EC951B
:1015D700254065121FF4122C9DE5242526FDE523E1
:1015E7003525FC74012DF58274003CF583E06F60AE
:1015F70031121FF4122C9D8F2A7BFF7A2C7977E505
:10160700242526FFE5233525FE74012FF582740076
:101617003EF583E0F52B120EA574032524F524E48B
:10162700800FAF24AE23121A38E5262524F524E5CA
:10163700253523F52302152DC3E5779524F577E5A1
:10164700769523F576D3E5779400E5769400401FE9
:1016570074022524F974003523754401F54589463C
:0F1667008576478577487B017A007902121BF858
:011676002251
:102E6500122057755D01755E00755F2290007074C4
:032E7500FFF02249
:062EDB00900021E0FF223F
:0E2E8700E4900021F0FBFA7D037F0402251C7D
:062EE100900000E0FF225A
:022E3700AD07E5
:102E3900E4FF900000F0FE122E95EFFB7A007D036F
:052E49007F0502251CBD
:062EE700900070E0FF22E4
:0A2EAD00E4FBFA7D037F2B02251CD5
:101A08004100DF004400DB000000005E00E014013C
:101A180016026504660267016802690271017201B3
:0C1A2800730174027501760477049602C5
:102A1600AB37AA38A939AD3BAC3A2290007AE0FF31
:102A2600E48F45F544F543F54222900091E0FEA37C
:102A3600E0FFE48F458E44F543F54222E0FFE4FCD7
:062A4600FDFEC302086E54
:102BAA007F55122EA27FAA122EA27F03122EA27F77
:102BBA0005122EA2E4FF122EA27F01122EA2E4FF1A
:0D2BCA00122EA27F08122EA2787976012229
:03001E00022EA20D
:101CBD00900000E0FD7F1412260B900085E0FD7F63
:101CCD007112260B90009B122A247F1612218F90E1
:101CDD0000D7E0FFB4FF05E4F52F801EEFB4C80573
:101CED00752F028015EFB42805752F03800CEFB406
:101CFD001405752F048003752F05AD2F7F651228F0
:101D0D007990009E122A337F6612218F900090E009
:101D1D00FD7F6712260B900093122A247F681221F3
:101D2D008FE47B107A27F9F89000801208A512072E
:101D3D00B8C374329F122A257F6912218F787BE6F2
:101D4D00FD7F7212260B900084E0FD7F7312260B2F
:101D5D00122A307F7412218F9000D0E0FD7F761211
:101D6D00287990009CE0FD7F77122879122A217F37
:041D7D009602218F1A
:102E4E00122EC1900000EFF0FD7F1412260BBF0171
:062E5E00037F01227F004A
:012E6400224B
:10296C00122ED38F408E3F8D3E8C3D90009BAB4002
:10297C00AA3FA93EA83D122A427002FF22AF409006
:10298C00009BEFF0FE9000A4F0122A267F16122175
:09299C008FBF01037F01227F00BF
:0129A500220F
:102B4B00122ED390007AE0B507037F002290007A13
:102B5B00EFF0E4FF1223529000A4E0FF1223521275
:0F2B6B002A217F9612218FBF01037F01227F0055
:012B7A002238
:1023B000122ECA9000DFE0B507037F0022EF146001
:1023C0001014601514601A14601F14602424057022
:1023D000289000D774FFF080209000D774C8F08058
:1023E000189000D77428F080109000D77414F080F3
:1023F0000890009DE09000D7F09000DFEFF0FD7FA7
:0C24000065122879BF01037F01227F00D4
:01240C0022AD
:1027B600122ED38F408E3F8D3E8C3D90009EE0FEC4
:1027C600A3E0FFE4FCFDAB40AA3FA93EA83DC3122F
:1027D600086E7002FF22AE3FAF4090009EEEF0A35F
:1027E600EFF0122A387F6612218FBF01037F012284
:0227F6007F0062
:0127F80022BE
:102D2D00122EC1900090E0B507037F002290009015
:102D3D00EFF0FD7F6712260BBF01037F01227F009D
:012D4D002263
:102A4C00122ED38F408E3F8D3E8C3D900093AB4029
:102A5C00AA3FA93EA83D122A427002FF22AF409025
:102A6C000093EFF0122A267F6812218FBF01037F9B
:042A7C0001227F00B4
:012A80002233
:10228700122ED38F408E3F8D3E8C3D9000DB12087F
:10229700A5AB40AA3FA93EA83DC312086E7002FF36
:1022A70022AF40AE3FAD3EAC3D9000DB1208BDC350
:1022B70074329540FFE4953FFEE4953EFDE4953D7D
:1022C700FCE47B107A27F9F812072D90008012089A
:1022D700BD9000DB1208A58F458E448D438C427F4D
:0C22E7006912218FBF01037F01227F00DC
:0122F30022C8
:1029A600122EC1900085E0B507037F0022EF700666
:1029B600900085F08011900090E0B40104787A765A
:1029C600019000857401F0900085E0FD7F7112266C
:0929D6000BBF01037F01227F0009
:0129DF0022D5
:102D9000122EC1787BE6B507037F0022787BEFF621
:0E2DA000FD7F7212260BBF01037F01227F0010
:012DAE002202
:102D4E00122EC1900084E0B507037F00229000840C
:102D5E00EFF0FD7F7312260BBF01037F01227F0070
:012D6E002242
:102E0600122EC1EF7002FF22E4900091F0A3F0129F
:092E16002A307F7412218F7F0124
:012E1F002290
:061EFF008B378A38893997
:101F0500EF1209161F31141F53161F65651F6D66E5
:101F15001F75671F7D681F85691F8D711F95721F4E
:101F25009D731FA5751F5C9600001FAF122A161220
:101F35002E4E8F3CE53C640170759000B4E004F0D2
:101F4500E0C394054069E4F0122BAA021FB4122ADB
:101F55001612296C021FAB122A16122B4B021FAB4D
:101F6500122A161223B0803E122A161227B6803680
:101F7500122A16122D2D802E122A16122A4C802670
:101F8500122A16122287801E122A161229A68016D8
:101F9500122A16122D90800E122A16122D4E800628
:101FA500122A16122E068F3C8000E49000B4F0AF82
:011FB5003CEF
:011FB6002208
:032EED007F0F2232
:0F2E7800EF24FC60028007122061E47879F622D3
:102931007B2270223A220071676B6A35796D636779
:102941007261706A676A3000222C2276223A220074
:10295100312E302E3000222C226D223A0030007DA3
:0B29610000000000000000000000006B
:031A340001590055
:102CE80074082528F58274003527F583E022743F9F
:102CF8002FF974003EFA7B0122E475F001120906EF
:032D080002061BA5
:0C2E9500122CF6ED1206610FBF00010EBA
:012EA100220E
:0A2B7B008E3A8F3B8B3C8A3D893E69
:102B8500122CF6853C44853D45853E46853F478567
:102B95004048121BF8E540253BF53BE53F353AF546
:042BA5003AFEAF3B0A
:012BA9002209
:0A2C9D008B488A49894A8C4B8D4C04
:102CA700E4FFFDFCC3ED954CEC954B500E784812B4
:0B2CB7002D012FFF0DBD00010C80E976
:012CC20022EF
:1028B8008B488A49894A8C4B8D4CE94A4B602DE5F7
:1028C8004C454B6027E54C154CAE4B7002154B4EF2
:1028D800601AAB48AA49A94A12061BFF12001E74C7
:0D28E80001254AF54AE43549F54980D92219
:04251C008A468B4719
:102520009000397455F0A374AAF0A3EDF0A3EFF076
:10253000E546A3F0E547A3F02407F547E43546F563
:10254000467B017A007939E54724FFFDE54634FFF3
:10255000FC122C9DAE0774382547F5827400354671
:10256000F583EFF07B017A007939AD47AC4602285C
:01257000B8B2
:102D0B00E4FFE559700AFEFD122E957559018007F7
:102D1B007E007D01122E95EFFB7A007D03E4FF020E
:022D2B00251C65
:101B2D00E4F52F78307C00FD7BFF7A297962FE7F0A
:101B3D000A1205F57A297931121BC87A29793112E1
:101B4D002B7B8F2F7A297938121BC87A2979381275
:101B5D002B7B8F2F7A297949121BD87A2979491233
:101B6D002B7B8F2F7A297951121BD87A2979511213
:101B7D002B7B8F2F7A297957121BE87A29795712E7
:101B8D002B7B8F2F7A29795E121BE87A29795E12C9
:101B9D002B7B8F2F7BFF7A2979601227738E3F8FD6
:101BAD0040AF2F7E007BFF7A297960122B7B8F2F20
:0B1BBD00EFFB7A007D037F0102251C76
:101BC8007BFF1227738E3F8F40AF2F7E007BFF2253
:101BD8007BFF1227738E3F8F40AF2F7E007BFF2243
:101BE8007BFF1227738E3F8F40AF2F7E007BFF2233
:0A2EB700E4FBFA7D037F0202251CF4
:022D6F008F369D
:102D7100122EEDE4FEEEC39F501275F002EE9000AC
:0E2D8100E01208FAE0653660030E80E9AF0646
:012D8F002221
:062468008B2F8A30893140
:10246E0012061BF532900001120634F5339000026D
:10247E00120634753500F5349000031206342535F6
:10248E00F535E43534F534AF32122D6F75F002EFB9
:10249E009000E11208FAE0653360037F0022AB2F53
:1024AE00E5312404F9E43530FA85343A85353BAF0D
:0424BE0032121EFFB9
:0124C20022F7
:041A38008E278F283E
:101A3C0074052FF58274003EF583E0FF1209161A27
:101A4C006A001A6D011A70021A73031A84041A8937
:101A5C00051A90061B22081B252B00001B2C022D9F
:101A6C000B021B2D022EB7122CE8900070F0E4FB39
:101A7C00FA7D037F0302251C900021800390000057
:101A8C007401F02274062528F58274003527F5833D
:101A9C00E0FE74072528F58274003527F583E0FDF8
:101AAC00EEF52DEDF52EE4F52BF52CC3E52C952E4E
:101ABC00E52B952D506AE528252CFDE527352BFCCB
:101ACC00740A2DF58274003CF583E0752A00F52923
:101ADC00740B2DF58274003CF583E0252AF52AE47D
:101AEC003529F52974082528F974003527FA7B0166
:101AFC00E9252CF9EA352BFA122468BF01031220D0
:101B0C0061E52A2404FFE43529FEEF252CF52CEEA3
:101B1C00352BF52B8095021CBD122CE8FF122E786C
:011B2C002296
:102DCD00E55D855E83855F82655A700AE55C658287
:0E2DDD007004E55B658360037F01227F0022A6
:10283900AB5DAA5EA95FE55A855B83855C82655DB0
:10284900700AE55F65827004E55E65836021C39067
:102859000039E55F9582E55E9583400D7A0079221E
:0F286900755D01755E00755F22785D122D01FFB0
:01287800223D
:10002600020268E86480F8E933E83360110460F09E
:10003600ED33EC337009E8FCE9FDEAFEEBFF220440
:1000460060DED3EB9FEA9EE99DE8C2E78CF0C2F73B
:1000560095F0400CE8CCF8E9CDF9EACEFAEBCFFB07
:1000660012023385D0F05804700320D5B3E804702B
:10007600075002B2D502027292D5EC0460F7E4CCC6
:10008600C0E0C398F8603B94186008400DD0E0FBD0
:1000960002024AE4FBFAC9FC8028E830E406E4C917
:1000A600FBE4CAFCE830E305E4C9CACBFCE8540724
:1000B6006010F8C3E913F9EA13FAEB13FBEC13FC2F
:1000C600D8F130F52FC3E49CFCEF9BFFEE9AFEEDD2
:1000D60099FDD0E0FBEF4E4D4C701222DB0302027D
:1000E6006FEC2CFCEF33FFEE33FEED33FDED30E726
:1000F600EB02024AEF2BFFEE3AFEED39FDD0E0FBB4
:1001060050130BBB0003020272ED13FDEE13FEEF5C
:0801160013FFEC13FC02024A86
:10011E00020272EC5D046005E85904700302026885
:10012E00120233580460F6EC4860F2EC7004FDFEE7
:10013E00FF22C860DB2481C85009C39860025006B4
:10014E0002026F9850CAF582E9294B4A7005AB82BC
:10015E0002025E75F0007C1A7880C3EF9BEE9AED7A
:10016E0099400DC3EF9BFFEE9AFEED99FDE842F02C
:10017E00DC23ACF0D0E0FFD0E0FED0E0FDAB82207F
:10018E00E7101BEB60BAEC2CFCEF33FFEE33FEED09
:10019E0033FD02024AE803F830E705C0F075F000BF
:1001AE00EF2FFFEE33FEED33FD40B830E7C280AAED
:1001BE0075F020800E75F010800575F0087D007EBC
:1001CE00007F003392D530D50312084AEC3340102D
:1001DE00EF33FFEE33FEED33FDEC33FCD5F0ED22C5
:0E01EE00E5F0247EA2D513CC92E7CDCEFF2201
:1001FC00EDD2E7CD33EC3392D524814006E4FFFEFB
:10020C00FDFC22FCE4CFCECDCC24E0501174FF8059
:10021C00EDC3CC13CCCD13CDCE13CECF13CF0470F6
:07022C00F030D5DE02084AA4
:100E4300E53E242AF8E6053E227827300702782A71
:100E5300E475F00112090602061B2000EB7F2ED277
:100E6300008018EF540F2490D43440D4FF30040B87
:100E7300EF24BFB41A0050032461FFE53F6002155D
:100E83003F0542E5427002054130070D7827E475BE
:100E9300F001120906EF020661022C507403D20717
:100EA3008003E4C207F53E8B278A288929E4F53FAE
:100EB300F541F542E53F60077F20120E7E80F57510
:100EC30040FFC201C200C202C203C205C206C20879
:100ED300120E4CFF700D3007057F00120E8FAF42CC
:100EE300AE4122B4255FC2D5C204120E4CFF24D0FA
:100EF300B40A00501A75F00A783F30D50508B6FFDA
:100F03000106C6A426F620D5047002D20380D92494
:100F1300CFB41A00EF5004C2E5D20402117CD2010F
:100F230080C6D20080C0D20280BCD2D580BAD2059E
:100F330080B47F20120E7E2002077401B53F00406B
:100F4300F1120E43FF120E7E020EB7D208D20680B4
:100F530095120E43FB120E43FA120E43F94A4B70DD
:100F63000679737A127BFF20022EE53F602A7E000A
:100F73008E8275830012063460060EEE654070F0B3
:100F8300C2D5EBC0E0EAC0E0E9C0E0EE1211DCD06C
:100F9300E0F9D0E0FAD0E0FB12061BFF60AAEBC039
:100FA300E0EAC0E0E9C0E0120E7ED0E02401F9D00F
:100FB300E03400FAD0E0FBE5400460DCD540D980A2
:100FC30087D20280A21211BF60F7E54070010412BC
:100FD300027DA940600DE540600914F540121266D8
:100FE300EF60F3EA30E702F404C3995077EAF4259B
:100FF300400430E701E404F540800D1211BF60C1E5
:10100300EA0540254012027DEA783DF630E701E427
:10101300254004D54004200501141211DCE4C0E08E
:10102300121266783DE6601320E70714F6120E6687
:10103300802204F6D0E014C0E07F00120E66E54083
:101043006007120E5D1540800B300503120E5DD054
:10105300E0020EB7D0E00480C51211BF60A0E540E6
:101063000412027D783DEAF6E540200502600104A2
:0510730024041211DC51
:1010780074FF04C0E0121266120E66E540200502F5
:101088006003120E5DD0E0B540E87F45120E70781F
:101098003DE67F2B30E7047F2DF404C0E0120E7E7E
:1010A800D0E075F00A84C0F0120E67D0E0120E6727
:1010B800020EB7791080027908C206C2088008D2E9
:1010C800D5790A8004790AC2D5E540047002F54052
:1010D800E4FAFDFEFF120E43FC7B08200113120EFA
:1010E80043FD7B1030000A120E43FE120E43FF7BB5
:1010F80020EC3382D592D55013C3E43000069FFF0D
:10110800E49EFEE42001039DFDE49CFCE4CBF8C2D0
:1011180001EC700CCFCECDCCE824F8F870F3801732
:10112800C3EF33FFEE33FEED33FDEC33FCEB33FB63
:10113800994002FB0FD8E9EB300105F8D0E0C4482C
:10114800B201C0E00AEC4D4E4F78207B0070C2EA35
:10115800B5400040BCC0E01211DED0F0D0E0200164
:1011680004C4C0E0C4B201C0F0120E67D0F0D5F0DC
:10117800EB020EB71209160F545310BB580F254C2B
:101188000F214210BF4F10C74410C7490F3A4310F0
:10119800CD550FFE46105C450FC8471293500F29D6
:1011A8002D0F2D2E0F502B0F31230F4E20127C2A7E
:1011B8000EE94800000F48E540B4FF0375400612E9
:1011C8000E43FC120E43FD120E43FE120E43FF782F
:1011D800360202AC790AA2D5200314300509B910E9
:1011E800020404B9080104A2D52006025001042013
:1011F80002689202B53F005034C0E07F20300319E6
:101208007F30A20272067205500F121235C202C256
:1012180006C205C2087F30800F300503E9C0E0121E
:101228000E7E300503D0E0F9D0E0B53FCC3005178D
:101238007F30B9100C120E7E7F583004077F7880FB
:1012480003B90803120E7E3002057F2D020E7E7F41
:10125800202008F87F2B2006F322920280CF7F00FF
:10126800B4070050052436F8E6FF22286E756C6C2A
:101278002900D201120E433001F8C201783F30D55F
:101288000108F6020EE92D50434958120E43240373
:10129800B405004001E490128E93120E6F743A1256
:0A12A8000E6FD203753F040210BB65
:10023300E9D2E7C933E833F892D5EDD2E7CD33EC11
:0702430033FC5002B2D5228A
:10024A00EC30E7100FBF000C0EBE00080DBD000415
:10025A000BEB6014A2D5EB13FCED92E7FD2274FFC1
:10026A00FCFDFEFF22E480F8A2D574FF13FC7D801A
:03027A00E480EF2E
:10027D00F920E72824F950037907E4F42402FB1848
:10028D00DBFDE624FB5014E9600DE4F618E604F6F8
:0F029D00B40A08E4F6D9F57401F60A22C2D52294
:1002AC00ED33EC3392D5FA602AB4FF33EDC2E77B21
:1002BC00FF60067A0279D1E4227A0279DA20D50439
:1002CC007A0279D5224E614E002B494E46002D49BB
:1002DC004E4600E47A08F608DAFC7B00740722E844
:1002EC00C0E0ECC0E0EDC0E0EEC0E0EFC0E0EA75CD
:1002FC00F010A4CAABF075F04DA42BFBE435F0FC68
:10030C00EA2410FAEB34C5FBEC34D9FCEDC2E7FF60
:10031C0075F056A4F42411C5F0F434C58FF0A42A5A
:10032C00E5F03BE43CF620E7141204E5D0E0FFD006
:10033C00E0FED0E0FDD0E0FC1201218014F40412A8
:10034C0004E5D0E0FFD0E0FED0E0FDD0E0FC1203ED
:10035C00AFD0E0F8E6FAEDD2E7CD33EC332482FBF4
:10036C00E4C3CF33CFCE33CECD33CD33DBF37B07EA
:10037C0075F00A846004F6081B0AE5F0F6088FF0A5
:10038C00740AA4FFACF08EF0740AA42CFEACF050EE
:10039C00010C8DF0740AA42CFDE435F0F608DBDEBC
:0303AC00740722B1
:1003AF00EC4D6011E8497017ED33EC3304600DE448
:1003BF00FCFFFEFD22E933E8330470F802026812F5
:1003CF00023358046009E4CC2481500628500902F6
:1003DF00027228400302026FC0E0EB4A7044B980FA
:1003EF0006D0E0FB02025EEF4E701CBD8008EBFFF3
:1003FF00EAFEE9FD80EBE98DF0A4FEE5F00204983A
:10040F00E9CDF9EAFEEBFFEF89F0A4FCE5F0CE8928
:10041F00F0A42EFFE435F0CD89F0A42DFEE435F0E5
:10042F008067EF4E7005BD80D780C3EF8BF0A4AC13
:10043F00F0EE8BF0A42CFCE435F0F8EF8AF0A42C4E
:10044F00E5F038FCE433CB8DF0A42CFCE5F03BF861
:10045F00EE8AF0A42CFCE5F038F8E433CF89F0A451
:10046F002CFCE5F038CF3400CE89F0A42FFFE5F057
:10047F003EFEE433C98DF0A42EFEE5F039CD8AF0AF
:10048F00A42FFFE5F03EFEE43DFD33D0E0FB500727
:10049F000BBB000F020272EC2CFCEF33FFEE33FEAE
:0604AF00ED33FD02024ADC
:1004B5003F8000004120000042C80000447A00004F
:1004C500461C400047C35000497424004B189680D1
:1004D5004CBEBC205A0E1BCA6753C21C749DC5AEC8
:1004E500FB60065407601C2323120513EB54386088
:1004F500091204FF12050E1203AFECF8EDF9EEFA3E
:10050500EFCB22EB12050E80F1543803241C900426
:10051500B5FE93FC0EEE93FD0EEE930ECE93FF22E9
:10210F000212B2E493A3F8E493A34003F68001F222
:10211F0008DFF48029E493A3F85407240CC8C333D1
:10212F00C4540F4420C8834004F456800146F6DFA0
:10213F00E4800B010204081020408090190AE47E0D
:10214F00019360BCA3FF543F30E509541FFEE49395
:10215F00A360010ECF54C025E060A840B8E493A35C
:10216F00FAE493A3F8E493A3C8C582C8CAC583CA87
:10217F00F0A3C8C582C8CAC583CADFE9DEE780BE3F
:011A370000AE
:10052500E709F608DFFA8046E709F208DFFA803EB8
:1005350088828C83E709F0A3DFFA8032E309F608A5
:10054500DFFA8078E309F208DFFA807088828C830D
:10055500E309F0A3DFFA806489828A83E0A3F608C1
:10056500DFFA805889828A83E0A3F208DFFA804C9B
:1005750080D280FA80C680D4806980F28033801072
:1005850080A680EA809A80A880DA80E280CA8033DB
:1005950089828A83ECFAE493A3C8C582C8CCC58353
:1005A500CCF0A3C8C582C8CCC583CCDFE9DEE78023
:1005B5000D89828A83E493A3F608DFF9ECFAA9F0A2
:1005C500EDFB2289828A83ECFAE0A3C8C582C8CCF8
:1005D500C583CCF0A3C8C582C8CCC583CCDFEADE11
:1005E500E880DB89828A83E493A3F208DFF980CC73
:1005F50088F0EF60010E4E60C388F0ED2402B4046C
:100605000050B9F582EB2402B4040050AF23234512
:06061500822390057573BD
:10061B00BB010689828A83E0225002E722BBFE02DD
:09062B00E32289828A83E4932210
:10063400BB010CE58229F582E5833AF583E022507B
:1006440006E92582F8E622BBFE06E92582F8E222C5
:0D065400E58229F582E5833AF583E49322DF
:10066100BB010689828A83F0225002F722BBFE0178
:02067100F32272
:10067300F8BB010DE58229F582E5833AF583E8F0BD
:10068300225006E92582C8F622BBFE05E92582C869
:02069300F22251
:10069500EF8DF0A4A8F0CF8CF0A428CE8DF0A42E79
:0206A500FE2233
:1006A700BC000BBE0029EF8DF084FFADF022E4CC37
:1006B700F875F008EF2FFFEE33FEEC33FCEE9DEC00
:1006C700984005FCEE9DFE0FD5F0E9E4CEFD22ED46
:1006D700F8F5F0EE8420D21CFEADF075F008EF2F90
:1006E700FFED33FD4007985006D5F0F222C398FD81
:0506F7000FD5F0EA221E
:1006FC00C5F0F8A3E028F0C5F0F8E5821582700289
:06070C001583E038F02225
:0D071200EF2BFFEE3AFEED39FDEC38FC2236
:0E071F00C3EF9BFFEE9AFEED99FDEC98FC22D5
:10072D00E88FF0A4CC8BF0A42CFCE98EF0A42CFC6B
:10073D008AF0EDA42CFCEA8EF0A4CDA8F08BF0A4E9
:10074D002DCC3825F0FDE98FF0A42CCD35F0FCEB48
:10075D008EF0A4FEA9F0EB8FF0A4CFC5F02ECD390D
:0F076D00FEE43CFCEAA42DCE35F0FDE43CFC227A
:10077C0075F008758200EF2FFFEE33FECD33CDCC34
:10078C0033CCC58233C5829BED9AEC99E5829840B7
:10079C000CF582EE9BFEED9AFDEC99FC0FD5F0D694
:1007AC00E4CEFBE4CDFAE4CCF9A88222B800C1B9BE
:1007BC000059BA002DEC8BF084CFCECDFCE5F0CBFC
:1007CC00F97818EF2FFFEE33FEED33FDEC33FCEB35
:1007DC0033FB10D703994004EB99FB0FD8E5E4F9F0
:1007EC00FA227818EF2FFFEE33FEED33FDEC33FCDD
:1007FC00C933C910D7059BE99A4007EC9BFCE99AD1
:10080C00F90FD8E0E4C9FAE4CCFB2275F010EF2F15
:10081C00FFEE33FEED33FDCC33CCC833C810D70715
:10082C009BEC9AE899400AED9BFDEC9AFCE899F850
:0E083C000FD5F0DAE4CDFBE4CCFAE4C8F922E3
:0E084A00C3E49FFFE49EFEE49DFDE49CFC22BF
:10085800EB9FF5F0EA9E42F0E99D42F0EC6480C817
:0608680064809845F022B7
:10086E00EB9FF5F0EA9E42F0E99D42F0E89C45F0E0
:01087E002257
:10087F00E8600FECC313FCED13FDEE13FEEF13FF57
:03088F00D8F1227B
:10089200E8600FEFC333FFEE33FEED33FDEC33FCC4
:0308A200D8F12268
:0C08A500E0FCA3E0FDA3E0FEA3E0FF22C6
:0C08B100E0F8A3E0F9A3E0FAA3E0FB22CA
:0C08BD00ECF0A3EDF0A3EEF0A3EFF022AE
:1008C900A8828583F0D083D0821208E01208E01252
:1008D90008E01208E0E473E493A3C583C5F0C58377
:1008E900C8C582C8F0A3C583C5F0C583C8C582C879
:0108F90022DC
:0C08FA00A42582F582E5F03583F5832209
:10090600FAE6FB0808E6F925F0F618E6CA3AF622F2
:10091600D083D082F8E4937012740193700DA3A370
:1009260093F8740193F5828883E473740293686084
:06093600EFA3A3A380DF84
:102C5000EFB40A07740D122C5B740A309811A8990E
:102C6000B8130CC2983098FDA899C298B811F630E4
:072C700099FDC299F59922BC
:00000001FF
