:030000000220BA21
:0C20BA00787FE4F6D8FD758181022101D9
:1018CF00041A0000000041007B004100B10C4100F0
:1018DF00B2404400A80000000044008B000000004C
:1018EF0044008F000000004400CE000000004400C0
:1018FF00B8000000004400D50000000042009C002A
:10190F00014200890000410080004100A600420012
:10191F00DA00004200810000410075084100B40068
:10192F004100DC00011E00011F004100D3004100F7
:10193F0088004100930141009E0A4100B700410019
:10194F00B30A4100A5004100A70042007E000041FC
:10195F0000770002800000027E0000017C00017B06
:10196F000001790041007D00410087004200940092
:10197F00004200A300004100D20041007800420065
:10198F007900004100760041009B0041009F00411B
:10199F0000B000017D00017A004200B50000500048
:1019AF00BE0000000000000000000000000000006A
:0519BF000041007C0066
:10165000EF24A0FFEE340FFEE43DFDE43CFC120855
:10166000B1D302086EE49000B4F09000B27440F080
:101670009000A67402F09000757406F0E490007B70
:10168000F09000CE2290008B1208A59000A81208BE
:10169000B112071290008B1208BD90008B0208A5B2
:1016A0009000A81208B1C302086EE4FCFD120712F4
:1016B0009000D50208BD9000AC1208A5EF2470FF81
:1016C000EE3417FEE43DFDE43CFC90008B22122D2D
:1016D000C7E47BE87A03F9F89000830208A590003C
:1016E000B2E0FF90007BE0C39F22D390009DE09486
:1016F0000090009CE0940022E475F0010206FC12C8
:1017000008A590008F1208B1020712120695AC06C8
:10171000AD07E41201C3E4FBFA79C8784202012163
:101720009000830208BD9000A80208A5E4FFFEFD1A
:101730007C3F12002D0201FCF0E0540F4480F022A7
:10174000D39000DBE094009000DAE0940022900057
:101750009EE09000B3F0227F071227DB9000A0EFFD
:10176000F09000D4227F647E00022DC7F09000B874
:101770000208A59000D50208B1D39DEC6480F874EE
:10178000809822E47B02FAF9F80207B890008B02F5
:0C17900008B17E2F122CB57F107E27229E
:102ADC008E238F248B258A268927AF051DEF602135
:102AEC000524E524AE237002052314F5828E83E4BD
:102AFC0093FF7825E475F001120906EF1206618048
:022B0C00D922CC
:102BF3008F828E83E4F51DF51CF51BF51AAF82AEAB
:102C030083E4FCFDAB1DAA1CA91BA81AC312086E02
:082C1300500543BD1080E622CC
:092DBE00E0FF7C2F122C1B7F6446
:102DC700E4FDFCC3ED9FEC9E50070DBD00010C8098
:012DD700F209
:012DD80022D8
:10000300758E5190FE917401F0A37410F075BD5F6D
:0700130090FEA07420F02212
:102D6400E490FE80F0758901758DFA758BCB43A8CC
:0E2D740008438840758CCB758AEB438810228B
:102B400090FF10E054F04408F090FF02E054F0448D
:102B500002F0D28490FFA07420F0A37404F075CC2E
:102B60000675CEFF75CD98759E0275981043A81016
:012B70002242
:102DF40043B40343B4807F147E00122DC7E4F5B5B9
:072E040090FE9B744BF022CD
:102BA00090FF0812173990FF00E054F04403121709
:102BB00038A3E054F0440812173890FF03E0540F94
:0A2BC0004430F090FF131217392281
:0B2E7C008F99E59830E1FB5398FD2290
:1027DB008FB543B440E5B430E5FB53B4DF12176556
:1027EB00E4FBFAF943B440E5B430E5FB53B4DFE561
:1027FB00B62BFBE5B73AFA7F147E00122DC709B949
:0F280B0010E2E4F5B5A9027F64FE122DC7AF01FC
:01281A00229B
:10179C007B017A0079BE7D107F007E2F122ADC90AF
:1017AC0000BEE0FFE4FCFDFE1217201216D87808EC
:1017BC001208921217209000831208B19000BFE01B
:1017CC00FFE4FCFDFE1207121217201216D8E47B60
:1017DC00E87A03F9F812072D121720E47F307E7592
:1017EC00FDFC9000831216A340107F007E097D3D06
:1017FC007C0090008312165E400A9000831208C988
:10180C0000009C409000C0E09000D9F0700280076E
:10181C009000D9E0B4FE0374FFF09000C1E0FF909B
:10182C0000A1E4F0A3EFF0E0F8E4F0E89000A1F000
:10183C009000C2E0FF9000A1E48FF01206FC900033
:10184C00A1E0FEA3E0FF4E6009D3EF9408EE9407ED
:10185C0040099000A1E4F0A37405F09000C3E0905F
:10186C00009EF09000A7F09000C4E0900096F0600D
:10187C0006E0D394FF40069000967401F09000C5EA
:10188C00E0F45401900093F09000C6E05401787C91
:10189C00F6A3E05401900088F09000C8E054019049
:1018AC000087F09000C9E090007DF07B017A007910
:1018BC007C7D017F807E2F122ADC90007CE09000E2
:0318CC00A5F02262
:10093C00E51E6003020E1343B440E5B430E5FB53EF
:10094C00B4DF85B72385B6249000891216F81217E8
:10095C0073AE23AF241216AA9000BCE0FEA3E0FFF6
:10096C00C39524EE9523500DC3E5249FF524E52370
:10097C009EF523800BC3EF9524F524EE9523F523E8
:10098C0090008F1208B1AE23AF24E4FCFD120712C5
:10099C0090008F1208BD900089E05401FEA3E04E38
:1009AC00705212174040179000B3E09464503DE031
:1009BC002402F0E0D3946440337464F0802E9000F1
:1009CC0081E07004A3E06401702A90009EE0FF9027
:1009DC0000B3E0FED39F4014EE94024004E024FEEA
:1009EC00F09000B3E0C39F500312174E9000B3E099
:1009FC00FF122328C3900089E094205003020E427A
:100A0C0043BD10E4F0A3F09000B4E00412176C9016
:100A1C0000D51217059000B81208BD9000B4E0C3C1
:100A2C0094084030E412176C781012087F9000B8CC
:100A3C001208BD12176D9000BCEE8FF01206FC90E0
:100A4C0000BCE0C313F0A3E013F09000B81208C987
:100A5C0000000000900075E0C394085005E004F01D
:100A6C0080409000DAE07002A3E07036121757E075
:100A7C00FE2402FDE433FCEF12177950189000A00D
:100A8C00E02402FDE433FCEE12177950089000D4F8
:100A9C00E09000A0F09000A0E09000D4F0E4900072
:100AAC0075F0E4FFFEFDFC90008B1216A3703690DF
:100ABC00008F1208A5EF2488FFEE34131216C31210
:100ACC0008BD90009CE07002A3E070197F407E424C
:100ADC007D0FFC90008B12165E400A90008B120862
:100AEC00C9000F424090007BE0701690008F1208F6
:100AFC00A59000A81208BD9000971208C90000002C
:100B0C00019000971216FF1216A04003020CC19020
:100B1C0000971208A59000A812170590008F1216C6
:100B2C00A34003020CC190007BE004F09000CE12B5
:100B3C0016FF9000CE1208BD90007BE0FFFBE4FA9C
:100B4C00F9F89000CE1208A51207B89000A8120868
:100B5C00BD121726780312087F9000971208BDE487
:100B6C007F207E4EFDFC9000971216A3500A900039
:100B7C00971208C900004E20E47F607EEAFDFC90CD
:100B8C00009712165E400A9000971208C90000EAFE
:100B9C006012172690008B12165E403E9000A81231
:100BAC0008B112169A12071F1216B07F807E387D7C
:100BBC00017C009000D512165E40089000B17406BE
:100BCC00F0801DE47F407E9CFDFC9000D512165EEB
:100BDC009000B140087409F080069000B1740CF0DC
:100BEC009000B11216E1403B12169A1216A0503327
:100BFC009000B2E094105003020CD09000B1E0D3FE
:100C0C0094095005121726801112172690008B128A
:100C1C001650400C12168512178390008B1208BDCB
:100C2C00020CC11216DE5003020CD012169A900060
:100C3C00A8121650407712178C12172612071F1283
:100C4C0016B07F007E127D7A7C001216A0505E7F5B
:100C5C00807E1A7D067C009000D51216A3504E9013
:100C6C0000B2E09410400280387FE07E937D047CDB
:100C7C00009000D512165E40089000B27410F080FF
:100C8C001B7FF07E497D027C009000D512165E9091
:100C9C0000B24005740CF080037408F01216DE40AC
:100CAC000C12168512178390008B1208BD1216DEDB
:100CBC004012E48004E490007BF09000CE1208C94E
:100CCC00000000009000A6E0D394004036E014F041
:100CDC001216B612165E5003020DCF9000AC12081D
:100CEC00A5EF2498FFEE343AFEE43DFDE43CFC9085
:100CFC00008F1216A34003020DCF1216B61208BDB8
:100D0C00020DCF1216EA405774FFF5F01206FC12D2
:100D1C0016EA404B7F007E127D7A7C0090008B128D
:100D2C00165E400C9000831208C9000C3500802F11
:100D3C001216D812178C1216AD7F407E547D897C0A
:100D4C00009000D512165E401612178CC374409B8F
:100D5C00FF74549AFE748999FDE498FC12172012C2
:100D6C0016D890008B12170590008F12165E405308
:100D7C009000D9E0FF9000A0E0D39F40051216EA46
:100D8C0040419000DAE07002A3E0700912169A90CC
:100D9C0000AC1208BD9000DAE4F0A304F0787BF606
:100DAC009000941216F890009B7401F09000B274AD
:100DBC0008F0E4900081F0A3F07880F608F6787ED5
:100DCC00F608F69000D51208C90000000090008FBC
:100DDC001208C9000000009000DAE0FEA3E0FFD387
:100DEC009400EE9400404F9000A1E0FCA3E0FDD3F2
:100DFC00EF9DEE9C4040E49000DAF0A3F0751E01EC
:100E0C00787BF67879F622900081E4F0A304F0E484
:100E1C00F51E90007EF0A3F0900077F07FFAFE12A2
:100E2C002BF39000B81208C90000000012166512CE
:060E3C0008C900000000DF
:010E4200228D
:10238C00E4F5249000D51208C900000000E4F52300
:10239C0043B440E5B430E5FB53B4DF121773AFB66A
:1023AC00AEB71216AA0523E523B480E47F907E0114
:1023BC00122BF39000D51208A5780B12087F8F23EF
:1023CC00E523D3940C400CE523948D5006E524941E
:0D23DC0014500A0524E524D3945040A72294
:0123E90022D1
:1023EA009000D51208C900000000E4F523E4F526A0
:1023FA00F52743B440E5B430E5FB53B4DF85B72491
:10240A0085B625121773AE24AF251216AA0527E53D
:10241A002770020526B400DAE526B420D543BD109C
:10242A000523E523B408C69000D51208A578101232
:0A243A00087F9000BCEEF0A3EFF065
:012444002275
:10254E00BF0105E4FCFD802E7E007C017DFF12069E
:10255E00951C7D641206A7AC06AD07E41201C38F6D
:10256E00418E408D3F8C3EAB41AA40A93FA83E1202
:10257E00172CAC06AD0790FF907427F075DA017535
:0E258E00E30175E2FF8CE58DE475E10F7F003F
:01259C00221C
:102A0900BF0104E4FE801E7E007C007DFF12170BCF
:102A19008F2A8E298D288C27AB2AAA29A928A8278D
:102A290012172CAE0790FF9C7401F075DEFF8EDF44
:052A390075DD947F0033
:012A3E002275
:022328008F25FF
:10232A00787DE6B525037F0022787DA625E5257010
:10233A000C9000D204F0E490009FF0801CE525B4D4
:10234A00640CE49000D2F090009F04F0800B90009F
:10235A00D27402F090009F14F0E525FD7C009000F5
:10236A007DE0FF7E0012170BE4FBFAF9783F1217A3
:10237A0032C3E5259FF52612254EAF26122A097F7C
:01238A000052
:01238B00222F
:1012B200122E4E120003122BA07F64122328122D2D
:1012C20064122B40122DF475BBAA90FEA774FFF096
:1012D20053BBF7D2AF7FC87E00122BF37F64122379
:1012E200289000D37401F0121757F0C2AF12179C66
:1012F2009000A5E004F07F807E2F122CB57F107E37
:1013020027122DC79000A5E0FF7D807C2F122C1B99
:10131200121765D2AF12238C90009EE0FF9000B3AB
:10132200F01223287F2C7E01122BF31223EA900065
:10133200D51208C9000000009000A5E0C394034044
:1013420005E4F0122CFE900078E0FF9000D2E0FD60
:101352006F600D7F7612289B9000D2E0900078F0AB
:101362009000B0E0FF90009FE0FD6F600D7F77126C
:10137200289B90009FE09000B0F0900076E064011E
:10138200704190009BE0B4013AE4900076F0900046
:101392009BF0900094E0FEA3E0FF9000A3E06E704B
:1013A20003A3E06F601DE48F468E45F544F5437F4D
:1013B20074122146900094E0FFA3E09000A3CFF0C6
:1013C200A3EFF043BD10E51E700B90008AE0541F9E
:1013D20070031214C0900093E06401600302148B46
:1013E200E51F701CF51E751F0112174E9000B812F2
:1013F20008C9000000001216651208C900000000AA
:1014020012093CD3900082E09400900081E09400A5
:101412004033900077E0B4012CE4F0900081121682
:10142200F9900096E0FFC3900082E09F900081E077
:1014320094004011E4F0A3F0900087E0640160059D
:10144200E4FF122328121740400F787FE664011848
:10145200467006F608F61216F9787CE66401600317
:1014620002133A18E6FF787966700302133AA60768
:101472009000DAE4F0A304F0E4F522E522C3940834
:10148200400302133A052280F2E4F51F900088E03F
:101492007007FF12232802133A9000A7E0FF1223DD
:1014A20028E4F51E12174E9000B81208C900000079
:0E14B200001216651208C90000000002133A6D
:03001B00021E00C2
:101E0000C0E0C0F0C083C082C0D075D000C000C0A8
:101E100001C002C003C004C005C006C007AF1DAEAC
:101E20001CAD1BAC1AEF2401FFE43EFEE43DFDE4D3
:101E30003C8F1D8E1C8D1BF51A90007E1216F8909B
:101E4000007EE0FEA3E0FFE4FCFD7B607AEAF9F8A7
:101E5000D3120858500C90007EE4F0A3F090007765
:101E600004F0788106E618700106C37881E694E8EC
:101E700018E69403400C7600087600787E76000819
:101E800076019000791216F8C390007AE094E890F9
:101E90000079E094034009E4F0A3F090007604F0A8
:101EA000D007D006D005D004D003D002D001D00096
:0B1EB000D0D0D082D083D0F0D0E03240
:0300230002270DA4
:10270D00C0E0C0F0C083C082C0D075D000C000C092
:0D271D0001C002C003C004C005C006C00713
:0F272A00E59830E00AAF991224A05398FED2AF81
:10273900D007D006D005D004D003D002D001D000F4
:0B274900D0D0D082D083D0F0D0E0329E
:102CB50053BBF7C280E5BB20E3F6D280C2AF75FDFA
:102CC500F075FC0F8EFA8FF975FDD275FC2D75FD2B
:052CD500E175FC1E2268
:102C1B0053BBF7C280E5BB20E3F6D280C2AF8FFB7C
:102C2B0075FDF075FC0F8CFA8DF975FDB475FC4BC9
:072C3B0075FDE175FC1E228E
:10201D007F001217921216CE1207B8780812087F99
:10202D007D007C2F122C1B7F647E001216CE1207B2
:10203D00B87D017C2F122C1B1217659000D97D02E3
:10204D00122DBE9000A17D03122DBEA3E0FF7D04D5
:10205D00122DC090009EE0FF7D05122DC0900096C0
:10206D00E0FF7D06122DC0900093E0F4FF7D071276
:10207D002DC0787CE6FF7D08122DC0900088E0FF12
:10208D007D09122DC0900087E0FF7D0A122DC090B2
:10209D00007DE0FF7D0B122DC07F80121792122D57
:0C20AD00C77D807C2FE4FF122C1BD2AFFB
:0120B9002204
:102C6900637263206572726F7220286372633A30EF
:102C7900782558202062757420646174613A30782F
:062C89002558290D0A0088
:0419C40002770000A6
:101F7300120634FFE5474FFFE546FEE545FDE54420
:101F83008F478E468D45F544FC78081208928F479B
:101F93008E468D4522AF46AE45AD44AC4312087F15
:101FA300AD0722AD07E4FBFA900001E0227402259D
:101FB30024F974003523FA7B01E52624FFFDE5258A
:101FC30034FFFC22E475F001020906AA06AB077D83
:101FD300037F0722AF76AE75AD74AC7302087FFE44
:101FE300E555FDE554FCE47BFF22E4F541F540F5BE
:101FF3003FF53E22120634AB4AAA4BA94C22AB61F1
:10200300AA62A96302061BAB64AA65A96602061B42
:0A201300755B01755C00755D22220B
:1022B700EFC39430400CEFD39439500674D02FFFFE
:1022C7008022EFC39441400CEFD394465006EF248D
:1022D700C9FF8010EFC39461400AEFD3946650049E
:1022E700EF24A9FFEF540FC454F0FFEDC39430401F
:1022F7000CEDD39439500674D02DFD801EEDC39498
:10230700414008EDD394465002800CEDC3946140E0
:102317000AEDD394665004ED24A9FDED540F42074E
:012327002293
:062798008B3B8A3C893DE9
:10279E00121FEDE94A4B7005FFFEFDFC22121FEDE4
:1027AE00783B121FC712061B601AE5412401FFE495
:1027BE003540FEE4353FFDE4353E8F418E408D3F82
:0C27CE00F53E80DCAF41AE40AD3FAC3EBC
:0127DA0022DC
:062A75008B088A09890AA2
:102A7B008B0E8A0F8910E94A4B7004FBFAF922E599
:102A8B000D150DAE0C7002150C4E600B780E121F4F
:0D2A9B00C7ED12066180E8AB08AA09A90A80
:012AA800220B
:061BB4008B428A438944C4
:101BBA008B4A8A4B894C85454D85464E85474FE968
:101BCA004A4B6008E5474546454570077B007A0061
:101BDA00790022D3854E83854F82E54C9582E54B69
:101BEA0095834019E54F2549F9E54E3548FA8A8328
:101BFA008982D3E54C9582E54B95834032E4F550D2
:101C0A00F551C3E5519549E5509548505BAB4DAA4E
:101C1A004EA94F855182855083121FF785518285BF
:101C2A0050831206730551E55170D7055080D3854C
:101C3A004850854951D3E5519400E5509400402815
:101C4A00AB4DAA4EA94FE55124FFFFE55034FFFEE4
:101C5A008F82F583121FF78F828E83120673E551E6
:0E1C6A00155170D1155080CDAB42AA43A9444C
:011C78002249
:062992008B118A1289136B
:102998008B178A188919AB14AA15A91612061B6079
:1029A800147814121FC712061BFF7811121FC7EFE5
:1029B80012066180E1AB11AA12A913E4120661ABF9
:0529C80017AA18A9196F
:0129CD0022E7
:102754008B618A628963122001FF602012200A6063
:102764001BB5071874012563F563E43562F56274DB
:10277400012566F566E43565F56580DA12200AFF01
:102784003395E0FE122001FD3395E0FCC3ED9FFF7D
:04279400EC9EFE2297
:102AA9008F768E758D748C73781812087FEF1206E5
:102AB900617810121FD7900001EF1206737808127F
:102AC9001FD7900002EF120673E576FF900003EF1F
:032AD9000206737F
:10259D00E4F547F546F545F54412061BFFE48F4774
:1025AD00F546F545F544AE46AD45AC44121F8C8C51
:1025BD0044900001121F738C44900002121F738C03
:1025CD0044900003120634FFE5474FFFE546FEE554
:0A25DD0045FDE544121F91F544FC92
:0125E70022D1
:06267C008B688A69896A7F
:10268200121FA6B401037F0122AF03AE02122E6F06
:10269200AA06AB07E41226BCE56B1226BCAD6C128F
:1026A2002E6FAB68AA69A96A856B40856C41122BB3
:0926B20071121FCE1224F97F0100
:0A26BB0022FD122E6FAA06AB0722C3
:0425E8008D3EAC0771
:1025EC00121FA8B401037F0122AF03AE02AD041287
:1025FC002621E4FD122621E53E7003FD8006AF0383
:10260C00AE027D01122E6FAA06AB077D037F071267
:04261C0024F97F011D
:1026200022122E6FAA06AB077D01122E6FAA06ABEF
:0226300007227F
:10214600121FA6B401037F0122AF03AE02122E6F47
:102156007D021221B9E4FD122E6F7D041221B9C051
:1021660006C0077818121F98D007D0061221C5C0DE
:1021760006C0077810121F98D007D0061221C5C0D6
:1021860006C007AF46AE45AD44AC43780812087F9B
:10219600AD07D007D006122E6FAA06AB07C007E51B
:1021A60046FFE4AD07D007122E6F121FCE1224F998
:0221B6007F01A7
:1021B80022AA06AB07122E6FAA06AB0722122E6FB1
:0521C800AA06AB07228E
:062632008B6E8A6F8970B7
:10263800121FA6B401037F0122AF03AE0212267453
:102648007D03122674E571FD122E6FAA06AB07AD45
:1026580072122E6FAB6EAA6FA97085714085724198
:0B266800122B71121FCE1224F97F010B
:0926730022122E6FAA06AB072209
:04289B008D3EAC07BB
:10289F00121FA8B401037F0122AF03AE02AD0412D1
:1028AF002E6F7D041228CEE4FD122E6F7D011228AB
:0E28BF00CEAD3E122E6F121FCE1224F97F01F5
:0D28CD0022AA06AB07122E6FAA06AB072247
:021D3D00AD07F0
:101D3F00E4F558F559900001E0B401037F01221238
:101D4F001DE07D05121DF8E4FD121DF874FFFFE57F
:101D5F0056121FE2FAF9F8C312086E70097D0112CC
:101D6F001DE0AD57803D74FFFF121FE27AFFF9F8B7
:101D7F00C312086E70047D0280197D04121DEC7869
:101D8F0018121DC7AF57AE56AD55AC547810120888
:101D9F007FAD07121DEC7808121DC7E557FFE4ADA4
:101DAF0007AF59122E6F8E588F59AB59AA587D0312
:071DBF007F071224F97F01E8
:101DC60022AF57AE56AD55AC5412087FAD07AF598A
:101DD600AE58122E6F8E588F5922AF59AE58122E0A
:101DE6006F8E588F5922AF59AE58122E6F8E588F5C
:0A1DF6005922122E6F8E588F5922C9
:082E91008C3E8D3F12061BFF71
:012E99002216
:082E9A008C3E8D3F12061BFF68
:012EA200220D
:072EA3008C428D4312259DB6
:012EAA002205
:1024A0008F52C3E560955DFFE55F955CFEEF6401CB
:1024B0004E6045D3855F83856082E55D9582E55CEE
:1024C00095834015E55D9560FFE55C955FFEC3EF84
:1024D000941BEE64809480501FC390003DE55D9591
:1024E00082E55C958340077A007922122013785B9D
:0924F000121FC7E5521206612219
:1014C000E4F523F524F525F526C3E578941FE577A3
:1014D00094005024122DA0EFD39400401B12285BDF
:1014E0000578E578AC7770020577142402F58274EC
:1014F000003CF583EFF080D1C3E5789407E577945D
:1015000000500302164FC3E5789524FDE577952337
:10151000FCC3ED9407EC94005003021618740225E6
:1015200024F58274003523F583E06455600A0524B0
:10153000E52470D2052380CE74032524F58274003F
:101540003523F583E064AA600A0524E52470B70515
:101550002380B374042524F58274003523F583E0D9
:1015600060047402803C74062524F58274003523DF
:10157000F583E0752600F52574072524F5827400AF
:101580003523F583E02407FFE433FEEF2526F52617
:10159000EE3525F525D3E5269426E5259400400A69
:1015A00074032524F524E4021611C3ED9526EC9569
:1015B000254065121FB0122C8FE5242526FDE5235A
:1015C0003525FC74012DF58274003CF583E06F60D5
:1015D00031121FB0122C8F8F2A7BFF7A2C7969E58C
:1015E000242526FFE5233525FE74012FF58274009E
:1015F0003EF583E0F52B120EA574032524F524E4B3
:10160000800FAF24AE231219F8E5262524F524E532
:10161000253523F523021506C3E5789524F578E5ED
:10162000779523F577D3E5789400E5779400401F0C
:1016300074022524F974003523754501F546894760
:0F1640008577488578497B017A007902121BB4BF
:01164F002278
:102E4E00122013755E01755F007560229000747418
:032E5E00FFF02260
:062EAB00900021E0FF226F
:0E2E6100E4900021F0FBFA7D037F040224F9C7
:062EB100900000E0FF228A
:022E0B00AD0711
:102E0D00E4FF900000F0FE122E6FEFFB7A007D03C1
:052E1D007F050224F90D
:062EB700900074E0FF2210
:1019C8004100E1004400DD000000005E00E2140177
:1019D800160217026504660267016802690271014E
:0C19E8007201730174027501760477042B
:102A3F00AB38AA39A93AAD3CAC3B2290009EE0FFDF
:102A4F00E48F46F545F544F543229000A1E0FEA33F
:102A5F00E0FFE48F468E45F544F54322E0FFE4FCAA
:062A6F00FDFEC302086E2B
:102CFE007F55122E7C7FAA122E7C7F03122E7C7F94
:102D0E0004122E7CE4FF122E7CE4FF122E7C7F0632
:032D1E00022E7C06
:03001E00022E7C33
:101C7900900000E0FD7F141225E8900088E0FD7FC8
:101C8900711225E8122A4A7F161221469000D9E0DE
:101C9900FFB4FF05E4F530801EEFB4C805753002C6
:101CA9008015EFB42805753003800CEFB414057561
:101CB90030048003753005AD307F6512289B122AE8
:101CC900597F66122146900093E0FD7F671225E84F
:101CD900900096122A4D7F68122146E47B107A27DC
:101CE900F9F89000831208A51207B8C374329F123D
:101CF9002A4E7F69122146787CE6FD7F721225E81B
:101D0900900087E0FD7F731225E8900094122A5C09
:101D19007F741221469000D2E0FD7F7612289B90B5
:101D2900009FE0FD7F7712289B90007D122A4D7F4E
:041D39001702214626
:102E2200122E91900000EFF0FD7F141225E8BF01F1
:062E3200037F01227F0076
:012E38002277
:10281B00122EA38F418E408D3F8C3E90009EAB417C
:10282B00AA40A93FA83E122A6B6006E4FF0FBF081F
:10283B00FCAF4190009EEFF09000A7F012201D120C
:0F284B002A4A7F16122146BF01037F01227F0018
:01285A00225B
:102D8200122E9A90007DEFF012254E90007DE0FD0C
:0D2D92007F1712289BBF01037F01227F00E5
:012D9F002211
:1021CD00122E9A9000E1E0B5070FBF05129000D9CD
:1021DD00E0FE9000A0E06E8006E4FE0EBE08FCEF6F
:1021ED0014601014601514601A14601F14602424F8
:1021FD000570289000D974FFF080209000D974C824
:10220D00F080189000D97428F080109000D97414C3
:10221D00F080089000A0E09000D9F09000E1EFF080
:10222D0012201D9000E1E0FD7F6512289BBF010388
:05223D007F01227F007B
:012242002279
:1026C500122EA38F418E408D3F8C3E9000A1E0FEDF
:1026D500A3E0FFE4FCFDAB41AA40A93FA83EC3121D
:1026E500086E6006E4FF0FBF08FC9000A1E540F00E
:1026F500A3E541F012201D122A597F66122146BF1B
:0727050001037F01227F00A8
:01270C0022AA
:102B0E00122E91900093E06F6006E4FE0EBE08FC5C
:102B1E00EF9000937003F080037401F012201D906B
:102B2E000093E0FD7F671225E8BF01037F01227F3E
:012B3E000096
:012B3F002273
:1028DA00122EA38F418E408D3F8C3E900096AB41C5
:1028EA00AA40A93FA83E122A6B6006E4FF0FBF0860
:1028FA00FC900096E541F012201D900096122A4D98
:0D290A007F68122146BF01037F01227F007C
:01291700229D
:10224300122EA38F418E408D3F8C3E9000DD1208ED
:10225300A5AB41AA40A93FA83EC312086E6006E49D
:10226300FF0FBF08FCAF41AE40AD3FAC3E9000DD79
:102273001208BDC374329541FFE49540FEE4953FD7
:10228300FDE4953EFCE47B107A27F9F812072D90C4
:1022930000831208BD12201D9000DD1208A58F4691
:1022A3008E458D448C437F69122146BF01037F0114
:0322B300227F0087
:0122B6002205
:10291800122E91900088E06F6006E4FE0EBE08FC5F
:10292800EF7006900088F08011900093E0B40104E5
:10293800787B76019000887401F0900088E0FD7F34
:0C294800711225E8BF01037F01227F000F
:012954002260
:102BCA00122E91AD07787CE66D6006E4FF0FBF0810
:102BDA00FCED787C7003F6800276017F721225E89C
:082BEA00BF01037F01227F00FF
:012BF20022C0
:102CDA00122E91900087E06F6006E4FE0EBE08FC9B
:102CEA00900087EFF0FD7F731225E8BF01037F0193
:032CFA00227F0036
:012CFD0022B4
:102DD900122E91EF6012E4900094F0A3F090009409
:0A2DE900122A5C7F741221467F015C
:012DF30022BD
:061EBB008B388A39893AD8
:101EC100EF1209161EED141F0F161F18171F21659B
:101ED1001F29661F31671F39681F41691F49711F1B
:101EE10051721F59731F617500001F6B122A3F1237
:101EF1002E228F3DE53D640170759000B7E004F03E
:101F0100E0C394054069E4F0122CFE021F70122A0E
:101F11003F12281B021F67122A3F122D82021F67E0
:101F2100122A3F1221CD803E122A3F1226C5803649
:101F3100122A3F122B0E802E122A3F1228DA8026F7
:101F4100122A3F122243801E122A3F12291880169C
:101F5100122A3F122BCA800E122A3F122CDA800657
:101F6100122A3F122DD98F3D8000E49000B7F0AFC7
:011F71003D32
:011F7200224C
:032EBD007F0F2262
:1029CE007B2270223A220071676B6A35796D6367DC
:1029DE007261706A676A3000222C2276223A2200D7
:1029EE00312E302E3000222C226D223A0030007D06
:0B29FE000000000000000000000000CE
:0319F400015A0095
:102E390074432FF974003EFA7B0122E475F0011204
:052E4900090602061B52
:0C2E6F00122E39ED1206610FBF00010E9B
:012E7B002234
:0A2B71008E3B8F3C8B3D8A3E893F6E
:102B7B00122E39853D45853E46853F478540488524
:102B8B004149121BB4E541253CF53CE540353BF58D
:042B9B003BFEAF3C12
:012B9F002213
:0A2C8F008B498A4A894B8C4C8D4D0D
:102C9900E4FFFDFCC3ED954DEC954C500E784912BF
:0B2CA9002E442FFF0DBD00010C80E940
:012CB40022FD
:102955008B498A4A894B8C4C8D4DE94A4B602DE554
:102965004D454C6027E54D154DAE4C7002154C4E4E
:10297500601AAB49AA4AA94B12061BFF12001E7426
:0D29850001254BF54BE4354AF54A80D92277
:0424F9008A478B483B
:1024FD0090003D7455F0A374AAF0A3EDF0A3EFF096
:10250D00E547A3F0E548A3F02407F548E43547F582
:10251D00477B017A00793DE54824FFFDE54734FF0F
:10252D00FC122C8FAE07743C2548F582740035479C
:10253D00F583EFF07B017A00793DAD48AC47022978
:01254D005538
:102D2100E4FFE55A700AFEFD122E6F755A01800705
:102D31007E007D01122E6FEFFB7A007D03E4FF021E
:022D410024F973
:101AE900E4F53078317C00FD7BFF7A2979FFFE7FB0
:101AF9000A1205F57A2979CE121B847A2979CE1230
:101B09002B718F307A2979D5121B847A2979D512CC
:101B19002B718F307A2979E6121B947A2979E6128A
:101B29002B718F307A2979EE121B947A2979EE126A
:101B39002B718F307A2979F4121BA47A2979F4123E
:101B49002B718F307A2979FB121BA47A2979FB1220
:101B59002B718F307BFF7A2979FD1227988E408F60
:101B690041AF307E007BFF7A2979FD122B718F30CE
:0B1B7900EFFB7A007D037F010224F9DE
:101B84007BFF1227988E408F41AF307E007BFF226F
:101B94007BFF1227988E408F41AF307E007BFF225F
:101BA4007BFF1227988E408F41AF307E007BFF224F
:0A2E8700E4FBFA7D037F020224F948
:022D43008F37C8
:102D4500122EBDE4FEEEC39F501275F002EE900008
:0E2D5500E21208FAE0653760030E80E9AF066F
:012D6300224D
:062445008B308A31893260
:10244B0012061BF533900001120634F5349000028E
:10245B00120634753600F535900003120634253616
:10246B00F536E43535F535AF33122D4375F002EF04
:10247B009000E31208FAE0653460037F0022AB3072
:10248B00E5322404F9E43531FA85353B85363CAF2A
:04249B0033121EBB1F
:01249F00221A
:0419F8008E278F287F
:1019FC0074052FF58274003EF583E0FF1209161A68
:101A0C0027001A2A011A2D021A30031A4B041A50F5
:101A1C00051A57061AE50800001AE8022D21021AC9
:101A2C00E9022E8774082528F58274003527F58382
:101A3C00E0900074F0E4FBFA7D037F030224F9903C
:101A4C00002180039000007401F02274062528F513
:101A5C008274003527F583E0FE74072528F582741F
:101A6C00003527F583E0FDEEF52EEDF52FE4F52C92
:101A7C00F52DC3E52D952FE52C952E505FE52825EA
:101A8C002DFDE527352CFC740A2DF58274003CF5F0
:101A9C0083E0752A00F529740B2DF58274003CF552
:101AAC0083E0252AF52AE43529F52974082528F937
:101ABC0074003527FA7B01E9252DF9EA352CFA1249
:101ACC0024458F2BE52A2404FFE43529FEEF252D30
:0C1ADC00F52DEE352CF52C8099121C79AC
:011AE80022DB
:102DA000E55E855F83856082655B700AE55D6582AF
:0E2DB0007004E55C658360037F01227F0022D2
:10285B00AB5EAA5FA960E55B855C83855D82655E87
:10286B00700AE56065827004E55F65836021C39043
:10287B00003DE5609582E55F9583400D7A007922F6
:0F288B00755E01755F00756022785E122E44FF46
:01289A00221B
:10002600020268E86480F8E933E83360110460F09E
:10003600ED33EC337009E8FCE9FDEAFEEBFF220440
:1000460060DED3EB9FEA9EE99DE8C2E78CF0C2F73B
:1000560095F0400CE8CCF8E9CDF9EACEFAEBCFFB07
:1000660012023385D0F05804700320D5B3E804702B
:10007600075002B2D502027292D5EC0460F7E4CCC6
:10008600C0E0C398F8603B94186008400DD0E0FBD0
:1000960002024AE4FBFAC9FC8028E830E406E4C917
:1000A600FBE4CAFCE830E305E4C9CACBFCE8540724
:1000B6006010F8C3E913F9EA13FAEB13FBEC13FC2F
:1000C600D8F130F52FC3E49CFCEF9BFFEE9AFEEDD2
:1000D60099FDD0E0FBEF4E4D4C701222DB0302027D
:1000E6006FEC2CFCEF33FFEE33FEED33FDED30E726
:1000F600EB02024AEF2BFFEE3AFEED39FDD0E0FBB4
:1001060050130BBB0003020272ED13FDEE13FEEF5C
:0801160013FFEC13FC02024A86
:10011E00020272EC5D046005E85904700302026885
:10012E00120233580460F6EC4860F2EC7004FDFEE7
:10013E00FF22C860DB2481C85009C39860025006B4
:10014E0002026F9850CAF582E9294B4A7005AB82BC
:10015E0002025E75F0007C1A7880C3EF9BEE9AED7A
:10016E0099400DC3EF9BFFEE9AFEED99FDE842F02C
:10017E00DC23ACF0D0E0FFD0E0FED0E0FDAB82207F
:10018E00E7101BEB60BAEC2CFCEF33FFEE33FEED09
:10019E0033FD02024AE803F830E705C0F075F000BF
:1001AE00EF2FFFEE33FEED33FD40B830E7C280AAED
:1001BE0075F020800E75F010800575F0087D007EBC
:1001CE00007F003392D530D50312084AEC3340102D
:1001DE00EF33FFEE33FEED33FDEC33FCD5F0ED22C5
:0E01EE00E5F0247EA2D513CC92E7CDCEFF2201
:1001FC00EDD2E7CD33EC3392D524814006E4FFFEFB
:10020C00FDFC22FCE4CFCECDCC24E0501174FF8059
:10021C00EDC3CC13CCCD13CDCE13CECF13CF0470F6
:07022C00F030D5DE02084AA4
:100E4300E53E242AF8E6053E227827300702782A71
:100E5300E475F00112090602061B2000EB7F2ED277
:100E6300008018EF540F2490D43440D4FF30040B87
:100E7300EF24BFB41A0050032461FFE53F6002155D
:100E83003F0542E5427002054130070D7827E475BE
:100E9300F001120906EF020661022C427403D20725
:100EA3008003E4C207F53E8B278A288929E4F53FAE
:100EB300F541F542E53F60077F20120E7E80F57510
:100EC30040FFC201C200C202C203C205C206C20879
:100ED300120E4CFF700D3007057F00120E8FAF42CC
:100EE300AE4122B4255FC2D5C204120E4CFF24D0FA
:100EF300B40A00501A75F00A783F30D50508B6FFDA
:100F03000106C6A426F620D5047002D20380D92494
:100F1300CFB41A00EF5004C2E5D20402117CD2010F
:100F230080C6D20080C0D20280BCD2D580BAD2059E
:100F330080B47F20120E7E2002077401B53F00406B
:100F4300F1120E43FF120E7E020EB7D208D20680B4
:100F530095120E43FB120E43FA120E43F94A4B70DD
:100F63000679737A127BFF20022EE53F602A7E000A
:100F73008E8275830012063460060EEE654070F0B3
:100F8300C2D5EBC0E0EAC0E0E9C0E0EE1211DCD06C
:100F9300E0F9D0E0FAD0E0FB12061BFF60AAEBC039
:100FA300E0EAC0E0E9C0E0120E7ED0E02401F9D00F
:100FB300E03400FAD0E0FBE5400460DCD540D980A2
:100FC30087D20280A21211BF60F7E54070010412BC
:100FD300027DA940600DE540600914F540121266D8
:100FE300EF60F3EA30E702F404C3995077EAF4259B
:100FF300400430E701E404F540800D1211BF60C1E5
:10100300EA0540254012027DEA783DF630E701E427
:10101300254004D54004200501141211DCE4C0E08E
:10102300121266783DE6601320E70714F6120E6687
:10103300802204F6D0E014C0E07F00120E66E54083
:101043006007120E5D1540800B300503120E5DD054
:10105300E0020EB7D0E00480C51211BF60A0E540E6
:101063000412027D783DEAF6E540200502600104A2
:0510730024041211DC51
:1010780074FF04C0E0121266120E66E540200502F5
:101088006003120E5DD0E0B540E87F45120E70781F
:101098003DE67F2B30E7047F2DF404C0E0120E7E7E
:1010A800D0E075F00A84C0F0120E67D0E0120E6727
:1010B800020EB7791080027908C206C2088008D2E9
:1010C800D5790A8004790AC2D5E540047002F54052
:1010D800E4FAFDFEFF120E43FC7B08200113120EFA
:1010E80043FD7B1030000A120E43FE120E43FF7BB5
:1010F80020EC3382D592D55013C3E43000069FFF0D
:10110800E49EFEE42001039DFDE49CFCE4CBF8C2D0
:1011180001EC700CCFCECDCCE824F8F870F3801732
:10112800C3EF33FFEE33FEED33FDEC33FCEB33FB63
:10113800994002FB0FD8E9EB300105F8D0E0C4482C
:10114800B201C0E00AEC4D4E4F78207B0070C2EA35
:10115800B5400040BCC0E01211DED0F0D0E0200164
:1011680004C4C0E0C4B201C0F0120E67D0F0D5F0DC
:10117800EB020EB71209160F545310BB580F254C2B
:101188000F214210BF4F10C74410C7490F3A4310F0
:10119800CD550FFE46105C450FC8471293500F29D6
:1011A8002D0F2D2E0F502B0F31230F4E20127C2A7E
:1011B8000EE94800000F48E540B4FF0375400612E9
:1011C8000E43FC120E43FD120E43FE120E43FF782F
:1011D800360202AC790AA2D5200314300509B910E9
:1011E800020404B9080104A2D52006025001042013
:1011F80002689202B53F005034C0E07F20300319E6
:101208007F30A20272067205500F121235C202C256
:1012180006C205C2087F30800F300503E9C0E0121E
:101228000E7E300503D0E0F9D0E0B53FCC3005178D
:101238007F30B9100C120E7E7F583004077F7880FB
:1012480003B90803120E7E3002057F2D020E7E7F41
:10125800202008F87F2B2006F322920280CF7F00FF
:10126800B4070050052436F8E6FF22286E756C6C2A
:101278002900D201120E433001F8C201783F30D55F
:101288000108F6020EE92D50434958120E43240373
:10129800B405004001E490128E93120E6F743A1256
:0A12A8000E6FD203753F040210BB65
:10023300E9D2E7C933E833F892D5EDD2E7CD33EC11
:0702430033FC5002B2D5228A
:10024A00EC30E7100FBF000C0EBE00080DBD000415
:10025A000BEB6014A2D5EB13FCED92E7FD2274FFC1
:10026A00FCFDFEFF22E480F8A2D574FF13FC7D801A
:03027A00E480EF2E
:10027D00F920E72824F950037907E4F42402FB1848
:10028D00DBFDE624FB5014E9600DE4F618E604F6F8
:0F029D00B40A08E4F6D9F57401F60A22C2D52294
:1002AC00ED33EC3392D5FA602AB4FF33EDC2E77B21
:1002BC00FF60067A0279D1E4227A0279DA20D50439
:1002CC007A0279D5224E614E002B494E46002D49BB
:1002DC004E4600E47A08F608DAFC7B00740722E844
:1002EC00C0E0ECC0E0EDC0E0EEC0E0EFC0E0EA75CD
:1002FC00F010A4CAABF075F04DA42BFBE435F0FC68
:10030C00EA2410FAEB34C5FBEC34D9FCEDC2E7FF60
:10031C0075F056A4F42411C5F0F434C58FF0A42A5A
:10032C00E5F03BE43CF620E7141204E5D0E0FFD006
:10033C00E0FED0E0FDD0E0FC1201218014F40412A8
:10034C0004E5D0E0FFD0E0FED0E0FDD0E0FC1203ED
:10035C00AFD0E0F8E6FAEDD2E7CD33EC332482FBF4
:10036C00E4C3CF33CFCE33CECD33CD33DBF37B07EA
:10037C0075F00A846004F6081B0AE5F0F6088FF0A5
:10038C00740AA4FFACF08EF0740AA42CFEACF050EE
:10039C00010C8DF0740AA42CFDE435F0F608DBDEBC
:0303AC00740722B1
:1003AF00EC4D6011E8497017ED33EC3304600DE448
:1003BF00FCFFFEFD22E933E8330470F802026812F5
:1003CF00023358046009E4CC2481500628500902F6
:1003DF00027228400302026FC0E0EB4A7044B980FA
:1003EF0006D0E0FB02025EEF4E701CBD8008EBFFF3
:1003FF00EAFEE9FD80EBE98DF0A4FEE5F00204983A
:10040F00E9CDF9EAFEEBFFEF89F0A4FCE5F0CE8928
:10041F00F0A42EFFE435F0CD89F0A42DFEE435F0E5
:10042F008067EF4E7005BD80D780C3EF8BF0A4AC13
:10043F00F0EE8BF0A42CFCE435F0F8EF8AF0A42C4E
:10044F00E5F038FCE433CB8DF0A42CFCE5F03BF861
:10045F00EE8AF0A42CFCE5F038F8E433CF89F0A451
:10046F002CFCE5F038CF3400CE89F0A42FFFE5F057
:10047F003EFEE433C98DF0A42EFEE5F039CD8AF0AF
:10048F00A42FFFE5F03EFEE43DFD33D0E0FB500727
:10049F000BBB000F020272EC2CFCEF33FFEE33FEAE
:0604AF00ED33FD02024ADC
:1004B5003F8000004120000042C80000447A00004F
:1004C500461C400047C35000497424004B189680D1
:1004D5004CBEBC205A0E1BCA6753C21C749DC5AEC8
:1004E500FB60065407601C2323120513EB54386088
:1004F500091204FF12050E1203AFECF8EDF9EEFA3E
:10050500EFCB22EB12050E80F1543803241C900426
:10051500B5FE93FC0EEE93FD0EEE930ECE93FF22E9
:1020C6000212B2E493A3F8E493A34003F68001F26C
:1020D60008DFF48029E493A3F85407240CC8C3331B
:1020E600C4540F4420C8834004F456800146F6DFEA
:1020F600E4800B01020408102040809018CFE47E93
:10210600019360BCA3FF543F30E509541FFEE493DE
:10211600A360010ECF54C025E060A840B8E493A3A5
:10212600FAE493A3F8E493A3C8C582C8CAC583CAD0
:10213600F0A3C8C582C8CAC583CADFE9DEE780BE88
:0119F70000EF
:10052500E709F608DFFA8046E709F208DFFA803EB8
:1005350088828C83E709F0A3DFFA8032E309F608A5
:10054500DFFA8078E309F208DFFA807088828C830D
:10055500E309F0A3DFFA806489828A83E0A3F608C1
:10056500DFFA805889828A83E0A3F208DFFA804C9B
:1005750080D280FA80C680D4806980F28033801072
:1005850080A680EA809A80A880DA80E280CA8033DB
:1005950089828A83ECFAE493A3C8C582C8CCC58353
:1005A500CCF0A3C8C582C8CCC583CCDFE9DEE78023
:1005B5000D89828A83E493A3F608DFF9ECFAA9F0A2
:1005C500EDFB2289828A83ECFAE0A3C8C582C8CCF8
:1005D500C583CCF0A3C8C582C8CCC583CCDFEADE11
:1005E500E880DB89828A83E493A3F208DFF980CC73
:1005F50088F0EF60010E4E60C388F0ED2402B4046C
:100605000050B9F582EB2402B4040050AF23234512
:06061500822390057573BD
:10061B00BB010689828A83E0225002E722BBFE02DD
:09062B00E32289828A83E4932210
:10063400BB010CE58229F582E5833AF583E022507B
:1006440006E92582F8E622BBFE06E92582F8E222C5
:0D065400E58229F582E5833AF583E49322DF
:10066100BB010689828A83F0225002F722BBFE0178
:02067100F32272
:10067300F8BB010DE58229F582E5833AF583E8F0BD
:10068300225006E92582C8F622BBFE05E92582C869
:02069300F22251
:10069500EF8DF0A4A8F0CF8CF0A428CE8DF0A42E79
:0206A500FE2233
:1006A700BC000BBE0029EF8DF084FFADF022E4CC37
:1006B700F875F008EF2FFFEE33FEEC33FCEE9DEC00
:1006C700984005FCEE9DFE0FD5F0E9E4CEFD22ED46
:1006D700F8F5F0EE8420D21CFEADF075F008EF2F90
:1006E700FFED33FD4007985006D5F0F222C398FD81
:0506F7000FD5F0EA221E
:1006FC00C5F0F8A3E028F0C5F0F8E5821582700289
:06070C001583E038F02225
:0D071200EF2BFFEE3AFEED39FDEC38FC2236
:0E071F00C3EF9BFFEE9AFEED99FDEC98FC22D5
:10072D00E88FF0A4CC8BF0A42CFCE98EF0A42CFC6B
:10073D008AF0EDA42CFCEA8EF0A4CDA8F08BF0A4E9
:10074D002DCC3825F0FDE98FF0A42CCD35F0FCEB48
:10075D008EF0A4FEA9F0EB8FF0A4CFC5F02ECD390D
:0F076D00FEE43CFCEAA42DCE35F0FDE43CFC227A
:10077C0075F008758200EF2FFFEE33FECD33CDCC34
:10078C0033CCC58233C5829BED9AEC99E5829840B7
:10079C000CF582EE9BFEED9AFDEC99FC0FD5F0D694
:1007AC00E4CEFBE4CDFAE4CCF9A88222B800C1B9BE
:1007BC000059BA002DEC8BF084CFCECDFCE5F0CBFC
:1007CC00F97818EF2FFFEE33FEED33FDEC33FCEB35
:1007DC0033FB10D703994004EB99FB0FD8E5E4F9F0
:1007EC00FA227818EF2FFFEE33FEED33FDEC33FCDD
:1007FC00C933C910D7059BE99A4007EC9BFCE99AD1
:10080C00F90FD8E0E4C9FAE4CCFB2275F010EF2F15
:10081C00FFEE33FEED33FDCC33CCC833C810D70715
:10082C009BEC9AE899400AED9BFDEC9AFCE899F850
:0E083C000FD5F0DAE4CDFBE4CCFAE4C8F922E3
:0E084A00C3E49FFFE49EFEE49DFDE49CFC22BF
:10085800EB9FF5F0EA9E42F0E99D42F0EC6480C817
:0608680064809845F022B7
:10086E00EB9FF5F0EA9E42F0E99D42F0E89C45F0E0
:01087E002257
:10087F00E8600FECC313FCED13FDEE13FEEF13FF57
:03088F00D8F1227B
:10089200E8600FEFC333FFEE33FEED33FDEC33FCC4
:0308A200D8F12268
:0C08A500E0FCA3E0FDA3E0FEA3E0FF22C6
:0C08B100E0F8A3E0F9A3E0FAA3E0FB22CA
:0C08BD00ECF0A3EDF0A3EEF0A3EFF022AE
:1008C900A8828583F0D083D0821208E01208E01252
:1008D90008E01208E0E473E493A3C583C5F0C58377
:1008E900C8C582C8F0A3C583C5F0C583C8C582C879
:0108F90022DC
:0C08FA00A42582F582E5F03583F5832209
:10090600FAE6FB0808E6F925F0F618E6CA3AF622F2
:10091600D083D082F8E4937012740193700DA3A370
:1009260093F8740193F5828883E473740293686084
:06093600EFA3A3A380DF84
:102C4200EFB40A07740D122C4D740A309811A8992A
:102C5200B8130CC2983098FDA899C298B811F630F2
:072C620099FDC299F59922CA
:00000001FF
