:03000000021E6479
:0C1E6400787FE4F6D8FD758197021EAB74
:10167D00041A00000000410077004100A80C410051
:10168D00A9404400A00000000044008600000000B6
:10169D0044008A000000004400BD0000000044002A
:1016AD00AD000000004400C40000000042009400A2
:1016BD0001420084000041007B0041009D0042007A
:1016CD00C9000042007C0000410075084100AB00DC
:1016DD004100CB00011E00011F004100C20041006E
:1016ED00830041008E014100970A4100AC0041008A
:1016FD00AA0A41009C0041009E0042007900004171
:10170D000076000296000002940000410082004124
:10171D0000C10041009F0010840000000000000087
:10172D0000000000000000000001800001810001A8
:10173D008300018200017F004A00B3000000000019
:09174D00000000000041007800DA
:10155700EF24A0FFEE340FFEE43DFDE43CFC12084F
:1015670074D3020831E49000ABF09000A97440F006
:1015770090009D7402F09000757406F0E490007777
:10158700F09000BD229000861208689000A0120813
:10159700741206D5900086120880900086020868AB
:1015A7009000A0120874C3020831E4FCFD1206D5AE
:1015B7009000C40208809000A4120868EF2470FF0E
:1015C700EE3417FEE43DFDE43CFC90008622122B2E
:1015D7003FE47BE87A03F9F890007E020868900000
:1015E700A9E0FF900077E0C39F22D3900095E09495
:1015F70000900094E094002212086890008A120874
:10160700740206D590007E0208809000A002086848
:10161700E475F0010206BFD39000CAE09400900081
:10162700C9E0940022900097E09000AAF0227F0A78
:10163700122518900098EFF09000C322F09000ADAB
:101647000208689000C4020874D39DEC6480F874A3
:10165700809822E47B02FAF9F802077B9000860261
:1016670008747E2F122A307F107E27227C2F1229A2
:06167700967F647E002254
:1028B3008E228F238B248A258926AF051DEF602165
:1028C3000523E523AE227002052214F5828E83E4EC
:1028D30093FF7824E475F0011208C9EF120679809A
:0228E300D922F8
:102B9600E4FDFCC3ED9FEC9E50070DBD00010C80CB
:012BA600F23C
:012BA700220B
:10296E008F828E83E4F51DF51CF51BF51AAF82AE32
:10297E0083E4FCFDAB1DAA1CA91BA81AC3120831C7
:08298E00500543BD1080E62254
:092B3600E0FF7C2F1229967F6458
:102B3F00E4FDFCC3ED9FEC9E50070DBD00010C8022
:012B4F00F293
:012B50002262
:10000300758E5190FE917401F0A37410F075BD5F6D
:0700130090FEA07420F02212
:102ADE00E490FE80F0758901758DFA758BCB43A855
:0E2AEE0008438840758CCB758AEB4388102214
:1028E50090FF10E054F04408F090FF02E054F044EB
:1028F50002F0D28490FFA07420F0A37404F075CC8C
:102905000675CEFF75CD98759E0275981043A81073
:01291500229F
:102B510043B40343B4807F147E00122B9675B501F4
:072B610090FE9B744BF02273
:102B1A0090FF08E054F04408F090FF00E0540F449E
:0C2B2A0030F090FF11E054F04403F02262
:0B2BC3008F99E59830E1FB5398FD224C
:102518008FB543B440E5B430E5FB53B4DF7F647E48
:1025280000122B96E4FBFAF943B440E5B430E5FB1E
:1025380053B4DFE5B62BFBE5B73AFA7F147E0012F9
:102548002B9609B910E275B501A9027F647E0012C5
:042558002B96AF010E
:01255C00225C
:101793007B017A0079B37D0A7F007E2F1228B390F4
:1017A30000B3E0FFE4FCFDFE12160B1215DF780810
:1017B30012085512160B90007E1208749000B4E0C4
:1017C300FFE4FCFDFE1206D512160B1215DFE47BB7
:1017D300E87A03F9F81206F012160BE47F307E75EF
:1017E300FDFC90007E1215AA40107F007E097D3D0E
:1017F3007C0090007E121565400A90007E12088CD2
:1018030000009C409000B5E09000C8F07002800793
:101813009000C8E0B4FE0374FFF09000B6E0FF90C0
:101823000099E4F0A3EFF0E0F8E4F0E8900099F019
:101833009000B7E0FF900099E48FF01206BF90008C
:1018430099E0FEA3E0FF4E6009D3EF9408EE9407FE
:101853004009900099E4F0A37405F09000B8E0907B
:101863000097F090009EF09000B9E090008FF06038
:1018730006E0D394FF400690008F7401F09000BA05
:10188300E0540190008EF07B017A0079787D017F2E
:0F189300807E2F1228B3900078E090009CF02206
:1008FF00E51E6003020DCA43B440E5B430E5FB5377
:10090F00B4DF85B72285B62390008412161712160E
:10091F004AAE22AF231215B19000B1E0FEA3E0FF63
:10092F00C39523EE9522500DC3E5239FF523E522B2
:10093F009EF522800BC3EF9523F523EE9522F5222A
:10094F0090008A120874AE22AF23E4FCFD1206D584
:10095F0090008A120880900084E05401FEA3E04EBC
:10096F00705212161E40179000AAE09464503DE09A
:10097F002402F0E0D3946440337464F0802E90002E
:10098F007CE07004A3E06401702A900097E0FF9070
:10099F0000AAE0FED39F4014EE94024004E024FE30
:1009AF00F09000AAE0C39F500312162C9000AAE00B
:1009BF00FF12230EC3900084E094205003020DF920
:1009CF0043BD10E4F0A3F09000ABE0041216439087
:1009DF0000C41216059000AD1208809000ABE0C362
:1009EF0094084030E412164378101208429000AD7C
:1009FF001208801216449000B1EE8FF01206BF90CD
:100A0F0000B1E0C313F0A3E013F09000AD12088C17
:100A1F0000000000900075E0C394085005E004F05A
:100A2F0080409000C9E07002A3E07036121635E0E6
:100A3F00FE2402FDE433FCEF12165050189000987C
:100A4F00E02402FDE433FCEE12165050089000C370
:100A5F00E0900098F0900098E09000C3F0E49000D0
:100A6F0075F0E4FFFEFDFC9000861215AA7036901B
:100A7F00008A120868EF2488FFEE34131215CA1289
:100A8F000880900094E07002A3E070197F407E42CE
:100A9F007D0FFC900086121565400A9000861208A3
:100AAF008C000F4240900077E0701690008A120879
:100ABF00689000A012088090009012088C0000002F
:100ACF00019000901215FF1215A74003020C84909D
:100ADF0000901208689000A012160590008A121557
:100AEF00AA4003020C84900077E004F09000BD123E
:100AFF0015FF9000BD120880900077E0FFFBE4FA2D
:100B0F00F9F89000BD12086812077B9000A0120838
:100B1F00801216117803120842900090120880E498
:100B2F007F207E4EFDFC9000901215AA500A900077
:100B3F009012088C00004E20E47F607EEAFDFC904E
:100B4F000090121565400A90009012088C0000EA80
:100B5F0060121611900086121565403E9000A0128B
:100B6F0008741215A11206E21215B77F807E387D28
:100B7F00017C009000C412156540089000A874060F
:100B8F00F0801DE47F407E9CFDFC9000C412156533
:100B9F009000A840087409F080069000A8740CF02B
:100BAF009000A81215E8403B1215A11215A750335B
:100BBF009000A9E094105003020C939000A8E0D38A
:100BCF0094095005121611801112161190008612F9
:100BDF001557400C12158C12165A90008612088069
:100BEF00020C841215E55003020C931215A190000C
:100BFF00A012155740771216631216111206E21241
:100C0F0015B77F007E127D7A7C001215A7505E7F8C
:100C1F00807E1A7D067C009000C41215AA504E905B
:100C2F0000A9E09410400280387FE07E937D047C21
:100C3F00009000C412156540089000A97410F08050
:100C4F001B7FF07E497D027C009000C412156590D9
:100C5F0000A94005740CF080037408F01215E540EC
:100C6F000C12158C12165A9000861208801215E578
:100C7F004012E48004E4900077F09000BD12088CDD
:100C8F000000000090009DE0D394004036E014F087
:100C9F001215BD1215655003020D869000A412089F
:100CAF0068EF2498FFEE343AFEE43DFDE43CFC90FF
:100CBF00008A1215AA4003020D861215BD12088074
:100CCF00020D861215F1405774FFF5F01206BF1290
:100CDF0015F1404B7F007E127D7A7C0090008612CA
:100CEF001565400C90007E12088C000C3500802F8B
:100CFF001215DF1216631215B47F407E547D897C66
:100D0F00009000C41215654016121663C374409B01
:100D1F00FF74549AFE748999FDE498FC12160B1215
:100D2F0015DF90008612160590008A121565404750
:100D3F009000C8E0FF900098E0D39F40051215F196
:100D4F0040359000C9E07002A3E070091215A19020
:100D5F0000A41208809000C9E4F0A304F07882F692
:100D6F009000A97408F0E490007CF0A3F07896F658
:100D7F0008F67894F608F69000C412088C0000006C
:100D8F000090008A12088C000000009000C9E0FE5D
:100D9F00A3E0FFD39400EE9400404F900099E0FC45
:100DAF00A3E0FDD3EF9DEE9C4040E49000C9F0A37B
:100DBF00F0751E017882F6787FF62290007CE4F0C1
:100DCF00A304F0E4F51E900079F0A3F0900076F004
:100DDF007FFAFE12296E9000AD12088C0000000001
:0A0DEF0012156C12088C00000000C1
:010DF90022D7
:10214C00E4F5239000C412088C00000000E4F52292
:10215C0043B440E5B430E5FB53B4DF12164AAFB6D6
:10216C00AEB71215B10522E522B480E47F907E0152
:10217C0012296E9000C4120868780B1208428F2244
:10218C00E522D3940C400CE522948D5006E5239463
:0D219C0014500A0523E523D3945040A722D8
:0121A9002213
:1021AA009000C412088C00000000E4F522E4F52532
:1021BA00F52643B440E5B430E5FB53B4DF85B723D5
:1021CA0085B62412164AAE23AF241215B10526E5A8
:1021DA002670020525B400DAE525B420D543BD10E2
:1021EA000522E522B408C69000C4120868781012C5
:0A21FA0008429000B1EEF0A3EFF0F0
:0122040022B7
:10230E00BF0104E4FE80397E007C007DFF1206AD25
:10231E00AC06AD07E41201DBE4FBFA79C878421291
:10232E0001398F278E268D258C24E4FFFEFD7C3F00
:10233E00AB27AA26A925A824120045120214AE071F
:10234E0090FF9C7410F075DEFF8EDF75DD947F00BC
:01235E00225C
:1013F900120026120003122B1A7F6412230E122ADE
:10140900DE1228E5122B5175BBAA90FEA774FFF0D6
:1014190053BBF7D2AF7FC87E0012296E7F641223B7
:101429000E9000C27401F0121635F0C2AF12179374
:1014390090009CE004F07F807E2F122A307F107E7E
:1014490027122B3F90009CE0FF7D807C2F1229966C
:101459007F647E00122B3FD2AF12214C900097E09F
:10146900FF9000AAF012230E7F2C7E0112296E1222
:1014790021AA9000C412088C0000000090009CE092
:10148900C394034002E4F043BD10E51E700B9000C5
:1014990085E0541F700312126990008EE064017098
:1014A90078E51F701CF51E751F0112162C9000ADF2
:1014B90012088C0000000012156C12088C00000044
:1014C900001208FFD390007DE0940090007CE09426
:1014D90000402A900076E0B40123E4F090007C12E9
:1014E900161890008FE0FFC390007DE09F90007C6C
:1014F900E094004008E4F0A3F0FF12230E12161E38
:10150900400F7895E6640118467006F608F612163B
:10151900187883E66401021485E4F51F900083E0DE
:101529007007FF12230E02148590009EE0FF12231C
:101539000EE4F51E12162C9000AD12088C00000066
:0E1549000012156C12088C00000000021485C0
:03001B00021C9E26
:101C9E00C0E0C0F0C083C082C0D075D000C000C00C
:101CAE0001C002C003C004C005C006C007AF1DAE10
:101CBE001CAD1BAC1AEF2401FFE43EFEE43DFDE437
:101CCE003C8F1D8E1C8D1BF51A90007912161790E5
:101CDE000079E0FEA3E0FFE4FCFD7B607AEAF9F810
:101CEE00D312081B500C900079E4F0A3F09000760C
:101CFE0004F0789706E618700106C37897E694E824
:101D0E0018E694034012788076017896760008766D
:101D1E000078947600087601D007D006D005D0045E
:101D2E00D003D002D001D000D0D0D082D083D0F05A
:031D3E00D0E032C0
:030023000224D1E3
:1024D100C0E0C0F0C083C082C0D075D000C000C0D1
:0D24E10001C002C003C004C005C006C00752
:0F24EE00E59830E00AAF991222605398FED2AF02
:1024FD00D007D006D005D004D003D002D001D00033
:0B250D00D0D0D082D083D0F0D0E032DC
:03003B0002001AA6
:01001A0032B3
:102A300053BBF7C280E5BB20E3F6D280C2AF75FD81
:102A4000F075FC0F8EFA8FF975FDD275FC2D75FDB2
:052A5000E175FC1E22EF
:1029960053BBF7C280E5BB20E3F6D280C2AF8FFB04
:1029A60075FDF075FC0F8CFA8DF975FDB475FC4B51
:0729B60075FDE175FC1E2216
:1020DF007F001216691215D512077B780812084275
:1020EF007D001216731215D512077B7D0112167320
:1020FF00122B3F9000C87D02122B369000997D0362
:10210F00122B36A3E0FF7D04122B38900097E0FFCF
:10211F007D05122B3890008FE0FF7D06122B389033
:10212F00008EE0FF7D07122B387F80121669122B6D
:0C213F003F7D807C2FE4FF122996D2AF78
:01214B002271
:1029E400637263206572726F7220286372633A3077
:1029F400782558202062757420646174613A3078B7
:062A04002558290D0A000F
:04175600027D000010
:101BF40012064CFFE5464FFFE545FEE544FDE5438F
:101C04008F468E458D44F543FC78081208558F465F
:101C14008E458D4422AF45AE44AD43AC42120842DA
:101C2400AD0722AD07E4FBFA900001E0227402251F
:101C340023F974003522FA7B01E52524FFFDE52410
:101C440034FFFC22E475F0010208C9AA06AB077D43
:101C5400037F0722AF7CAE7BAD7AAC79020842FEEB
:101C6400E554FDE553FCE47BFF22E4F540F53FF544
:101C74003EF53D2212064CAB49AA4AA94B22AB675A
:101C8400AA68A969020633AB6AAA6BA96C02063377
:0A1C9400756101756200756322227C
:10206E00EFC39430400CEFD39439500674D02FFF49
:10207E008022EFC39441400CEFD394465006EF24D8
:10208E00C9FF8010EFC39461400AEFD394665004E9
:10209E00EF24A9FFEF540FC454F0FFEDC39430406A
:1020AE000CEDD39439500674D02DFD801EEDC394E3
:1020BE00414008EDD394465002800CEDC39461402C
:1020CE000AEDD394665004ED24A9FDED540F42079A
:0120DE0022DF
:0625E5008B3A8A3B893CA1
:1025EB00121C6EE94A4B7005FFFEFDFC22121C6E9D
:1025FB00783A121C48120633601AE5402401FFE4B6
:10260B00353FFEE4353EFDE4353D8F408E3F8D3E3C
:0C261B00F53D80DCAF40AE3FAD3EAC3D75
:012627002290
:06284C008B088A09890ACD
:102852008B0E8A0F8910E94A4B7004FBFAF922E5C4
:102862000D150DAE0C7002150C4E600B780E121C7D
:0D28720048ED12067980E8AB08AA09A90A12
:01287F002236
:061A6C008B418A42894310
:101A72008B498A4A894B85444C85454D85464EE9BA
:101A82004A4B6008E5464545454470077B007A00AD
:101A9200790022D3854D83854E82E54B9582E54AB6
:101AA20095834019E54E2548F9E54D3547FA8A8375
:101AB2008982D3E54B9582E54A95834032E4F54F1E
:101AC200F550C3E5509548E54F9547505BAB4CAA9E
:101AD2004DA94E855082854F83121C788550828590
:101AE2004F8312068B0550E55070D7054F80D38582
:101AF200474F854850D3E5509400E54F9400402865
:101B0200AB4CAA4DA94EE55024FFFFE54F34FFFE32
:101B12008F82F583121C788F828E8312068BE5509A
:0E1B2200155070D1154F80CDAB41AA42A9439A
:011B30002292
:062767008B118A12891398
:10276D008B178A188919AB14AA15A916120633608E
:10277D00147814121C48120633FF7811121C48EFFE
:10278D0012067980E1AB11AA12A913E4120679ABF6
:05279D0017AA18A9199C
:0127A2002214
:10255D008B678A688969121C82FF6020121C8B6050
:10256D001BB5071874012569F569E43568F56874BC
:10257D0001256CF56CE4356BF56B80DA121C8BFF65
:10258D003395E0FE121C82FD3395E0FCC3ED9FFFF9
:04259D00EC9EFE2290
:102880008F7C8E7B8D7A8C797818120842EF120635
:10289000797810121C58900001EF12068B780812FC
:1028A0001C58900002EF12068BE57CFF900003EFAE
:0328B00002068B92
:10235F00E4F546F545F544F543120633FFE48F46A1
:10236F00F545F544F543AE45AD44AC43121C0D8C19
:10237F0043900001121BF48C43900002121BF48C4B
:10238F004390000312064CFFE5464FFFE545FEE57F
:0A239F0044FDE543121C12F543FC57
:0123A9002211
:062488008B6E8A6F897063
:10248E00121C27B401037F0122AF03AE02122BB63A
:10249E00AA06AB07E41224C8E5711224C8AD721265
:1024AE002BB6AB6EAA6FA97085713F85724012294B
:0924BE0016121C4F1222B97F0115
:0A24C70022FD122BB6AA06AB072275
:0423AA008D3DAC07B2
:1023AE00121C29B401037F0122AF03AE02AD041249
:1023BE0023E3E4FD1223E3E53D7003FD8006AF0346
:1023CE00AE027D01122BB6AA06AB077D037F071264
:0423DE0022B97F01A0
:1023E20022122BB6AA06AB077D01122BB6AA06ABA8
:0223F2000722C0
:101EF000121C27B401037F0122AF03AE02122BB6DE
:101F00007D02121F63E4FD122BB67D04121F63C015
:101F100006C0077818121C19D007D006121F6FC010
:101F200006C0077810121C19D007D006121F6FC008
:101F300006C007AF45AE44AD43AC42780812084234
:101F4000AD07D007D006122BB6AA06AB07C007E52F
:101F500045FFE4AD07D007122BB6121C4F1222B971
:021F60007F01FF
:101F620022AA06AB07122BB6AA06AB0722122BB681
:051F7200AA06AB0722E6
:0623F4008B748A758976E6
:1023FA00121C27B401037F0122AF03AE0212243656
:10240A007D03122436E577FD122BB6AA06AB07AD7B
:10241A0078122BB6AB74AA75A97685773F85784072
:0B242A00122916121C4F1222B97F016C
:0924350022122BB6AA06AB072205
:0426EB008D3DAC076E
:1026EF00121C29B401037F0122AF03AE02AD041205
:1026FF002BB67D0412271EE4FD122BB67D01122787
:0E270F001EAD3D122BB6121C4F1222B97F01D7
:0D271D0022AA06AB07122BB6AA06AB0722B4
:021B3100AD07FE
:101B3300E4F557F558900001E0B401037F01221248
:101B43001BD47D05121BECE4FD121BEC74FFFFE5B7
:101B530055121C63FAF9F8C312083170097D01129A
:101B63001BD4AD56803D74FFFF121C637AFFF9F856
:101B7300C312083170047D0280197D04121BE078C2
:101B830018121BBBAF56AE55AD54AC5378101208A8
:101B930042AD07121BE07808121BBBE556FFE4AD0C
:101BA30007AF58122BB68E578F58AB58AA577D03E1
:071BB3007F071222B97F0138
:101BBA0022AF56AE55AD54AC53120842AD07AF58DA
:101BCA00AE57122BB68E578F5822AF58AE57122BDC
:101BDA00B68E578F5822AF58AE57122BB68E578FE4
:0A1BEA005822122BB68E578F582296
:082BE2008C3D8D3E120633FF0D
:012BEA0022C8
:082BEB008C3D8D3E120633FF04
:012BF30022BF
:072BF4008C418D4212235FAA
:012BFB0022B7
:102260008F51C3E5669563FFE5659562FEEF6401F6
:102270004E6045D3856583856682E5639582E56218
:1022800095834015E5639566FFE5629565FEC3EFAE
:10229000941BEE64809480501FC390003DE56395CD
:1022A00082E562958340077A007922121C94786156
:0922B000121C48E55112067922C6
:10126900E4F522F523F524F525C3E57E941FE57DF4
:1012790094005024122AFCEFD39400401B1226AB91
:10128900057EE57EAC7D7002057D142402F582742D
:10129900003CF583EFF080D1C3E57E9407E57D94AA
:1012A9000050030213F8C3E57E9523FDE57D9522E1
:1012B900FCC3ED9407EC940050030213C17402259A
:1012C90023F58274003522F583E06455600A05230D
:1012D900E52370D2052280CE74032523F58274009C
:1012E9003522F583E064AA600A0523E52370B70572
:1012F9002280B374042523F58274003522F583E036
:1013090060047402803C74062523F582740035223A
:10131900F583E0752500F52474072523F58274000B
:101329003522F583E02407FFE433FEEF2525F52573
:10133900EE3524F524D3E5259426E5249400400AC6
:1013490074032523F523E40213BAC3ED9525EC951F
:10135900244065121C31122A0AE5232525FDE522C0
:101369003524FC74012DF58274003CF583E06F602F
:1013790031121C31122A0A8F297BFF7A2979E4E577
:10138900232525FFE5223524FE74012FF5827400FB
:101399003EF583E0F52A120E5C74032523F523E458
:1013A900800FAF23AE221218A2E5252523F523E5E8
:1013B900243522F5220212AFC3E57E9523F57EE599
:1013C9007D9522F57DD3E57E9400E57D9400401F4F
:1013D90074022523F974003522754401F5458946BF
:0F13E900857D47857E487B017A007902121A6C58
:0113F80022D2
:10002600121C9475640175650075662290007474DF
:03003600FFF022B6
:062BFC00900021E0FF2221
:0E2BA800E4900021F0FBFA7D037F040222B9C5
:062C0200900000E0FF223B
:022B6800AD07B7
:102B6A00E4FF900000F0FE122BB6EFFB7A007D0323
:052B7A007F050222B9F5
:062C0800900074E0FF22C1
:0A2BCE00E4FBFA7D037F0E0222B93A
:10175A004100D0004400CC00000000015E00015BA3
:10176A0000015A00015900015D00015C00015F009F
:10177A005200D11401160265046602670168026903
:05178A00027101720173
:1027DE00AB37AA38A939AD3BAC3A22900097E0FF4F
:1027EE00E48F45F544F543F54222900099E0FEA3AF
:1027FE00E0FFE48F458E44F543F5427F6622E0FF0D
:08280E00E4FCFDFEC3020831E9
:102A55007F55122BC37FAA122BC37F03122BC37F73
:102A650004122BC3E4FF122BC3E4FF122BC37F0612
:032A7500022BC36E
:032C0E00022BC3D3
:101DD600900000E0FD7F141223AA900083E0FD7FAF
:101DE600711223AA1227E97F16121EF09000C8E08E
:101DF600FFB4FF05E4F52F801EEFB4C805752F026A
:101E06008015EFB42805752F03800CEFB414057503
:101E16002F048003752F05AD2F7F651226EB122741
:101E2600F8121EF090008EE0FD7F671223AA900044
:101E36008F1227EC7F68121EF0E47B107A27F9F8E0
:101E460090007E12086812077BC374329F1227ED3A
:0E1E56007F69121EF07883E6FD7F720223AAD8
:102B7F00122BE2900000EFF0FD7F141223AABF0189
:062B8F00037F01227F001C
:012B9500221D
:1025A100122BF48F408E3F8D3E8C3D055A90009743
:1025B100AB40AA3FA93EA83D12280C6008E4F55A99
:1025C100FF0FBF08FCAF40900097EFF090009EF026
:1025D1001220DF1227E97F16121EF0BF01037F01CF
:0325E100227F0056
:0125E40022D4
:101F7700122BEB05599000D0E0B50714BF05199057
:101F870000C8E0FE900098E06E600DE4F559800807
:101F9700E4F559FE0EBE08FCEF146010146015142A
:101FA700601A14601F146024240570289000C874F8
:101FB700FFF080209000C874C8F080189000C874A3
:101FC70028F080109000C87414F08008900098E002
:101FD7009000C8F09000D0EFF01220DF9000D0E022
:0E1FE700FD7F651226EBBF01037F01227F0004
:011FF50022C9
:10243E00122BF48F408E3F8D3E8C3D055D900099A2
:10244E00E0FEA3E0FFE4FCFDAB40AA3FA93EA83DA1
:10245E00C31208316008E4F55DFF0FBF08FC900061
:10246E0099E53FF0A3E540F01220DF1227F8121E87
:09247E00F0BF01037F01227F0081
:012487002232
:10281600122BE2055B90008EE06F6008E4F55BFE2C
:102826000EBE08FCEF90008E7003F080037401F07A
:102836001220DF90008EE0FD7F671223AABF0103FE
:052846007F01227F006C
:01284B00226A
:10262800122BF48F408E3F8D3E8C3D055C90008FC1
:10263800AB40AA3FA93EA83D12280C6008E4F55C0F
:10264800FF0FBF08FC90008FE540F01220DF9000DC
:102658008F1227EC7F68121EF0BF01037F01227FD3
:012668000071
:01266900224E
:101FF600122BF48F408E3F8D3E8C3D055F9000CCBA
:10200600120868AB40AA3FA93EA83DC3120831603A
:1020160008E4F55FFF0FBF08FCAF40AE3FAD3EAC36
:102026003D9000CC120880C374329540FFE4953F82
:10203600FEE4953EFDE4953DFCE47B107A27F9F835
:102046001206F090007E1208801220DF9000CC125B
:1020560008688F458E448D438C427F69121EF0BFFF
:0720660001037F01227F004E
:01206D002250
:10266A00122BE2055E900083E06F6008E4F55EFEDF
:10267A000EBE08FCEF7006900083F0801190008E69
:10268A00E0B40104788276019000837401F090002E
:10269A0083E0FD7F711223AABF01037F01227F001D
:0126AA00220D
:10294500122BE2AD077883E66D6006E4FF0FBF0842
:10295500FCED78837003F6800276017F721223AA5C
:08296500BF01037F01227F0086
:01296D002247
:061D41008B378A38893956
:101D4700EF1208D91D6A141D8C161D94651D9C661B
:101D57001DA4671DAC681DB4691DBC711DC472004C
:101D6700001DCE1227DE122B7F8F3CE53C640170ED
:101D77005B9000ACE004F0E0C39405404FE4F01240
:101D87002A55021DD31227DE1225A180361227DE1F
:101D9700121F77802E1227DE12243E80261227DE9E
:101DA700122816801E1227DE12262880161227DE1A
:101DB700121FF6800E1227DE12266A80061227DE11
:0E1DC7001229458F3C8000E49000ACF0AF3C48
:011DD50022EB
:032C11007F092216
:05001E008F2F8D302240
:1027A3007B2270223A22003762616A696A30797546
:1027B3006D6F6B796F667600222C2276223A2200A7
:1027C300312E302E3000222C226D223A0030007D33
:0B27D3000000000000000000000000FB
:03178F00016000F6
:102A780074082527F58274003526F583E02274430F
:102A88002FF974003EFA7B0122E475F0011208C99F
:032A980002063300
:0C2BB600122A86ED1206790FBF00010EF6
:012BC20022F0
:0A2916008E3A8F3B8B3C8A3D893ED0
:10292000122A86853C44853D45853E46853F478540
:102930004048121A6CE540253BF53BE53F353AF53A
:042940003AFEAF3B71
:012944002270
:0A2A0A008B488A49894A8C4B8D4C99
:102A1400E4FFFDFCC3ED954CEC954B500E78481249
:0B2A24002A912FFF0DBD00010C80E97E
:012A2F002284
:10272A008B488A49894A8C4B8D4CE94A4B602DE586
:10273A004C454B6027E54C154CAE4B7002154B4E81
:10274A00601AAB48AA49A94A120633FF122C0E7422
:0D275A0001254AF54AE43549F54980D922A8
:0422B9008A468B477F
:1022BD0090003D7455F0A374AAF0A3EDF0A3EFF0D8
:1022CD00E546A3F0E547A3F02407F547E43546F5C9
:1022DD00467B017A00793DE54724FFFDE54634FF55
:1022ED00FC122A0AAE07743C2547F5827400354668
:1022FD00F583EFF07B017A00793DAD47AC460227BF
:01230D002AA5
:102A9B00E4FFE560700AFEFD122BB675600180073E
:102AAB007E007D01122BB6EFFB7A007D03E4FF0263
:022ABB0022B93E
:1019A100E4F52F78307C00FD7BFF7A2779D4FE7F28
:1019B1000A12060D7A2779A3121A3C7A2779A31203
:1019C10029168F2F7A2779AA121A3C7A2779AA1217
:1019D10029168F2F7A2779BB121A4C7A2779BB12D5
:1019E10029168F2F7A2779C3121A4C7A2779C312B5
:1019F10029168F2F7A2779C9121A5C7A2779C91289
:101A010029168F2F7A2779D0121A5C7A2779D0126A
:101A110029168F2F7BFF7A2779D21225E58E3F8FEA
:101A210040AF2F7E007BFF7A2779D21229168F2FA4
:0B1A3100EFFB7A007D037F010222B969
:101A3C007BFF1225E58E3F8F40AF2F7E007BFF2270
:101A4C007BFF1225E58E3F8F40AF2F7E007BFF2260
:101A5C007BFF1225E58E3F8F40AF2F7E007BFF2250
:0A2BD800E4FBFA7D037F020222B93C
:022ABD008F3652
:102ABF00122C11E4FEEEC39F501275F002EE90003F
:0E2ACF00D11208BDE0653660030E80E9AF0647
:012ADD0022D6
:062205008B2F8A308931A5
:10220B00120633F53290000112064CF533900002A2
:10221B0012064C753500F53490000312064C25352B
:10222B00F535E43534F534AF32122ABD75F002EFD3
:10223B009000D21208BDE0653360037F0022AB2F04
:10224B00E5312404F9E43530FA85343A85353BAF72
:04225B0032121D41DD
:01225F00225C
:0418A2008E268F27D8
:1018A60074052FF58274003EF583E0FF1208D918FF
:1018B600D40018D70118DA0218DD0318EE0418F35D
:1018C6000518FA06198808198B0E000019A0022AB5
:1018D6009B0219A1022BD8122A78900074F0E4FB1F
:1018E600FA7D037F030222B9900021800390000055
:1018F6007401F02274062527F58274003526F583D7
:10190600E0FE74072527F58274003526F583E0FD91
:10191600EEF52DEDF52EE4F52BF52CC3E52C952EE5
:10192600E52B952D5074E527252CFDE526352BFC5A
:10193600740A2DF58274003CF583E0752900F528BC
:10194600740B2DF58274003CF583E02529F529E416
:101956003528F52874082527F974003526FA7B0101
:10196600E9252CF9EA352BFA1222058F2AE52924D6
:1019760004FFE43528FEEF252CF52CEE352BF52B50
:101986008099021DD6122A78FF74092527F58274DC
:0A199600003526F583E0FD12001E67
:0119A0002224
:102AFC00E5648565838566826561700AE563658238
:0E2B0C007004E562658360037F01227F002272
:1026AB00AB64AA65A966E56185628385638265640F
:1026BB00700AE56665827004E56565836021C390E9
:1026CB00003DE5669582E5659583400D7A0079229C
:0F26DB007564017565007566227864122A91FF97
:0126EA0022CD
:10003E00020280E86480F8E933E83360110460F06E
:10004E00ED33EC337009E8FCE9FDEAFEEBFF220428
:10005E0060DED3EB9FEA9EE99DE8C2E78CF0C2F723
:10006E0095F0400CE8CCF8E9CDF9EACEFAEBCFFBEF
:10007E0012024B85D0F05804700320D5B3E80470FB
:10008E00075002B2D502028A92D5EC0460F7E4CC96
:10009E00C0E0C398F8603B94186008400DD0E0FBB8
:1000AE00020262E4FBFAC9FC8028E830E406E4C9E7
:1000BE00FBE4CAFCE830E305E4C9CACBFCE854070C
:1000CE006010F8C3E913F9EA13FAEB13FBEC13FC17
:1000DE00D8F130F52FC3E49CFCEF9BFFEE9AFEEDBA
:1000EE0099FDD0E0FBEF4E4D4C701222DB03020265
:1000FE0087EC2CFCEF33FFEE33FEED33FDED30E7F6
:10010E00EB020262EF2BFFEE3AFEED39FDD0E0FB83
:10011E0050130BBB000302028AED13FDEE13FEEF2C
:08012E0013FFEC13FC02026256
:1001360002028AEC5D046005E8590470030202803D
:1001460012024B580460F6EC4860F2EC7004FDFEB7
:10015600FF22C860DB2481C85009C398600250069C
:100166000202879850CAF582E9294B4A7005AB828C
:1001760002027675F0007C1A7880C3EF9BEE9AED4A
:1001860099400DC3EF9BFFEE9AFEED99FDE842F014
:10019600DC23ACF0D0E0FFD0E0FED0E0FDAB822067
:1001A600E7101BEB60BAEC2CFCEF33FFEE33FEEDF1
:1001B60033FD020262E803F830E705C0F075F0008F
:1001C600EF2FFFEE33FEED33FD40B830E7C280AAD5
:1001D60075F020800E75F010800575F0087D007EA4
:1001E600007F003392D530D50312080DEC33401052
:1001F600EF33FFEE33FEED33FDEC33FCD5F0ED22AD
:0E020600E5F0247EA2D513CC92E7CDCEFF22E8
:10021400EDD2E7CD33EC3392D524814006E4FFFEE2
:10022400FDFC22FCE4CFCECDCC24E0501174FF8041
:10023400EDC3CC13CCCD13CDCE13CECF13CF0470DE
:07024400F030D5DE02080DC9
:100DFA00E53D2429F8E6053D2278263007027829C0
:100E0A00E475F0011208C90206332000EB7F2ED2E6
:100E1A00008018EF540F2490D43440D4FF30040BD0
:100E2A00EF24BFB41A0050032461FFE53E600215A7
:100E3A003E0541E5417002054030070D7826E4750C
:100E4A00F0011208C9EF0206790229BD7403D2071C
:100E5A008003E4C207F53D8B268A278928E4F53EFC
:100E6A00F540F541E53E60077F20120E3580F575A5
:100E7A003FFFC201C200C202C203C205C206C208C3
:100E8A00120E03FF700D3007057F00120E46AF41A8
:100E9A00AE4022B4255FC2D5C204120E03FF24D08D
:100EAA00B40A00501A75F00A783E30D50508B6FF24
:100EBA000106C6A426F620D5047002D20380D924DE
:100ECA00CFB41A00EF5004C2E5D204021133D201A2
:100EDA0080C6D20080C0D20280BCD2D580BAD205E8
:100EEA0080B47F20120E352002077401B53E0040FF
:100EFA00F1120DFAFF120E35020E6ED208D20680DA
:100F0A0095120DFAFB120DFAFA120DFAF94A4B7004
:100F1A0006792A7A127BFF20022EE53E602A7E009D
:100F2A008E8275830012064C60060EEE653F70F0E5
:100F3A00C2D5EBC0E0EAC0E0E9C0E0EE121193D0FE
:100F4A00E0F9D0E0FAD0E0FB120633FF60AAEBC06A
:100F5A00E0EAC0E0E9C0E0120E35D0E02401F9D0A1
:100F6A00E03400FAD0E0FBE53F0460DCD53FD980ED
:100F7A0087D20280A212117660F7E53F700104124F
:100F8A000295A93F600DE53F600914F53F12121D55
:100F9A00EF60F3EA30E702F404C3995077EAF425E4
:100FAA003F0430E701E404F53F800D12117660C179
:100FBA00EA053F253F120295EA783CF630E701E45C
:100FCA00253F04D53F0420050114121193E4C0E023
:100FDA0012121D783CE6601320E70714F6120E1D64
:100FEA00802204F6D0E014C0E07F00120E1DE53F17
:100FFA006007120E14153F800B300503120E14D031
:10100A00E0020E6ED0E00480C512117660A0E53FC2
:10101A0004120295783CEAF6E53F200502600104D5
:05102A002404121193E3
:10102F0074FF04C0E012121D120E1DE53F200502D1
:10103F006003120E14D0E0B53FE87F45120E2778FB
:10104F003CE67F2B30E7047F2DF404C0E0120E3511
:10105F00D0E075F00A84C0F0120E1ED0E0120E1E02
:10106F00020E6E791080027908C206C2088008D27B
:10107F00D5790A8004790AC2D5E53F047002F53F9D
:10108F00E4FAFDFEFF120DFAFC7B08200113120D8E
:10109F00FAFD7B1030000A120DFAFE120DFAFF7BDB
:1010AF0020EC3382D592D55013C3E43000069FFF56
:1010BF00E49EFEE42001039DFDE49CFCE4CBF8C21A
:1010CF0001EC700CCFCECDCCE824F8F870F380177C
:1010DF00C3EF33FFEE33FEED33FDEC33FCEB33FBAD
:1010EF00994002FB0FD8E9EB300105F8D0E0C44876
:1010FF00B201C0E00AEC4D4E4F78207B0070C2EA7F
:10110F00B53F0040BCC0E0121195D0F0D0E02001F7
:10111F0004C4C0E0C4B201C0F0120E1ED0F0D5F06E
:10112F00EB020E6E1208D90F0B531072580EDC4CD7
:10113F000ED84210764F107E44107E490EF14310A8
:10114F0084550FB5461013450F7F47124A500EE0D6
:10115F002D0EE42E0F072B0EE8230F052012332A36
:10116F000EA04800000EFFE53FB4FF03753F0612C7
:10117F000DFAFC120DFAFD120DFAFE120DFAFF78A0
:10118F00350202C4790AA2D5200314300509B9101B
:10119F00020404B9080104A2D5200602500104205C
:1011AF0002689202B53E005034C0E07F2030031930
:1011BF007F30A20272067205500F1211ECC202C2EA
:1011CF0006C205C2087F30800F300503E9C0E01268
:1011DF000E35300503D0E0F9D0E0B53ECC30051721
:1011EF007F30B9100C120E357F583004077F78808E
:1011FF0003B90803120E353002057F2D020E357F1D
:10120F00202008F87F2B2006F322920280CF7F0048
:10121F00B4070050052435F8E6FF22286E756C6C74
:10122F002900D201120DFA3001F8C201783E30D5F3
:10123F000108F6020EA02D50434958120DFA24034F
:10124F00B405004001E490124593120E26743A1231
:0A125F000E26D203753E0402107241
:10024B00E9D2E7C933E833F892D5EDD2E7CD33ECF9
:07025B0033FC5002B2D52272
:10026200EC30E7100FBF000C0EBE00080DBD0004FD
:100272000BEB6014A2D5EB13FCED92E7FD2274FFA9
:10028200FCFDFEFF22E480F8A2D574FF13FC7D8002
:03029200E480EF16
:10029500F920E72824F950037907E4F42402FB1830
:1002A500DBFDE624FB5014E9600DE4F618E604F6E0
:0F02B500B40A08E4F6D9F57401F60A22C2D5227C
:1002C400ED33EC3392D5FA602AB4FF33EDC2E77B09
:1002D400FF60067A0279E9E4227A0279F220D504F1
:1002E4007A0279ED224E614E002B494E46002D498B
:1002F4004E4600E47A08F608DAFC7B00740722E82C
:10030400C0E0ECC0E0EDC0E0EEC0E0EFC0E0EA75B4
:10031400F010A4CAABF075F04DA42BFBE435F0FC4F
:10032400EA2410FAEB34C5FBEC34D9FCEDC2E7FF48
:1003340075F056A4F42411C5F0F434C58FF0A42A42
:10034400E5F03BE43CF620E7141204FDD0E0FFD0D6
:10035400E0FED0E0FDD0E0FC1201398014F4041278
:1003640004FDD0E0FFD0E0FED0E0FDD0E0FC1203BD
:10037400C7D0E0F8E6FAEDD2E7CD33EC332482FBC4
:10038400E4C3CF33CFCE33CECD33CD33DBF37B07D2
:1003940075F00A846004F6081B0AE5F0F6088FF08D
:1003A400740AA4FFACF08EF0740AA42CFEACF050D6
:1003B400010C8DF0740AA42CFDE435F0F608DBDEA4
:0303C40074072299
:1003C700EC4D6011E8497017ED33EC3304600DE430
:1003D700FCFFFEFD22E933E8330470F802028012C5
:1003E700024B58046009E4CC2481500628500902C6
:1003F700028A284003020287C0E0EB4A7044B980B2
:1004070006D0E0FB020276EF4E701CBD8008EBFFC2
:10041700EAFEE9FD80EBE98DF0A4FEE5F00204B009
:10042700E9CDF9EAFEEBFFEF89F0A4FCE5F0CE8910
:10043700F0A42EFFE435F0CD89F0A42DFEE435F0CD
:100447008067EF4E7005BD80D780C3EF8BF0A4ACFB
:10045700F0EE8BF0A42CFCE435F0F8EF8AF0A42C36
:10046700E5F038FCE433CB8DF0A42CFCE5F03BF849
:10047700EE8AF0A42CFCE5F038F8E433CF89F0A439
:100487002CFCE5F038CF3400CE89F0A42FFFE5F03F
:100497003EFEE433C98DF0A42EFEE5F039CD8AF097
:1004A700A42FFFE5F03EFEE43DFD33D0E0FB50070F
:1004B7000BBB000F02028AEC2CFCEF33FFEE33FE7E
:0604C700ED33FD020262AC
:1004CD003F8000004120000042C80000447A000037
:1004DD00461C400047C35000497424004B189680B9
:1004ED004CBEBC205A0E1BCA6753C21C749DC5AEB0
:1004FD00FB60065407601C232312052BEB54386058
:10050D00091205171205261203C7ECF8EDF9EEFADC
:10051D00EFCB22EB12052680F1543803241C9004F6
:10052D00CDFE93FC0EEE93FD0EEE930ECE93FF22B9
:101E70000213F9E493A3F8E493A34003F68001F27C
:101E800008DFF48029E493A3F85407240CC8C33373
:101E9000C4540F4420C8834004F456800146F6DF42
:101EA000E4800B010204081020408090167DE47E3F
:101EB000019360BCA3FF543F30E509541FFEE49337
:101EC000A360010ECF54C025E060A840B8E493A3FE
:101ED000FAE493A3F8E493A3C8C582C8CAC583CA29
:101EE000F0A3C8C582C8CAC583CADFE9DEE780BEE1
:011792000056
:10053D00E709F608DFFA8046E709F208DFFA803EA0
:10054D0088828C83E709F0A3DFFA8032E309F6088D
:10055D00DFFA8078E309F208DFFA807088828C83F5
:10056D00E309F0A3DFFA806489828A83E0A3F608A9
:10057D00DFFA805889828A83E0A3F208DFFA804C83
:10058D0080D280FA80C680D4806980F2803380105A
:10059D0080A680EA809A80A880DA80E280CA8033C3
:1005AD0089828A83ECFAE493A3C8C582C8CCC5833B
:1005BD00CCF0A3C8C582C8CCC583CCDFE9DEE7800B
:1005CD000D89828A83E493A3F608DFF9ECFAA9F08A
:1005DD00EDFB2289828A83ECFAE0A3C8C582C8CCE0
:1005ED00C583CCF0A3C8C582C8CCC583CCDFEADEF9
:1005FD00E880DB89828A83E493A3F208DFF980CC5B
:10060D0088F0EF60010E4E60C388F0ED2402B40453
:10061D000050B9F582EB2402B4040050AF232345FA
:06062D00822390058D738D
:10063300BB010689828A83E0225002E722BBFE02C5
:09064300E32289828A83E49322F8
:10064C00BB010CE58229F582E5833AF583E0225063
:10065C0006E92582F8E622BBFE06E92582F8E222AD
:0D066C00E58229F582E5833AF583E49322C7
:10067900BB010689828A83F0225002F722BBFE0160
:02068900F3225A
:10068B00F8BB010DE58229F582E5833AF583E8F0A5
:10069B00225006E92582C8F622BBFE05E92582C851
:0206AB00F22239
:1006AD00EF8DF0A4A8F0CF8CF0A428CE8DF0A42E61
:0206BD00FE221B
:1006BF00C5F0F8A3E028F0C5F0F8E58215827002C6
:0606CF001583E038F02263
:0D06D500EF2BFFEE3AFEED39FDEC38FC2274
:0E06E200C3EF9BFFEE9AFEED99FDEC98FC2213
:1006F000E88FF0A4CC8BF0A42CFCE98EF0A42CFCA9
:100700008AF0EDA42CFCEA8EF0A4CDA8F08BF0A426
:100710002DCC3825F0FDE98FF0A42CCD35F0FCEB85
:100720008EF0A4FEA9F0EB8FF0A4CFC5F02ECD394A
:0F073000FEE43CFCEAA42DCE35F0FDE43CFC22B7
:10073F0075F008758200EF2FFFEE33FECD33CDCC71
:10074F0033CCC58233C5829BED9AEC99E5829840F4
:10075F000CF582EE9BFEED9AFDEC99FC0FD5F0D6D1
:10076F00E4CEFBE4CDFAE4CCF9A88222B800C1B9FB
:10077F000059BA002DEC8BF084CFCECDFCE5F0CB39
:10078F00F97818EF2FFFEE33FEED33FDEC33FCEB72
:10079F0033FB10D703994004EB99FB0FD8E5E4F92D
:1007AF00FA227818EF2FFFEE33FEED33FDEC33FC1A
:1007BF00C933C910D7059BE99A4007EC9BFCE99A0E
:1007CF00F90FD8E0E4C9FAE4CCFB2275F010EF2F53
:1007DF00FFEE33FEED33FDCC33CCC833C810D70753
:1007EF009BEC9AE899400AED9BFDEC9AFCE899F88E
:0E07FF000FD5F0DAE4CDFBE4CCFAE4C8F92221
:0E080D00C3E49FFFE49EFEE49DFDE49CFC22FC
:10081B00EB9FF5F0EA9E42F0E99D42F0EC6480C854
:06082B0064809845F022F4
:10083100EB9FF5F0EA9E42F0E99D42F0E89C45F01D
:010841002294
:10084200E8600FECC313FCED13FDEE13FEEF13FF94
:03085200D8F122B8
:10085500E8600FEFC333FFEE33FEED33FDEC33FC01
:03086500D8F122A5
:0C086800E0FCA3E0FDA3E0FEA3E0FF2203
:0C087400E0F8A3E0F9A3E0FAA3E0FB2207
:0C088000ECF0A3EDF0A3EEF0A3EFF022EB
:10088C00A8828583F0D083D0821208A31208A31209
:10089C0008A31208A3E473E493A3C583C5F0C5832E
:1008AC00C8C582C8F0A3C583C5F0C583C8C582C8B6
:0108BC002219
:0C08BD00A42582F582E5F03583F5832246
:1008C900FAE6FB0808E6F925F0F618E6CA3AF62230
:1008D900D083D082F8E4937012740193700DA3A3AE
:1008E90093F8740193F5828883E4737402936860C2
:0608F900EFA3A3A380DFC2
:1029BD00EFB40A07740D1229C8740A309811A8993A
:1029CD00B8130CC2983098FDA899C298B811F6307A
:0729DD0099FDC299F5992252
:00000001FF
