:03000000021EF5E8
:0C1EF500787FE4F6D8FD758198021F3C50
:1016D000041A00000000410077004100AB0C4100FB
:1016E000AC404400A300000000440087000000005C
:1016F00044008B000000004400C0000000004400D3
:10170000B0000000004400C7000000004200970045
:1017100001420085000041007B004100A000420022
:10172000CC000042007C0000410075084100AE0082
:101730004100CE00011E00011F004100C500410014
:10174000840041008F0141009A0A4100AF0041002E
:10175000AD0A41009F004100A10042007900004114
:1017600000760002970000029500004100820041CF
:1017700000C4004100A2001085000000000000002D
:101780000000000000000000000181000182000153
:10179000840001830001800041008300420090002A
:1017A000004A00B6000000000000000000004100F8
:0217B0007800BF
:1015AA00EF24A0FFEE340FFEE43DFDE43CFC1208FC
:1015BA0074D3020831E49000AEF09000AC7440F0AD
:1015CA009000A07402F09000757406F0E490007721
:1015DA00F09000C0229000871208689000A31208B9
:1015EA00741206D590008712088090008702086856
:1015FA009000A3120874C3020831E4FCFD1206D558
:10160A009000C70208809000A7120868EF2470FFB4
:10161A00EE3417FEE43DFDE43CFC90008722122BD9
:10162A00F5E47BE87A03F9F890007E0208689000F6
:10163A00ACE0FF900077E0C39F22D3900098E0943B
:10164A0000900097E094002212086890008B12081C
:10165A00740206D5E475F0010206BF90007E020806
:10166A00809000A3020868D39000CDE09400900017
:10167A00CCE094002290009AE09000ADF0227F0A1C
:10168A001225AC90009BEFF09000C622F09000B0BB
:10169A000208689000C7020874D39DEC6480F8744D
:1016AA00809822E47B02FAF9F802077B900087020D
:1016BA0008747E2F122AC27F107E27227C2F122ABC
:0616CA00287F647E00226F
:102945008E238F248B258A268927AF051DEF6021CD
:102955000524E524AE237002052314F5828E83E455
:1029650093FF7825E475F0011208C9EF1206798006
:02297500D92265
:102C6700E4FDFCC3ED9FEC9E50070DBD00010C80F9
:012C7700F26A
:012C78002239
:102A00008F828E83E4F51DF51CF51BF51AAF82AE9F
:102A100083E4FCFDAB1DAA1CA91BA81AC312083134
:082A2000500543BD1080E622C1
:092BEC00E0FF7C2F122A287F640F
:102BF500E4FDFCC3ED9FEC9E50070DBD00010C806C
:012C0500F2DC
:012C060022AB
:10000300758E5190FE917401F0A37410F075BD5F6D
:0700130090FEA07420F02212
:102B9400E490FE80F0758901758DFA758BCB43A89E
:0E2BA40008438840758CCB758AEB438810225D
:1029770090FF10E054F04408F090FF02E054F04458
:1029870002F0D28490FFA07420F0A37404F075CCF9
:102997000675CEFF75CD98759E0275981043A810E1
:0129A700220D
:102C220043B40343B4807F147E00122C6775B50150
:072C320090FE9B744BF022A1
:102BD00090FF08E054F04408F090FF00E0540F44E8
:0C2BE00030F090FF11E054F04403F022AC
:0B2C94008F99E59830E1FB5398FD227A
:1025AC008FB543B440E5B430E5FB53B4DF7F647EB4
:1025BC0000122C67E4FBFAF943B440E5B430E5FBB8
:1025CC0053B4DFE5B62BFBE5B73AFA7F147E001265
:1025DC002C6709B910E275B501A9027F647E00125F
:0425EC002C67AF01A8
:0125F00022C8
:1017F5007B017A0079B67D0A7F007E2F12294590FC
:1018050000B6E0FFE4FCFDFE1216651216327808FC
:1018150012085512166590007E1208749000B7E004
:10182500FFE4FCFDFE1206D5121665121632E47BA6
:10183500E87A03F9F81206F0121665E47F307E7532
:10184500FDFC90007E1215FD40107F007E097D3D58
:101855007C0090007E1215B8400A90007E12088C1C
:1018650000009C409000B8E09000CBF0700280072B
:101875009000CBE0B4FE0374FFF09000B9E0FF9058
:10188500009CE4F0A3EFF0E0F8E4F0E890009CF0B1
:101895009000BAE0FF90009CE48FF01206BF900024
:1018A5009CE0FEA3E0FF4E6009D3EF9408EE940799
:1018B500400990009CE4F0A37405F09000BBE09013
:1018C500009AF09000A1F09000BCE0900092F060CA
:1018D50006E0D394FF40069000927401F09000BD9D
:1018E500E0F4540190008FF07B017A0079787D0156
:1018F5007F807E2F122945900078E090009FF0228E
:1008FF00E51E6003020DE643B440E5B430E5FB535B
:10090F00B4DF85B72385B62490008512165E1216C4
:10091F009DAE23AF241216049000B4E0FEA3E0FFB7
:10092F00C39524EE9523500DC3E5249FF524E523AD
:10093F009EF523800BC3EF9524F524EE9523F52325
:10094F0090008B120874AE23AF24E4FCFD1206D581
:10095F0090008B120880900085E05401FEA3E04EBA
:10096F00705212167140179000ADE09464503DE044
:10097F002402F0E0D3946440337464F0802E90002E
:10098F007CE07004A3E06401702A90009AE0FF906D
:10099F0000ADE0FED39F4014EE94024004E024FE2D
:1009AF00F09000ADE0C39F500312167F9000ADE0B2
:1009BF00FF1223A0C3900085E094205003020E1570
:1009CF0043BD10E4F0A3F09000AEE0041216969031
:1009DF0000C71216589000B01208809000AEE0C306
:1009EF0094084030E412169678101208429000B026
:1009FF001208801216979000B4EE8FF01206BF9077
:100A0F0000B4E0C313F0A3E013F09000B012088C11
:100A1F0000000000900075E0C394085005E004F05A
:100A2F0080409000CCE07002A3E07036121688E090
:100A3F00FE2402FDE433FCEF1216A3501890009B26
:100A4F00E02402FDE433FCEE1216A350089000C61A
:100A5F00E090009BF090009BE09000C6F0E49000C7
:100A6F0075F0E4FFFEFDFC9000871215FD703690C7
:100A7F00008B120868EF2488FFEE341312161D1234
:100A8F000880900097E07002A3E070197F407E42CB
:100A9F007D0FFC9000871215B8400A90008712084E
:100AAF008C000F4240900077E0701690008B120878
:100ABF00689000A312088090009312088C00000029
:100ACF00019000931216521215FA4003020C8490F3
:100ADF0000931208689000A312165890008B1215FD
:100AEF00FD4003020C84900077E004F09000C012E8
:100AFF0016529000C0120880900077E0FFFBE4FAD6
:100B0F00F9F89000C012086812077B9000A3120832
:100B1F008012166B7803120842900093120880E43B
:100B2F007F207E4EFDFC9000931215FD500A900021
:100B3F009312088C00004E20E47F607EEAFDFC904B
:100B4F0000931215B8400A90009312088C0000EA27
:100B5F006012166B9000871215B8403E9000A312DA
:100B6F0008741215F41206E212160A7F807E387D81
:100B7F00017C009000C71215B840089000AB7406B6
:100B8F00F0801DE47F407E9CFDFC9000C71215B8DD
:100B9F009000AB40087409F080069000AB740CF025
:100BAF009000AB12163B403B1215F41215FA50335E
:100BBF009000ACE094105003020C939000ABE0D384
:100BCF009409500512166B801112166B9000871244
:100BDF0015AA400C1215DF1216AD9000871208806F
:100BEF00020C841216385003020C931215F4900065
:100BFF00A31215AA40771216B612166B1206E2123E
:100C0F00160A7F007E127D7A7C001215FA505E7FE5
:100C1F00807E1A7D067C009000C71215FD504E9005
:100C2F0000ACE09410400280387FE07E937D047C1E
:100C3F00009000C71215B840089000AC7410F080F7
:100C4F001B7FF07E497D027C009000C71215B89083
:100C5F0000AC4005740CF080037408F01216384095
:100C6F000C1215DF1216AD9000871208801216387D
:100C7F004012E48004E4900077F09000C012088CDA
:100C8F00000000009000A0E0D394004036E014F084
:100C9F001216101215B85003020DA29000A71208D9
:100CAF0068EF2498FFEE343AFEE43DFDE43CFC90FF
:100CBF00008B1215FD4003020DA2121610120880B0
:100CCF00020DA2121644405774FFF5F01206BF1220
:100CDF001644404B7F007E127D7A7C009000871275
:100CEF0015B8400C90007E12088C000C3500802F38
:100CFF001216321216B61216077F407E547D897C6B
:100D0F00009000C71215B840161216B6C374409B58
:100D1F00FF74549AFE748999FDE498FC12166512BB
:100D2F00163290008712165890008B1215B8406338
:100D3F009000CBE0FF90009BE0D39F40051216443C
:100D4F0040519000CCE07002A3E070091215F490AE
:100D5F0000A71208809000CCE4F0A304F07883F68B
:100D6F0090009012165E900090E0FEA3E0FFE48FDB
:100D7F00468E45F544F5437F74121F819000AC7485
:100D8F0008F0E490007CF0A3F07897F608F67895D9
:100D9F00F608F69000C712088C0000000090008B38
:100DAF0012088C000000009000CCE0FEA3E0FFD3FF
:100DBF009400EE9400404F90009CE0FCA3E0FDD324
:100DCF00EF9DEE9C4040E49000CCF0A3F0751E0127
:100DDF007883F67880F62290007CE4F0A304F0E4A8
:100DEF00F51E900079F0A3F0900076F07FFAFE12D6
:100DFF002A009000B012088C000000001215BF12DC
:060E0F00088C0000000049
:010E150022BA
:1021DE00E4F5249000C712088C00000000E4F523FB
:1021EE0043B440E5B430E5FB53B4DF12169DAFB6F1
:1021FE00AEB71216040523E523B480E47F907E016A
:10220E00122A009000C7120868780B1208428F231A
:10221E00E523D3940C400CE523948D5006E52494CD
:0D222E0014500A0524E524D3945040A72243
:01223B002280
:10223C009000C712088C00000000E4F523E4F5269A
:10224C00F52743B440E5B430E5FB53B4DF85B72440
:10225C0085B62512169DAE24AF251216040527E56A
:10226C002770020526B400DAE526B420D543BD104C
:10227C000523E523B408C69000C71208687810122D
:0A228C0008429000B4EEF0A3EFF05A
:012296002225
:1023A000BF0104E4FE80397E007C007DFF1206AD93
:1023B000AC06AD07E41201DBE4FBFA79C8784212FF
:1023C00001398F288E278D268C25E4FFFEFD7C3F6A
:1023D000AB28AA27A926A825120045120214AE0789
:1023E00090FF9C7410F075DEFF8EDF75DD947F002A
:0123F00022CA
:10128500120026120003122BD07F641223A0122B0A
:1012950094122977122C2275BBAA90FEA774FFF031
:1012A50053BBF7D2AF7FC87E00122A007F6412239A
:1012B500A09000C57401F0121688F0C2AF1217F5A0
:1012C50090009FE004F07F807E2F122AC27F107E5F
:1012D50027122BF590009FE0FF7D807C2F122A2896
:1012E5007F647E00122BF5D2AF1221DE90009AE0CA
:1012F500FF9000ADF01223A07F2C7E01122A001270
:10130500223C9000C712088C0000000090009FE06E
:10131500C394034005E4F0122B0B43BD10E51E708A
:101325000B900086E0541F700312141A90008FE092
:10133500640160030213E5E51F701CF51E751F01AE
:1013450012167F9000B012088C000000001215BF25
:1013550012088C000000001208FFD390007DE09475
:101365000090007CE094004033900076E0B4012CBE
:10137500E4F090007C12165F900092E0FFC39000AD
:101385007DE09F90007CE094004011E4F0A3F09094
:101395000083E064016005E4FF1223A0121671408A
:1013A5000F7896E6640118467006F608F612165F81
:1013B5007884E66401600302131118E6FF788066FD
:1013C5007003021311A6079000CCE4F0A304F0E427
:1013D500F522E522C394084003021311052280F289
:1013E500E4F51F900084E07007FF1223A00213119B
:1013F5009000A1E0FF1223A0E4F51E12167F9000D5
:10140500B012088C000000001215BF12088C0000F5
:051415000000021311AC
:03001B00021E5270
:101E5200C0E0C0F0C083C082C0D075D000C000C056
:101E620001C002C003C004C005C006C007AF1DAE5A
:101E72001CAD1BAC1AEF2401FFE43EFEE43DFDE481
:101E82003C8F1D8E1C8D1BF51A90007912165E90E8
:101E92000079E0FEA3E0FFE4FCFD7B607AEAF9F85A
:101EA200D312081B500C900079E4F0A3F090007656
:101EB20004F0789806E618700106C37898E694E86C
:101EC20018E69403401278817601789776000876B6
:101ED2000078957600087601D007D006D005D004A8
:101EE200D003D002D001D000D0D0D082D083D0F0A5
:031EF200D0E0320B
:030023000225654E
:10256500C0E0C0F0C083C082C0D075D000C000C03C
:0D25750001C002C003C004C005C006C007BD
:0F258200E59830E00AAF991222F25398FED2AFDB
:10259100D007D006D005D004D003D002D001D0009E
:0B25A100D0D0D082D083D0F0D0E03248
:03003B0002001AA6
:01001A0032B3
:102AC20053BBF7C280E5BB20E3F6D280C2AF75FDEF
:102AD200F075FC0F8EFA8FF975FDD275FC2D75FD20
:052AE200E175FC1E225D
:102A280053BBF7C280E5BB20E3F6D280C2AF8FFB71
:102A380075FDF075FC0F8CFA8DF975FDB475FC4BBE
:072A480075FDE175FC1E2283
:102170007F001216BC12162812077B78081208423C
:102180007D001216C612162812077B7D011216C694
:10219000122BF59000CB7D02122BEC90009C7D035E
:1021A000122BECA3E0FF7D04122BEE90009AE0FFCF
:1021B0007D05122BEE900092E0FF7D06122BEE9033
:1021C000008FE0F4FF7D07122BEE7F801216BC1209
:0D21D0002BF57D807C2FE4FF122A28D2AF72
:0121DD0022DF
:102A7600637263206572726F7220286372633A30E4
:102A8600782558202062757420646174613A307824
:062A96002558290D0A007D
:0417B200027E0000B3
:101D030012064CFFE5474FFFE546FEE545FDE5447A
:101D13008F478E468D45F544FC78081208558F474A
:101D23008E468D4522AF46AE45AD44AC43120842C4
:101D3300AD0722AD07E4FBFA900001E0227402250F
:101D430024F974003523FA7B01E52624FFFDE525FC
:101D530034FFFC22E475F0010208C9AA06AB077D33
:101D6300037F0722AF7DAE7CAD7BAC7A020842FED7
:101D7300E555FDE554FCE47BFF22E4F541F540F530
:101D83003FF53E2212064CAB4AAA4BA94C22AB6844
:101D9300AA69A96A020633AB6BAA6CA96D02063362
:0A1DA3007562017563007564222269
:1020FF00EFC39430400CEFD39439500674D02FFFB8
:10210F008022EFC39441400CEFD394465006EF2446
:10211F00C9FF8010EFC39461400AEFD39466500457
:10212F00EF24A9FFEF540FC454F0FFEDC3943040D8
:10213F000CEDD39439500674D02DFD801EEDC39451
:10214F00414008EDD394465002800CEDC39461409A
:10215F000AEDD394665004ED24A9FDED540F420708
:01216F00224D
:062679008B3B8A3C893D09
:10267F00121D7DE94A4B7005FFFEFDFC22121D7DE8
:10268F00783B121D57120633601AE5412401FFE40F
:10269F003540FEE4353FFDE4353E8F418E408D3FA2
:0C26AF00F53E80DCAF41AE40AD3FAC3EDC
:0126BB0022FC
:0628DE008B088A09890A3B
:1028E4008B0E8A0F8910E94A4B7004FBFAF922E532
:1028F4000D150DAE0C7002150C4E600B780E121DEA
:0D29040057ED12067980E8AB08AA09A90A70
:0129110022A3
:061ACF008B428A438944AA
:101AD5008B4A8A4B894C85454D85464E85474FE94E
:101AE5004A4B6008E5474546454570077B007A0047
:101AF500790022D3854E83854F82E54C9582E54B4F
:101B050095834019E54F2549F9E54E3548FA8A830D
:101B15008982D3E54C9582E54B95834032E4F550B7
:101B2500F551C3E5519549E5509548505BAB4DAA34
:101B35004EA94F855182855083121D878551828517
:101B4500508312068B0551E55170D7055080D3851A
:101B55004850854951D3E5519400E55094004028FB
:101B6500AB4DAA4EA94FE55124FFFFE55034FFFECA
:101B75008F82F583121D878F828E8312068BE55126
:0E1B8500155170D1155080CDAB42AA43A94432
:011B9300222F
:0627FB008B118A12891304
:102801008B178A188919AB14AA15A91612063360F9
:10281100147814121D57120633FF7811121D57EF49
:1028210012067980E1AB11AA12A913E4120679AB61
:0528310017AA18A91907
:01283600227F
:1025F1008B688A69896A121D91FF6020121D9A6099
:102601001BB507187401256AF56AE43569F5697423
:1026110001256DF56DE4356CF56C80DA121D9AFFBC
:102621003395E0FE121D91FD3395E0FCC3ED9FFF54
:04263100EC9EFE22FB
:102912008F7D8E7C8D7B8C7A7818120842EF12069E
:10292200797810121D67900001EF12068B78081259
:102932001D67900002EF12068BE57DFF900003EF0A
:0329420002068BFF
:10243D00E4F547F546F545F544120633FFE48F47BD
:10244D00F546F545F544AE46AD45AC44121D1C8C24
:10245D0044900001121D038C44900002121D038C48
:10246D004490000312064CFFE5474FFFE546FEE59D
:0A247D0045FDE544121D21F544FC65
:012487002232
:06251C008B6F8A708971CB
:10252200121D36B401037F0122AF03AE02122C87C3
:10253200AA06AB07E412255CE57212255CAD7312A4
:102542002C87AB6FAA70A9718572408573411229DD
:09255200A8121D5E12234B7F014B
:0A255B0022FD122C87AA06AB07220E
:042488008D3EAC07D2
:10248C00121D38B401037F0122AF03AE02AD04125A
:10249C0024C1E4FD1224C1E53E7003FD8006AF03A8
:1024AC00AE027D01122C87AA06AB077D037F0712B3
:0424BC00234B7F012E
:1024C00022122C87AA06AB077D01122C87AA06AB25
:0224D0000722E1
:101F8100121D36B401037F0122AF03AE02122C876A
:101F91007D02121FF4E4FD122C877D04121FF4C090
:101FA10006C0077818121D28D007D006122000C0DD
:101FB10006C0077810121D28D007D006122000C0D5
:101FC10006C007AF46AE45AD44AC4378081208429F
:101FD100AD07D007D006122C87AA06AB07C007E5CC
:101FE10046FFE4AD07D007122C87121D5E12234B6A
:021FF1007F016E
:101FF30022AA06AB07122C87AA06AB0722122C874C
:05200300AA06AB072254
:0624D2008B758A76897704
:1024D800121D36B401037F0122AF03AE0212251488
:1024E8007D03122514E578FD122C87AA06AB07ADEB
:1024F80079122C87AB75AA76A977857840857941BA
:0B2508001229A8121D5E12234B7F0158
:0925130022122C87AA06AB072254
:04277F008D3EAC07D8
:10278300121D38B401037F0122AF03AE02AD041260
:102793002C877D041227B2E4FD122C877D011227BA
:0E27A300B2AD3E122C87121D5E12234B7F0139
:0D27B10022AA06AB07122C87AA06AB07224E
:021B9400AD079B
:101B9600E4F558F559900001E0B401037F012212E3
:101BA6001C377D05121C4FE4FD121C4F74FFFFE528
:101BB60056121D72FAF9F8C312083170097D011226
:101BC6001C37AD57803D74FFFF121D727AFFF9F87E
:101BD600C312083170047D0280197D04121C4378FB
:101BE60018121C1EAF57AE56AD55AC5478101208DD
:101BF60042AD07121C437808121C1EE557FFE4ADE0
:101C060007AF59122C878E588F59AB59AA587D03A6
:071C16007F0712234B7F0141
:101C1D0022AF57AE56AD55AC54120842AD07AF5971
:101C2D00AE58122C878E588F5922AF59AE58122CA0
:101C3D00878E588F5922AF59AE58122C878E588FD8
:0A1C4D005922122C878E588F59225D
:082CB3008C3E8D3F120633FF39
:012CBB0022F6
:082CBC008C3E8D3F120633FF30
:012CC40022ED
:072CC5008C428D4312243DF7
:012CCC0022E5
:1022F2008F52C3E5679564FFE5669563FEEF64015F
:102302004E6045D3856683856782E5649582E56381
:1023120095834015E5649567FFE5639566FEC3EF17
:10232200941BEE64809480501FC390003DE5649539
:1023320082E563958340077A007922121DA37862B1
:09234200121D57E5521206792222
:10141A00E4F523F524F525F526C3E57F941FE57E3B
:10142A0094005024122BB2EFD39400401B12273F92
:10143A00057FE57FAC7E7002057E142402F5827476
:10144A00003CF583EFF080D1C3E57F9407E57E94F5
:10145A000050030215A9C3E57F9524FDE57E952377
:10146A00FCC3ED9407EC9400500302157274022534
:10147A0024F58274003523F583E06455600A052457
:10148A00E52470D2052380CE74032524F5827400E6
:10149A003523F583E064AA600A0524E52470B705BC
:1014AA002380B374042524F58274003523F583E080
:1014BA0060047402803C74062524F5827400352386
:1014CA00F583E0752600F52574072524F582740056
:1014DA003523F583E02407FFE433FEEF2526F526BE
:1014EA00EE3525F525D3E5269426E5259400400A10
:1014FA0074032524F524E402156BC3ED9526EC95B7
:10150A00254065121D40122A9CE5242526FDE52367
:10151A003525FC74012DF58274003CF583E06F607B
:10152A0031121D40122A9C8F2A7BFF7A2A7976E58E
:10153A00242526FFE5233525FE74012FF582740044
:10154A003EF583E0F52B120E7874032524F524E486
:10155A00800FAF24AE23121905E5262524F524E5CC
:10156A00253523F523021460C3E57F9524F57FE52D
:10157A007E9523F57ED3E57F9400E57E9400401F97
:10158A0074022524F974003523754501F546894707
:0F159A00857E48857F497B017A007902121ACF3E
:0115A900221F
:10002600121DA375650175660075672290007474CC
:03003600FFF022B6
:062CCD00900021E0FF224F
:0E2C7900E4900021F0FBFA7D037F0402234B60
:062CD300900000E0FF226A
:022C3900AD07E5
:102C3B00E4FF900000F0FE122C87EFFB7A007D037F
:052C4B007F0502234B90
:062CD900900074E0FF22F0
:0A2C9F00E4FBFA7D037F0E02234BD5
:1017B6004100D3004400CF00000000015F00015C3F
:1017C60000015B00015A00015E00015D000160003E
:1017D6005800D4140116026504660267016802699E
:0B17E6000271017201730174027501B1
:1028A800AB38AA39A93AAD3CAC3B2290009CE0FE7B
:1028B800A3E0FFE48F468E45F544F5432290009A45
:1028C800E0FFE48F46F545F544F54322E0FFE4FCDC
:0628D800FDFEC302083101
:102B0B007F55122C947FAA122C947F03122C947F46
:102B1B0004122C94E4FF122C94E4FF122C947F06E5
:032B2B00022C94E5
:032CDF00022C9430
:101DAD00900000E0FD7F14122488900084E0FD7FF8
:101DBD00711224881228C57F16121F819000CBE066
:101DCD00FFB4FF05E4F530801EEFB4C80575300291
:101DDD008015EFB42805753003800CEFB41405752C
:101DED0030048003753005AD307F6512277F1228D2
:101DFD00B37F66121F8190008FE0FD7F67122488EC
:101E0D009000921228C87F68121F81E47B107A27F8
:101E1D00F9F890007E12086812077BC374329F1286
:101E2D0028C97F69121F817884E6FD7F721224888C
:101E3D00900083E0FD7F731224889000901228B6E5
:051E4D007F74021F81FB
:102C5000122CB3900000EFF0FD7F14122488BF0106
:062C6000037F01227F004A
:012C6600224B
:10263500122CC58F418E408D3F8C3E055B90009AD4
:10264500AB41AA40A93FA83E1228D46008E4F55B37
:10265500FF0FBF08FCAF4190009AEFF09000A1F08A
:102665001221701228C57F16121F81BF01037F0139
:03267500227F00C1
:01267800223F
:10200800122CBC055A9000D3E0B50714BF051990EF
:1020180000CBE0FE90009BE06E600DE4F55A80086E
:10202800E4F55AFE0EBE08FCEF1460101460151497
:10203800601A14601F146024240570289000CB7463
:10204800FFF080209000CB74C8F080189000CB740B
:1020580028F080109000CB7414F0800890009BE06A
:102068009000CBF09000D3EFF01221709000D3E0F5
:0E207800FD7F6512277FBF01037F01227F00DD
:012086002237
:1023F100122CC58F418E408D3F8C3E055E90009C16
:10240100E0FEA3E0FFE4FCFDAB41AA40A93FA83EEA
:10241100C31208316008E4F55EFF0FBF08FC9000AD
:102421009CE540F0A3E541F01221701228B37F66CC
:0B243100121F81BF01037F01227F000A
:01243C00227D
:10287200122CB3055C90008FE06F6008E4F55CFEFB
:102882000EBE08FCEF90008F7003F080037401F01D
:1028920012217090008FE0FD7F67122488BF010330
:0528A2007F01227F0010
:0128A700220E
:1026BC00122CC58F418E408D3F8C3E055D90009253
:1026CC00AB41AA40A93FA83E1228D46008E4F55DAE
:1026DC00FF0FBF08FC900092E541F01221709000B2
:1026EC00921228C87F68121F81BF01037F01227FCD
:0126FC0000DD
:0126FD0022BA
:10208700122CC58F418E408D3F8C3E05609000CF4E
:10209700120868AB41AA40A93FA83EC312083160A5
:1020A70008E4F560FF0FBF08FCAF41AE40AD3FACA1
:1020B7003E9000CF120880C374329541FFE49540EB
:1020C700FEE4953FFDE4953EFCE47B107A27F9F8A2
:1020D7001206F090007E1208801221709000CF1235
:1020E70008688F468E458D448C437F69121F81BFD8
:0720F70001037F01227F00BD
:0120FE0022BF
:1026FE00122CB3055F900084E06F6008E4F55FFE76
:10270E000EBE08FCEF7006900084F0801190008FD2
:10271E00E0B40104788376019000847401F0900097
:10272E0084E0FD7F71122488BF01037F01227F00A8
:01273E002278
:1029D700122CB3AD077884E66D6006E4FF0FBF08DD
:1029E700FCED78847003F6800276017F72122488EA
:0829F700BF01037F01227F00F4
:0129FF0022B5
:102AE700122CB3900083E06F6006E4FE0EBE08FC74
:102AF700900083EFF0FD7F73122488BF01037F01ED
:032B0700227F002A
:012B0A0022A8
:102C0700122CB3EF6012E4900090F0A3F0900090C4
:0A2C17001228B67F74121F817F019E
:012C21002290
:061C57008B388A39893A3E
:101C5D00EF1208D91C86141CA8161CB1651CB96698
:101C6D001CC1671CC9681CD1691CD9711CE1721C8F
:101C7D00E9731CF17500001CFB1228A8122C508F63
:101C8D003DE53D6401706C9000AFE004F0E0C3945D
:101C9D00054060E4F0122B0B021D001228A812263D
:101CAD0035021CF71228A8122008803E1228A8120F
:101CBD0023F180361228A8122872802E1228A8121D
:101CCD0026BC80261228A8122087801E1228A81252
:101CDD0026FE80161228A81229D7800E1228A812C7
:101CED002AE780061228A8122C078F3D8000E49069
:051CFD0000AFF0AF3D57
:011D020022BE
:032CE2007F0C2242
:05001E008F308D31223E
:102837007B2270223A22003762616A696A307975B1
:102847006D6F6B796F667600222C2276223A220012
:10285700312E302E3000222C226D223A0030007D9E
:0B286700000000000000000000000066
:0317F10001610093
:102B2E0074082528F58274003527F583E022744356
:102B3E002FF974003EFA7B0122E475F0011208C9E8
:032B4E0002063349
:0C2C8700122B3CED1206790FBF00010E6D
:012C9300221E
:0A29A8008E3B8F3C8B3D8A3E893F39
:1029B200122B3C853D45853E46853F4785404885EF
:1029C2004149121ACFE541253CF53CE540353BF53E
:0429D2003BFEAF3CDD
:0129D60022DE
:0A2A9C008B498A4A894B8C4C8D4D02
:102AA600E4FFFDFCC3ED954DEC954C500E784912B4
:0B2AB6002B472FFF0DBD00010C80E935
:012AC10022F2
:1027BE008B498A4A894B8C4C8D4DE94A4B602DE5ED
:1027CE004D454C6027E54D154DAE4C7002154C4EE7
:1027DE00601AAB49AA4AA94B120633FF122CDF74BA
:0D27EE0001254BF54BE4354AF54A80D92210
:04234B008A478B48EA
:10234F0090003D7455F0A374AAF0A3EDF0A3EFF045
:10235F00E547A3F0E548A3F02407F548E43547F532
:10236F00477B017A00793DE54824FFFDE54734FFBF
:10237F00FC122A9CAE07743C2548F5827400354741
:10238F00F583EFF07B017A00793DAD48AC4702272A
:01239F00BE7F
:102B5100E4FFE561700AFEFD122C877561018007B3
:102B61007E007D01122C87EFFB7A007D03E4FF02DA
:022B7100234BF4
:101A0400E4F53078317C00FD7BFF7A287968FE7F2D
:101A14000A12060D7A287937121A9F7A2879371212
:101A240029A88F307A28793E121A9F7A28793E1293
:101A340029A88F307A28794F121AAF7A28794F1251
:101A440029A88F307A287957121AAF7A2879571231
:101A540029A88F307A28795D121ABF7A28795D1205
:101A640029A88F307A287964121ABF7A28796412E7
:101A740029A88F307BFF7A2879661226798E408FC9
:101A840041AF307E007BFF7A2879661229A88F3017
:0B1A9400EFFB7A007D037F0102234B73
:101A9F007BFF1226798E408F41AF307E007BFF2275
:101AAF007BFF1226798E408F41AF307E007BFF2265
:101ABF007BFF1226798E408F41AF307E007BFF2255
:0A2CA900E4FBFA7D037F0202234BD7
:022B73008F379A
:102B7500122CE2E4FEEEC39F501275F002EE9000B7
:0E2B8500D41208BDE0653760030E80E9AF068C
:012B9300221F
:062297008B308A31893210
:10229D00120633F53390000112064CF5349000020E
:1022AD0012064C753600F53590000312064C253696
:1022BD00F536E43535F535AF33122B7375F002EF86
:1022CD009000D51208BDE0653460037F0022AB306D
:1022DD00E5322404F9E43531FA85353B85363CAFDA
:0422ED0033121C5735
:0122F10022CA
:041905008E278F2872
:1019090074052FF58274003EF583E0FF1208D9199A
:101919003700193A01193D021940031951041956A2
:1019290005195D0619EB0819EE0E00001A03022BC2
:1019390051021A04022CA9122B2E900074F0E4FB18
:10194900FA7D037F0302234B90002180039000005E
:101959007401F02274062528F58274003527F58371
:10196900E0FE74072528F58274003527F583E0FD2C
:10197900EEF52EEDF52FE4F52CF52DC3E52D952F7C
:10198900E52C952E5074E528252DFDE527352CFCF1
:10199900740A2DF58274003CF583E0752A00F52957
:1019A900740B2DF58274003CF583E0252AF52AE4B1
:1019B9003529F52974082528F974003527FA7B019A
:1019C900E9252DF9EA352CFA1222978F2BE52A24DD
:1019D90004FFE43529FEEF252DF52DEE352CF52CE8
:1019E9008099021DAD122B2EFF74092528F58274EA
:0A19F900003527F583E0FD12001E03
:011A030022C0
:102BB200E5658566838567826562700AE56465827C
:0E2BC2007004E563658360037F01227F0022BB
:10273F00AB65AA66A967E562856383856482656573
:10274F00700AE56765827004E56665836021C39052
:10275F00003DE5679582E5669583400D7A00792205
:0F276F007565017566007567227865122B47FF47
:01277E002238
:10003E00020280E86480F8E933E83360110460F06E
:10004E00ED33EC337009E8FCE9FDEAFEEBFF220428
:10005E0060DED3EB9FEA9EE99DE8C2E78CF0C2F723
:10006E0095F0400CE8CCF8E9CDF9EACEFAEBCFFBEF
:10007E0012024B85D0F05804700320D5B3E80470FB
:10008E00075002B2D502028A92D5EC0460F7E4CC96
:10009E00C0E0C398F8603B94186008400DD0E0FBB8
:1000AE00020262E4FBFAC9FC8028E830E406E4C9E7
:1000BE00FBE4CAFCE830E305E4C9CACBFCE854070C
:1000CE006010F8C3E913F9EA13FAEB13FBEC13FC17
:1000DE00D8F130F52FC3E49CFCEF9BFFEE9AFEEDBA
:1000EE0099FDD0E0FBEF4E4D4C701222DB03020265
:1000FE0087EC2CFCEF33FFEE33FEED33FDED30E7F6
:10010E00EB020262EF2BFFEE3AFEED39FDD0E0FB83
:10011E0050130BBB000302028AED13FDEE13FEEF2C
:08012E0013FFEC13FC02026256
:1001360002028AEC5D046005E8590470030202803D
:1001460012024B580460F6EC4860F2EC7004FDFEB7
:10015600FF22C860DB2481C85009C398600250069C
:100166000202879850CAF582E9294B4A7005AB828C
:1001760002027675F0007C1A7880C3EF9BEE9AED4A
:1001860099400DC3EF9BFFEE9AFEED99FDE842F014
:10019600DC23ACF0D0E0FFD0E0FED0E0FDAB822067
:1001A600E7101BEB60BAEC2CFCEF33FFEE33FEEDF1
:1001B60033FD020262E803F830E705C0F075F0008F
:1001C600EF2FFFEE33FEED33FD40B830E7C280AAD5
:1001D60075F020800E75F010800575F0087D007EA4
:1001E600007F003392D530D50312080DEC33401052
:1001F600EF33FFEE33FEED33FDEC33FCD5F0ED22AD
:0E020600E5F0247EA2D513CC92E7CDCEFF22E8
:10021400EDD2E7CD33EC3392D524814006E4FFFEE2
:10022400FDFC22FCE4CFCECDCC24E0501174FF8041
:10023400EDC3CC13CCCD13CDCE13CECF13CF0470DE
:07024400F030D5DE02080DC9
:100E1600E53E242AF8E6053E227827300702782A9E
:100E2600E475F0011208C90206332000EB7F2ED2CA
:100E3600008018EF540F2490D43440D4FF30040BB4
:100E4600EF24BFB41A0050032461FFE53F6002158A
:100E56003F0542E5427002054130070D7827E475EB
:100E6600F0011208C9EF020679022A4F7403D2076D
:100E76008003E4C207F53E8B278A288929E4F53FDB
:100E8600F541F542E53F60077F20120E5180F5756A
:100E960040FFC201C200C202C203C205C206C208A6
:100EA600120E1FFF700D3007057F00120E62AF4253
:100EB600AE4122B4255FC2D5C204120E1FFF24D054
:100EC600B40A00501A75F00A783F30D50508B6FF07
:100ED6000106C6A426F620D5047002D20380D924C2
:100EE600CFB41A00EF5004C2E5D20402114FD2016A
:100EF60080C6D20080C0D20280BCD2D580BAD205CC
:100F060080B47F20120E512002077401B53F0040C5
:100F1600F1120E16FF120E51020E8AD208D2068068
:100F260095120E16FB120E16FA120E16F94A4B7091
:100F36000679467A127BFF20022EE53F602A7E0064
:100F46008E8275830012064C60060EEE654070F0C8
:100F5600C2D5EBC0E0EAC0E0E9C0E0EE1211AFD0C6
:100F6600E0F9D0E0FAD0E0FB120633FF60AAEBC04E
:100F7600E0EAC0E0E9C0E0120E51D0E02401F9D069
:100F8600E03400FAD0E0FBE5400460DCD540D980CF
:100F960087D20280A212119260F7E5407001041216
:100FA6000295A940600DE540600914F5401212391A
:100FB600EF60F3EA30E702F404C3995077EAF425C8
:100FC600400430E701E404F540800D12119260C13F
:100FD600EA05402540120295EA783DF630E701E43D
:100FE600254004D54004200501141211AFE4C0E0E9
:100FF600121239783DE6601320E70714F6120E390F
:10100600802204F6D0E014C0E07F00120E39E540DD
:101016006007120E301540800B300503120E30D0DB
:10102600E0020E8AD0E00480C512119260A0E5406D
:1010360004120295783DEAF6E540200502600104B7
:0510460024041211AFAB
:10104B0074FF04C0E0121239120E39E5402005027C
:10105B006003120E30D0E0B540E87F45120E4378A6
:10106B003DE67F2B30E7047F2DF404C0E0120E51D8
:10107B00D0E075F00A84C0F0120E3AD0E0120E3AAE
:10108B00020E8A791080027908C206C2088008D243
:10109B00D5790A8004790AC2D5E540047002F5407F
:1010AB00E4FAFDFEFF120E16FC7B08200113120E54
:1010BB0016FD7B1030000A120E16FE120E16FF7B69
:1010CB0020EC3382D592D55013C3E43000069FFF3A
:1010DB00E49EFEE42001039DFDE49CFCE4CBF8C2FE
:1010EB0001EC700CCFCECDCCE824F8F870F3801760
:1010FB00C3EF33FFEE33FEED33FDEC33FCEB33FB91
:10110B00994002FB0FD8E9EB300105F8D0E0C44859
:10111B00B201C0E00AEC4D4E4F78207B0070C2EA62
:10112B00B5400040BCC0E01211B1D0F0D0E02001BE
:10113B0004C4C0E0C4B201C0F0120E3AD0F0D5F036
:10114B00EB020E8A1208D90F2753108E580EF84C4B
:10115B000EF44210924F109A44109A490F0D4310FF
:10116B00A0550FD146102F450F9B471266500EFC12
:10117B002D0F002E0F232B0F04230F2120124F2A8C
:10118B000EBC4800000F1BE540B4FF037540061270
:10119B000E16FC120E16FD120E16FE120E16FF7810
:1011AB00360202C4790AA2D5200314300509B910FE
:1011BB00020404B9080104A2D52006025001042040
:1011CB0002689202B53F005034C0E07F2030031913
:1011DB007F30A20272067205500F121208C202C2B1
:1011EB0006C205C2087F30800F300503E9C0E0124C
:1011FB000E51300503D0E0F9D0E0B53FCC300517E8
:10120B007F30B9100C120E517F583004077F788055
:10121B0003B90803120E513002057F2D020E517FC8
:10122B00202008F87F2B2006F322920280CF7F002C
:10123B00B4070050052436F8E6FF22286E756C6C57
:10124B002900D201120E163001F8C201783F30D5B9
:10125B000108F6020EBC2D50434958120E162403FA
:10126B00B405004001E490126193120E42743A12DD
:0A127B000E42D203753F0402108EEC
:10024B00E9D2E7C933E833F892D5EDD2E7CD33ECF9
:07025B0033FC5002B2D52272
:10026200EC30E7100FBF000C0EBE00080DBD0004FD
:100272000BEB6014A2D5EB13FCED92E7FD2274FFA9
:10028200FCFDFEFF22E480F8A2D574FF13FC7D8002
:03029200E480EF16
:10029500F920E72824F950037907E4F42402FB1830
:1002A500DBFDE624FB5014E9600DE4F618E604F6E0
:0F02B500B40A08E4F6D9F57401F60A22C2D5227C
:1002C400ED33EC3392D5FA602AB4FF33EDC2E77B09
:1002D400FF60067A0279E9E4227A0279F220D504F1
:1002E4007A0279ED224E614E002B494E46002D498B
:1002F4004E4600E47A08F608DAFC7B00740722E82C
:10030400C0E0ECC0E0EDC0E0EEC0E0EFC0E0EA75B4
:10031400F010A4CAABF075F04DA42BFBE435F0FC4F
:10032400EA2410FAEB34C5FBEC34D9FCEDC2E7FF48
:1003340075F056A4F42411C5F0F434C58FF0A42A42
:10034400E5F03BE43CF620E7141204FDD0E0FFD0D6
:10035400E0FED0E0FDD0E0FC1201398014F4041278
:1003640004FDD0E0FFD0E0FED0E0FDD0E0FC1203BD
:10037400C7D0E0F8E6FAEDD2E7CD33EC332482FBC4
:10038400E4C3CF33CFCE33CECD33CD33DBF37B07D2
:1003940075F00A846004F6081B0AE5F0F6088FF08D
:1003A400740AA4FFACF08EF0740AA42CFEACF050D6
:1003B400010C8DF0740AA42CFDE435F0F608DBDEA4
:0303C40074072299
:1003C700EC4D6011E8497017ED33EC3304600DE430
:1003D700FCFFFEFD22E933E8330470F802028012C5
:1003E700024B58046009E4CC2481500628500902C6
:1003F700028A284003020287C0E0EB4A7044B980B2
:1004070006D0E0FB020276EF4E701CBD8008EBFFC2
:10041700EAFEE9FD80EBE98DF0A4FEE5F00204B009
:10042700E9CDF9EAFEEBFFEF89F0A4FCE5F0CE8910
:10043700F0A42EFFE435F0CD89F0A42DFEE435F0CD
:100447008067EF4E7005BD80D780C3EF8BF0A4ACFB
:10045700F0EE8BF0A42CFCE435F0F8EF8AF0A42C36
:10046700E5F038FCE433CB8DF0A42CFCE5F03BF849
:10047700EE8AF0A42CFCE5F038F8E433CF89F0A439
:100487002CFCE5F038CF3400CE89F0A42FFFE5F03F
:100497003EFEE433C98DF0A42EFEE5F039CD8AF097
:1004A700A42FFFE5F03EFEE43DFD33D0E0FB50070F
:1004B7000BBB000F02028AEC2CFCEF33FFEE33FE7E
:0604C700ED33FD020262AC
:1004CD003F8000004120000042C80000447A000037
:1004DD00461C400047C35000497424004B189680B9
:1004ED004CBEBC205A0E1BCA6753C21C749DC5AEB0
:1004FD00FB60065407601C232312052BEB54386058
:10050D00091205171205261203C7ECF8EDF9EEFADC
:10051D00EFCB22EB12052680F1543803241C9004F6
:10052D00CDFE93FC0EEE93FD0EEE930ECE93FF22B9
:101F0100021285E493A3F8E493A34003F68001F25F
:101F110008DFF48029E493A3F85407240CC8C333E1
:101F2100C4540F4420C8834004F456800146F6DFB0
:101F3100E4800B01020408102040809016D0E47E5A
:101F4100019360BCA3FF543F30E509541FFEE493A5
:101F5100A360010ECF54C025E060A840B8E493A36C
:101F6100FAE493A3F8E493A3C8C582C8CAC583CA97
:101F7100F0A3C8C582C8CAC583CADFE9DEE780BE4F
:0117F40000F4
:10053D00E709F608DFFA8046E709F208DFFA803EA0
:10054D0088828C83E709F0A3DFFA8032E309F6088D
:10055D00DFFA8078E309F208DFFA807088828C83F5
:10056D00E309F0A3DFFA806489828A83E0A3F608A9
:10057D00DFFA805889828A83E0A3F208DFFA804C83
:10058D0080D280FA80C680D4806980F2803380105A
:10059D0080A680EA809A80A880DA80E280CA8033C3
:1005AD0089828A83ECFAE493A3C8C582C8CCC5833B
:1005BD00CCF0A3C8C582C8CCC583CCDFE9DEE7800B
:1005CD000D89828A83E493A3F608DFF9ECFAA9F08A
:1005DD00EDFB2289828A83ECFAE0A3C8C582C8CCE0
:1005ED00C583CCF0A3C8C582C8CCC583CCDFEADEF9
:1005FD00E880DB89828A83E493A3F208DFF980CC5B
:10060D0088F0EF60010E4E60C388F0ED2402B40453
:10061D000050B9F582EB2402B4040050AF232345FA
:06062D00822390058D738D
:10063300BB010689828A83E0225002E722BBFE02C5
:09064300E32289828A83E49322F8
:10064C00BB010CE58229F582E5833AF583E0225063
:10065C0006E92582F8E622BBFE06E92582F8E222AD
:0D066C00E58229F582E5833AF583E49322C7
:10067900BB010689828A83F0225002F722BBFE0160
:02068900F3225A
:10068B00F8BB010DE58229F582E5833AF583E8F0A5
:10069B00225006E92582C8F622BBFE05E92582C851
:0206AB00F22239
:1006AD00EF8DF0A4A8F0CF8CF0A428CE8DF0A42E61
:0206BD00FE221B
:1006BF00C5F0F8A3E028F0C5F0F8E58215827002C6
:0606CF001583E038F02263
:0D06D500EF2BFFEE3AFEED39FDEC38FC2274
:0E06E200C3EF9BFFEE9AFEED99FDEC98FC2213
:1006F000E88FF0A4CC8BF0A42CFCE98EF0A42CFCA9
:100700008AF0EDA42CFCEA8EF0A4CDA8F08BF0A426
:100710002DCC3825F0FDE98FF0A42CCD35F0FCEB85
:100720008EF0A4FEA9F0EB8FF0A4CFC5F02ECD394A
:0F073000FEE43CFCEAA42DCE35F0FDE43CFC22B7
:10073F0075F008758200EF2FFFEE33FECD33CDCC71
:10074F0033CCC58233C5829BED9AEC99E5829840F4
:10075F000CF582EE9BFEED9AFDEC99FC0FD5F0D6D1
:10076F00E4CEFBE4CDFAE4CCF9A88222B800C1B9FB
:10077F000059BA002DEC8BF084CFCECDFCE5F0CB39
:10078F00F97818EF2FFFEE33FEED33FDEC33FCEB72
:10079F0033FB10D703994004EB99FB0FD8E5E4F92D
:1007AF00FA227818EF2FFFEE33FEED33FDEC33FC1A
:1007BF00C933C910D7059BE99A4007EC9BFCE99A0E
:1007CF00F90FD8E0E4C9FAE4CCFB2275F010EF2F53
:1007DF00FFEE33FEED33FDCC33CCC833C810D70753
:1007EF009BEC9AE899400AED9BFDEC9AFCE899F88E
:0E07FF000FD5F0DAE4CDFBE4CCFAE4C8F92221
:0E080D00C3E49FFFE49EFEE49DFDE49CFC22FC
:10081B00EB9FF5F0EA9E42F0E99D42F0EC6480C854
:06082B0064809845F022F4
:10083100EB9FF5F0EA9E42F0E99D42F0E89C45F01D
:010841002294
:10084200E8600FECC313FCED13FDEE13FEEF13FF94
:03085200D8F122B8
:10085500E8600FEFC333FFEE33FEED33FDEC33FC01
:03086500D8F122A5
:0C086800E0FCA3E0FDA3E0FEA3E0FF2203
:0C087400E0F8A3E0F9A3E0FAA3E0FB2207
:0C088000ECF0A3EDF0A3EEF0A3EFF022EB
:10088C00A8828583F0D083D0821208A31208A31209
:10089C0008A31208A3E473E493A3C583C5F0C5832E
:1008AC00C8C582C8F0A3C583C5F0C583C8C582C8B6
:0108BC002219
:0C08BD00A42582F582E5F03583F5832246
:1008C900FAE6FB0808E6F925F0F618E6CA3AF62230
:1008D900D083D082F8E4937012740193700DA3A3AE
:1008E90093F8740193F5828883E4737402936860C2
:0608F900EFA3A3A380DFC2
:102A4F00EFB40A07740D122A5A740A309811A89914
:102A5F00B8130CC2983098FDA899C298B811F630E7
:072A6F0099FDC299F59922BF
:00000001FF
