:0300000002210CCE
:0C210C00787FE4F6D8FD75818002215335
:10191700041A00000000410077004100AE0C4100AE
:10192700AF404400A500000000440088000000000C
:1019370044008C000000004400CB0000000044007D
:10194700B5000000004400D20000000042009900EA
:1019570001420086000041007D004100A3004200D3
:10196700D7000042007E0000410071084100B1002D
:101977004100D900011E00011F0041008500410000
:10198700900141009B0A4100B4004100B00A4100A8
:10199700A2004100A40042007B0000410073000246
:1019A7007F0000027D0000017B00017A00017800C2
:1019B70041007A004100CF004100840042009100BD
:1019C700004200A000004100D00041007400420026
:1019D700750000410072004100980041009C0041E1
:1019E70000AD00017C000179004200B20000500008
:1019F700BB00000000000000000000000000000025
:061A07000042007800001F
:1017C700EF24A0FFEE340FFEE43DFDE43CFC1208DD
:1017D700B1D302086EE49000B1F09000AF7440F00E
:1017E7009000A37402F09000717406F0E490007703
:1017F700F09000CB22E47F307E75FDFC1208B1C368
:1018070002086E9000881208A59000A51208B11270
:1018170007129000881208BD9000880208A5E4FC12
:10182700FD1207129000D20208BD9000A91208A568
:10183700EF2470FFEE3417FEE43DFDE43CFC90001E
:101847008822122DF5E47BE87A03F9F890008002EC
:1018570008A5E475F0010206FC9000AFE0FF9000D8
:1018670077E0C39F22D390009AE09400900099E01C
:101877009400221208A590008C1208B102071212D8
:101887000695AC06AD07E41201C3E4FBFA79C87804
:10189700420201217F647E00022DF590008002083C
:1018A700BD9000A50208A5E4FFFEFD7C3F12002DB8
:1018B7000201FCF0E0540F4480F022D39000D8E0FE
:1018C70094009000D7E094002290009BE09000B035
:1018D700F0227F0712280490009DEFF09000D1229C
:1018E700F09000B50208A59000D20208B1D39DEC94
:1018F7006480F874809822E47B02FAF9F80207B84A
:101907009000880208B17E2F122CC47F107E2722F8
:102AB9008E238F248B258A268927AF051DEF602158
:102AC9000524E524AE237002052314F5828E83E4E0
:102AD90093FF7825E475F001120906EF120661806B
:022AE900D922F0
:102C02008F828E83E4F51DF51CF51BF51AAF82AE9B
:102C120083E4FCFDAB1DAA1CA91BA81AC312086EF3
:082C2200500543BD1080E622BD
:092DEC00E0FF7C2F122C2A7F6409
:102DF500E4FDFCC3ED9FEC9E50070DBD00010C806A
:012E0500F2DA
:012E060022A9
:10000300758E5190FE917401F0A37410F075BD5F6D
:0700130090FEA07420F02212
:102DB000E490FE80F0758901758DFA758BCB43A880
:0E2DC00008438840758CCB758AEB438810223F
:102AEB0090FF10E054F04408F090FF02E054F044E3
:102AFB0002F0D28490FFA07420F0A37404F075CC84
:102B0B000675CEFF75CD98759E0275981043A8106B
:012B1B002297
:102E210043B40343B4807F147E00122DF5E4F5B55D
:072E310090FE9B744BF022A0
:102BD80090FF081218BB90FF00E054F0440312184D
:102BE800BAA3E054F044081218BA90FF03E0540F57
:0A2BF8004430F090FF131218BB22C6
:0B2EA3008F99E59830E1FB5398FD2269
:102804008FB543B440E5B430E5FB53B4DF12189BF5
:10281400E4FBFAF943B440E5B430E5FB53B4DFE537
:10282400B62BFBE5B73AFA7F147E00122DF509B9F1
:0F28340010E2E4F5B5A9027F64FE122DF5AF01A5
:012843002272
:101658007B017A0079BB7D107F007E2F122AB9901A
:1016680000BBE0FFE4FCFDFE1218A2121853780834
:101678001208921218A29000801208B19000BCE0E3
:10168800FFE4FCFDFE1207121218A2121853E47BA5
:10169800E87A03F9F812072D1218A29000801217A1
:1016A800FC40107F007E097D3D7C00900080121771
:1016B800D5400A9000801208C900009C409000BDE7
:1016C800E09000D6F0700280079000D6E0B4FE03E8
:1016D80074FFF09000BEE0FF90009EE4F0A3EFF0EE
:1016E800E0F8E4F0E890009EF09000BFE0FF900082
:1016F8009EE48FF01206FC90009EE0FEA3E0FF4EF1
:101708006009D3EF9408EE9407400990009EE4F036
:10171800A37405F09000C0E090009BF09000A4F046
:101728009000C1E0900093F06006E0D394FF40067B
:101738009000937401F09000C2E0F454019000907E
:10174800F09000C3E05401787BF6A3E054019000C8
:1017580085F09000C5E05401900084F09000C6E048
:1017680090007AF07B017A0079787D027F807E2F65
:10177800122AB9900078E09000A2F0900079E090E9
:1017880000CFF07F807E2F122CC47F107E27122D71
:10179800F59000A2E004F0E0FF7D807C2F122C2A57
:1017A80012189B9000CFE07003022BAB9000CFE0A3
:0F17B800FFB4010A7D817C2F122C2A12189B226C
:10093C00E51E6003020E1643B440E5B430E5FB53EC
:10094C00B4DF85B72385B624900086121859121887
:10095C00EEAE23AF241218259000B9E0FEA3E0FF01
:10096C00C39524EE9523500DC3E5249FF524E52370
:10097C009EF523800BC3EF9524F524EE9523F523E8
:10098C0090008C1208B1AE23AF24E4FCFD120712C8
:10099C0090008C1208BD900086E05401FEA3E04E3E
:1009AC0070521218C240179000B0E09464503DE0B1
:1009BC002402F0E0D3946440337464F0802E9000F1
:1009CC007EE07004A3E06401702A90009BE0FF902D
:1009DC0000B0E0FED39F4014EE94024004E024FEED
:1009EC00F09000B0E0C39F50031218D09000B0E01C
:1009FC00FF1222FDC3900086E094205003020E45A6
:100A0C0043BD10E4F0A3F09000B1E0041218E7909D
:100A1C0000D21218809000B51208BD9000B1E0C34E
:100A2C0094084030E41218E7781012087F9000B553
:100A3C001208BD1218E89000B9EE8FF01206FC9067
:100A4C0000B9E0C313F0A3E013F09000B51208C98D
:100A5C0000000000900071E0C394085005E004F021
:100A6C0080409000D7E07002A3E070361218D9E0F5
:100A7C00FE2402FDE433FCEF1218F4501890009D94
:100A8C00E02402FDE433FCEE1218F450089000D17F
:100A9C00E090009DF090009DE09000D1F0E490007B
:100AAC0071F0E4FFFEFDFC90008812180370369084
:100ABC00008C1208A5EF2488FFEE341312183E1296
:100ACC0008BD900099E07002A3E070197F407E424F
:100ADC007D0FFC9000881217D5400A9000881208F0
:100AEC00C9000F4240900077E0701690008C1208FD
:100AFC00A59000A51208BD9000941208C900000032
:100B0C000190009412187A9000A512180340030269
:100B1C000CC49000941208A59000A51218809000A7
:100B2C008C1218034003020CC4900077E004F09080
:100B3C0000CB12187A9000CB1208BD900077E0FF22
:100B4C00FBE4FAF9F89000CB1208A51207B8900054
:100B5C00A51208BD1218A8780312087F90009412F1
:100B6C0008BD9000941217FC500A9000941208C90A
:100B7C00000075307F807E387D017C0090009412DF
:100B8C0017D5400A9000941208C900013880121839
:100B9C00A89000881217D5403E9000A51208B112FB
:100BAC00181F12071F12182B7F807E387D017C00C6
:100BBC009000D21217D540089000AE7406F0801D3C
:100BCC00E47F407E9CFDFC9000D21217D59000AEC5
:100BDC0040087409F080069000AE740CF09000AEE2
:100BEC00121863403E12181F9000A51218035033C0
:100BFC009000AFE094105003020CD39000AEE0D301
:100C0C00940950051218A880111218A89000881287
:100C1C0017C7400C12180A1218FE9000881208BD53
:100C2C00020CC41218605003020CD312181F90004F
:100C3C00A51217C7407A1219071218A812071F120B
:100C4C00182B7F007E127D7A7C009000A512180371
:100C5C00505E7F807E1A7D067C009000D2121803B5
:100C6C00504E9000AFE09410400280387FE07E93AD
:100C7C007D047C009000D21217D540089000AF7410
:100C8C0010F0801B7FF07E497D027C009000D21218
:100C9C0017D59000AF4005740CF080037408F01267
:100CAC001860400C12180A1218FE9000881208BD29
:100CBC001218604012E48004E4900077F09000CBAE
:100CCC001208C9000000009000A3E0D39400403645
:100CDC00E014F01218311217D55003020DD2900007
:100CEC00A91208A5EF2498FFEE343AFEE43DFDE48A
:100CFC003CFC90008C1218034003020DD2121831E8
:100D0C001208BD020DD212186C405774FFF5F01288
:100D1C0006FC12186C404B7F007E127D7A7C009092
:100D2C0000881217D5400C9000801208C9000C35B1
:100D3C0000802F1218531219071218287F407E5466
:100D4C007D897C009000D21217D54016121907C36A
:100D5C0074409BFF74549AFE748999FDE498FC12BC
:100D6C0018A212185390008812188090008C121739
:100D7C00D540539000D6E0FF90009DE0D39F4005F6
:100D8C0012186C40419000D7E07002A3E070091279
:100D9C00181F9000A91208BD9000D7E4F0A304F02E
:100DAC00787AF69000911218599000987401F0908E
:100DBC0000AF7408F0E490007EF0A3F0787FF608A2
:100DCC00F6787DF608F69000D21208C900000000F3
:100DDC0090008C1208C9000000009000D7E0FEA320
:100DEC00E0FFD39400EE9400404F90009EE0FCA3F3
:100DFC00E0FDD3EF9DEE9C4040E49000D7F0A3F0D3
:100E0C00751E01787AF67878F62290007EE4F0A3CD
:100E1C0004F0E4F51E90007BF0A3F0900073F07FDB
:100E2C00FAFE122C029000B51208C9000000001244
:090E3C0017DC1208C900000000D7
:010E4500228A
:10235D00E4F5249000D21208C900000000E4F52332
:10236D0043B440E5B430E5FB53B4DF1218EEAFB61D
:10237D00AEB71218250523E523B480E47F907E01C6
:10238D00122C029000D21208A5780B12087F8F2311
:10239D00E523D3940C400CE523948D5006E524944D
:0D23AD0014500A0524E524D3945040A722C3
:0123BA002200
:102418009000D21208C900000000E4F523E4F52674
:10242800F52743B440E5B430E5FB53B4DF85B72462
:1024380085B6251218EEAE24AF251218250527E516
:102448002770020526B400DAE526B420D543BD106E
:102458000523E523B408C69000D21208A578101207
:0A246800087F9000B9EEF0A3EFF03A
:012472002247
:10257C00BF0105E4FCFD802E7E007C017DFF120670
:10258C00951C7D641206A7AC06AD07E41201C38F3F
:10259C00428E418D408C3FAB42AA41A940A83F12CC
:1025AC0018AEAC06AD0790FF907427F075DA017584
:0E25BC00E30175E2FF8CE58DE475E10F7F0011
:0125CA0022EE
:1029B100BF0104E4FE801E7E007C007DFF121886AC
:1029C1008F428E418D408C3FAB42AA41A940A83F26
:1029D1001218AEAE0790FF9C7401F075DEFF8EDF1A
:0529E10075DD947F008C
:0129E60022CE
:0222FD008F3D13
:1022FF00787CE6B53D037F0022787CA63DE53D70F6
:10230F00069000D0048016E53DB4640CE49000D034
:10231F00F090009C04F0800B9000D07402F0E490D9
:10232F00009CF0E53DFD7C0090007AE0FF7E0012FE
:10233F001886E4FBFAF9783F1218B48F3EC3E53DD7
:0D234F00953EFF12257CAF3E1229B17F00A4
:01235C00225E
:1012B500122E66120003122BD8122DB0122AEB1231
:1012C5002E2175BBAA90FEA774FFF053BBF7D2AFD2
:1012D5007FC87E00122C021218D9F0C2AF12165820
:1012E5007F641222FDD2AF12235D90009BE0FF9038
:1012F50000B0F01222FD7F2C7E01122C0212241860
:101305009000D21208C9000000009000A2E0D3941A
:10131500034005E4F0122BAB7879E660237F641275
:1013250014BDE4FF1214BD9000B2121859C3900009
:10133500B3E0942C9000B2E094014004E47879F68F
:10134500900074E0FF9000D0E0FD6F600D7F761295
:1013550028849000D0E0900074F09000ADE0FF90FC
:10136500009CE0FD6F600D7F7712288490009CE063
:101375009000ADF0900072E064017041900098E03B
:10138500B4013AE4900072F0900098F0900091E07A
:10139500FEA3E0FF9000A0E06E7003A3E06F601D68
:1013A500E48F458E44F543F5427F741221989000F1
:1013B50091E0FFA3E09000A0CFF0A3EFF043BD10B4
:1013C500E51E700B900087E0541F70031214C8903F
:1013D5000090E064016003021488E51F701CF51E8F
:1013E500751F011218D09000B51208C90000000041
:1013F5001217DC1208C90000000012093CD3900046
:101405007FE0940090007EE094004033900073E00C
:10141500B4012CE4F090007E12185A900093E0FF7E
:10142500C390007FE09F90007EE094004011E4F0BF
:10143500A3F0900084E064016005E4FF1222FD1230
:1014450018C2400F787EE6640118467006F608F665
:1014550012185A787BE66401600302130F18E6FF41
:10146500787866700302130FA6079000D7E4F0A3FF
:1014750004F0E4F522E522C39408400302130F05A6
:101485002280F2E4F51F900085E07007FF1222FD2F
:1014950002130F9000A4E0FF1222FDE4F51E1218BE
:1014A500D09000B51208C9000000001217DC120820
:0814B500C90000000002130F42
:0B14BD001222FD7F647E00122C022230
:03001B00021E4D75
:101E4D00C0E0C0F0C083C082C0D075D000C000C05B
:101E5D0001C002C003C004C005C006C007AF1DAE5F
:101E6D001CAD1BAC1AEF2401FFE43EFEE43DFDE486
:101E7D003C8F1D8E1C8D1BF51A90007B12185990EE
:101E8D00007BE0FEA3E0FFE4FCFD7B607AEAF9F85D
:101E9D00D3120858500C90007BE4F0A3F09000731F
:101EAD0004F0788006E618700106C37880E694E8A1
:101EBD0018E69403400C7600087600787D760008CD
:101ECD007601900075121859C3900076E094E89051
:101EDD000075E094034009E4F0A3F090007204F063
:101EED00D007D006D005D004D003D002D001D00049
:0B1EFD00D0D0D082D083D0F0D0E032F3
:030023000226F3BF
:1026F300C0E0C0F0C083C082C0D075D000C000C0AD
:0D27030001C002C003C004C005C006C0072D
:0F271000E59830E00AAF991224CE5398FED2AF6D
:10271F00D007D006D005D004D003D002D001D0000E
:0B272F00D0D0D082D083D0F0D0E032B8
:102CC40053BBF7C280E5BB20E3F6D280C2AF75FDEB
:102CD400F075FC0F8EFA8FF975FDD275FC2D75FD1C
:052CE400E175FC1E2259
:102C2A0053BBF7C280E5BB20E3F6D280C2AF8FFB6D
:102C3A0075FDF075FC0F8CFA8DF975FDB475FC4BBA
:072C4A0075FDE175FC1E227F
:10206A007F0012190D1218491207B8780812087F52
:10207A007D007C2F122C2A7F647E001218491207D9
:10208A00B87D017C2F122C2A12189B9000D67D0253
:10209A00122DEC90009E7D03122DECA3E0FF7D042F
:1020AA00122DEE90009BE0FF7D05122DEE9000931D
:1020BA00E0FF7D06122DEE900090E0F4FF7D0712FE
:1020CA002DEE787BE6FF7D08122DEE900085E0FF6D
:1020DA007D09122DEE900084E0FF7D0A122DEE900C
:1020EA00007AE0FF7D0B122DEE7F8012190D122D62
:1020FA00F57D807C2FE4FF122C2A0D0F122C2AD298
:01210A00AF25
:01210B0022B1
:102C7800637263206572726F7220286372633A30E0
:102C8800782558202062757420646174613A307820
:062C98002558290D0A0079
:041A0D00027600005D
:101FC000120634FFE5464FFFE545FEE544FDE543D7
:101FD0008F468E458D44F543FC78081208928F4653
:101FE0008E458D4422AF45AE44AD43AC4212087FCE
:101FF000AD0722AD07E4FBFA900001E02274022550
:1020000024F974003523FA7B01E52624FFFDE5253C
:1020100034FFFC22E475F001020906AA06AB077D35
:10202000037F0722AF75AE74AD73AC7202087FFEFA
:10203000E554FDE553FCE47BFF22E4F540F53FF574
:102040003EF53D22120634AB49AA4AA94B22AB60A9
:10205000AA61A96202061BAB63AA64A96502061BFA
:0A206000755A01755B00755C2222C1
:10221F00EFC39430400CEFD39439500674D02FFF96
:10222F008022EFC39441400CEFD394465006EF2425
:10223F00C9FF8010EFC39461400AEFD39466500436
:10224F00EF24A9FFEF540FC454F0FFEDC3943040B7
:10225F000CEDD39439500674D02DFD801EEDC39430
:10226F00414008EDD394465002800CEDC394614079
:10227F000AEDD394665004ED24A9FDED540F4207E7
:01228F00222C
:06277E008B3A8A3B893C06
:1027840012203AE94A4B7005FFFEFDFC2212203A62
:10279400783A12201412061B601AE5402401FFE463
:1027A400353FFEE4353EFDE4353D8F408E3F8D3EA2
:0C27B400F53D80DCAF40AE3FAD3EAC3DDB
:0127C00022F6
:062A52008B088A09890AC5
:102A58008B0E8A0F8910E94A4B7004FBFAF922E5BC
:102A68000D150DAE0C7002150C4E600B780E122071
:0D2A780014ED12066180E8AB08AA09A90A56
:012A8500222E
:061C01008B418A42894379
:101C07008B498A4A894B85444C85454D85464EE923
:101C17004A4B6008E5464545454470077B007A0016
:101C2700790022D3854D83854E82E54B9582E54A1F
:101C370095834019E54E2548F9E54D3547FA8A83DE
:101C47008982D3E54B9582E54A95834032E4F54F87
:101C5700F550C3E5509548E54F9547505BAB4CAA07
:101C67004DA94E855082854F831220448550828529
:101C77004F831206730550E55070D7054F80D38503
:101C8700474F854850D3E5509400E54F94004028CE
:101C9700AB4CAA4DA94EE55024FFFFE54F34FFFE9C
:101CA7008F82F5831220448F828E83120673E5504C
:0E1CB700155070D1154F80CDAB41AA42A94304
:011CC50022FC
:062900008B118A128913FD
:102906008B178A188919AB14AA15A91612061B600B
:1029160014781412201412061BFF7811122014EFDB
:1029260012066180E1AB11AA12A913E4120661AB8B
:0529360017AA18A91901
:01293B002279
:10273A008B608A61896212204EFF602012205760E6
:10274A001BB5071874012562F562E43561F56174F9
:10275A00012565F565E43564F56480DA122057FFD2
:10276A003395E0FE12204EFD3395E0FCC3ED9FFF4A
:04277A00EC9EFE22B1
:102A86008F758E748D738C72781812087FEF12060C
:102A9600617810122024900001EF12067378081254
:102AA6002024900002EF120673E575FF900003EFF5
:032AB600020673A2
:1025CB00E4F546F545F544F54312061BFFE48F464B
:1025DB00F545F544F543AE45AD44AC43121FD98CDC
:1025EB0043900001121FC08C43900002121FC08C3D
:1025FB0043900003120634FFE5464FFFE545FEE529
:0A260B0044FDE543121FDEF543FC19
:0126150022A2
:0626AA008B678A68896954
:1026B000121FF3B401037F0122AF03AE02122E9664
:1026C000AA06AB07E41226EAE56A1226EAAD6B1207
:1026D0002E96AB67AA68A969856A3F856B40122B65
:0926E0007C12201B1225277F014A
:0A26E90022FD122E96AA06AB07226E
:042616008D3DAC0743
:10261A00121FF5B401037F0122AF03AE02AD04120B
:10262A00264FE4FD12264FE53D7003FD8006AF03F9
:10263A00AE027D01122E96AA06AB077D037F071212
:04264A0025277F01C0
:10264E0022122E96AA06AB077D01122E96AA06AB73
:02265E00072251
:10219800121FF3B401037F0122AF03AE02122E9681
:1021A8007D0212220BE4FD122E967D0412220BC032
:1021B80006C0077818121FE5D007D006122217C0EC
:1021C80006C0077810121FE5D007D006122217C0E4
:1021D80006C007AF45AE44AD43AC42780812087F4D
:1021E800AD07D007D006122E96AA06AB07C007E5A2
:1021F80045FFE4AD07D007122E9612201B122527A3
:022208007F0154
:10220A0022AA06AB07122E96AA06AB0722122E9610
:05221A00AA06AB07223B
:062660008B6D8A6E896F8C
:10266600121FF3B401037F0122AF03AE021226A2AA
:102676007D031226A2E570FD122E96AA06AB07ADC3
:1026860071122E96AB6DAA6EA96F85703F8571404B
:0B269600122B7C12201B1225277F0155
:0926A10022122E96AA06AB0722B4
:042884008D3DAC07D3
:10288800121FF5B401037F0122AF03AE02AD04129B
:102898002E967D041228B7E4FD122E967D0112288B
:0E28A800B7AD3D122E9612201B1225277F0180
:0D28B60022AA06AB07122E96AA06AB072237
:021D8A00AD07A3
:101D8C00E4F557F558900001E0B401037F012212ED
:101D9C001E2D7D05121E45E4FD121E4574FFFFE548
:101DAC005512202FFAF9F8C312086E70097D011232
:101DBC001E2DAD56803D74FFFF12202F7AFFF9F8CF
:101DCC00C312086E70047D0280197D04121E3978CE
:101DDC0018121E14AF56AE55AD54AC5378101208F1
:101DEC007FAD07121E397808121E14E556FFE4ADBC
:101DFC0007AF58122E968E578F58AB58AA577D03A3
:071E0C007F071225277F016B
:101E130022AF56AE55AD54AC5312087FAD07AF5841
:101E2300AE57122E968E578F5822AF58AE57122E9A
:101E3300968E578F5822AF58AE57122E968E578FC5
:0A1E43005822122E968E578F582257
:082EC2008C3D8D3E12061BFF42
:012ECA0022E5
:082ECB008C3D8D3E12061BFF39
:012ED30022DC
:072ED4008C418D421225CB59
:012EDB0022D4
:1024CE008F51C3E55F955CFFE55E955BFEEF6401A2
:1024DE004E6045D3855E83855F82E55C9582E55BC4
:1024EE0095834015E55C955FFFE55B955EFEC3EF5A
:1024FE009417EE64809480501FC3900039E55C956C
:10250E0082E55B958340077A007922122060785A23
:09251E00122014E551120661229D
:1014C800E4F523F524F525F526C3E577941FE5769D
:1014D80094005024122DCEEFD39400401B122844C0
:1014E8000577E577AC7670020576142402F58274E8
:1014F800003CF583EFF080D1C3E5779407E5769457
:10150800005003021657C3E5779524FDE576952329
:10151800FCC3ED9407EC94005003021620740225D6
:1015280024F58274003523F583E06455600A0524A8
:10153800E52470D2052380CE74032524F582740037
:101548003523F583E064AA600A0524E52470B7050D
:101558002380B374042524F58274003523F583E0D1
:1015680060047402803C74062524F58274003523D7
:10157800F583E0752600F52574072524F5827400A7
:101588003523F583E02407FFE433FEEF2526F5260F
:10159800EE3525F525D3E5269426E5259400400A61
:1015A80074032524F524E4021619C3ED9526EC9559
:1015B800254065121FFD122C9EE5242526FDE523F6
:1015C8003525FC74012DF58274003CF583E06F60CD
:1015D80031121FFD122C9E8F2A7BFF7A2C7978E519
:1015E800242526FFE5233525FE74012FF582740096
:1015F8003EF583E0F52B120EA874032524F524E4A8
:10160800800FAF24AE23121A41E5262524F524E5E0
:10161800253523F52302150EC3E5779524F577E5DF
:10162800769523F576D3E5779400E5769400401F08
:1016380074022524F974003523754401F54589465B
:0F1648008576478577487B017A007902121C016D
:011657002270
:102E6600122060755D01755E00755F2290007074BA
:032E7600FFF02248
:062EDC00900021E0FF223E
:0E2E8800E4900021F0FBFA7D037F0402252771
:062EE200900000E0FF2259
:022E3800AD07E4
:102E3A00E4FF900000F0FE122E96EFFB7A007D036D
:052E4A007F05022527B1
:062EE800900070E0FF22E3
:0A2EAE00E4FBFA7D037F2B022527C9
:101A11004100DE004400DA000000005E00DF140136
:101A210016026504660267016802690271017201AA
:0C1A3100730174027501760477049602BC
:1029E700AB37AA38A939AD3BAC3A2290007AE0FF61
:1029F700E48F45F544F543F54222900091E0FEA3AC
:102A0700E0FFE48F458E44F543F54222E0FFE4FC06
:062A1700FDFEC302086E83
:102BAB007F55122EA37FAA122EA37F03122EA37F73
:102BBB0005122EA3E4FF122EA37F01122EA3E4FF16
:0D2BCB00122EA37F08122EA3787976012226
:03001E00022EA30C
:101CC600900000E0FD7F14122616900085E0FD7F4F
:101CD6007112261690009B1229F57F1612219890F4
:101CE60000D6E0FFB4FF05E4F52F801EEFB4C8056B
:101CF600752F028015EFB42805752F03800CEFB4FD
:101D06001405752F048003752F05AD2F7F651228E6
:101D16008490009E122A047F66122198900090E01B
:101D2600FD7F671226169000931229F57F6812210F
:101D360098E47B107A27F9F89000801208A512071C
:101D4600B8C374329F1229F67F69122198787BE610
:101D5600FD7F72122616900084E0FD7F7312261610
:101D6600122A017F741221989000D0E0FD7F76122E
:101D7600288490009CE0FD7F771228841229F27F48
:041D86009602219808
:102E4F00122EC2900000EFF0FD7F14122616BF0164
:062E5F00037F01227F0049
:012E6500224A
:10297700122ED48F408E3F8D3E8C3D90009BAB40F6
:10298700AA3FA93EA83D122A137002FF22AF40902A
:10299700009BEFF0FE9000A4F01229F77F1612219A
:0929A70098BF01037F01227F00AB
:0129B0002204
:102B1C00122ED490007AE0B507037F002290007A41
:102B2C00EFF0E4FF1222FD9000A4E0FF1222FD1250
:0F2B3C0029F27F96122198BF01037F01227F00AB
:012B4B002267
:1023BB00122ECB9000DEE0B507037F0022EF1460F6
:1023CB001014601514601A14601F14602424057017
:1023DB00289000D674FFF080209000D674C8F0804F
:1023EB00189000D67428F080109000D67414F080EA
:1023FB000890009DE09000D6F09000DEEFF0FD7F9E
:0C240B0065122884BF01037F01227F00BE
:0124170022A2
:1027C100122ED48F408E3F8D3E8C3D90009EE0FEB8
:1027D100A3E0FFE4FCFDAB40AA3FA93EA83DC31224
:1027E100086E7002FF22AE3FAF4090009EEEF0A354
:1027F100EFF0122A097F66122198BF01037F01229F
:022801007F0056
:0128030022B2
:102D2E00122EC2900090E0B507037F002290009013
:102D3E00EFF0FD7F67122616BF01037F01227F0091
:012D4E002262
:102A1D00122ED48F408E3F8D3E8C3D900093AB4057
:102A2D00AA3FA93EA83D122A137002FF22AF409083
:102A3D000093EFF01229F77F68122198BF01037FF1
:042A4D0001227F00E3
:012A51002262
:10229000122ED48F408E3F8D3E8C3D9000DA120876
:1022A000A5AB40AA3FA93EA83DC312086E7002FF2D
:1022B00022AF40AE3FAD3EAC3D9000DA1208BDC348
:1022C00074329540FFE4953FFEE4953EFDE4953D74
:1022D000FCE47B107A27F9F812072D900080120891
:1022E000BD9000DA1208A58F458E448D438C427F45
:0C22F00069122198BF01037F01227F00CA
:0122FC0022BF
:102B4C00122EC2EF7006900085F08011900090E07C
:102B5C00B40104787A76019000857401F0900085B8
:0F2B6C00E0FD7F71122616BF01037F01227F005B
:012B7B002237
:102D9100122EC2787BE6B507037F0022787BEFF61F
:0E2DA100FD7F72122616BF01037F01227F0004
:012DAF002201
:102D4F00122EC2900084E0B507037F00229000840A
:102D5F00EFF0FD7F73122616BF01037F01227F0064
:012D6F002241
:102E0700122EC2EF7002FF22E4900091F0A3F0129D
:092E17002A017F741221987F0149
:012E2000228F
:061F08008B378A3889398D
:101F0E00EF1209161F3A141F5C161F6E651F7666B8
:101F1E001F7E671F86681F8E691F96711F9E721F18
:101F2E00A6731FAE751F659600001FB81229E71223
:101F3E002E4F8F3CE53C640170759000B4E004F0C8
:101F4E00E0C394054069E4F0122BAB021FBD1229C9
:101F5E00E7122977021FB41229E7122B1C021FB4B5
:101F6E001229E71223BB803E1229E71227C18036C1
:101F7E001229E7122D2E802E1229E7122A1D8026F5
:101F8E001229E7122290801E1229E7122B4C80167E
:101F9E001229E7122D91800E1229E7122D4F80067D
:101FAE001229E7122E078F3C8000E49000B4F0AFA8
:011FBE003CE6
:011FBF0022FF
:032EEE007F0F2231
:0F2E7900EF24FC6002800712206AE47879F622C9
:10293C007B2270223A220071676B6A35796D63676E
:10294C007261706A676A3000222C2276223A220069
:10295C00312E302E3000222C226D223A0030007D98
:0B296C00000000000000000000000060
:031A3D000159004C
:102CE90074082528F58274003527F583E022743F9E
:102CF9002FF974003EFA7B0122E475F001120906EE
:032D090002061BA4
:0C2E9600122CF7ED1206610FBF00010EB8
:012EA200220D
:0A2B7C008E3A8F3B8B3C8A3D893E68
:102B8600122CF7853C44853D45853E46853F478565
:102B96004048121C01E540253BF53BE53F353AF53B
:042BA6003AFEAF3B09
:012BAA002208
:0A2C9E008B488A49894A8C4B8D4C03
:102CA800E4FFFDFCC3ED954CEC954B500E784812B3
:0B2CB8002D022FFF0DBD00010C80E974
:012CC30022EE
:1028C3008B488A49894A8C4B8D4CE94A4B602DE5EC
:1028D3004C454B6027E54C154CAE4B7002154B4EE7
:1028E300601AAB48AA49A94A12061BFF12001E74BC
:0D28F30001254AF54AE43549F54980D9220E
:042527008A468B470E
:10252B009000397455F0A374AAF0A3EDF0A3EFF06B
:10253B00E546A3F0E547A3F02407F547E43546F558
:10254B00467B017A007939E54724FFFDE54634FFE8
:10255B00FC122C9EAE0774382547F5827400354665
:10256B00F583EFF07B017A007939AD47AC46022851
:01257B00C39C
:102D0C00E4FFE559700AFEFD122E967559018007F5
:102D1C007E007D01122E96EFFB7A007D03E4FF020C
:022D2C00252759
:101B3600E4F52F78307C00FD7BFF7A29796DFE7FF6
:101B46000A1205F57A29793C121BD17A29793C12B9
:101B56002B7C8F2F7A297943121BD17A297943124C
:101B66002B7C8F2F7A297954121BE17A297954120A
:101B76002B7C8F2F7A29795C121BE17A29795C12EA
:101B86002B7C8F2F7A297962121BF17A29796212BE
:101B96002B7C8F2F7A297969121BF17A29796912A0
:101BA6002B7C8F2F7BFF7A29796B12277E8E3F8FB6
:101BB60040AF2F7E007BFF7A29796B122B7C8F2F0B
:0B1BC600EFFB7A007D037F0102252762
:101BD1007BFF12277E8E3F8F40AF2F7E007BFF223F
:101BE1007BFF12277E8E3F8F40AF2F7E007BFF222F
:101BF1007BFF12277E8E3F8F40AF2F7E007BFF221F
:0A2EB800E4FBFA7D037F02022527E8
:022D70008F369C
:102D7200122EEEE4FEEEC39F501275F002EE9000AA
:0E2D8200DF1208FAE0653660030E80E9AF0646
:012D90002220
:062473008B2F8A30893135
:1024790012061BF532900001120634F53390000262
:10248900120634753500F5349000031206342535EB
:10249900F535E43534F534AF32122D7075F002EFAD
:1024A9009000E01208FAE0653360037F0022AB2F49
:1024B900E5312404F9E43530FA85343A85353BAF02
:0424C90032121F08A4
:0124CD0022EC
:041A41008E278F2835
:101A450074052FF58274003EF583E0FF1209161A1E
:101A550073001A76011A79021A7C031A8D041A92F8
:101A6500051A99061B2B081B2E2B00001B35022D72
:101A75000C021B36022EB8122CE9900070F0E4FB24
:101A8500FA7D037F03022527900021800390000043
:101A95007401F02274062528F58274003527F58334
:101AA500E0FE74072528F58274003527F583E0FDEF
:101AB500EEF52DEDF52EE4F52BF52CC3E52C952E45
:101AC500E52B952D506AE528252CFDE527352BFCC2
:101AD500740A2DF58274003CF583E0752A00F5291A
:101AE500740B2DF58274003CF583E0252AF52AE474
:101AF5003529F52974082528F974003527FA7B015D
:101B0500E9252CF9EA352BFA122473BF01031220BB
:101B15006AE52A2404FFE43529FEEF252CF52CEE91
:101B2500352BF52B8095021CC6122CE9FF122E7958
:011B3500228D
:102DCE00E55D855E83855F82655A700AE55C658286
:0E2DDE007004E55B658360037F01227F0022A5
:10284400AB5DAA5EA95FE55A855B83855C82655DA5
:10285400700AE55F65827004E55E65836021C3905C
:102864000039E55F9582E55E9583400D7A00792213
:0F287400755D01755E00755F22785D122D02FFA4
:012883002232
:10002600020268E86480F8E933E83360110460F09E
:10003600ED33EC337009E8FCE9FDEAFEEBFF220440
:1000460060DED3EB9FEA9EE99DE8C2E78CF0C2F73B
:1000560095F0400CE8CCF8E9CDF9EACEFAEBCFFB07
:1000660012023385D0F05804700320D5B3E804702B
:10007600075002B2D502027292D5EC0460F7E4CCC6
:10008600C0E0C398F8603B94186008400DD0E0FBD0
:1000960002024AE4FBFAC9FC8028E830E406E4C917
:1000A600FBE4CAFCE830E305E4C9CACBFCE8540724
:1000B6006010F8C3E913F9EA13FAEB13FBEC13FC2F
:1000C600D8F130F52FC3E49CFCEF9BFFEE9AFEEDD2
:1000D60099FDD0E0FBEF4E4D4C701222DB0302027D
:1000E6006FEC2CFCEF33FFEE33FEED33FDED30E726
:1000F600EB02024AEF2BFFEE3AFEED39FDD0E0FBB4
:1001060050130BBB0003020272ED13FDEE13FEEF5C
:0801160013FFEC13FC02024A86
:10011E00020272EC5D046005E85904700302026885
:10012E00120233580460F6EC4860F2EC7004FDFEE7
:10013E00FF22C860DB2481C85009C39860025006B4
:10014E0002026F9850CAF582E9294B4A7005AB82BC
:10015E0002025E75F0007C1A7880C3EF9BEE9AED7A
:10016E0099400DC3EF9BFFEE9AFEED99FDE842F02C
:10017E00DC23ACF0D0E0FFD0E0FED0E0FDAB82207F
:10018E00E7101BEB60BAEC2CFCEF33FFEE33FEED09
:10019E0033FD02024AE803F830E705C0F075F000BF
:1001AE00EF2FFFEE33FEED33FD40B830E7C280AAED
:1001BE0075F020800E75F010800575F0087D007EBC
:1001CE00007F003392D530D50312084AEC3340102D
:1001DE00EF33FFEE33FEED33FDEC33FCD5F0ED22C5
:0E01EE00E5F0247EA2D513CC92E7CDCEFF2201
:1001FC00EDD2E7CD33EC3392D524814006E4FFFEFB
:10020C00FDFC22FCE4CFCECDCC24E0501174FF8059
:10021C00EDC3CC13CCCD13CDCE13CECF13CF0470F6
:07022C00F030D5DE02084AA4
:100E4600E53E242AF8E6053E227827300702782A6E
:100E5600E475F00112090602061B2000EB7F2ED274
:100E6600008018EF540F2490D43440D4FF30040B84
:100E7600EF24BFB41A0050032461FFE53F6002155A
:100E86003F0542E5427002054130070D7827E475BB
:100E9600F001120906EF020661022C517403D20713
:100EA6008003E4C207F53E8B278A288929E4F53FAB
:100EB600F541F542E53F60077F20120E8180F5750A
:100EC60040FFC201C200C202C203C205C206C20876
:100ED600120E4FFF700D3007057F00120E92AF42C3
:100EE600AE4122B4255FC2D5C204120E4FFF24D0F4
:100EF600B40A00501A75F00A783F30D50508B6FFD7
:100F06000106C6A426F620D5047002D20380D92491
:100F1600CFB41A00EF5004C2E5D20402117FD20109
:100F260080C6D20080C0D20280BCD2D580BAD2059B
:100F360080B47F20120E812002077401B53F004065
:100F4600F1120E46FF120E81020EBAD208D20680A8
:100F560095120E46FB120E46FA120E46F94A4B70D1
:100F66000679767A127BFF20022EE53F602A7E0004
:100F76008E8275830012063460060EEE654070F0B0
:100F8600C2D5EBC0E0EAC0E0E9C0E0EE1211DFD066
:100F9600E0F9D0E0FAD0E0FB12061BFF60AAEBC036
:100FA600E0EAC0E0E9C0E0120E81D0E02401F9D009
:100FB600E03400FAD0E0FBE5400460DCD540D9809F
:100FC60087D20280A21211C260F7E54070010412B6
:100FD600027DA940600DE540600914F540121269D2
:100FE600EF60F3EA30E702F404C3995077EAF42598
:100FF600400430E701E404F540800D1211C260C1DF
:10100600EA0540254012027DEA783DF630E701E424
:10101600254004D54004200501141211DFE4C0E088
:10102600121269783DE6601320E70714F6120E697E
:10103600802204F6D0E014C0E07F00120E69E5407D
:101046006007120E601540800B300503120E60D04B
:10105600E0020EBAD0E00480C51211C260A0E540DD
:101066000412027D783DEAF6E5402005026001049F
:0510760024041211DF4B
:10107B0074FF04C0E0121269120E69E540200502EC
:10108B006003120E60D0E0B540E87F45120E737816
:10109B003DE67F2B30E7047F2DF404C0E0120E8178
:1010AB00D0E075F00A84C0F0120E6AD0E0120E6A1E
:1010BB00020EBA791080027908C206C2088008D2E3
:1010CB00D5790A8004790AC2D5E540047002F5404F
:1010DB00E4FAFDFEFF120E46FC7B08200113120EF4
:1010EB0046FD7B1030000A120E46FE120E46FF7BA9
:1010FB0020EC3382D592D55013C3E43000069FFF0A
:10110B00E49EFEE42001039DFDE49CFCE4CBF8C2CD
:10111B0001EC700CCFCECDCCE824F8F870F380172F
:10112B00C3EF33FFEE33FEED33FDEC33FCEB33FB60
:10113B00994002FB0FD8E9EB300105F8D0E0C44829
:10114B00B201C0E00AEC4D4E4F78207B0070C2EA32
:10115B00B5400040BCC0E01211E1D0F0D0E020015E
:10116B0004C4C0E0C4B201C0F0120E6AD0F0D5F0D6
:10117B00EB020EBA1209160F575310BE580F284C1C
:10118B000F244210C24F10CA4410CA490F3D4310DE
:10119B00D055100146105F450FCB471296500F2CC0
:1011AB002D0F302E0F532B0F34230F5120127F2A6C
:1011BB000EEC4800000F4BE540B4FF0375400612E0
:1011CB000E46FC120E46FD120E46FE120E46FF7820
:1011DB00360202AC790AA2D5200314300509B910E6
:1011EB00020404B9080104A2D52006025001042010
:1011FB0002689202B53F005034C0E07F20300319E3
:10120B007F30A20272067205500F121238C202C250
:10121B0006C205C2087F30800F300503E9C0E0121B
:10122B000E81300503D0E0F9D0E0B53FCC30051787
:10123B007F30B9100C120E817F583004077F7880F5
:10124B0003B90803120E813002057F2D020E817F38
:10125B00202008F87F2B2006F322920280CF7F00FC
:10126B00B4070050052436F8E6FF22286E756C6C27
:10127B002900D201120E463001F8C201783F30D559
:10128B000108F6020EEC2D50434958120E4624036A
:10129B00B405004001E490129193120E72743A124D
:0A12AB000E72D203753F040210BE5C
:10023300E9D2E7C933E833F892D5EDD2E7CD33EC11
:0702430033FC5002B2D5228A
:10024A00EC30E7100FBF000C0EBE00080DBD000415
:10025A000BEB6014A2D5EB13FCED92E7FD2274FFC1
:10026A00FCFDFEFF22E480F8A2D574FF13FC7D801A
:03027A00E480EF2E
:10027D00F920E72824F950037907E4F42402FB1848
:10028D00DBFDE624FB5014E9600DE4F618E604F6F8
:0F029D00B40A08E4F6D9F57401F60A22C2D52294
:1002AC00ED33EC3392D5FA602AB4FF33EDC2E77B21
:1002BC00FF60067A0279D1E4227A0279DA20D50439
:1002CC007A0279D5224E614E002B494E46002D49BB
:1002DC004E4600E47A08F608DAFC7B00740722E844
:1002EC00C0E0ECC0E0EDC0E0EEC0E0EFC0E0EA75CD
:1002FC00F010A4CAABF075F04DA42BFBE435F0FC68
:10030C00EA2410FAEB34C5FBEC34D9FCEDC2E7FF60
:10031C0075F056A4F42411C5F0F434C58FF0A42A5A
:10032C00E5F03BE43CF620E7141204E5D0E0FFD006
:10033C00E0FED0E0FDD0E0FC1201218014F40412A8
:10034C0004E5D0E0FFD0E0FED0E0FDD0E0FC1203ED
:10035C00AFD0E0F8E6FAEDD2E7CD33EC332482FBF4
:10036C00E4C3CF33CFCE33CECD33CD33DBF37B07EA
:10037C0075F00A846004F6081B0AE5F0F6088FF0A5
:10038C00740AA4FFACF08EF0740AA42CFEACF050EE
:10039C00010C8DF0740AA42CFDE435F0F608DBDEBC
:0303AC00740722B1
:1003AF00EC4D6011E8497017ED33EC3304600DE448
:1003BF00FCFFFEFD22E933E8330470F802026812F5
:1003CF00023358046009E4CC2481500628500902F6
:1003DF00027228400302026FC0E0EB4A7044B980FA
:1003EF0006D0E0FB02025EEF4E701CBD8008EBFFF3
:1003FF00EAFEE9FD80EBE98DF0A4FEE5F00204983A
:10040F00E9CDF9EAFEEBFFEF89F0A4FCE5F0CE8928
:10041F00F0A42EFFE435F0CD89F0A42DFEE435F0E5
:10042F008067EF4E7005BD80D780C3EF8BF0A4AC13
:10043F00F0EE8BF0A42CFCE435F0F8EF8AF0A42C4E
:10044F00E5F038FCE433CB8DF0A42CFCE5F03BF861
:10045F00EE8AF0A42CFCE5F038F8E433CF89F0A451
:10046F002CFCE5F038CF3400CE89F0A42FFFE5F057
:10047F003EFEE433C98DF0A42EFEE5F039CD8AF0AF
:10048F00A42FFFE5F03EFEE43DFD33D0E0FB500727
:10049F000BBB000F020272EC2CFCEF33FFEE33FEAE
:0604AF00ED33FD02024ADC
:1004B5003F8000004120000042C80000447A00004F
:1004C500461C400047C35000497424004B189680D1
:1004D5004CBEBC205A0E1BCA6753C21C749DC5AEC8
:1004E500FB60065407601C2323120513EB54386088
:1004F500091204FF12050E1203AFECF8EDF9EEFA3E
:10050500EFCB22EB12050E80F1543803241C900426
:10051500B5FE93FC0EEE93FD0EEE930ECE93FF22E9
:102118000212B5E493A3F8E493A34003F68001F216
:1021280008DFF48029E493A3F85407240CC8C333C8
:10213800C4540F4420C8834004F456800146F6DF97
:10214800E4800B0102040810204080901917E47EF7
:10215800019360BCA3FF543F30E509541FFEE4938C
:10216800A360010ECF54C025E060A840B8E493A353
:10217800FAE493A3F8E493A3C8C582C8CAC583CA7E
:10218800F0A3C8C582C8CAC583CADFE9DEE780BE36
:011A400000A5
:10052500E709F608DFFA8046E709F208DFFA803EB8
:1005350088828C83E709F0A3DFFA8032E309F608A5
:10054500DFFA8078E309F208DFFA807088828C830D
:10055500E309F0A3DFFA806489828A83E0A3F608C1
:10056500DFFA805889828A83E0A3F208DFFA804C9B
:1005750080D280FA80C680D4806980F28033801072
:1005850080A680EA809A80A880DA80E280CA8033DB
:1005950089828A83ECFAE493A3C8C582C8CCC58353
:1005A500CCF0A3C8C582C8CCC583CCDFE9DEE78023
:1005B5000D89828A83E493A3F608DFF9ECFAA9F0A2
:1005C500EDFB2289828A83ECFAE0A3C8C582C8CCF8
:1005D500C583CCF0A3C8C582C8CCC583CCDFEADE11
:1005E500E880DB89828A83E493A3F208DFF980CC73
:1005F50088F0EF60010E4E60C388F0ED2402B4046C
:100605000050B9F582EB2402B4040050AF23234512
:06061500822390057573BD
:10061B00BB010689828A83E0225002E722BBFE02DD
:09062B00E32289828A83E4932210
:10063400BB010CE58229F582E5833AF583E022507B
:1006440006E92582F8E622BBFE06E92582F8E222C5
:0D065400E58229F582E5833AF583E49322DF
:10066100BB010689828A83F0225002F722BBFE0178
:02067100F32272
:10067300F8BB010DE58229F582E5833AF583E8F0BD
:10068300225006E92582C8F622BBFE05E92582C869
:02069300F22251
:10069500EF8DF0A4A8F0CF8CF0A428CE8DF0A42E79
:0206A500FE2233
:1006A700BC000BBE0029EF8DF084FFADF022E4CC37
:1006B700F875F008EF2FFFEE33FEEC33FCEE9DEC00
:1006C700984005FCEE9DFE0FD5F0E9E4CEFD22ED46
:1006D700F8F5F0EE8420D21CFEADF075F008EF2F90
:1006E700FFED33FD4007985006D5F0F222C398FD81
:0506F7000FD5F0EA221E
:1006FC00C5F0F8A3E028F0C5F0F8E5821582700289
:06070C001583E038F02225
:0D071200EF2BFFEE3AFEED39FDEC38FC2236
:0E071F00C3EF9BFFEE9AFEED99FDEC98FC22D5
:10072D00E88FF0A4CC8BF0A42CFCE98EF0A42CFC6B
:10073D008AF0EDA42CFCEA8EF0A4CDA8F08BF0A4E9
:10074D002DCC3825F0FDE98FF0A42CCD35F0FCEB48
:10075D008EF0A4FEA9F0EB8FF0A4CFC5F02ECD390D
:0F076D00FEE43CFCEAA42DCE35F0FDE43CFC227A
:10077C0075F008758200EF2FFFEE33FECD33CDCC34
:10078C0033CCC58233C5829BED9AEC99E5829840B7
:10079C000CF582EE9BFEED9AFDEC99FC0FD5F0D694
:1007AC00E4CEFBE4CDFAE4CCF9A88222B800C1B9BE
:1007BC000059BA002DEC8BF084CFCECDFCE5F0CBFC
:1007CC00F97818EF2FFFEE33FEED33FDEC33FCEB35
:1007DC0033FB10D703994004EB99FB0FD8E5E4F9F0
:1007EC00FA227818EF2FFFEE33FEED33FDEC33FCDD
:1007FC00C933C910D7059BE99A4007EC9BFCE99AD1
:10080C00F90FD8E0E4C9FAE4CCFB2275F010EF2F15
:10081C00FFEE33FEED33FDCC33CCC833C810D70715
:10082C009BEC9AE899400AED9BFDEC9AFCE899F850
:0E083C000FD5F0DAE4CDFBE4CCFAE4C8F922E3
:0E084A00C3E49FFFE49EFEE49DFDE49CFC22BF
:10085800EB9FF5F0EA9E42F0E99D42F0EC6480C817
:0608680064809845F022B7
:10086E00EB9FF5F0EA9E42F0E99D42F0E89C45F0E0
:01087E002257
:10087F00E8600FECC313FCED13FDEE13FEEF13FF57
:03088F00D8F1227B
:10089200E8600FEFC333FFEE33FEED33FDEC33FCC4
:0308A200D8F12268
:0C08A500E0FCA3E0FDA3E0FEA3E0FF22C6
:0C08B100E0F8A3E0F9A3E0FAA3E0FB22CA
:0C08BD00ECF0A3EDF0A3EEF0A3EFF022AE
:1008C900A8828583F0D083D0821208E01208E01252
:1008D90008E01208E0E473E493A3C583C5F0C58377
:1008E900C8C582C8F0A3C583C5F0C583C8C582C879
:0108F90022DC
:0C08FA00A42582F582E5F03583F5832209
:10090600FAE6FB0808E6F925F0F618E6CA3AF622F2
:10091600D083D082F8E4937012740193700DA3A370
:1009260093F8740193F5828883E473740293686084
:06093600EFA3A3A380DF84
:102C5100EFB40A07740D122C5C740A309811A8990C
:102C6100B8130CC2983098FDA899C298B811F630E3
:072C710099FDC299F59922BB
:00000001FF
