:030000000220C11A
:0C20C100787FE4F6D8FD758180022108CC
:1018CF00041A0000000041007B004100B10C4100F0
:1018DF00B2404400A80000000044008B000000004C
:1018EF0044008F000000004400CE000000004400C0
:1018FF00B8000000004400D50000000042009C002A
:10190F00014200890000410080004100A600420012
:10191F00DA00004200810000410075084100B40068
:10192F004100DC00011E00011F004100D3004100F7
:10193F0088004100930141009E0A4100B700410019
:10194F00B30A4100A5004100A70042007E000041FC
:10195F00007700027F0000027D0000017B00017A0A
:10196F000001780041007D00410087004200940093
:10197F00004200A300004100D20041007800420065
:10198F007900004100760041009B0041009F00411B
:10199F0000B000017C000179004200B5000050004A
:1019AF00BE0000000000000000000000000000006A
:0519BF000041007C0066
:10165000EF24A0FFEE340FFEE43DFDE43CFC120855
:10166000B1D302086EE49000B4F09000B27440F080
:101670009000A67402F09000757406F0E490007B70
:10168000F09000CE2290008B1208A59000A81208BE
:10169000B112071290008B1208BD90008B0208A5B2
:1016A0009000A81208B1C302086EE4FCFD120712F4
:1016B0009000D50208BD9000AC1208A5EF2470FF81
:1016C000EE3417FEE43DFDE43CFC90008B22122D2D
:1016D00098E47BE87A03F9F89000830208A590006B
:1016E000B2E0FF90007BE0C39F22D390009DE09486
:1016F0000090009CE0940022E475F0010206FC12C8
:1017000008A590008F1208B1020712120695AC06C8
:10171000AD07E41201C3E4FBFA79C8784202012163
:101720009000830208BD9000A80208A5E4FFFEFD1A
:101730007C3F12002D0201FCF0E0540F4480F022A7
:10174000D39000DBE094009000DAE0940022900057
:101750009EE09000B3F0227F071227BD9000A0EF1B
:10176000F09000D4227F647E00022D98F09000B8A3
:101770000208A59000D50208B1D39DEC6480F874EE
:10178000809822E47B02FAF9F80207B890008B02F5
:0C17900008B17E2F122C677F107E2722EC
:102AE9008E238F248B258A268927AF051DEF602128
:102AF9000524E524AE237002052314F5828E83E4B0
:102B090093FF7825E475F001120906EF120661803A
:022B1900D922BF
:102BA5008F828E83E4F51DF51CF51BF51AAF82AEF9
:102BB50083E4FCFDAB1DAA1CA91BA81AC312086E51
:082BC500500543BD1080E6221B
:092D8F00E0FF7C2F122BCD7F64C4
:102D9800E4FDFCC3ED9FEC9E50070DBD00010C80C7
:012DA800F238
:012DA9002207
:10000300758E5190FE917401F0A37410F075BD5F6D
:0700130090FEA07420F02212
:102D5300E490FE80F0758901758DFA758BCB43A8DD
:0E2D630008438840758CCB758AEB438810229C
:102B1B0090FF10E054F04408F090FF02E054F044B2
:102B2B0002F0D28490FFA07420F0A37404F075CC53
:102B3B000675CEFF75CD98759E0275981043A8103B
:012B4B002267
:102DC40043B40343B4807F147E00122D98E4F5B518
:072DD40090FE9B744BF022FE
:102B7B0090FF0812173990FF00E054F0440312172E
:102B8B0038A3E054F0440812173890FF03E0540FB9
:0A2B9B004430F090FF1312173922A6
:0B2E4C008F99E59830E1FB5398FD22C0
:1027BD008FB543B440E5B430E5FB53B4DF12176574
:1027CD00E4FBFAF943B440E5B430E5FB53B4DFE57F
:1027DD00B62BFBE5B73AFA7F147E00122D9809B996
:0F27ED0010E2E4F5B5A9027F64FE122D98AF014A
:0127FC0022BA
:10179C007B017A0079BE7D107F007E2F122AE990A2
:1017AC0000BEE0FFE4FCFDFE1217201216D87808EC
:1017BC001208921217209000831208B19000BFE01B
:1017CC00FFE4FCFDFE1207121217201216D8E47B60
:1017DC00E87A03F9F812072D121720E47F307E7592
:1017EC00FDFC9000831216A340107F007E097D3D06
:1017FC007C0090008312165E400A9000831208C988
:10180C0000009C409000C0E09000D9F0700280076E
:10181C009000D9E0B4FE0374FFF09000C1E0FF909B
:10182C0000A1E4F0A3EFF0E0F8E4F0E89000A1F000
:10183C009000C2E0FF9000A1E48FF01206FC900033
:10184C00A1E0FEA3E0FF4E6009D3EF9408EE9407ED
:10185C0040099000A1E4F0A37405F09000C3E0905F
:10186C00009EF09000A7F09000C4E0900096F0600D
:10187C0006E0D394FF40069000967401F09000C5EA
:10188C00E0F45401900093F09000C6E05401787B92
:10189C00F6A3E05401900088F09000C8E054019049
:1018AC000087F09000C9E090007DF07B017A007910
:1018BC007C7D017F807E2F122AE990007CE09000D5
:0318CC00A5F02262
:10093C00E51E6003020E1343B440E5B430E5FB53EF
:10094C00B4DF85B72385B6249000891216F81217E8
:10095C0073AE23AF241216AA9000BCE0FEA3E0FFF6
:10096C00C39524EE9523500DC3E5249FF524E52370
:10097C009EF523800BC3EF9524F524EE9523F523E8
:10098C0090008F1208B1AE23AF24E4FCFD120712C5
:10099C0090008F1208BD900089E05401FEA3E04E38
:1009AC00705212174040179000B3E09464503DE031
:1009BC002402F0E0D3946440337464F0802E9000F1
:1009CC0081E07004A3E06401702A90009EE0FF9027
:1009DC0000B3E0FED39F4014EE94024004E024FEEA
:1009EC00F09000B3E0C39F500312174E9000B3E099
:1009FC00FF1222B2C3900089E094205003020E42F1
:100A0C0043BD10E4F0A3F09000B4E00412176C9016
:100A1C0000D51217059000B81208BD9000B4E0C3C1
:100A2C0094084030E412176C781012087F9000B8CC
:100A3C001208BD12176D9000BCEE8FF01206FC90E0
:100A4C0000BCE0C313F0A3E013F09000B81208C987
:100A5C0000000000900075E0C394085005E004F01D
:100A6C0080409000DAE07002A3E07036121757E075
:100A7C00FE2402FDE433FCEF12177950189000A00D
:100A8C00E02402FDE433FCEE12177950089000D4F8
:100A9C00E09000A0F09000A0E09000D4F0E4900072
:100AAC0075F0E4FFFEFDFC90008B1216A3703690DF
:100ABC00008F1208A5EF2488FFEE34131216C31210
:100ACC0008BD90009CE07002A3E070197F407E424C
:100ADC007D0FFC90008B12165E400A90008B120862
:100AEC00C9000F424090007BE0701690008F1208F6
:100AFC00A59000A81208BD9000971208C90000002C
:100B0C00019000971216FF1216A04003020CC19020
:100B1C0000971208A59000A812170590008F1216C6
:100B2C00A34003020CC190007BE004F09000CE12B5
:100B3C0016FF9000CE1208BD90007BE0FFFBE4FA9C
:100B4C00F9F89000CE1208A51207B89000A8120868
:100B5C00BD121726780312087F9000971208BDE487
:100B6C007F207E4EFDFC9000971216A3500A900039
:100B7C00971208C900004E20E47F607EEAFDFC90CD
:100B8C00009712165E400A9000971208C90000EAFE
:100B9C006012172690008B12165E403E9000A81231
:100BAC0008B112169A12071F1216B07F807E387D7C
:100BBC00017C009000D512165E40089000B17406BE
:100BCC00F0801DE47F407E9CFDFC9000D512165EEB
:100BDC009000B140087409F080069000B1740CF0DC
:100BEC009000B11216E1403B12169A1216A0503327
:100BFC009000B2E094105003020CD09000B1E0D3FE
:100C0C0094095005121726801112172690008B128A
:100C1C001650400C12168512178390008B1208BDCB
:100C2C00020CC11216DE5003020CD012169A900060
:100C3C00A8121650407712178C12172612071F1283
:100C4C0016B07F007E127D7A7C001216A0505E7F5B
:100C5C00807E1A7D067C009000D51216A3504E9013
:100C6C0000B2E09410400280387FE07E937D047CDB
:100C7C00009000D512165E40089000B27410F080FF
:100C8C001B7FF07E497D027C009000D512165E9091
:100C9C0000B24005740CF080037408F01216DE40AC
:100CAC000C12168512178390008B1208BD1216DEDB
:100CBC004012E48004E490007BF09000CE1208C94E
:100CCC00000000009000A6E0D394004036E014F041
:100CDC001216B612165E5003020DCF9000AC12081D
:100CEC00A5EF2498FFEE343AFEE43DFDE43CFC9085
:100CFC00008F1216A34003020DCF1216B61208BDB8
:100D0C00020DCF1216EA405774FFF5F01206FC12D2
:100D1C0016EA404B7F007E127D7A7C0090008B128D
:100D2C00165E400C9000831208C9000C3500802F11
:100D3C001216D812178C1216AD7F407E547D897C0A
:100D4C00009000D512165E401612178CC374409B8F
:100D5C00FF74549AFE748999FDE498FC12172012C2
:100D6C0016D890008B12170590008F12165E405308
:100D7C009000D9E0FF9000A0E0D39F40051216EA46
:100D8C0040419000DAE07002A3E0700912169A90CC
:100D9C0000AC1208BD9000DAE4F0A304F0787AF607
:100DAC009000941216F890009B7401F09000B274AD
:100DBC0008F0E4900081F0A3F0787FF608F6787DD7
:100DCC00F608F69000D51208C90000000090008FBC
:100DDC001208C9000000009000DAE0FEA3E0FFD387
:100DEC009400EE9400404F9000A1E0FCA3E0FDD3F2
:100DFC00EF9DEE9C4040E49000DAF0A3F0751E01EC
:100E0C00787AF67878F622900081E4F0A304F0E486
:100E1C00F51E90007EF0A3F0900077F07FFAFE12A2
:100E2C002BA59000B81208C900000000121665121C
:060E3C0008C900000000DF
:010E4200228D
:10231600E4F5249000D51208C900000000E4F52376
:1023260043B440E5B430E5FB53B4DF121773AFB6E0
:10233600AEB71216AA0523E523B480E47F907E018A
:10234600122BA59000D51208A5780B12087F8F23B3
:10235600E523D3940C400CE523948D5006E5249494
:0D23660014500A0524E524D3945040A7220A
:012373002247
:1023D1009000D51208C900000000E4F523E4F526B9
:1023E100F52743B440E5B430E5FB53B4DF85B724AA
:1023F10085B625121773AE24AF251216AA0527E557
:102401002770020526B400DAE526B420D543BD10B5
:102411000523E523B408C69000D51208A57810124B
:0A242100087F9000BCEEF0A3EFF07E
:01242B00228E
:10253500BF0105E4FCFD802E7E007C017DFF1206B7
:10254500951C7D641206A7AC06AD07E41201C38F86
:10255500448E438D428C41AB44AA43A942A8411203
:10256500172CAC06AD0790FF907427F075DA01754E
:0E257500E30175E2FF8CE58DE475E10F7F0058
:012583002235
:102A1900BF0104E4FE801E7E007C007DFF12170BBF
:102A29008F2A8E298D288C27AB2AAA29A928A8277D
:102A390012172CAE0790FF9C7401F075DEFF8EDF34
:052A490075DD947F0023
:012A4E002265
:0222B2008F2576
:1022B400787CE6B525037F0022787CA625E5257089
:1022C4000C9000D204F0E490009FF0801CE525B44B
:1022D400640CE49000D2F090009F04F0800B900016
:1022E400D27402F090009F14F0E525FD7C0090006C
:1022F4007DE0FF7E0012170BE4FBFAF9783F12171A
:1023040032C3E5259FF526122535AF26122A197FFB
:0123140000C8
:0123150022A5
:1012B200122E1E120003122B7B7F641222B2122DF9
:1012C20053122B1B122DC475BBAA90FEA774FFF0FC
:1012D20053BBF7D2AF7FC87E00122BA57F641222C8
:1012E200B29000D37401F0121757F0C2AF12179CDC
:1012F2009000A5E004F07F807E2F122C677F107E85
:1013020027122D989000A5E0FF7D807C2F122BCD17
:10131200121765D2AF12231690009EE0FF9000B321
:10132200F01222B27F2C7E01122BA51223D1900043
:10133200D51208C9000000009000A5E0C394034044
:1013420005E4F0122C8C900078E0FF9000D2E0FDD2
:101352006F600D7F7612283D9000D2E0900078F009
:101362009000B0E0FF90009FE0FD6F600D7F77126C
:10137200283D90009FE09000B0F0900076E064017C
:10138200704190009BE0B4013AE4900076F0900046
:101392009BF0900094E0FEA3E0FF9000A3E06E704B
:1013A20003A3E06F601DE48F458E44F543F5427F51
:1013B2007412214D900094E0FFA3E09000A3CFF0BF
:1013C200A3EFF043BD10E51E700B90008AE0541F9E
:1013D20070031214C0900093E06401600302148B46
:1013E200E51F701CF51E751F0112174E9000B812F2
:1013F20008C9000000001216651208C900000000AA
:1014020012093CD3900082E09400900081E09400A5
:101412004033900077E0B4012CE4F0900081121682
:10142200F9900096E0FFC3900082E09F900081E077
:1014320094004011E4F0A3F0900087E0640160059D
:10144200E4FF1222B2121740400F787EE6640118C0
:10145200467006F608F61216F9787BE66401600318
:1014620002133A18E6FF787866700302133AA60769
:101472009000DAE4F0A304F0E4F522E522C3940834
:10148200400302133A052280F2E4F51F900088E03F
:101492007007FF1222B202133A9000A7E0FF122255
:1014A200B2E4F51E12174E9000B81208C9000000EF
:0E14B200001216651208C90000000002133A6D
:03001B00021E07BB
:101E0700C0E0C0F0C083C082C0D075D000C000C0A1
:101E170001C002C003C004C005C006C007AF1DAEA5
:101E27001CAD1BAC1AEF2401FFE43EFEE43DFDE4CC
:101E37003C8F1D8E1C8D1BF51A90007E1216F89094
:101E4700007EE0FEA3E0FFE4FCFD7B607AEAF9F8A0
:101E5700D3120858500C90007EE4F0A3F09000775E
:101E670004F0788006E618700106C37880E694E8E7
:101E770018E69403400C7600087600787D76000813
:101E870076019000791216F8C390007AE094E890F2
:101E97000079E094034009E4F0A3F090007604F0A1
:101EA700D007D006D005D004D003D002D001D0008F
:0B1EB700D0D0D082D083D0F0D0E03239
:030023000226AC06
:1026AC00C0E0C0F0C083C082C0D075D000C000C0F4
:0D26BC0001C002C003C004C005C006C00775
:0F26C900E59830E00AAF991224875398FED2AFFC
:1026D800D007D006D005D004D003D002D001D00056
:0B26E800D0D0D082D083D0F0D0E03200
:102C670053BBF7C280E5BB20E3F6D280C2AF75FD48
:102C7700F075FC0F8EFA8FF975FDD275FC2D75FD79
:052C8700E175FC1E22B6
:102BCD0053BBF7C280E5BB20E3F6D280C2AF8FFBCB
:102BDD0075FDF075FC0F8CFA8DF975FDB475FC4B18
:072BED0075FDE175FC1E22DD
:102024007F001217921216CE1207B8780812087F92
:102034007D007C2F122BCD7F647E001216CE1207FA
:10204400B87D017C2F122BCD1217659000D97D022B
:10205400122D8F9000A17D03122D8FA3E0FF7D042C
:10206400122D9190009EE0FF7D05122D9190009617
:10207400E0FF7D06122D91900093E0F4FF7D07129E
:102084002D91787BE6FF7D08122D91900088E0FF6A
:102094007D09122D91900087E0FF7D0A122D919009
:1020A400007DE0FF7D0B122D917F80121792122D7F
:0C20B400987D807C2FE4FF122BCDD2AF72
:0120C00022FD
:102C1B00637263206572726F7220286372633A303D
:102C2B00782558202062757420646174613A30787D
:062C3B002558290D0A00D6
:0419C40002760000A7
:101F7A00120634FFE5464FFFE545FEE544FDE5431D
:101F8A008F468E458D44F543FC78081208928F4699
:101F9A008E458D4422AF45AE44AD43AC4212087F14
:101FAA00AD0722AD07E4FBFA900001E02274022596
:101FBA0024F974003523FA7B01E52624FFFDE52583
:101FCA0034FFFC22E475F001020906AA06AB077D7C
:101FDA00037F0722AF75AE74AD73AC7202087FFE41
:101FEA00E554FDE553FCE47BFF22E4F540F53FF5BB
:101FFA003EF53D22120634AB49AA4AA94B22AB60F0
:10200A00AA61A96202061BAB63AA64A96502061B40
:0A201A00755A01755B00755C222207
:1021D400EFC39430400CEFD39439500674D02FFFE2
:1021E4008022EFC39441400CEFD394465006EF2471
:1021F400C9FF8010EFC39461400AEFD39466500482
:10220400EF24A9FFEF540FC454F0FFEDC394304002
:102214000CEDD39439500674D02DFD801EEDC3947B
:10222400414008EDD394465002800CEDC3946140C4
:102234000AEDD394665004ED24A9FDED540F420732
:012244002277
:062737008B3A8A3B893C4D
:10273D00121FF4E94A4B7005FFFEFDFC22121FF437
:10274D00783A121FCE12061B601AE5402401FFE4F1
:10275D00353FFEE4353EFDE4353D8F408E3F8D3EE9
:0C276D00F53D80DCAF40AE3FAD3EAC3D22
:01277900223D
:062A4F008B088A09890AC8
:102A55008B0E8A0F8910E94A4B7004FBFAF922E5BF
:102A65000D150DAE0C7002150C4E600B780E121F75
:0D2A7500CEED12066180E8AB08AA09A90A9F
:012A82002231
:061C7F008B418A428943FB
:101C85008B498A4A894B85444C85454D85464EE9A5
:101C95004A4B6008E5464545454470077B007A0098
:101CA500790022D3854D83854E82E54B9582E54AA1
:101CB50095834019E54E2548F9E54D3547FA8A8360
:101CC5008982D3E54B9582E54A95834032E4F54F09
:101CD500F550C3E5509548E54F9547505BAB4CAA89
:101CE5004DA94E855082854F83121FFE85508285F2
:101CF5004F831206730550E55070D7054F80D38585
:101D0500474F854850D3E5509400E54F940040284F
:101D1500AB4CAA4DA94EE55024FFFFE54F34FFFE1D
:101D25008F82F583121FFE8F828E83120673E55014
:0E1D3500155070D1154F80CDAB41AA42A94385
:011D4300227D
:0628B9008B118A12891345
:1028BF008B178A188919AB14AA15A91612061B6053
:1028CF00147814121FCE12061BFF7811121FCEEFB1
:1028DF0012066180E1AB11AA12A913E4120661ABD3
:0528EF0017AA18A91949
:0128F40022C1
:1026F3008B608A618962122008FF602012201160BA
:102703001BB5071874012562F562E43561F5617440
:10271300012565F565E43564F56480DA122011FF5F
:102723003395E0FE122008FD3395E0FCC3ED9FFFD7
:04273300EC9EFE22F8
:102A83008F758E748D738C72781812087FEF12060F
:102A9300617810121FDE900001EF1206737808129E
:102AA3001FDE900002EF120673E575FF900003EF3F
:032AB300020673A5
:10258400E4F546F545F544F54312061BFFE48F4692
:10259400F545F544F543AE45AD44AC43121F938C69
:1025A40043900001121F7A8C43900002121F7A8C10
:1025B40043900003120634FFE5464FFFE545FEE570
:0A25C40044FDE543121F98F543FCA7
:0125CE0022EA
:062663008B678A6889699B
:10266900121FADB401037F0122AF03AE02122E3F48
:10267900AA06AB07E41226A3E56A1226A3AD6B12DC
:102689002E3FAB67AA68A969856A3F856B40122B03
:092699004C121FD51224E07F0150
:0A26A20022FD122E3FAA06AB07220C
:0425CF008D3DAC078B
:1025D300121FAFB401037F0122AF03AE02AD041299
:1025E3002608E4FD122608E53D7003FD8006AF03CF
:1025F300AE027D01122E3FAA06AB077D037F0712B1
:0426030024E07F014F
:1026070022122E3FAA06AB077D01122E3FAA06AB68
:02261700072298
:10214D00121FADB401037F0122AF03AE02122E3F69
:10215D007D021221C0E4FD122E3F7D041221C0C06C
:10216D0006C0077818121F9FD007D0061221CCC0C9
:10217D0006C0077810121F9FD007D0061221CCC0C1
:10218D0006C007AF45AE44AD43AC42780812087F98
:10219D00AD07D007D006122E3FAA06AB07C007E544
:1021AD0045FFE4AD07D007122E3F121FD51224E0D4
:0221BD007F01A0
:1021BF0022AA06AB07122E3FAA06AB0722122E3F0A
:0521CF00AA06AB072287
:062619008B6D8A6E896FD3
:10261F00121FADB401037F0122AF03AE0212265B7E
:10262F007D0312265BE570FD122E3FAA06AB07ADA8
:10263F0071122E3FAB6DAA6EA96F85703F857140E9
:0B264F00122B4C121FD51224E07F015B
:09265A0022122E3FAA06AB072252
:04283D008D41AC0716
:10284100121FAFB401037F0122AF03AE02AD041228
:102851002E3F7D04122870E4FD122E3F7D011228C7
:0E28610070AD41122E3F121FD51224E07F01F0
:0D286F0022AA06AB07122E3FAA06AB0722D5
:021D4400AD07E9
:101D4600E4F557F558900001E0B401037F01221233
:101D56001DE77D05121DFFE4FD121DFF74FFFFE563
:101D660055121FE9FAF9F8C312086E70097D0112BF
:101D76001DE7AD56803D74FFFF121FE97AFFF9F8A3
:101D8600C312086E70047D0280197D04121DF3785B
:101D960018121DCEAF56AE55AD54AC53781012087E
:101DA6007FAD07121DF37808121DCEE556FFE4AD90
:101DB60007AF58122E3F8E578F58AB58AA577D0340
:071DC6007F071224E07F01FA
:101DCD0022AF56AE55AD54AC5312087FAD07AF5888
:101DDD00AE57122E3F8E578F5822AF58AE57122E38
:101DED003F8E578F5822AF58AE57122E3F8E578FBA
:0A1DFD005822122E3F8E578F5822F5
:082E61008C3D8D3E12061BFFA3
:012E69002246
:082E6A008C418D4212061BFF92
:012E7200223D
:072E73008C418D4212258401
:012E7A002235
:102487008F51C3E55F955CFFE55E955BFEEF6401E9
:102497004E6045D3855E83855F82E55C9582E55B0B
:1024A70095834015E55C955FFFE55B955EFEC3EFA1
:1024B700941BEE64809480501FC390003DE55C95AB
:1024C70082E55B958340077A00792212201A785AB1
:0924D700121FCEE551120661222C
:1014C000E4F523F524F525F526C3E577941FE576A5
:1014D00094005024122D71EFD39400401B1227FD6D
:1014E0000577E577AC7670020576142402F58274F0
:1014F000003CF583EFF080D1C3E5779407E576945F
:1015000000500302164FC3E5779524FDE576952339
:10151000FCC3ED9407EC94005003021618740225E6
:1015200024F58274003523F583E06455600A0524B0
:10153000E52470D2052380CE74032524F58274003F
:101540003523F583E064AA600A0524E52470B70515
:101550002380B374042524F58274003523F583E0D9
:1015600060047402803C74062524F58274003523DF
:10157000F583E0752600F52574072524F5827400AF
:101580003523F583E02407FFE433FEEF2526F52617
:10159000EE3525F525D3E5269426E5259400400A69
:1015A00074032524F524E4021611C3ED9526EC9569
:1015B000254065121FB7122C41E5242526FDE523A1
:1015C0003525FC74012DF58274003CF583E06F60D5
:1015D00031121FB7122C418F2A7BFF7A2C791BE521
:1015E000242526FFE5233525FE74012FF58274009E
:1015F0003EF583E0F52B120EA574032524F524E4B3
:10160000800FAF24AE231219F8E5262524F524E532
:10161000253523F523021506C3E5779524F577E5EF
:10162000769523F576D3E5779400E5769400401F10
:1016300074022524F974003523754401F545894663
:0F1640008576478577487B017A007902121C7FF7
:01164F002278
:102E1E0012201A755D01755E00755F229000747444
:032E2E00FFF02290
:062E7B00900021E0FF229F
:0E2E3100E4900021F0FBFA7D037F040224E010
:062E8100900000E0FF22BA
:022DDB00AD0742
:102DDD00E4FF900000F0FE122E3FEFFB7A007D0322
:052DED007F050224E057
:062E8700900074E0FF2240
:1019C8004100E1004400DD000000005E00E2140177
:1019D800160217026504660267016802690271014E
:0C19E8007201730174027501760477042B
:102AB600AB37AA38A939AD3BAC3A22E0FFE48F45E3
:102AC600F544F543F54222900094E0FEA3E0FFE4CE
:102AD6008F458E44F543F54222E0FFE4FCFDFEC33C
:032AE60002086E75
:102C8C007F55122E4C7FAA122E4C7F03122E4C7F96
:102C9C0004122E4CE4FF122E4CE4FF122E4C7F0635
:032CAC00022E4CA9
:03001E00022E4C63
:101BB800900000E0FD7F141225CF900088E0FD7FA3
:101BC800711225CF90009E122AC17F1612214D90C6
:101BD80000D9E0FFB4FF05E4F52F801EEFB4C80577
:101BE800752F028015EFB42805752F03800CEFB40C
:101BF8001405752F048003752F05AD2F7F651228F6
:101C08003D9000A1122AD07F6612214D900093E0EA
:101C1800FD7F671225CF900096122AC17F68122196
:101C28004DE47B107A27F9F89000831208A5120773
:101C3800B8C374329F122AC27F6912214D787BE69D
:101C4800FD7F721225CF900087E0FD7F731225CFAC
:101C5800122ACD7F7412214D9000D2E0FD7F7612BA
:101C6800283D90009FE0FD7F7712283D90007D126F
:071C78002AC17F1702214D74
:102DF200122E61900000EFF0FD7F141225CFBF016B
:062E0200037F01227F00A6
:012E080022A7
:10296C00122E738F408E3F8D3E8C3D90009EAB405F
:10297C00AA3FA93EA83D122ADF7002FF22AF409069
:10298C00009EEFF0FE9000A7F0122AC37F161221D2
:09299C004DBF01037F01227F0001
:0129A500220F
:1029E000122E6AE48F40F53FF53EF53D90007DAB39
:1029F00040AA3FA93EA83D122ADF7002FF229000A4
:102A00007DE0FF12253590007DE0FD7F1712283D07
:082A1000BF01037F01227F00DA
:012A1800229B
:10237400122E6A9000E1E0B507037F0022EF14609B
:102384001014601514601A14601F1460242405705E
:10239400289000D974FFF080209000D974C8F08090
:1023A400189000D97428F080109000D97414F0802B
:1023B400089000A0E09000D9F09000E1EFF0FD7FDC
:0C23C4006512283DBF01037F01227F004D
:0123D00022EA
:10277A00122E738F408E3F8D3E8C3D9000A1E0FE5D
:10278A00A3E0FFE4FCFDAB40AA3FA93EA83DC3126B
:10279A00086E7002FF22AE3FAF409000A1EEF0A398
:1027AA00EFF0122AD57F6612214DBF01037F012265
:0227BA007F009E
:0127BC0022FA
:102CD100122E61900093E0B507037F0022900093CC
:102CE100EFF0FD7F671225CFBF01037F01227F0037
:012CF10022C0
:1028F500122E738F408E3F8D3E8C3D900096E0FFEB
:10290500E4FCFDFEAB40AA3FA93EA83DC312086EFC
:102915007002FF22AF40900096EFF0122AC37F6845
:0B29250012214DBF01037F01227F0043
:012930002284
:10224500122E738F408E3F8D3E8C3D9000DD12081F
:10225500A5AB40AA3FA93EA83DC312086E7002FF78
:1022650022AF40AE3FAD3EAC3D9000DD1208BDC390
:1022750074329540FFE4953FFEE4953EFDE4953DBF
:10228500FCE47B107A27F9F812072D9000831208D9
:10229500BD9000DD1208A58F458E448D438C427F8D
:0C22A5006912214DBF01037F01227F0060
:0122B100220A
:1029A600122E61900088E0B507037F0022EF7006C3
:1029B600900088F08011900093E0B40104787A7654
:1029C600019000887401F0900088E0FD7F71122567
:0929D600CFBF01037F01227F0045
:0129DF0022D5
:102D3400122E61787BE6B507037F0022787BEFF6DD
:0E2D4400FD7F721225CFBF01037F01227F00A9
:012D5200225E
:102CF200122E61900087E0B507037F0022900087C3
:102D0200EFF0FD7F731225CFBF01037F01227F0009
:012D1200229E
:102DAA00122E61EF7002FF22E4900094F0A3F01259
:092DBA002ACD7F7412214D7F0126
:012DC30022ED
:061EC2008B378A388939D4
:101EC800EF1209161EF4141F16161F1F171F286578
:101ED8001F30661F38671F40681F48691F50711FF1
:101EE80058721F60731F687500001F72122AB6129D
:101EF8002DF28F3CE53C640170759000B7E004F06A
:101F0800E0C394054069E4F0122C8C021F77122A72
:101F1800B612296C021F6E122AB61229E0021F6E31
:101F2800122AB6122374803E122AB612277A8036F5
:101F3800122AB6122CD1802E122AB61228F5802623
:101F4800122AB6122245801E122AB61229A6801617
:101F5800122AB6122D34800E122AB6122CF28006DE
:101F6800122AB6122DAA8F3C8000E49000B7F0AF79
:011F78003C2C
:011F79002245
:032E8D007F0F2292
:102931007B2270223A220071676B6A35796D636779
:102941007261706A676A3000222C2276223A220074
:10295100312E302E3000222C226D223A0030007DA3
:0B29610000000000000000000000006B
:0319F40001590096
:102E090074432FF974003EFA7B0122E475F0011234
:052E1900090602061B82
:0C2E3F00122E09ED1206610FBF00010EFB
:012E4B002264
:0A2B4C008E3A8F3B8B3C8A3D893E98
:102B5600122E09853C44853D45853E46853F478581
:102B66004048121C7FE540253BF53BE53F353AF5ED
:042B76003AFEAF3B39
:012B7A002238
:0A2C41008B488A49894A8C4B8D4C60
:102C4B00E4FFFDFCC3ED954CEC954B500E78481210
:0B2C5B002E142FFF0DBD00010C80E9BE
:012C6600224B
:10287C008B488A49894A8C4B8D4CE94A4B602DE533
:10288C004C454B6027E54C154CAE4B7002154B4E2E
:10289C00601AAB48AA49A94A12061BFF12001E7403
:0D28AC0001254AF54AE43549F54980D92255
:0424E0008A468B4756
:1024E40090003D7455F0A374AAF0A3EDF0A3EFF0AF
:1024F400E546A3F0E547A3F02407F547E43546F5A0
:10250400467B017A00793DE54724FFFDE54634FF2B
:10251400FC122C41AE07743C2547F5827400354605
:10252400F583EFF07B017A00793DAD47AC46022894
:012534007C2A
:102CAF00E4FFE559700AFEFD122E3F7559018007AA
:102CBF007E007D01122E3FEFFB7A007D03E4FF02C1
:022CCF0024E0FF
:101AED00E4F52F78307C00FD7BFF7A297962FE7F4B
:101AFD000A1205F57A297931121B887A2979311262
:101B0D002B4C8F2F7A297938121B887A2979381224
:101B1D002B4C8F2F7A297949121B987A29794912E2
:101B2D002B4C8F2F7A297951121B987A29795112C2
:101B3D002B4C8F2F7A297957121BA87A2979571296
:101B4D002B4C8F2F7A29795E121BA87A29795E1278
:101B5D002B4C8F2F7BFF7A2979601227378E3F8F81
:101B6D0040AF2F7E007BFF7A297960122B4C8F2F8F
:0B1B7D00EFFB7A007D037F010224E0F3
:101B88007BFF1227378E3F8F40AF2F7E007BFF22CF
:101B98007BFF1227378E3F8F40AF2F7E007BFF22BF
:101BA8007BFF1227378E3F8F40AF2F7E007BFF22AF
:0A2E5700E4FBFA7D037F020224E091
:022D13008F36F9
:102D1500122E8DE4FEEEC39F501275F002EE900068
:0E2D2500E21208FAE0653660030E80E9AF06A0
:012D3300227D
:06242C008B2F8A3089317C
:1024320012061BF532900001120634F533900002A9
:10244200120634753500F534900003120634253532
:10245200F535E43534F534AF32122D1375F002EF51
:102462009000E31208FAE0653360037F0022AB2F8D
:10247200E5312404F9E43530FA85343A85353BAF49
:0424820032121EC232
:012486002233
:0419F8008E278F287F
:1019FC0074052FF58274003EF583E0FF1209161A68
:101A0C0027001A2A011A2D021A30031A4B041A50F5
:101A1C00051A57061AE90800001AEC022CAF021A34
:101A2C00ED022E5774082528F58274003527F583AE
:101A3C00E0900074F0E4FBFA7D037F030224E09055
:101A4C00002180039000007401F02274062528F513
:101A5C008274003527F583E0FE74072528F582741F
:101A6C00003527F583E0FDEEF52DEDF52EE4F52B95
:101A7C00F52CC3E52C952EE52B952D5063E52825EB
:101A8C002CFDE527352BFC740A2DF58274003CF5F2
:101A9C0083E0752A00F529740B2DF58274003CF552
:101AAC0083E0252AF52AE43529F52974082528F937
:101ABC0074003527FA7B01E9252CF9EA352BFA124B
:101ACC00242CBF0103122024E52A2404FFE4352929
:101ADC00FEEF252CF52CEE352BF52B8095121BB833
:011AEC0022D7
:102D7100E55D855E83855F82655A700AE55C6582E3
:0E2D81007004E55B658360037F01227F002202
:1027FD00AB5DAA5EA95FE55A855B83855C82655DED
:10280D00700AE55F65827004E55E65836021C390A3
:10281D00003DE55F9582E55E9583400D7A00792256
:0F282D00755D01755E00755F22785D122E14FFD8
:01283C002279
:10002600020268E86480F8E933E83360110460F09E
:10003600ED33EC337009E8FCE9FDEAFEEBFF220440
:1000460060DED3EB9FEA9EE99DE8C2E78CF0C2F73B
:1000560095F0400CE8CCF8E9CDF9EACEFAEBCFFB07
:1000660012023385D0F05804700320D5B3E804702B
:10007600075002B2D502027292D5EC0460F7E4CCC6
:10008600C0E0C398F8603B94186008400DD0E0FBD0
:1000960002024AE4FBFAC9FC8028E830E406E4C917
:1000A600FBE4CAFCE830E305E4C9CACBFCE8540724
:1000B6006010F8C3E913F9EA13FAEB13FBEC13FC2F
:1000C600D8F130F52FC3E49CFCEF9BFFEE9AFEEDD2
:1000D60099FDD0E0FBEF4E4D4C701222DB0302027D
:1000E6006FEC2CFCEF33FFEE33FEED33FDED30E726
:1000F600EB02024AEF2BFFEE3AFEED39FDD0E0FBB4
:1001060050130BBB0003020272ED13FDEE13FEEF5C
:0801160013FFEC13FC02024A86
:10011E00020272EC5D046005E85904700302026885
:10012E00120233580460F6EC4860F2EC7004FDFEE7
:10013E00FF22C860DB2481C85009C39860025006B4
:10014E0002026F9850CAF582E9294B4A7005AB82BC
:10015E0002025E75F0007C1A7880C3EF9BEE9AED7A
:10016E0099400DC3EF9BFFEE9AFEED99FDE842F02C
:10017E00DC23ACF0D0E0FFD0E0FED0E0FDAB82207F
:10018E00E7101BEB60BAEC2CFCEF33FFEE33FEED09
:10019E0033FD02024AE803F830E705C0F075F000BF
:1001AE00EF2FFFEE33FEED33FD40B830E7C280AAED
:1001BE0075F020800E75F010800575F0087D007EBC
:1001CE00007F003392D530D50312084AEC3340102D
:1001DE00EF33FFEE33FEED33FDEC33FCD5F0ED22C5
:0E01EE00E5F0247EA2D513CC92E7CDCEFF2201
:1001FC00EDD2E7CD33EC3392D524814006E4FFFEFB
:10020C00FDFC22FCE4CFCECDCC24E0501174FF8059
:10021C00EDC3CC13CCCD13CDCE13CECF13CF0470F6
:07022C00F030D5DE02084AA4
:100E4300E53E242AF8E6053E227827300702782A71
:100E5300E475F00112090602061B2000EB7F2ED277
:100E6300008018EF540F2490D43440D4FF30040B87
:100E7300EF24BFB41A0050032461FFE53F6002155D
:100E83003F0542E5427002054130070D7827E475BE
:100E9300F001120906EF020661022BF47403D20774
:100EA3008003E4C207F53E8B278A288929E4F53FAE
:100EB300F541F542E53F60077F20120E7E80F57510
:100EC30040FFC201C200C202C203C205C206C20879
:100ED300120E4CFF700D3007057F00120E8FAF42CC
:100EE300AE4122B4255FC2D5C204120E4CFF24D0FA
:100EF300B40A00501A75F00A783F30D50508B6FFDA
:100F03000106C6A426F620D5047002D20380D92494
:100F1300CFB41A00EF5004C2E5D20402117CD2010F
:100F230080C6D20080C0D20280BCD2D580BAD2059E
:100F330080B47F20120E7E2002077401B53F00406B
:100F4300F1120E43FF120E7E020EB7D208D20680B4
:100F530095120E43FB120E43FA120E43F94A4B70DD
:100F63000679737A127BFF20022EE53F602A7E000A
:100F73008E8275830012063460060EEE654070F0B3
:100F8300C2D5EBC0E0EAC0E0E9C0E0EE1211DCD06C
:100F9300E0F9D0E0FAD0E0FB12061BFF60AAEBC039
:100FA300E0EAC0E0E9C0E0120E7ED0E02401F9D00F
:100FB300E03400FAD0E0FBE5400460DCD540D980A2
:100FC30087D20280A21211BF60F7E54070010412BC
:100FD300027DA940600DE540600914F540121266D8
:100FE300EF60F3EA30E702F404C3995077EAF4259B
:100FF300400430E701E404F540800D1211BF60C1E5
:10100300EA0540254012027DEA783DF630E701E427
:10101300254004D54004200501141211DCE4C0E08E
:10102300121266783DE6601320E70714F6120E6687
:10103300802204F6D0E014C0E07F00120E66E54083
:101043006007120E5D1540800B300503120E5DD054
:10105300E0020EB7D0E00480C51211BF60A0E540E6
:101063000412027D783DEAF6E540200502600104A2
:0510730024041211DC51
:1010780074FF04C0E0121266120E66E540200502F5
:101088006003120E5DD0E0B540E87F45120E70781F
:101098003DE67F2B30E7047F2DF404C0E0120E7E7E
:1010A800D0E075F00A84C0F0120E67D0E0120E6727
:1010B800020EB7791080027908C206C2088008D2E9
:1010C800D5790A8004790AC2D5E540047002F54052
:1010D800E4FAFDFEFF120E43FC7B08200113120EFA
:1010E80043FD7B1030000A120E43FE120E43FF7BB5
:1010F80020EC3382D592D55013C3E43000069FFF0D
:10110800E49EFEE42001039DFDE49CFCE4CBF8C2D0
:1011180001EC700CCFCECDCCE824F8F870F3801732
:10112800C3EF33FFEE33FEED33FDEC33FCEB33FB63
:10113800994002FB0FD8E9EB300105F8D0E0C4482C
:10114800B201C0E00AEC4D4E4F78207B0070C2EA35
:10115800B5400040BCC0E01211DED0F0D0E0200164
:1011680004C4C0E0C4B201C0F0120E67D0F0D5F0DC
:10117800EB020EB71209160F545310BB580F254C2B
:101188000F214210BF4F10C74410C7490F3A4310F0
:10119800CD550FFE46105C450FC8471293500F29D6
:1011A8002D0F2D2E0F502B0F31230F4E20127C2A7E
:1011B8000EE94800000F48E540B4FF0375400612E9
:1011C8000E43FC120E43FD120E43FE120E43FF782F
:1011D800360202AC790AA2D5200314300509B910E9
:1011E800020404B9080104A2D52006025001042013
:1011F80002689202B53F005034C0E07F20300319E6
:101208007F30A20272067205500F121235C202C256
:1012180006C205C2087F30800F300503E9C0E0121E
:101228000E7E300503D0E0F9D0E0B53FCC3005178D
:101238007F30B9100C120E7E7F583004077F7880FB
:1012480003B90803120E7E3002057F2D020E7E7F41
:10125800202008F87F2B2006F322920280CF7F00FF
:10126800B4070050052436F8E6FF22286E756C6C2A
:101278002900D201120E433001F8C201783F30D55F
:101288000108F6020EE92D50434958120E43240373
:10129800B405004001E490128E93120E6F743A1256
:0A12A8000E6FD203753F040210BB65
:10023300E9D2E7C933E833F892D5EDD2E7CD33EC11
:0702430033FC5002B2D5228A
:10024A00EC30E7100FBF000C0EBE00080DBD000415
:10025A000BEB6014A2D5EB13FCED92E7FD2274FFC1
:10026A00FCFDFEFF22E480F8A2D574FF13FC7D801A
:03027A00E480EF2E
:10027D00F920E72824F950037907E4F42402FB1848
:10028D00DBFDE624FB5014E9600DE4F618E604F6F8
:0F029D00B40A08E4F6D9F57401F60A22C2D52294
:1002AC00ED33EC3392D5FA602AB4FF33EDC2E77B21
:1002BC00FF60067A0279D1E4227A0279DA20D50439
:1002CC007A0279D5224E614E002B494E46002D49BB
:1002DC004E4600E47A08F608DAFC7B00740722E844
:1002EC00C0E0ECC0E0EDC0E0EEC0E0EFC0E0EA75CD
:1002FC00F010A4CAABF075F04DA42BFBE435F0FC68
:10030C00EA2410FAEB34C5FBEC34D9FCEDC2E7FF60
:10031C0075F056A4F42411C5F0F434C58FF0A42A5A
:10032C00E5F03BE43CF620E7141204E5D0E0FFD006
:10033C00E0FED0E0FDD0E0FC1201218014F40412A8
:10034C0004E5D0E0FFD0E0FED0E0FDD0E0FC1203ED
:10035C00AFD0E0F8E6FAEDD2E7CD33EC332482FBF4
:10036C00E4C3CF33CFCE33CECD33CD33DBF37B07EA
:10037C0075F00A846004F6081B0AE5F0F6088FF0A5
:10038C00740AA4FFACF08EF0740AA42CFEACF050EE
:10039C00010C8DF0740AA42CFDE435F0F608DBDEBC
:0303AC00740722B1
:1003AF00EC4D6011E8497017ED33EC3304600DE448
:1003BF00FCFFFEFD22E933E8330470F802026812F5
:1003CF00023358046009E4CC2481500628500902F6
:1003DF00027228400302026FC0E0EB4A7044B980FA
:1003EF0006D0E0FB02025EEF4E701CBD8008EBFFF3
:1003FF00EAFEE9FD80EBE98DF0A4FEE5F00204983A
:10040F00E9CDF9EAFEEBFFEF89F0A4FCE5F0CE8928
:10041F00F0A42EFFE435F0CD89F0A42DFEE435F0E5
:10042F008067EF4E7005BD80D780C3EF8BF0A4AC13
:10043F00F0EE8BF0A42CFCE435F0F8EF8AF0A42C4E
:10044F00E5F038FCE433CB8DF0A42CFCE5F03BF861
:10045F00EE8AF0A42CFCE5F038F8E433CF89F0A451
:10046F002CFCE5F038CF3400CE89F0A42FFFE5F057
:10047F003EFEE433C98DF0A42EFEE5F039CD8AF0AF
:10048F00A42FFFE5F03EFEE43DFD33D0E0FB500727
:10049F000BBB000F020272EC2CFCEF33FFEE33FEAE
:0604AF00ED33FD02024ADC
:1004B5003F8000004120000042C80000447A00004F
:1004C500461C400047C35000497424004B189680D1
:1004D5004CBEBC205A0E1BCA6753C21C749DC5AEC8
:1004E500FB60065407601C2323120513EB54386088
:1004F500091204FF12050E1203AFECF8EDF9EEFA3E
:10050500EFCB22EB12050E80F1543803241C900426
:10051500B5FE93FC0EEE93FD0EEE930ECE93FF22E9
:1020CD000212B2E493A3F8E493A34003F68001F265
:1020DD0008DFF48029E493A3F85407240CC8C33314
:1020ED00C4540F4420C8834004F456800146F6DFE3
:1020FD00E4800B01020408102040809018CFE47E8C
:10210D00019360BCA3FF543F30E509541FFEE493D7
:10211D00A360010ECF54C025E060A840B8E493A39E
:10212D00FAE493A3F8E493A3C8C582C8CAC583CAC9
:10213D00F0A3C8C582C8CAC583CADFE9DEE780BE81
:0119F70000EF
:10052500E709F608DFFA8046E709F208DFFA803EB8
:1005350088828C83E709F0A3DFFA8032E309F608A5
:10054500DFFA8078E309F208DFFA807088828C830D
:10055500E309F0A3DFFA806489828A83E0A3F608C1
:10056500DFFA805889828A83E0A3F208DFFA804C9B
:1005750080D280FA80C680D4806980F28033801072
:1005850080A680EA809A80A880DA80E280CA8033DB
:1005950089828A83ECFAE493A3C8C582C8CCC58353
:1005A500CCF0A3C8C582C8CCC583CCDFE9DEE78023
:1005B5000D89828A83E493A3F608DFF9ECFAA9F0A2
:1005C500EDFB2289828A83ECFAE0A3C8C582C8CCF8
:1005D500C583CCF0A3C8C582C8CCC583CCDFEADE11
:1005E500E880DB89828A83E493A3F208DFF980CC73
:1005F50088F0EF60010E4E60C388F0ED2402B4046C
:100605000050B9F582EB2402B4040050AF23234512
:06061500822390057573BD
:10061B00BB010689828A83E0225002E722BBFE02DD
:09062B00E32289828A83E4932210
:10063400BB010CE58229F582E5833AF583E022507B
:1006440006E92582F8E622BBFE06E92582F8E222C5
:0D065400E58229F582E5833AF583E49322DF
:10066100BB010689828A83F0225002F722BBFE0178
:02067100F32272
:10067300F8BB010DE58229F582E5833AF583E8F0BD
:10068300225006E92582C8F622BBFE05E92582C869
:02069300F22251
:10069500EF8DF0A4A8F0CF8CF0A428CE8DF0A42E79
:0206A500FE2233
:1006A700BC000BBE0029EF8DF084FFADF022E4CC37
:1006B700F875F008EF2FFFEE33FEEC33FCEE9DEC00
:1006C700984005FCEE9DFE0FD5F0E9E4CEFD22ED46
:1006D700F8F5F0EE8420D21CFEADF075F008EF2F90
:1006E700FFED33FD4007985006D5F0F222C398FD81
:0506F7000FD5F0EA221E
:1006FC00C5F0F8A3E028F0C5F0F8E5821582700289
:06070C001583E038F02225
:0D071200EF2BFFEE3AFEED39FDEC38FC2236
:0E071F00C3EF9BFFEE9AFEED99FDEC98FC22D5
:10072D00E88FF0A4CC8BF0A42CFCE98EF0A42CFC6B
:10073D008AF0EDA42CFCEA8EF0A4CDA8F08BF0A4E9
:10074D002DCC3825F0FDE98FF0A42CCD35F0FCEB48
:10075D008EF0A4FEA9F0EB8FF0A4CFC5F02ECD390D
:0F076D00FEE43CFCEAA42DCE35F0FDE43CFC227A
:10077C0075F008758200EF2FFFEE33FECD33CDCC34
:10078C0033CCC58233C5829BED9AEC99E5829840B7
:10079C000CF582EE9BFEED9AFDEC99FC0FD5F0D694
:1007AC00E4CEFBE4CDFAE4CCF9A88222B800C1B9BE
:1007BC000059BA002DEC8BF084CFCECDFCE5F0CBFC
:1007CC00F97818EF2FFFEE33FEED33FDEC33FCEB35
:1007DC0033FB10D703994004EB99FB0FD8E5E4F9F0
:1007EC00FA227818EF2FFFEE33FEED33FDEC33FCDD
:1007FC00C933C910D7059BE99A4007EC9BFCE99AD1
:10080C00F90FD8E0E4C9FAE4CCFB2275F010EF2F15
:10081C00FFEE33FEED33FDCC33CCC833C810D70715
:10082C009BEC9AE899400AED9BFDEC9AFCE899F850
:0E083C000FD5F0DAE4CDFBE4CCFAE4C8F922E3
:0E084A00C3E49FFFE49EFEE49DFDE49CFC22BF
:10085800EB9FF5F0EA9E42F0E99D42F0EC6480C817
:0608680064809845F022B7
:10086E00EB9FF5F0EA9E42F0E99D42F0E89C45F0E0
:01087E002257
:10087F00E8600FECC313FCED13FDEE13FEEF13FF57
:03088F00D8F1227B
:10089200E8600FEFC333FFEE33FEED33FDEC33FCC4
:0308A200D8F12268
:0C08A500E0FCA3E0FDA3E0FEA3E0FF22C6
:0C08B100E0F8A3E0F9A3E0FAA3E0FB22CA
:0C08BD00ECF0A3EDF0A3EEF0A3EFF022AE
:1008C900A8828583F0D083D0821208E01208E01252
:1008D90008E01208E0E473E493A3C583C5F0C58377
:1008E900C8C582C8F0A3C583C5F0C583C8C582C879
:0108F90022DC
:0C08FA00A42582F582E5F03583F5832209
:10090600FAE6FB0808E6F925F0F618E6CA3AF622F2
:10091600D083D082F8E4937012740193700DA3A370
:1009260093F8740193F5828883E473740293686084
:06093600EFA3A3A380DF84
:102BF400EFB40A07740D122BFF740A309811A899C8
:102C0400B8130CC2983098FDA899C298B811F63040
:072C140099FDC299F5992218
:00000001FF
