:03000000021F26B6
:0C1F2600787FE4F6D8FD758194021F6DF1
:1014B00004570000000041005B0041008C0C41001B
:1014C0008D404400840000000044006A00000000D9
:1014D00044006E000000004400A100000000440031
:1014E00091000000004400A80000000042007800C5
:1014F00001420068000041005F004100810042009D
:10150000AD000042006000004100590841008F001A
:101510004100AF00015B00015C004100A6004100FA
:1015200067004100720141007B0A410090004100C8
:101530008E0A410080004100820042005D000041AF
:10154000005A000282000002800000410066004153
:1015500000A50041008300107000000000000000A2
:10156000000000000000000000016C00016D00019F
:101570006F00016E00016B004A0097000000000040
:09158000000000000041005C00C5
:102946008E098F0A8B0B8A0C890DAF051DEF602649
:10295600050AE50AAE097002050914F5828E83E4BC
:1029660093FFAB0B050DE50DAA0C7002050C14F9CF
:07297600EF120AF680D422E3
:102BEE00E4FDFCC3ED9FEC9E50070DBD00010C8073
:012BFE00F2E4
:012BFF0022B3
:102A0F008F828E83E4F55AF559F558F557AF82AE9C
:102A1F0083E4FCFDAB5AAA59A958A857C3120C7DE1
:082A2F00500543BD1080E622B2
:102C0000E4FDFCC3ED9FEC9E50070DBD00010C8060
:012C1000F2D1
:012C110022A0
:10000300758E5190FE917401F0A37410F075BD5F6D
:0700130090FEA07420F02212
:102B4F00E490FE80F0758901758DFA758BCB43A8E3
:0E2B5F0008438840758CCB758AEB43881022A2
:1029AF0090FF10E054F04408F090FF02E054F04420
:1029BF0002F0D28490FFA07420F0A37404F075CCC1
:1029CF000675CEFF75CD98759E0275981043A810A9
:0129DF0022D5
:102BC00043B40343B4807F147E00122BEE75B5012D
:072BD00090FE9B744BF02204
:102B8B0090FF08E054F04408F090FF00E0540F442D
:0C2B9B0030F090FF11E054F04403F022F1
:0B2C2D008F99E59830E1FB5398FD22E1
:10274C008FB543B440E5B430E5FB53B4DF7F647E12
:10275C0000122BEEE4FBFAF943B440E5B430E5FB90
:10276C0053B4DFE5B62BFBE5B73AFA7F147E0012C3
:10277C002BEE09B910E275B501A9027F647E001237
:04278C002BEEAF0180
:012790002226
:10135A007B017A0079977D0A7F007E2F12294690B9
:10136A000097E0FFE4FCFDFE900062120CB49000CE
:10137A0062E0FCA3E0FDA3E0FEA3E0FF7808120C04
:10138A00A1900062120CB4900062E0F8A3E0F9A305
:10139A00E0FAA3E0FB900098E0FFE4FCFDFEEB2FEF
:1013AA00FFEE3AFEED39FDEC38FC900062120CB407
:1013BA00900062E0FCA3E0FDA3E0FEA3E0FFE47B73
:1013CA00E87A03F9F8120B3C900062120CB4E47F3D
:1013DA00307E75FDFC900062E0F8A3E0F9A3E0FA24
:1013EA00A3E0FBC3120C7D40177F007E097D3D7C84
:1013FA0000900062E0F8A3A3A3E0D3120C7D400A98
:10140A00900062120CC000009C40900099E090008D
:10141A00ACF0700280079000ACE0B4FE0374FFF0F9
:10142A0090009AE0FF90007DE4F0A3EFF0E0F8E48A
:10143A00F0E890007DF090009BE0FF90007EE02FA6
:10144A00F090007DE03400F0E0FEA3E0FF4E60097A
:10145A00D3EF9408EE9407400990007DE4F0A3745A
:10146A0005F090009CE090007BF0900082F09000E4
:10147A009DE0900073F06006E0D394FF4006900070
:10148A00737401F090009EE05401900072F07B01A9
:10149A007A00795C7D017F807E2F12294690005C5C
:0614AA00E0900080F0223A
:10003E00E55B600302090543B440E5B430E5FB53CC
:10004E00B4DF85B70985B60A900069E004F0700642
:10005E00900068E004F09000A8E0F8A3E0F9A3E0B7
:10006E00FAA3E0FBE4FCFDEB250AFFEA3509FEED01
:10007E0039FDEC38FC9000A8120CB4900095E0FE0F
:10008E00A3E0FFC3950AEE9509500DC3E50A9FF54F
:10009E000AE5099EF509800BC3EF950AF50AEE9560
:1000AE0009F50990006EE0F8A3E0F9A3E0FAA3E0E9
:1000BE00FBE4FCFDEB250AFFEA3509FEED39FDEC0C
:1000CE0038FC90006E120CB4900068E05401FEA350
:1000DE00E04E7061D39000AEE094009000ADE094DD
:1000EE0000401790008EE094645042E02402F0E04D
:1000FE00D3946440387464F08033900060E07004F0
:10010E00A3E06401702F90007BE0FF90008EE0FE74
:10011E00D39F4019EE94024004E024FEF090008E2E
:10012E00E0C39F500890007BE090008EF090008E10
:10013E00E0FF1229E0C3900068E09420500302090A
:10014E005043BD10E4F0A3F090008FE004F0900057
:10015E0091E0FCA3E0FDA3E0FEA3E0FF9000A8E089
:10016E00F8A3E0F9A3E0FAA3E0FBEF2BFFEE3AFED3
:10017E00ED39FDEC38FC900091120CB490008FE03C
:10018E00C394084043E4F0900091E0FCA3E0FDA38B
:10019E00E0FEA3E0FF7810120C8E900091120CB4CA
:1001AE00900091A3A3E0FEA3E0FF900096E02FF055
:1001BE00900095E03EF0E0C313F0A3E013F0900042
:1001CE0091120CC000000000900059E0C39408503A
:1001DE0005E004F080569000ADE07002A3E0704C94
:1001EE007F0A12274C90007CEFF09000A7E0FE24CF
:1001FE0002FDE433FCEFD39DEC6480F874809850DC
:10020E001E90007CE02402FDE433FCEED39DEC64F2
:10021E0080F874809850089000A7E090007CF090D1
:10022E00007CE09000A7F0E4900059F0E4FFFEFDA2
:10023E00FC90006AE0F8A3E0F9A3E0FAA3E0FBC3A8
:10024E00120C7D704F90006EE0FCA3E0FDA3E0FE6B
:10025E00A3E02488FFEE3413FEE43DFDE43CFC9065
:10026E00006A120CB4900078E07002A3E070257F53
:10027E00407E427D0FFC90006AE0F8A3E0F9A3E017
:10028E00FAA3E0FBD3120C7D400A90006A120CC058
:10029E00000F424090005BE0701E90006EE0FCA3E9
:1002AE00E0FDA3E0FEA3E0FF900084120CB49000EA
:1002BE0074120CC000000001900074E0FCA3E0FD7D
:1002CE00A3E0FEA3E0FF90006EE0F8A3E0F9A3E048
:1002DE00FAA3E02FFFEA3EFEE93DFDE83CFC90006C
:1002EE0084E0F8A3E0F9A3E0FAA3E0FBC3120C7DCF
:1002FE0040030206C4900074E0FCA3E0FDA3E0FE00
:10030E00A3E0FF900084E0F8A3A3A3E02FFFEA3E52
:10031E00FEE93DFDE83CFC90006EE0F8A3E0F9A399
:10032E00E0FAA3E0FBC3120C7D40030206C490006A
:10033E005BE004F09000A1E0FCA3E0FDA3E0FEA3CF
:10034E00E0FF90006EE0F8EF2BFFEE3AFEED39FD88
:10035E00EC38FC9000A1120CB490005BE0FBE4FAC8
:10036E00F9F89000A1E0FCA3E0FDA3E0FEA3E0FFFE
:10037E00120BC7900084120CB4900084E0FCA3E032
:10038E00FDA3E0FEA3E0FF7803120C8E9000741222
:10039E000CB4E47F207E4EFDFC900074E0F8A3E0E8
:1003AE00F9A3E0FAA3E0FBC3120C7D500A9000748F
:1003BE00120CC000004E20E47F607EEAFDFC90002F
:1003CE0074E0F8A3E0F9A3E0FAA3E0FBD3120C7DEE
:1003DE00400A900074120CC00000EA60900084E0A5
:1003EE00FCA3E0FDA3E0FEA3E0FF90006AE0F8A30B
:1003FE00E0F9A3E0FAA3E0FBD3120C7D407390006A
:10040E0084E0F8A3E0F9A3E0FAA3E0FB90006AE031
:10041E00FCA3E0FDA3E0FEA3E09BFFEE9AFEED99A8
:10042E00FDEC98FC9000A8120CB47F807E387D0104
:10043E007C009000A8E0F8A3E0F9A3E0FAA3E0FBAB
:10044E00D3120C7D400890008C7406F08029E47F56
:10045E00407E9CFDFC9000A8E0F8A3E0F9A3E0FA32
:10046E00A3E0FBD3120C7D90008C40087409F08041
:10047E000690008C740CF090008CE0FF90005BE016
:10048E00C39F500302055C90006AE0FCA3E0FDA34D
:10049E00E0FEA3E0FF900084E0F8A3E0F9A3E0FA09
:1004AE00A3E0FB120C7D400302055C90008DE094EE
:1004BE001050030206D390008CE0D3940950109094
:1004CE000084E0FCA3E0FDA3E0FEA3E0FF807690B5
:1004DE000084E0FCA3E0FDA3E0FEA3E024A0FFEE79
:1004EE00340FFEE43DFDE43CFC90006AE0F8A3E02E
:1004FE00F9A3E0FAA3E0FBD3120C7D50030206C46D
:10050E0090006AE0FCA3E0FDA3E0FEA3E0FF9000F4
:10051E0084E0F8A3E0F9A3E0FAA3E0FBEF2BFFEEF3
:10052E003AFEED39FDEC38FC90006A120CB49000E6
:10053E006AE0FCA3E0FDA3E0FEA3E0FFE47B02FA89
:10054E00F9F8120BC790006A120CB40206C49000A0
:10055E008DE0FF90005BE0C39F50030206D3900036
:10056E006AE0FCA3E0FDA3E0FEA3E024A0FFEE34CE
:10057E000FFEE43DFDE43CFC900084E0F8A3E0F9BE
:10058E00A3E0FAA3E0FBD3120C7D50030206B49055
:10059E00006AE0F8A3E0F9A3E0FAA3E0FB90008480
:1005AE00E0FCA3E0FDA3E0FEA3E09BFFEE9AFEEDD0
:1005BE0099FDEC98FC9000A8120CB47F007E127D81
:1005CE007A7C00900084E0F8A3E0F9A3E0FAA3E0BF
:1005DE00FBC3120C7D40030206B47F807E1A7D069B
:1005EE007C009000A8E0F8A3E0F9A3E0FAA3E0FBFA
:1005FE00C3120C7D40030206B490008DE0941040AF
:10060E000280587FE07E937D047C009000A8E0F885
:10061E00A3E0F9A3E0FAA3E0FBD3120C7D4008900F
:10062E00008D7410F080277FF07E497D027C009053
:10063E0000A8E0F8A3E0F9A3E0FAA3E0FBD3120CC4
:10064E007D90008D4005740CF080037408F09000CE
:10065E008DE0FF90005BE0C39F404B90006AE0FC92
:10066E00A3E0FDA3E0FEA3E0FF900084E0F8A3E08A
:10067E00F9A3E0FAA3E0FBEF2BFFEE3AFEED39FD16
:10068E00EC38FC90006A120CB490006AE0FCA3E017
:10069E00FDA3E0FEA3E0FFE47B02FAF9F8120BC71C
:1006AE0090006A120CB490008DE0FF90005BE0C3E6
:1006BE009F4012E48004E490005BF09000A1120CC5
:1006CE00C000000000900081E0D3940050030207A8
:1006DE0067E014F0900088E0FCA3E0FDA3E0FEA329
:1006EE00E02470FFEE3417FEE43DFDE43CFC900088
:1006FE006AE0F8A3E0F9A3E0FAA3E0FBD3120C7DC5
:10070E0050030208C1900088E0FCA3E0FDA3E0FEC8
:10071E00A3E02498FFEE343AFEE43DFDE43CFC9069
:10072E00006EE0F8A3E0F9A3E0FAA3E0FBC3120C1D
:10073E007D40030208C1900088E0FCA3E0FDA3E029
:10074E00FEA3E02470FFEE3417FEE43DFDE43CFC16
:10075E0090006A120CB40208C1D3900079E09400A4
:10076E00900078E094005003020828A3E024FFF0E4
:10077E00900078E034FFF0D3A3E09400900078E08E
:10078E00940050030208287F007E127D7A7C009030
:10079E00006AE0F8A3E0F9A3E0FAA3E0FBD3120CA1
:1007AE007D400C900062120CC0000C3500806B90E6
:1007BE000062E0FCA3E0FDA3E0FEA3E0FF90006A70
:1007CE00E0F8A3E0F9A3E0FAA3E02FFFEA3EFEE98A
:1007DE003DFDE83CFC9000A8120CB47F407E547D99
:1007EE00897C009000A8E0F8A3E0F9A3E0FAA3E06A
:1007FE00FBD3120C7D402390006AE0F8A3E0F9A32E
:10080E00E0FAA3E0FB74409BFF74549AFE7489993E
:10081E00FDE498FC900062120CB4900062E0FCA320
:10082E00E0FDA3E0FEA3E0FF90006AE0F8A3E0F98C
:10083E00A3E0FAA3E02FFFEA3EFEE93DFDE83CFC13
:10084E00A3E0F8A3E0F9A3E0FAA3E0FBD3120C7D3A
:10085E0040619000ACE0FF90007CE0D39F400FD34E
:10086E00900079E09400900078E09400404590006C
:10087E00ADE07002A3E0701490006AE0FCA3E0FD0E
:10088E00A3E0FEA3E0FF900088120CB49000ADE44C
:10089E00F0A304F0786EF67FDD122C2D90008D748F
:1008AE0008F0E4900060F0A3F07882F608F6788005
:1008BE00F608F69000A8120CC00000000090006E22
:1008CE00120CC0000000009000ADE0FEA3E0FFD3CC
:1008DE009400EE9400406B90007DE0FCA3E0FDD30D
:1008EE00EF9DEE9C405CE49000ADF0A3F0755B01D3
:1008FE00786EF6786BF622900060E4F0A304F0E4D4
:10090E00F55B90005DF0A3F090005AF07FFAFE12B6
:10091E002A0F900091120CC000000000E490008F8E
:10092E00F090008D7440F09000817402F0900059A8
:10093E007406F0E490005BF09000A1120CC0000071
:02094E000000A7
:010950002284
:10214400E4F50A9000A8120CC000000000E4F509B0
:1021540043B440E5B430E5FB53B4DF9000A8E0F8A5
:10216400A3E0F9A3E0FAA3E0FBAFB6AEB7E4FCFD4D
:10217400EB2FFFEA3EFEED39FDEC38FC9000A8128F
:102184000CB40509E509B480C77F907E01122A0FBB
:102194009000A8E0FCA3E0FDA3E0FEA3E0FF780B21
:1021A400120C8E8F09E509D3940C400CE509948D2B
:1021B4005006E50A9414500A050AE50AD3945040DF
:0221C400822275
:0121C60022F6
:1021C7009000A8120CC000000000E4F509E4F50C2B
:1021D700F50D43B440E5B430E5FB53B4DF85B70AEA
:1021E70085B60B9000A8E0F8A3E0F9A3E0FAA3E016
:1021F700FBE4FCFDEB250BFFEA350AFEED39FDECB0
:1022070038FC9000A8120CB4050DE50D7002050C02
:10221700B400BFE50CB420BA43BD100509E509B405
:1022270008AB9000A8E0FCA3E0FDA3E0FEA3E0FF5D
:0D2237007810120C8E900095EEF0A3EFF0E1
:012244002277
:1029E0007E007C007DFF120B2AAC06AD07E41209C5
:1029F000F6E4FBFA79C87842120954120A2F90FFC4
:0E2A00009C7410F075DEFF8FDF75DD947F0093
:012A0E0022A5
:100F9B00122BA7120003122B8B7F641229E0122B4A
:100FAB004F1229AF122BC075BBAA90FEA774FFF08E
:100FBB0053BBF7D2AF7FC87E00122A0F7F64122972
:100FCB00E09000A67401F07F0A12274C90007CEF92
:100FDB00F09000A7F0C2AF12135A900080E004F01B
:100FEB007F807E2F122A847F107E27122C00900088
:100FFB0080E0FF7D807C2F122A377F647E00122CCD
:10100B0000D2AF12214490007BE0FF90008EF012D3
:10101B0029E07F2C7E01122A0F1221C79000A81203
:10102B000CC000000000900080E0C394034005E476
:10103B00F0122AA9786DE6D39402502A18E66401BF
:10104B007024F608067F55122C2D7FAA122C2DE446
:10105B00FF122C2D7FB4122C2DE4FF122C2D122CF1
:10106B002D7FB3122C2D43BD10E55B700B900069E7
:10107B00E0541F70031211D9900072E064016003F9
:10108B00021183E55C703DF55B755C0190007BE0C4
:10109B0090008EF0900091120CC000000000E490C4
:1010AB00008FF090008D7440F09000817402F090EE
:1010BB0000597406F0E490005BF09000A1120CC094
:1010CB000000000012003ED3900061E094009000FD
:1010DB0060E09400403290005AE0B4012BE4F090B1
:1010EB000061E004F07006900060E004F090007383
:1010FB00E0FFC3900061E09F900060E09400400827
:10110B00E4F0A3F0FF1229E0D39000AEE09400903E
:10111B0000ADE0940040187881E664011846700F2A
:10112B00F608F6A3E004F070069000ADE004F0784A
:10113B006FE66401600302103118E6FF786B66708E
:10114B0003021031A6079000ADE4F0A304F0E4F520
:10115B0008E508C394084003021031E50825E02494
:10116B0070F8E6FA08E6FB4A600A900067E0FD7F3C
:10117B0071121FB2050880D9E4F55C900067E0702E
:10118B0007FF1229E0021031900082E0FF1229E0E4
:10119B00E4F55B90007BE090008EF0900091120CD8
:1011AB00C000000000E490008FF090008D7440F0C0
:1011BB009000817402F09000597406F0E490005B8B
:0E11CB00F09000A1120CC000000000021031D4
:03001B00021CA51F
:101CA500C0E0C0F0C083C082C0D075D000C000C005
:101CB50001C002C003C004C005C006C007AF5AAECC
:101CC50059AD58AC57EF2401F55AE43EF559E43DBA
:101CD500F558E43CF55790005EE004F0700690007E
:101CE5005DE004F090005DE0FEA3E0FFE4FCFD7B19
:101CF500607AEAF9F8D3120C67500C90005DE4F0B5
:101D0500A3F090005A04F0788306E618700106C324
:101D15007883E694E818E694034012786C760178A7
:101D250082760008760078807600087601D007D0A4
:101D350006D005D004D003D002D001D000D0D0D039
:081D450082D083D0F0D0E0321F
:03002300022705AC
:10270500C0E0C0F0C083C082C0D075D000C000C09A
:0D27150001C002C003C004C005C006C0071B
:0F272200E59830E00AAF991223315398FED2AFF9
:10273100D007D006D005D004D003D002D001D000FC
:0B274100D0D0D082D083D0F0D0E032A6
:03003B0002001AA6
:01001A0032B3
:102A840053BBF7C280E5BB20E3F6D280C2AF75FD2D
:102A9400F075FC0F8EFA8FF975FDD275FC2D75FD5E
:052AA400E175FC1E229B
:102A370053BBF7C280E5BB20E3F6D280C2AF8FFB62
:102A470075FDF075FC0F8CFA8DF975FDB475FC4BAF
:072A570075FDE175FC1E2274
:0415890002670000F5
:1022C000EFC39430400CEFD39439500674D02FFFF5
:1022D0008022EFC39441400CEFD394465006EF2484
:1022E000C9FF8010EFC39461400AEFD39466500495
:1022F000EF24A9FFEF540FC454F0FFEDC394304016
:102300000CEDD39439500674D02DFD801EEDC3948E
:10231000414008EDD394465002800CEDC3946140D7
:102320000AEDD394665004ED24A9FDED540F420745
:01233000228A
:06251F008B168A178918D3
:10252500E4F51CF51BF51AF519E94A4B7005FFFE94
:10253500FDFC22E4F51CF51BF51AF519AB1605187B
:10254500E518AA177002051714F9120AB06017E505
:102555001C2401F51CE4351BF51BE4351AF51AE4BA
:0E2565003519F51980D6AF1CAE1BAD1AAC1996
:012573002245
:062858008B398A3A893B2E
:10285E008B3F8A408941E94A4B7004FBFAF922E525
:10286E003E153EAE3D7002153D4E6014AB3F054128
:10287E00E541AA407002054014F9ED120AF680DF18
:06288E00AB39AA3AA93B98
:012894002221
:0619B3008B238A24892524
:1019B9008B2B8A2C892D85262E85272F852830E982
:1019C9004A4B6008E5284527452670077B007A00C1
:1019D900790022D3852F83853082E52D9582E52CE8
:1019E90095834019E530252AF9E52F3529FA8A83A7
:1019F9008982D3E52D9582E52C95834038E4F5312C
:101A0900F532C3E532952AE53195295067AB2EAAFF
:101A19002FA930853282853183120AC9AB2BAA2CB2
:101A2900A92D853282853183120B080532E5327082
:101A3900D1053180CD852931852A32D3E53294000B
:101A4900E5319400402EAB2EAA2FA930E53224FFB0
:101A5900FFE53134FFFE8F82F583120AC9AB2BAA49
:101A69002CA92D8F828E83120B08E532153270CB8B
:0A1A7900153180C7AB23AA24A9256C
:011A83002240
:102791008F668E658D648C637818120C8EEF120A29
:1027A100F6AF66AE65AD64AC637810120C8E900026
:1027B10001EF120B08AF66AE65AD64AC6378081229
:1027C1000C8E900002EF120B08E566FF900003EFFC
:0327D100020B08F0
:101DEF00E4F52DF52CF52BF52A120AB0FFE48F2D13
:101DFF00F52CF52BF52AAE2CAD2BAC2A7808120C4E
:101E0F00A18F2D8E2C8D2B8C2A900001120AC9FFC9
:101E1F00E52D4FF52DE52CF52CE52BF52BE52AF5CA
:101E2F002AAF2DAE2CAD2BFC7808120CA18F2D8E66
:101E3F002C8D2B8C2A900002120AC9FFE52D4FF52D
:101E4F002DE52CF52CE52BF52BE52AF52AAF2DAE3C
:101E5F002CAD2BFC7808120CA18F2D8E2C8D2B8C7A
:101E6F002A900003120AC9FFE52D4FF52DE52CF539
:101E7F002CE52BF52BE52AF52AAF2DAE2CAD2BFC3F
:011E8F002230
:062C5A0090001AE0FF22C9
:0C2C2100E490001AF0FDFC7F0402261A6B
:062C6000900017E0FF22C6
:082574008F5D8B5E8A5F8960B8
:10257C00E4FDFC900019E0B401037F0122AF05AE2D
:10258C0004AD5D120026AC06E4FD120026AC06E597
:10259C0061FD120026AC06AD62120026AC06AD073A
:1025AC00AB5EAA5FA9608561218562221228D8AC36
:0A25BC0006AD077F0712261A7F0103
:0125C60022F2
:04266D008D25AB0705
:10267100E4FDFC900019E0B401037F0122AF05AE37
:1026810004AD03120026AC067D01120026AC06E45F
:10269100FD120026AC067D01120026AC06AD07E551
:1026A100257003FD8006AF05AE047D01120026AC46
:0A26B10006AD077F0712261A7F010D
:0126BB0022FC
:021FB200A9077D
:101FB400E4FCF525F526900019E0B401037F012225
:101FC4007527557528AAE4F529752AB2F52B752CC1
:101FD400078A2D8B2E892F753001F531753201ED6D
:101FE4007004F5338003753301E4F536F53774274F
:101FF4002537F8E62CFC0537E53770020536640D05
:10200400453670EA8C3475250075260EE4F536F5F0
:1020140037E5261526AE25700215254E6014742763
:102024002537F8E6FF122C660537E53770E30536E9
:0420340080DF7F01C9
:012038002285
:021B4200A907F1
:101B4400E4FCF525F526900019E0B401037F012299
:101B54007527557528AAE4F529752AB2F52B752C35
:101B6400078A2D8B2E892F753001F531753201EDE1
:101B74007004F533802EBD01057533018026BD0246
:101B840005753302801EBD03057533038016BD043D
:101B940005753304800EBD05057533058006BD0645
:101BA40003753306E4F536F53774272537F8E62C44
:101BB400FC0537E53770020536640D453670EA8C4E
:101BC4003475250075260EE4F536F537E526152619
:101BD400AE25700215254E601474272537F8E6FFEC
:0F1BE400122C660537E5377002053680DF7F016A
:011BF30022CF
:021E9000AB079E
:101E9200E4FDFC900019E0B401037F0122AF05AE1E
:101EA20004AD03120026AC067D02120026AC06E445
:101EB200FD120026AC067D04120026C006C007AF44
:101EC2002CAE2BAD2AAC297818120C8EAD07D00798
:101ED200D006120026C006C007AF2CAE2BAD2AAC2E
:101EE200297810120C8EAD07D007D006120026C03A
:101EF20006C007AF2CAE2BAD2AAC297808120C8E87
:101F0200AD07D007D006120026AC06C007E52CFFAD
:101F1200E4AD07D007120026AC06AD077F071226F4
:031F22001A7F0122
:011F25002299
:021A8400AD07AC
:101A8600E4FBF52FF530900019E0B401037F012245
:101A9600788476550876AAE408F60876B208F60839
:101AA600760AE52D08F608A62E08A605087602E4AD
:101AB60008F6087604AF2CAE2BAD2AAC297818129E
:101AC6000C8E7890A607AF2CAE2BAD2AAC297810D9
:101AD600120C8E7891A607AF2CAE2BAD2AAC2978C6
:101AE60008120C8E7892A607E52CFFE408A607F5E7
:101AF60031F53274842532F8E62BFB0532E5327077
:101B06000205316410453170EA7894A603752F00FA
:101B1600753011E4F531F532E5301530AE2F70022F
:101B2600152F4E601474842532F8E6FF122C6605D4
:0B1B360032E5327002053180DF7F01D4
:011B41002281
:0825C7008F168B178A18891981
:1025CF00E4FDFC900019E0B401037F0122AF05AEDA
:1025DF0004AD16120026AC067D03120026AC06E5EC
:1025EF001AFD120026AC06AD1B120026AC06AD0775
:1025FF00AB17AA18A919851A21851B221228D8AC46
:0A260F0006AD077F0712261A7F01AF
:01261900229E
:0427D4008D25AB079D
:1027D800E4FDFC900019E0B401037F0122AF05AECF
:1027E80004AD03120026AC067D04120026AC06E4F4
:1027F800FD120026AC067D01120026AC06AD25129E
:0D2808000026AC06AD077F0712261A7F01DF
:0128150022A0
:0218CB00AD0767
:1018CD00E4F547F548900019E0B401037F0122AF1C
:1018DD0048AE471200268E478F487D051200268E92
:1018ED00478F48E4FD1200268E478F4874FFFFE5B1
:1018FD0045FEE544FDE543FCE47BFFFAF9F8C31230
:10190D000C7D70117D01AF48AE471200268E478FBA
:10191D0048AD46807E74FFFFFEE544FDE543FCE4E3
:10192D007BFF7AFFF9F8C3120C7D70047D028036BF
:10193D007D04AF48AE471200268E478F48AF46AEA6
:10194D0045AD44AC437818120C8EAD07AF48AE4789
:10195D001200268E478F48AF46AE45AD44AC437856
:10196D0010120C8EAD07AF48AE471200268E478F72
:10197D0048AF46AE45AD44AC437808120C8EAD076A
:10198D00AF48AE471200268E478F48E546FFE4ADBF
:10199D0007AF481200268E478F48AD48AC477F07EA
:0519AD0012261A7F0163
:0119B2002212
:082C38008C258D26120AB0FF65
:012C40002271
:082C41008C258D26120AB0FF5C
:012C49002268
:072C4A008C288D29121DEFFB
:012C51002260
:102331008F38D3855583855682E5539582E552952D
:10234100834015E5539556FFE5529555FEC3EF942D
:1023510017EE648094805048C3855583855682E585
:10236100539582E5529583500DC3E5569553FFE58C
:102371005595524F602AC3900017E5539582E55257
:1023810095834009755101755200755300AB510594
:1023910053E553AA527002055214F9E538120AF6B0
:0123A1002219
:1011D900E4F509F50AF50BF50CC3E568941FE56715
:1011E90094005024122B6DEFD39400401B12281643
:1011F9000568E568AC677002056714241BF58274FD
:10120900003CF583EFF080D1C3E5689407E5679466
:10121900005003021359C3E568950AFFE56795096C
:10122900FEC3EF9407EE94005003021322741B25AA
:101239000AF58274003509F583E06455600A050AE8
:10124900E50A70D2050980CE741C250AF58274005E
:101259003509F583E064AA600A050AE50A70B7054D
:101269000980B3741D250AF58274003509F583E0F8
:10127900600474028038741F250AF58274003509E8
:10128900F583E0FE7420250AF58274003509F5839B
:10129900E07C002400FFEC3ECF2407F50CE43FF589
:1012A9000BD3E50C9426E50B940040097403250A39
:1012B900F50AE4805DC3E568950AFFE5679509FECF
:1012C900C3EF950CEE950B4050741B250AF9740079
:1012D9003509FA7B01E50C24FFFDE50B34FFFC120F
:1012E900297DE50A250CFDE509350BFC741A2DF558
:1012F9008274003CF583E06F60097403250AF50ADE
:10130900E4800FAF0AAE09120D17E50C250AF50A9C
:10131900E50B3509F50902121FC3E568950AF56859
:10132900E5679509F567D3E5689400E5679400409A
:101339001F741B250AF974003509752601F52789DB
:101349002885672985682A7B017A00791B1219B3D8
:011359002271
:102BA70075510175520075530075540175550075BF
:092BB700560090001774FFF02293
:05001E00313031320019
:10158D004100B4004400B000000000014E00014BCA
:10159D0000014A00014900014D00014C00014F00BE
:1015AD005A00B5010103026504660267016802690C
:0D15BD00026A026B026C026D037101720183
:102AA9007F55122C2D7FAA122C2DE4FF122C2D7F7D
:102AB90004122C2DE4FF122C2DE4FF122C2D7F0380
:032AC900022C2DAF
:032C6600022C2D10
:1016E000900000E0FD7F0112266D900067E0FD7F15
:1016F0007112266D90007BE0FFE48F2CF52BF52A0C
:10170000F5297F03121E909000ACE0FFB4FF05E4C2
:10171000F515801EEFB4C8057515028015EFB428C5
:1017200005751503800CEFB4140575150480037559
:101730001505AD157F651227D490007DE0FEA3E06E
:10174000FFE48F2C8E2BF52AF5297F66121E9090D0
:101750000072E0FD7F6712266D900073E0FFE48F5A
:101760002CF52BF52AF5297F68121E90E47B107A60
:1017700027F9F8900062E0FCA3E0FDA3E0FEA3E0FF
:10178000FF120BC7C374329FFFE48F2CF52BF52A91
:10179000F5297F69121E90E4752C0AF52BF52AF5C0
:1017A000297F6A121E90E4752C0BF52BF52AF5297A
:1017B0007F6B121E90E4752C0CF52BF52AF5297F12
:1017C0006C121E907BFF7A00791E751A00751B043F
:0E17D0007F6D1225C7786FE6FD7F7202266DD1
:102BD700122C38900000EFF0FD7F0112266DBF0127
:062BE700037F01227F00C4
:012BED0022C5
:10203900122C4A8F268E258D248C23054A90007BED
:10204900E0FFE4FCFDFEAB26AA25A924A823C312C0
:102059000C7D6032E4F54AF527E52725E02470F880
:10206900E6FA08E6FB4A601585262C85252B85248A
:102079002A8523298A2D8B2E7F03121A840527E5A9
:1020890027C3940840D3AF2690007BEFF0900072ED
:10209900E07005900082EFF01217DE90007BE0FF00
:1020A900E48F2CF52BF52AF5297F03121E90BF0129
:0620B900037F01227F00FD
:0120BF0022FE
:101D4D00122C418F2305499000B4E0B52317E523EC
:101D5D00640570359000ACE0FF90007CE06F602969
:101D6D00E4F5498024E4F549F524E52425E02470C3
:101D7D00F8E6FA08E6FB4A6007AD237F65121B42C1
:101D8D000524E524C3940840E1E523146010146094
:101D9D001514601A14601F14602424057028900017
:101DAD00AC74FFF080209000AC74C8F080189000E7
:101DBD00AC7428F080109000AC7414F08008900082
:101DCD007CE09000ACF09000B4E523F01217DE90AB
:101DDD0000B4E0FD7F651227D4BF01037F01227F90
:011DED0000F5
:011DEE0022D2
:1020C000122C4A8F268E258D248C23054D90007D61
:1020D000E0FEA3E0FFE4FCFDAB26AA25A924A8238B
:1020E000C3120C7D6032E4F54DF527E52725E02489
:1020F00070F8E6FA08E6FB4A601585262C85252B44
:1021000085242A8523298A2D8B2E7F66121A840521
:1021100027E527C3940840D390007DE525F0A3E58B
:1021200026F01217DE90007DE0FEA3E0FFE48F2C86
:102130008E2BF52AF5297F66121E90BF01037F01C1
:03214000227F00FB
:012143002279
:1024C900122C388F23054B900072E065236024E4B9
:1024D900F54BF524E52425E02470F8E6FA08E6FB37
:1024E9004A6007AD237F67121FB20524E524C39410
:1024F9000840E1E5239000727003F080037401F055
:102509001217DE900072E0FD7F6712266DBF01038E
:052519007F01227F009C
:01251E00229A
:10224500122C4A8F268E258D248C23054C900073E5
:10225500E0FFE4FCFDFEAB26AA25A924A823C312B2
:102265000C7D6032E4F54CF527E52725E02470F870
:10227500E6FA08E6FB4A601585262C85252B85247C
:102285002A8523298A2D8B2E7F68121A840527E536
:1022950027C3940840D3900073E526F01217DE900B
:1022A5000073E0FFE48F2CF52BF52AF5297F6812E2
:0A22B5001E90BF01037F01227F008D
:0122BF0022FC
:101BF400122C4A8F268E258D248C23054F9000B0FD
:101C0400E0FCA3E0FDA3E0FEA3E0FFAB26AA25A928
:101C140024A823C3120C7D6032E4F54FF527E52791
:101C240025E02470F8E6FA08E6FB4A601585262CC0
:101C340085252B85242A8523298A2D8B2E7F6912BD
:101C44001A840527E527C3940840D3AF26AE25ADF3
:101C540024AC239000B0120CB4C374329526FFE474
:101C64009525FEE49524FDE49523FCE47B107A2776
:101C7400F9F8120B3C900062120CB41217DE9000BB
:101C8400B0E0FCA3E0FDA3E0FEA3E0F52C8E2B8DD9
:101C94002A8C297F69121E90BF01037F01227F00D5
:011CA400221D
:102ACC00122C4A8F268E258D248C238F2C8E2B8DA9
:102ADC002A8C297F6A121E90BF01037F01227F007E
:012AEC0022C7
:102AED00122C4A8F268E258D248C238F2C8E2B8D88
:102AFD002A8C297F6B121E90BF01037F01227F005C
:012B0D0022A5
:102B0E00122C4A8F268E258D248C238F2C8E2B8D66
:102B1E002A8C297F6C121E90BF01037F01227F0039
:012B2E002284
:10240800122C388F23054E900067E065236024E482
:10241800F54EF524E52425E02470F8E6FA08E6FBF5
:102428004A6007AD237F71121FB20524E524C394C7
:102438000840E1E5237006900067F0801190007273
:10244800E0B40104786E76019000677401F09000A2
:1024580067E0FD7F7112266DBF01037F01227F00B7
:012468002251
:1026BC00122C388F23E523786F666022E4F524E52D
:1026CC002425E02470F8E6FA08E6FB4A6007AD23FF
:1026DC007F72121FB20524E524C3940840E1E52360
:1026EC00786F7003F680027601AD237F7212266D2F
:0826FC00BF01037F01227F00F2
:0127040022B2
:0615CE008B1D8A1E891F1F
:1015D400EF120CF1160001162F03163F65164F6625
:1015E400165E67166D68167C69168B6A169A6B16FA
:1015F400A96C16B87116C772000016D8AB1DAA1EC6
:10160400A91FAD21AC20122BD78F22E522640160E3
:10161400030216DD900090E004F0E0C3940550034B
:101624000216DDE4F0122AA90216DDAB1DAA1EA9DA
:101634001FAD21AC201220390216D4AB1DAA1EA95D
:101644001FAD21AC20121D4D0216D4AB1DAA1EA93C
:101654001FAD21AC201220C08076AB1DAA1EA91F8D
:10166400AD21AC201224C98067AB1DAA1EA91FADF1
:1016740021AC201222458058AB1DAA1EA91FAD2102
:10168400AC20121BF48049AB1DAA1EA91FAD21ACCE
:1016940020122ACC803AAB1DAA1EA91FAD21AC2072
:1016A400122AED802BAB1DAA1EA91FAD21AC20125E
:1016B4002B0E801CAB1DAA1EA91FAD21AC20122429
:1016C40008800DAB1DAA1EA91FAD21AC201226BC9B
:0B16D4008F228000E4900090F0AF2215
:0116DF0022E8
:032C69007F0D22BA
:1017DE007F007E2F122A847F107E27122C00E47B3E
:1017EE00E87A03F9F8900062E0FCA3E0FDA3E0FEC6
:1017FE00A3E0FF120BC77808120C8E7D007C2F120F
:10180E002A377F647E00122C00E47BE87A03F9F815
:10181E00900062E0FCA3E0FDA3E0FEA3E0FF120B4C
:10182E00C7E47D017C2F122A377F647E00122C00C4
:10183E009000ACE0FF7D027C2F122A377F647E0081
:10184E00122C0090007DE0FF7D037C2F122A377F43
:10185E00647E00122C0090007DA3E0FF7D047C2F9F
:10186E00122A377F647E00122C0090007BE0FF7DF1
:10187E00057C2F122A377F647E00122C0090007395
:10188E00E0FF7D067C2F122A377F647E00122C002B
:10189E00900072E0FF7D077C2F122A377F647E0056
:1018AE00122C007F807E2F122A847F107E27122C0E
:0C18BE00007D807C2FE4FF122A37D2AF9F
:0118CA0022FB
:0F2C12003667736A6E36767300312E302E3000BF
:0315CA00015000CD
:1000260074402FF974003EFA7B01ED120AF60FBFF9
:0300360000010EB8
:0100390022A4
:0628D200AF157E007BFF44
:0A28D8008E1C8F1D8B1E8A1F8920A5
:1028E20074402FF974003EFA7B01851E26851F274E
:1028F20085202885212985222A1219B3E522251D42
:0B290200F51DE521351CF51CFEAF1D86
:01290D0022A7
:102895008B2F8A3089318C328D33E94A4B602DE597
:1028A5003345326027E5331533AE32700215324EAB
:1028B500601AAB2FAA30A931120AB0FF122C667428
:0D28C500012531F531E43530F53080D922A0
:0A297D008B2F8A3089318C328D33A4
:10298700E4FFFDFCC3ED9533EC9532501AAB2F05F0
:1029970031E531AA307002053014F9120AB02FFF61
:0729A7000DBD00010C80DDF5
:0129AE002206
:04261A008C2D8D2E48
:10261E0090003A7455F0A374AAF0E4A3F0A3EFF07F
:10262E00E52DA3F0E52EA3F02407F52EE4352DF5C8
:10263E002D7B017A00793AE52E24FFFDE52D34FF3E
:10264E00FC12297D7439252EF5827400352DF58303
:0F265E00EFF07B017A00793AAD2EAC2D02289572
:0423A2008C698D6A4B
:1023A6007402256AF56AE43569F56990003A745550
:1023B600F0A374AAF0E4A3F0A3EFF0E569A3F0E5B7
:1023C6006AA3F0A374FFF0A3F07407256AF56AE424
:1023D6003569F5697B017A00793AE56A24FFFDE5FE
:1023E6006934FFFC12297D7439256AF5827400353B
:1023F60069F583EFF07B017A00793AAD6AAC690240
:02240600289517
:102B2F00E4FFE550700AFEFD120026755001800784
:102B3F007E007D01120026EFFD7C00E4FF02261AC5
:10290E00E4F5157BFF7A2C791212251F8E218F226A
:10291E007A2C79121228D28F157BFF7A2C791B1202
:10292E00251F8E218F227A2C791B1228D28F15EF1C
:08293E00FD7C007F0102261A56
:082C5200E4FDFC7F0202261ADA
:022A5E008F1CCB
:102A6000122C69E4FEEEC39F501775F002EEA42409
:102A7000B5F582E5F03400F583E0651C60030E8057
:032A8000E4AF06BA
:012A83002230
:062469008B158A1689178D
:10246F00120AB0F518900001120AC9F5199000026E
:10247F00120AC9751B00F51A900003120AC9251B11
:10248F00F51BE4351AF51AAF18122A5E75F002EF34
:10249F00A424B6F582E5F03400F583E065196003F6
:1024AF007F0022AB15E5172404F9E43516FA851AD7
:0924BF0020851B21AF181215CE77
:0124C80022F1
:040D17008E0D8F0EA0
:100D1B00741E2FF58274003EF583E0FF244C7003A4
:100D2B00020E1E24B4B409004003020F9A900D3F2B
:100D3B00F8282873020D5A020D5D020D60020D6337
:100D4B00020D7C020F9A020D83020F9A020F97027B
:100D5B002B2F02290E022C527421250EF5827400C2
:100D6B00350DF583E0900017F0E4FDFC7F030226C0
:100D7B001A90001A7401F022741F250EF58274006C
:100D8B00350DF583E0751400F5137420250EF582EF
:100D9B007400350DF583E02514F514E43513F513C4
:100DAB00E4F511F512C3E5129514E5119513400303
:100DBB00020F9AE50E2512FDE50D3511FC74232D5E
:100DCB00F58274003CF583E0751000F50F74242D4B
:100DDB00F58274003CF583E02510F510E4350FF532
:100DEB000F7421250EF97400350DFA7B01E92512DC
:100DFB00F9EA3511FA122469BF01031217DEE51067
:100E0B002404FFE4350FFEEF2512F512EE3511F534
:100E1B00118092741F250EF5827400350DF583E059
:100E2B00751400F5137420250EF5827400350DF53D
:100E3B0083E02514F514E43513F5137422250EF510
:100E4B00827400350DF583E0F8E47971F7E819F752
:100E5B007423250EF5827400350DF583E078712629
:100E6B00F618E436F67424250EF5827400350DF56C
:100E7B0083E0F8E47973F7E819F77425250EF5820A
:100E8B007400350DF583E0787326F618E436F674A6
:100E9B0026250EF5827400350DF583E0F8E479759F
:100EAB00F7E819F77427250EF5827400350DF583D5
:100EBB00E0787526F618E436F67428250EF582745C
:100ECB0000350DF583E0F8E47977F7E819F7742925
:100EDB00250EF5827400350DF583E0787726F6182C
:100EEB00E436F6742A250EF5827400350DF583E091
:100EFB00F8E47979F7E819F7742B250EF58274006D
:100F0B00350DF583E0787926F618E436F6742C2542
:100F1B000EF5827400350DF583E0F8E4797BF7E884
:100F2B0019F7742D250EF5827400350DF583E078D5
:100F3B007B26F618E436F6742E250EF582740035F2
:100F4B000DF583E0F8E4797DF7E819F7742F250E9A
:100F5B00F5827400350DF583E0787D26F618E436BE
:100F6B00F67430250EF5827400350DF583E0F8E448
:100F7B00797FF7E819F77431250EF5827400350D7A
:0F0F8B00F583E0787F26F618E436F6221216E09A
:010F9A002234
:102B6D00E5548555838556826551700AE553658216
:0E2B7D007004E552658360037F01227F002211
:10281600E5518552838553826554700AE556658273
:102826007004E55565836029C3900017E5569582C7
:10283600E55595834009755401755500755600ABED
:10284600540556E556AA557002055514F9120AB0F4
:01285600FF82
:01285700225E
:10095100020AA5EC5D046005E859047003020A9BD4
:10096100120A66580460F6EC4860F2EC7004FDFE71
:10097100FF22C860DB2481C85009C3986002500679
:10098100020AA29850CAF582E9294B4A7005AB8246
:10099100020A9175F0007C1A7880C3EF9BEE9AED04
:1009A10099400DC3EF9BFFEE9AFEED99FDE842F0F1
:1009B100DC23ACF0D0E0FFD0E0FED0E0FDAB822044
:1009C100E7101BEB60BAEC2CFCEF33FFEE33FEEDCE
:1009D10033FD020A7DE803F830E705C0F075F00049
:1009E100EF2FFFEE33FEED33FD40B830E7C280AAB2
:1009F10075F020800E75F010800575F0087D007E81
:100A0100007F003392D530D503120C59EC334010DE
:100A1100EF33FFEE33FEED33FDEC33FCD5F0ED2289
:0E0A2100E5F0247EA2D513CC92E7CDCEFF22C5
:100A2F00EDD2E7CD33EC3392D524814006E4FFFEBF
:100A3F00FDFC22FCE4CFCECDCC24E0501174FF801E
:100A4F00EDC3CC13CCCD13CDCE13CECF13CF0470BB
:070A5F00F030D5DE020C5956
:100A6600E9D2E7C933E833F892D5EDD2E7CD33ECD6
:070A760033FC5002B2D5224F
:100A7D00EC30E7100FBF000C0EBE00080DBD0004DA
:100A8D000BEB6014A2D5EB13FCED92E7FD2274FF86
:100A9D00FCFDFEFF22E480F8A2D574FF13FC7D80DF
:030AAD00E480EFF3
:101F3200020F9BE493A3F8E493A34003F68001F21B
:101F420008DFF48029E493A3F85407240CC8C333B0
:101F5200C4540F4420C8834004F456800146F6DF7F
:101F6200E4800B01020408102040809014B0E47E4B
:101F7200019360BCA3FF543F30E509541FFEE49374
:101F8200A360010ECF54C025E060A840B8E493A33B
:101F9200FAE493A3F8E493A3C8C582C8CAC583CA66
:101FA200F0A3C8C582C8CAC583CADFE9DEE780BE1E
:0115CD00001D
:100AB000BB010689828A83E0225002E722BBFE0244
:090AC000E32289828A83E4932277
:100AC900BB010CE58229F582E5833AF583E02250E2
:100AD90006E92582F8E622BBFE06E92582F8E2222C
:0D0AE900E58229F582E5833AF583E4932246
:100AF600BB010689828A83F0225002F722BBFE01DF
:020B0600F322D8
:100B0800F8BB010DE58229F582E5833AF583E8F023
:100B1800225006E92582C8F622BBFE05E92582C8CF
:020B2800F222B7
:100B2A00EF8DF0A4A8F0CF8CF0A428CE8DF0A42EDF
:020B3A00FE2299
:100B3C00E88FF0A4CC8BF0A42CFCE98EF0A42CFC58
:100B4C008AF0EDA42CFCEA8EF0A4CDA8F08BF0A4D6
:100B5C002DCC3825F0FDE98FF0A42CCD35F0FCEB35
:100B6C008EF0A4FEA9F0EB8FF0A4CFC5F02ECD39FA
:0F0B7C00FEE43CFCEAA42DCE35F0FDE43CFC2267
:100B8B0075F008758200EF2FFFEE33FECD33CDCC21
:100B9B0033CCC58233C5829BED9AEC99E5829840A4
:100BAB000CF582EE9BFEED9AFDEC99FC0FD5F0D681
:100BBB00E4CEFBE4CDFAE4CCF9A88222B800C1B9AB
:100BCB000059BA002DEC8BF084CFCECDFCE5F0CBE9
:100BDB00F97818EF2FFFEE33FEED33FDEC33FCEB22
:100BEB0033FB10D703994004EB99FB0FD8E5E4F9DD
:100BFB00FA227818EF2FFFEE33FEED33FDEC33FCCA
:100C0B00C933C910D7059BE99A4007EC9BFCE99ABD
:100C1B00F90FD8E0E4C9FAE4CCFB2275F010EF2F02
:100C2B00FFEE33FEED33FDCC33CCC833C810D70702
:100C3B009BEC9AE899400AED9BFDEC9AFCE899F83D
:0E0C4B000FD5F0DAE4CDFBE4CCFAE4C8F922D0
:0E0C5900C3E49FFFE49EFEE49DFDE49CFC22AC
:100C6700EB9FF5F0EA9E42F0E99D42F0EC6480C804
:060C770064809845F022A4
:100C7D00EB9FF5F0EA9E42F0E99D42F0E89C45F0CD
:010C8D002244
:100C8E00E8600FECC313FCED13FDEE13FEEF13FF44
:030C9E00D8F12268
:100CA100E8600FEFC333FFEE33FEED33FDEC33FCB1
:030CB100D8F12255
:0C0CB400ECF0A3EDF0A3EEF0A3EFF022B3
:100CC000A8828583F0D083D082120CD7120CD71261
:100CD0000CD7120CD7E473E493A3C583C5F0C58386
:100CE000C8C582C8F0A3C583C5F0C583C8C582C87E
:010CF00022E1
:100CF100D083D082F8E4937012740193700DA3A392
:100D010093F8740193F5828883E4737402936860A5
:060D1100EFA3A3A380DFA5
:00000001FF
