:030000000220D10A
:0C20D100787FE4F6D8FD758181022118AB
:1018EE00041A0000000041007B004100B10C4100D1
:1018FE00B2404400A80000000044008B000000002D
:10190E0044008F000000004400CE000000004400A0
:10191E00B8000000004400D50000000042009C000A
:10192E00014200890000410080004100A6004200F3
:10193E00DA00004200810000410075084100B40049
:10194E004100DC00011E00011F004100D3004100D8
:10195E0088004100930141009E0A4100B7004100FA
:10196E00B30A4100A5004100A70042007E000041DD
:10197E0000770002800000027E0000017C00017BE7
:10198E000001790041007D00410087004200940073
:10199E00004200A300004100D20041007800420046
:1019AE007900004100760041009B0041009F0041FC
:1019BE0000B000017D00017A004200B50000500029
:1019CE00BE0000000000000000000000000000004B
:0519DE000041007C0047
:10166C00EF24A0FFEE340FFEE43DFDE43CFC120839
:10167C00C9D3020886E49000B4F09000B27440F034
:10168C009000A67402F09000757406F0E490007B54
:10169C00F09000CE2290008B1208BD9000A812088A
:1016AC00C912072A90008B1208D590008B0208BD36
:1016BC009000A81208C9C3020886E4FCFD12072A90
:1016CC009000D50208D59000AC1208BDEF2470FF35
:1016DC00EE3417FEE43DFDE43CFC90008B22122D11
:1016EC00EFE47BE87A03F9F89000830208BD9000E0
:1016FC00B2E0FF90007BE0C39F22D390009DE0946A
:10170C000090009CE0940022E475F0010207141292
:10171C0008BD90008F1208C902072A1206ADAC064C
:10172C00AD07E41201DBE4FBFA79C8784202013917
:10173C009000830208D59000A80208BDE4FFFEFDCE
:10174C007C3F120045020214F0E0540F4480F0225A
:10175C00D39000DBE094009000DAE094002290003B
:10176C009EE09000B3F0227F071227249000A0EF98
:10177C00F09000D422F09000B80208BD9000D50281
:10178C0008C9D39DEC6480F874809822E47B02FA3B
:10179C00F9F80207D090008B0208C97E2F122CFB9F
:0F17AC007F107E27227C2F122C617F647E00220B
:102AFA008E238F248B258A268927AF051DEF602117
:102B0A000524E524AE237002052314F5828E83E49E
:102B1A0093FF7825E475F00112091EEF12067980F9
:022B2A00D922AE
:102E7400E4FDFCC3ED9FEC9E50070DBD00010C80EA
:012E8400F25B
:012E8500222A
:102C11008F828E83E4F51DF51CF51BF51AAF82AE8C
:102C210083E4FCFDAB1DAA1CA91BA81AC3120886CC
:082C3100500543BD1080E622AE
:092DE600E0FF7C2F122C617F64D8
:102DEF00E4FDFCC3ED9FEC9E50070DBD00010C8070
:012DFF00F2E1
:012E000022AF
:10000300758E5190FE917401F0A37410F075BD5F6D
:0700130090FEA07420F02212
:102DAA00E490FE80F0758901758DFA758BCB43A886
:0E2DBA0008438840758CCB758AEB4388102245
:102B5E0090FF10E054F04408F090FF02E054F0446F
:102B6E0002F0D28490FFA07420F0A37404F075CC10
:102B7E000675CEFF75CD98759E0275981043A810F8
:012B8E002224
:102E1C0043B40343B4807F147E00122E74E4F5B5E2
:072E2C0090FE9B744BF022A5
:102BBE0090FF0812175590FF00E054F044031217CF
:102BCE0054A3E054F0440812175490FF03E0540F3E
:0A2BDE004430F090FF131217552247
:0B2EA1008F99E59830E1FB5398FD226B
:102724008FB543B440E5B430E5FB53B4DF7F647E3A
:1027340000122E74E4FBFAF943B440E5B430E5FB2F
:1027440053B4DFE5B62BFBE5B73AFA7F147E0012EB
:102754002E7409B910E275B502E4F5B5A9027F64D7
:06276400FE122E74AF010D
:01276A00224C
:1017BB007B017A0079BE7D107F007E2F122AFA9072
:1017CB0000BEE0FFE4FCFDFE12173C1216F4780895
:1017DB001208AA12173C9000831208C99000BFE0B0
:1017EB00FFE4FCFDFE12072A12173C1216F4E47BF1
:1017FB00E87A03F9F812074512173CE47F307E753F
:10180B00FDFC9000831216BF40107F007E097D3DCA
:10181B007C0090008312167A400A9000831208E134
:10182B0000009C409000C0E09000D9F0700280074F
:10183B009000D9E0B4FE0374FFF09000C1E0FF907C
:10184B0000A1E4F0A3EFF0E0F8E4F0E89000A1F0E1
:10185B009000C2E0FF9000A1E48FF01207149000FB
:10186B00A1E0FEA3E0FF4E6009D3EF9408EE9407CE
:10187B0040099000A1E4F0A37405F09000C3E09040
:10188B00009EF09000A7F09000C4E0900096F060EE
:10189B0006E0D394FF40069000967401F09000C5CB
:1018AB00E0F45401900093F09000C6E05401787C72
:1018BB00F6A3E05401900088F09000C8E05401902A
:1018CB000087F09000C9E090007DF07B017A0079F1
:1018DB007C7D017F807E2F122AFA90007CE09000A5
:0318EB00A5F02243
:10095400E51E6003020E2B43B440E5B430E5FB53BF
:10096400B4DF85B72385B6249000891217141217B3
:1009740088AE23AF241216C69000BCE0FEA3E0FFAD
:10098400C39524EE9523500DC3E5249FF524E52358
:100994009EF523800BC3EF9524F524EE9523F523D0
:1009A40090008F1208C9AE23AF24E4FCFD12072A7D
:1009B40090008F1208D5900089E05401FEA3E04E08
:1009C400705212175C40179000B3E09464503DE0FD
:1009D4002402F0E0D3946440337464F0802E9000D9
:1009E40081E07004A3E06401702A90009EE0FF900F
:1009F40000B3E0FED39F4014EE94024004E024FED2
:100A0400F09000B3E0C39F500312176A9000B3E064
:100A1400FF12233FC3900089E094205003020E5A32
:100A240043BD10E4F0A3F09000B4E00412178190E9
:100A340000D51217219000B81208D59000B4E0C375
:100A440094084030E412178178101208979000B887
:100A54001208D51217829000BCEE8FF01207149082
:100A640000BCE0C313F0A3E013F09000B81208E157
:100A740000000000900075E0C394085005E004F005
:100A840080409000DAE07002A3E07036121773E041
:100A9400FE2402FDE433FCEF12178E50189000A0E0
:100AA400E02402FDE433FCEE12178E50089000D4CB
:100AB400E09000A0F09000A0E09000D4F0E490005A
:100AC40075F0E4FFFEFDFC90008B1216BF703690AB
:100AD400008F1208BDEF2488FFEE34131216DF12C4
:100AE40008D590009CE07002A3E070197F407E421C
:100AF4007D0FFC90008B12167A400A90008B12082E
:100B0400E1000F424090007BE0701690008F1208C5
:100B1400BD9000A81208D59000971208E1000000CB
:100B24000190009712171B1216BC4003020CD990B7
:100B340000971208BD9000A812172190008F12167A
:100B4400BF4003020CD990007BE004F09000CE1269
:100B5400171B9000CE1208D590007BE0FFFBE4FA4F
:100B6400F9F89000CE1208BD1207D09000A8120820
:100B7400D512174278031208979000971208D5E40B
:100B84007F207E4EFDFC9000971216BF500A900005
:100B9400971208E100004E20E47F607EEAFDFC909D
:100BA400009712167A400A9000971208E10000EAB2
:100BB4006012174290008B12167A403E9000A812E1
:100BC40008C91216B61207371216CC7F807E387DFC
:100BD400017C009000D512167A40089000B174068A
:100BE400F0801DE47F407E9CFDFC9000D512167AB7
:100BF4009000B140087409F080069000B1740CF0C4
:100C04009000B11216FD403B1216B61216BC5033BA
:100C14009000B2E094105003020CE89000B1E0D3CD
:100C240094095005121742801112174290008B123A
:100C3400166C400C1216A112179890008B1208D54E
:100C4400020CD91216FA5003020CE81216B69000E0
:100C5400A812166C40771217A11217421207371206
:100C640016CC7F007E127D7A7C001216BC505E7F0B
:100C7400807E1A7D067C009000D51216BF504E90DF
:100C840000B2E09410400280387FE07E937D047CC3
:100C9400009000D512167A40089000B27410F080CB
:100CA4001B7FF07E497D027C009000D512167A905D
:100CB40000B24005740CF080037408F01216FA4078
:100CC4000C1216A112179890008B1208D51216FA5E
:100CD4004012E48004E490007BF09000CE1208E11E
:100CE400000000009000A6E0D394004036E014F029
:100CF4001216D212167A5003020DE79000AC1208B5
:100D0400BDEF2498FFEE343AFEE43DFDE43CFC9054
:100D1400008F1216BF4003020DE71216D21208D537
:100D2400020DE7121706405774FFF5F0120714126C
:100D34001706404B7F007E127D7A7C0090008B1258
:100D4400167A400C9000831208E1000C3500802FC5
:100D54001216F41217A11216C97F407E547D897CA5
:100D6400009000D512167A40161217A1C374409B46
:100D7400FF74549AFE748999FDE498FC12173C128E
:100D840016F490008B12172190008F12167A40539C
:100D94009000D9E0FF9000A0E0D39F400512170611
:100DA40040419000DAE07002A3E070091216B69098
:100DB40000AC1208D59000DAE4F0A304F0787BF6D6
:100DC40090009412171490009B7401F09000B27478
:100DD40008F0E4900081F0A3F07880F608F6787EBD
:100DE400F608F69000D51208E10000000090008F8C
:100DF4001208E1000000009000DAE0FEA3E0FFD357
:100E04009400EE9400404F9000A1E0FCA3E0FDD3D9
:100E1400EF9DEE9C4040E49000DAF0A3F0751E01D3
:100E2400787BF67879F622900081E4F0A304F0E46C
:100E3400F51E90007EF0A3F0900077F07FFAFE128A
:100E44002C119000B81208E1000000001216811263
:060E540008E100000000AF
:010E5A002275
:1023A300E4F5249000D51208E100000000E4F523D1
:1023B30043B440E5B430E5FB53B4DF121788AFB63E
:1023C300AEB71216C60523E523B480E47F907E01E1
:1023D300122C119000D51208BD780B1208978F2389
:1023E300E523D3940C400CE523948D5006E5249407
:0D23F30014500A0524E524D3945040A7227D
:0124000022B9
:102401009000D51208E100000000E4F523E4F52670
:10241100F52743B440E5B430E5FB53B4DF85B72479
:1024210085B625121788AE24AF251216C60527E5F5
:102431002770020526B400DAE526B420D543BD1085
:102441000523E523B408C69000D51208BD78101203
:0A24510008979000BCEEF0A3EFF036
:01245B00225E
:10256500BF0105E4FCFD802E7E007C017DFF120687
:10257500AD1C7D641206BFAC06AD07E41201DB8F0E
:10258500438E428D418C40AB43AA42A941A84012DB
:102595001748AC06AD0790FF907427F075DA017502
:0E25A500E30175E2FF8CE58DE475E10F7F0028
:0125B3002205
:102A2700BF0104E4FE801E7E007C007DFF12172795
:102A37008F438E428D418C40AB43AA42A941A840A7
:102A4700121748AE0790FF9C7401F075DEFF8EDF0A
:052A570075DD947F0015
:012A5C002257
:02233F008F3ECF
:10234100787DE6B53E037F0022787DA63EE53E70AE
:102351000C9000D204F0E490009FF0801CE53EB4A4
:10236100640CE49000D2F090009F04F0800B900088
:10237100D27402F090009F14F0E53EFD7C009000C5
:102381007DE0FF7E00121727E4FBFAF9783F121770
:102391004EC3E53E9FF53F122565AF3F122A277FC9
:0123A100003B
:0123A2002218
:1012CA00122E61120003122BBE7F6412233F122DCD
:1012DA00AA122B5E122E1C75BBAA90FEA774FFF0F1
:1012EA0053BBF7D2AF7FC87E00122C117F64122342
:1012FA003F9000D37401F0121773F0C2AF1217BBFC
:10130A009000A5E004F07F807E2F122CFB7F107ED8
:10131A0027122DEF9000A5E0FF7D807C2F122C6113
:10132A007F647E00122DEFD2AF1223A390009EE0BD
:10133A00FF9000B3F012233F7F2C7E01122C111272
:10134A0024019000D51208E1000000009000A5E0F9
:10135A00C394034005E4F0122D44900078E0FF9016
:10136A0000D2E0FD6F600D7F761228B99000D2E0BE
:10137A00900078F09000B0E0FF90009FE0FD6F6071
:10138A000D7F771228B990009FE09000B0F090008E
:10139A0076E06401704190009BE0B4013AE4900069
:1013AA0076F090009BF0900094E0FEA3E0FF90009E
:1013BA00A3E06E7003A3E06F601DE48F468E45F5CF
:1013CA0044F5437F7412215D900094E0FFA3E090FE
:1013DA0000A3CFF0A3EFF043BD10E51E700B900001
:1013EA008AE0541F70031214DC900093E0640160D9
:1013FA00030214A7E51F701CF51E751F0112176A58
:10140A009000B81208E1000000001216811208E1EB
:10141A0000000000120954D3900082E0940090006A
:10142A0081E094004033900077E0B4012CE4F0901E
:10143A000081121715900096E0FFC3900082E09F8A
:10144A00900081E094004011E4F0A3F0900087E05E
:10145A0064016005E4FF12233F12175C400F787F96
:10146A00E6640118467006F608F6121715787CE647
:10147A006401600302135618E6FF78796670030266
:10148A001356A6079000DAE4F0A304F0E4F522E587
:10149A0022C394084003021356052280F2E4F51F82
:1014AA00900088E07007FF12233F0213569000A7AE
:1014BA00E0FF12233FE4F51E12176A9000B81208E3
:1014CA00E1000000001216811208E100000000028B
:0214DA001356A7
:03001B00021E1FA3
:101E1F00C0E0C0F0C083C082C0D075D000C000C089
:101E2F0001C002C003C004C005C006C007AF1DAE8D
:101E3F001CAD1BAC1AEF2401FFE43EFEE43DFDE4B4
:101E4F003C8F1D8E1C8D1BF51A90007E121714905F
:101E5F00007EE0FEA3E0FFE4FCFD7B607AEAF9F888
:101E6F00D3120870500C90007EE4F0A3F09000772E
:101E7F0004F0788106E618700106C37881E694E8CD
:101E8F0018E69403400C7600087600787E760008FA
:101E9F007601900079121714C390007AE094E890BD
:101EAF000079E094034009E4F0A3F090007604F089
:101EBF00D007D006D005D004D003D002D001D00077
:0B1ECF00D0D0D082D083D0F0D0E03221
:0300230002276B46
:10276B00C0E0C0F0C083C082C0D075D000C000C034
:0D277B0001C002C003C004C005C006C007B5
:0F278800E59830E00AAF991224B75398FED2AF0C
:10279700D007D006D005D004D003D002D001D00096
:0B27A700D0D0D082D083D0F0D0E03240
:03003B0002001AA6
:01001A0032B3
:102CFB0053BBF7C280E5BB20E3F6D280C2AF75FDB4
:102D0B00F075FC0F8EFA8FF975FDD275FC2D75FDE4
:052D1B00E175FC1E2221
:102C610053BBF7C280E5BB20E3F6D280C2AF8FFB36
:102C710075FDF075FC0F8CFA8DF975FDB475FC4B83
:072C810075FDE175FC1E2248
:10203C007F001217A71216EA1207D0780812089719
:10204C007D001217B11216EA1207D07D011217B1DA
:10205C00122DEF9000D97D02122DE69000A17D0388
:10206C00122DE6A3E0FF7D04122DE890009EE0FF08
:10207C007D05122DE8900096E0FF7D06122DE8906C
:10208C000093E0F4FF7D07122DE8787CE6FF7D08D5
:10209C00122DE8900088E0FF7D09122DE890008752
:1020AC00E0FF7D0A122DE890007DE0FF7D0B122DE4
:1020BC00E87F801217A7122DEF7D807C2FE4FF1292
:0420CC002C61D2AF02
:0120D00022ED
:102CAF00637263206572726F7220286372633A30A9
:102CBF00782558202062757420646174613A3078E9
:062CCF002558290D0A0042
:0419E3000277000087
:101F920012064CFFE5474FFFE546FEE545FDE544E9
:101FA2008F478E468D45F544FC78081208AA8F4764
:101FB2008E468D4522AF46AE45AD44AC43120897DE
:101FC200AD0722AD07E4FBFA900001E0227402257E
:101FD20024F974003523FA7B01E52624FFFDE5256B
:101FE20034FFFC22E475F00102091EAA06AB077D4C
:101FF200037F0722AF76AE75AD74AC73020897FE0D
:10200200E555FDE554FCE47BFF22E4F541F540F59E
:102012003FF53E2212064CAB4AAA4BA94C22AB61B9
:10202200AA62A963020633AB64AA65A966020633F3
:0A203200755B01755C00755D2222EC
:1022CE00EFC39430400CEFD39439500674D02FFFE7
:1022DE008022EFC39441400CEFD394465006EF2476
:1022EE00C9FF8010EFC39461400AEFD39466500487
:1022FE00EF24A9FFEF540FC454F0FFEDC394304008
:10230E000CEDD39439500674D02DFD801EEDC39480
:10231E00414008EDD394465002800CEDC3946140C9
:10232E000AEDD394665004ED24A9FDED540F420737
:01233E00227C
:0627F6008B3B8A3C893D8B
:1027FC0012200CE94A4B7005FFFEFDFC2212200C46
:10280C00783B121FE6120633601AE5412401FFE4FF
:10281C003540FEE4353FFDE4353E8F418E408D3F23
:0C282C00F53E80DCAF41AE40AD3FAC3E5D
:01283800227D
:062A93008B088A09890A84
:102A99008B0E8A0F8910E94A4B7004FBFAF922E57B
:102AA9000D150DAE0C7002150C4E600B780E121F31
:0D2AB900E6ED12067980E8AB08AA09A90A2B
:012AC60022ED
:061BD3008B428A438944A5
:101BD9008B4A8A4B894C85454D85464E85474FE949
:101BE9004A4B6008E5474546454570077B007A0042
:101BF900790022D3854E83854F82E54C9582E54B4A
:101C090095834019E54F2549F9E54E3548FA8A8308
:101C19008982D3E54C9582E54B95834032E4F550B2
:101C2900F551C3E5519549E5509548505BAB4DAA2F
:101C39004EA94F8551828550831220168551828580
:101C4900508312068B0551E55170D7055080D38515
:101C59004850854951D3E5519400E55094004028F6
:101C6900AB4DAA4EA94FE55124FFFFE55034FFFEC5
:101C79008F82F5831220168F828E8312068BE5518F
:0E1C8900155170D1155080CDAB42AA43A9442D
:011C9700222A
:0629B0008B118A1289134D
:1029B6008B178A188919AB14AA15A9161206336043
:1029C600147814121FE6120633FF7811121FE6EF71
:1029D60012067980E1AB11AA12A913E4120679ABAB
:0529E60017AA18A91951
:0129EB0022C9
:1027B2008B618A628963122020FF602012202960C7
:1027C2001BB5071874012563F563E43562F562747D
:1027D200012566F566E43565F56580DA122029FF84
:1027E2003395E0FE122020FD3395E0FCC3ED9FFF00
:0427F200EC9EFE2239
:102AC7008F768E758D748C737818120897EF1206AF
:102AD700797810121FF6900001EF12068B78081212
:102AE7001FF6900002EF12068BE576FF900003EFCA
:032AF70002068B49
:1025B400E4F547F546F545F544120633FFE48F4745
:1025C400F546F545F544AE46AD45AC44121FAB8C1B
:1025D40044900001121F928C44900002121F928CAE
:1025E4004490000312064CFFE5474FFFE546FEE525
:0A25F40045FDE544121FB0F544FC5C
:0125FE0022BA
:062693008B688A69896A68
:10269900121FC5B401037F0122AF03AE02122E94AB
:1026A900AA06AB07E41226D3E56B1226D3AD6C124A
:1026B9002E94AB68AA69A96A856B40856C41122B77
:0926C9008F121FED1225107F0194
:0A26D20022FD122E94AA06AB072287
:0425FF008D3EAC075A
:10260300121FC7B401037F0122AF03AE02AD041250
:102613002638E4FD122638E53E7003FD8006AF033D
:10262300AE027D01122E94AA06AB077D037F07122B
:0426330025107F01EE
:1026370022122E94AA06AB077D01122E94AA06AB8E
:02264700072268
:10215D00121FC5B401037F0122AF03AE02122E94EC
:10216D007D021221D0E4FD122E947D041221D0C0E7
:10217D0006C0077818121FB7D007D0061221DCC091
:10218D0006C0077810121FB7D007D0061221DCC089
:10219D0006C007AF46AE45AD44AC4378081208976C
:1021AD00AD07D007D006122E94AA06AB07C007E5DF
:1021BD0046FFE4AD07D007122E94121FED12251025
:0221CD007F0190
:1021CF0022AA06AB07122E94AA06AB0722122E9450
:0521DF00AA06AB072277
:062649008B6E8A6F8970A0
:10264F00121FC5B401037F0122AF03AE0212268B06
:10265F007D0312268BE571FD122E94AA06AB07ADF2
:10266F0072122E94AB6EAA6FA9708571408572415C
:0B267F00122B8F121FED1225107F019F
:09268A0022122E94AA06AB0722CD
:0428B9008D3EAC079D
:1028BD00121FC7B401037F0122AF03AE02AD041294
:1028CD002E947D041228ECE4FD122E947D01122825
:0E28DD00ECAD3E122E94121FED1225107F015D
:0D28EB0022AA06AB07122E94AA06AB072204
:021D5C00AD07D1
:101D5E00E4F558F559900001E0B401037F01221219
:101D6E001DFF7D05121E17E4FD121E1774FFFFE501
:101D7E0056122001FAF9F8C312088670097D011275
:101D8E001DFFAD57803D74FFFF1220017AFFF9F859
:101D9E00C312088670047D0280197D04121E0B7812
:101DAE0018121DE6AF57AE56AD55AC54781012084A
:101DBE0097AD07121E0B7808121DE6E557FFE4AD2E
:101DCE0007AF59122E948E588F59AB59AA587D03CE
:071DDE007F071225107F01B1
:101DE50022AF57AE56AD55AC54120897AD07AF5953
:101DF500AE58122E948E588F5922AF59AE58122EC6
:101E0500948E588F5922AF59AE58122E948E588FF2
:0A1E15005922122E948E588F592284
:082EB6008C3E8D3F120633FF34
:012EBE0022F1
:082EBF008C3E8D3F120633FF2B
:012EC70022E8
:072EC8008C428D431225B47A
:012ECF0022E0
:1024B7008F52C3E560955DFFE55F955CFEEF6401B4
:1024C7004E6045D3855F83856082E55D9582E55CD7
:1024D70095834015E55D9560FFE55C955FFEC3EF6D
:1024E700941BEE64809480501FC390003DE55D957A
:1024F70082E55C958340077A007922122032785B67
:09250700121FE6E55212067922CA
:1014DC00E4F523F524F525F526C3E578941FE57787
:1014EC0094005024122DC8EFD39400401B1228797D
:1014FC000578E578AC7770020577142402F58274D0
:10150C00003CF583EFF080D1C3E5789407E5779440
:10151C0000500302166BC3E5789524FDE5779523FF
:10152C00FCC3ED9407EC94005003021634740225AE
:10153C0024F58274003523F583E06455600A052494
:10154C00E52470D2052380CE74032524F582740023
:10155C003523F583E064AA600A0524E52470B705F9
:10156C002380B374042524F58274003523F583E0BD
:10157C0060047402803C74062524F58274003523C3
:10158C00F583E0752600F52574072524F582740093
:10159C003523F583E02407FFE433FEEF2526F526FB
:1015AC00EE3525F525D3E5269426E5259400400A4D
:1015BC0074032524F524E402162DC3ED9526EC9531
:1015CC00254065121FCF122CD5E5242526FDE523D9
:1015DC003525FC74012DF58274003CF583E06F60B9
:1015EC0031121FCF122CD58F2A7BFF7A2C79AFE5C5
:1015FC00242526FFE5233525FE74012FF582740082
:10160C003EF583E0F52B120EBD74032524F524E47E
:10161C00800FAF24AE23121A17E5262524F524E5F6
:10162C00253523F523021522C3E5789524F578E5B5
:10163C00779523F577D3E5789400E5779400401FF0
:10164C0074022524F974003523754501F546894744
:0F165C008577488578497B017A007902121BD384
:01166B00225C
:102E6100122032755E01755F0075602290007474E6
:032E7100FFF0224D
:062ED000900021E0FF224A
:0E2E8600E4900021F0FBFA7D037F040225108A
:062ED600900000E0FF2265
:022E3300AD07E9
:102E3500E4FF900000F0FE122E94EFFB7A007D0374
:052E45007F05022510CD
:062EDC00900074E0FF22EB
:1019E7004100E1004400DD000000005E00E2140158
:1019F700160217026504660267016802690271012F
:0C1A07007201730174027501760477040B
:102A5D00AB38AA39A93AAD3CAC3B2290009EE0FFC1
:102A6D00E48F46F545F544F543229000A1E0FEA321
:102A7D00E0FFE48F468E45F544F54322E0FFE4FC8C
:062A8D00FDFEC3020886F5
:102D44007F55122EA17FAA122EA17F03122EA17FDE
:102D540004122EA1E4FF122EA1E4FF122EA17F067D
:032D6400022EA19B
:03001E00022EA10E
:101C9800900000E0FD7F141225FF900088E0FD7F92
:101CA800711225FF122A687F1612215D9000D9E073
:101CB800FFB4FF05E4F530801EEFB4C805753002A7
:101CC8008015EFB42805753003800CEFB414057542
:101CD80030048003753005AD307F651228B9122AAB
:101CE800777F6612215D900093E0FD7F671225FFE4
:101CF800900096122A6B7F6812215DE47B107A2788
:101D0800F9F89000831208BD1207D0C374329F12ED
:101D18002A6C7F6912215D787CE6FD7F721225FFAF
:101D2800900087E0FD7F731225FF900094122A7AB5
:101D38007F7412215D9000D2E0FD7F761228B99061
:101D4800009FE0FD7F771228B990007D122A6B7FF3
:041D58001702215DF0
:102E4A00122EB6900000EFF0FD7F141225FFBF018D
:062E5A00037F01227F004E
:012E6000224F
:10283900122EC88F418E408D3F8C3E90009EAB4139
:10284900AA40A93FA83E122A896006E4FF0FBF08E3
:10285900FCAF4190009EEFF09000A7F012203C12CF
:0F2869002A687F1612215DBF01037F01227F00C5
:01287800223D
:102C3900122EBF90007DEFF0E4FF12233F9000A712
:102C4900E0FF12233F90007DE0FD7F171228B9BFF6
:072C590001037F01227F004F
:012C60002251
:1021E400122EBF9000E1E0B5070FBF05129000D991
:1021F400E0FE9000A0E06E8006E4FE0EBE08FCEF58
:1022040014601014601514601A14601F14602424E0
:102214000570289000D974FFF080209000D974C80C
:10222400F080189000D97428F080109000D97414AC
:10223400F080089000A0E09000D9F09000E1EFF069
:1022440012203C9000E1E0FD7F651228B9BF010334
:052254007F01227F0064
:012259002262
:1026DC00122EC88F418E408D3F8C3E9000A1E0FEA3
:1026EC00A3E0FFE4FCFDAB41AA40A93FA83EC31206
:1026FC0008866006E4FF0FBF08FC9000A1E540F0DF
:10270C00A3E541F012203C122A777F6612215DBFAF
:07271C0001037F01227F0091
:012723002293
:102B2C00122EB6900093E06F6006E4FE0EBE08FC19
:102B3C00EF9000937003F080037401F012203C902E
:102B4C000093E0FD7F671225FFBF01037F01227F09
:012B5C000078
:012B5D002255
:1028F800122EC88F418E408D3F8C3E900096AB4182
:10290800AA40A93FA83E122A896006E4FF0FBF0823
:10291800FC900096E541F012203C900096122A6B3C
:0D2928007F6812215DBF01037F01227F0047
:01293500227F
:10225A00122EC88F418E408D3F8C3E9000DD1208B1
:10226A00BDAB41AA40A93FA83EC31208866006E456
:10227A00FF0FBF08FCAF41AE40AD3FAC3E9000DD62
:10228A001208D5C374329541FFE49540FEE4953FA8
:10229A00FDE4953EFCE47B107A27F9F81207459095
:1022AA0000831208D512203C9000DD1208BD8F462B
:1022BA008E458D448C437F6912215DBF01037F01E6
:0322CA00227F0070
:0122CD0022EE
:10293600122EB6900088E06F6006E4FE0EBE08FC1C
:10294600EF7006900088F08011900093E0B40104C7
:10295600787B76019000887401F0900088E0FD7F16
:0C296600711225FFBF01037F01227F00DA
:012972002242
:102BE800122EB6AD07787CE66D6006E4FF0FBF08CD
:102BF800FCED787C7003F6800276017F721225FF67
:082C0800BF01037F01227F00E0
:012C100022A1
:102D2000122EB6900087E06F6006E4FE0EBE08FC2F
:102D3000900087EFF0FD7F731225FFBF01037F0135
:032D4000227F00EF
:012D4300226D
:102E0100122EB6EF6012E4900094F0A3F0900094BB
:0A2E1100122A7A7F7412215D7F01FE
:012E1B002294
:061EDA008B388A39893AB9
:101EE000EF12092E1F0C141F2E161F37171F4065E7
:101EF0001F48661F50671F58681F60691F68711F61
:101F000070721F78731F807500001F8A122A5D127D
:101F10002E4A8F3DE53D640170759000B7E004F0F6
:101F2000E0C394054069E4F0122D44021F8F122A89
:101F30005D122839021F86122A5D122C39021F8673
:101F4000122A5D1221E4803E122A5D1226DC8036C0
:101F5000122A5D122B2C802E122A5D1228F8802660
:101F6000122A5D12225A801E122A5D12293680160C
:101F7000122A5D122BE8800E122A5D122D20800697
:101F8000122A5D122E018F3D8000E49000B7F0AF61
:011F90003D13
:011F9100222D
:032EE2007F0F223D
:1029EC007B2270223A220071676B6A35796D6367BE
:1029FC007261706A676A3000222C2276223A2200B9
:102A0C00312E302E3000222C226D223A0030007DE7
:0B2A1C000000000000000000000000AF
:031A1300015A0075
:1000260074432FF974003EFA7B0122E475F0011245
:05003600091E02063363
:0C2E9400120026ED1206790FBF00010E9F
:012EA000220F
:0A2B8F008E3B8F3C8B3D8A3E893F50
:102B9900120026853D45853E46853F478540488547
:102BA9004149121BD3E541253CF53CE540353BF550
:042BB9003BFEAF3CF4
:012BBD0022F5
:0A2CD5008B498A4A894B8C4C8D4DC7
:102CDF00E4FFFDFCC3ED954DEC954C500E78491279
:0B2CEF0000312FFF0DBD00010C80E93B
:012CFA0022B7
:102973008B498A4A894B8C4C8D4DE94A4B602DE536
:102983004D454C6027E54D154DAE4C7002154C4E30
:10299300601AAB49AA4AA94B120633FF12001E74F0
:0D29A30001254BF54BE4354AF54A80D92259
:042510008A478B4823
:1025140090003D7455F0A374AAF0A3EDF0A3EFF07E
:10252400E547A3F0E548A3F02407F548E43547F56B
:10253400477B017A00793DE54824FFFDE54734FFF8
:10254400FC122CD5AE07743C2548F582740035473F
:10255400F583EFF07B017A00793DAD48AC47022961
:012564007303
:102D6700E4FFE55A700AFEFD122E94755A0180079A
:102D77007E007D01122E94EFFB7A007D03E4FF02B3
:022D8700251015
:101B0800E4F53078317C00FD7BFF7A2A791DFE7F71
:101B18000A12060D7A2979EC121BA37A2979EC129C
:101B28002B8F8F307A2979F3121BA37A2979F31234
:101B38002B8F8F307A2A7904121BB37A2A790412F0
:101B48002B8F8F307A2A790C121BB37A2A790C12D0
:101B58002B8F8F307A2A7912121BC37A2A791212A4
:101B68002B8F8F307A2A7919121BC37A2A79191286
:101B78002B8F8F307BFF7A2A791B1227F68E408FA6
:101B880041AF307E007BFF7A2A791B122B8F8F3072
:0B1B9800EFFB7A007D037F01022510A7
:101BA3007BFF1227F68E408F41AF307E007BFF22F2
:101BB3007BFF1227F68E408F41AF307E007BFF22E2
:101BC3007BFF1227F68E408F41AF307E007BFF22D2
:0A2EAC00E4FBFA7D037F020225100B
:022D89008F3782
:102D8B00122EE2E4FEEEC39F501275F002EE90009D
:0E2D9B00E2120912E0653760030E80E9AF0610
:012DA9002207
:06245C008B308A31893249
:10246200120633F53390000112064CF53490000247
:1024720012064C753600F53590000312064C2536CF
:10248200F536E43535F535AF33122D8975F002EFA7
:102492009000E3120912E0653460037F0022AB3042
:1024A200E5322404F9E43531FA85353B85363CAF13
:0424B20033121EDAE9
:0124B6002203
:041A17008E278F285F
:101A1B0074052FF58274003EF583E0FF12092E1A30
:101A2B0046001A49011A4C021A4F031A6A041A6F1C
:101A3B00051A76061B040800001B07022D67021B04
:101A4B0008022EAC74082528F58274003527F5831F
:101A5B00E0900074F0E4FBFA7D037F030225109005
:101A6B00002180039000007401F02274062528F5F4
:101A7B008274003527F583E0FE74072528F5827400
:101A8B00003527F583E0FDEEF52EEDF52FE4F52C73
:101A9B00F52DC3E52D952FE52C952E505FE52825CB
:101AAB002DFDE527352CFC740A2DF58274003CF5D1
:101ABB0083E0752A00F529740B2DF58274003CF533
:101ACB0083E0252AF52AE43529F52974082528F918
:101ADB0074003527FA7B01E9252DF9EA352CFA122A
:101AEB00245C8F2BE52A2404FFE43529FEEF252DFA
:0C1AFB00F52DEE352CF52C8099121C986E
:011B070022BB
:102DC800E55E855F83856082655B700AE55D658287
:0E2DD8007004E55C658360037F01227F0022AA
:10287900AB5EAA5FA960E55B855C83855D82655E69
:10288900700AE56065827004E55F65836021C39025
:10289900003DE5609582E55F9583400D7A007922D8
:0F28A900755E01755F00756022785E120031FF69
:0128B80022FD
:10003E00020280E86480F8E933E83360110460F06E
:10004E00ED33EC337009E8FCE9FDEAFEEBFF220428
:10005E0060DED3EB9FEA9EE99DE8C2E78CF0C2F723
:10006E0095F0400CE8CCF8E9CDF9EACEFAEBCFFBEF
:10007E0012024B85D0F05804700320D5B3E80470FB
:10008E00075002B2D502028A92D5EC0460F7E4CC96
:10009E00C0E0C398F8603B94186008400DD0E0FBB8
:1000AE00020262E4FBFAC9FC8028E830E406E4C9E7
:1000BE00FBE4CAFCE830E305E4C9CACBFCE854070C
:1000CE006010F8C3E913F9EA13FAEB13FBEC13FC17
:1000DE00D8F130F52FC3E49CFCEF9BFFEE9AFEEDBA
:1000EE0099FDD0E0FBEF4E4D4C701222DB03020265
:1000FE0087EC2CFCEF33FFEE33FEED33FDED30E7F6
:10010E00EB020262EF2BFFEE3AFEED39FDD0E0FB83
:10011E0050130BBB000302028AED13FDEE13FEEF2C
:08012E0013FFEC13FC02026256
:1001360002028AEC5D046005E8590470030202803D
:1001460012024B580460F6EC4860F2EC7004FDFEB7
:10015600FF22C860DB2481C85009C398600250069C
:100166000202879850CAF582E9294B4A7005AB828C
:1001760002027675F0007C1A7880C3EF9BEE9AED4A
:1001860099400DC3EF9BFFEE9AFEED99FDE842F014
:10019600DC23ACF0D0E0FFD0E0FED0E0FDAB822067
:1001A600E7101BEB60BAEC2CFCEF33FFEE33FEEDF1
:1001B60033FD020262E803F830E705C0F075F0008F
:1001C600EF2FFFEE33FEED33FD40B830E7C280AAD5
:1001D60075F020800E75F010800575F0087D007EA4
:1001E600007F003392D530D503120862EC334010FD
:1001F600EF33FFEE33FEED33FDEC33FCD5F0ED22AD
:0E020600E5F0247EA2D513CC92E7CDCEFF22E8
:10021400EDD2E7CD33EC3392D524814006E4FFFEE2
:10022400FDFC22FCE4CFCECDCC24E0501174FF8041
:10023400EDC3CC13CCCD13CDCE13CECF13CF0470DE
:07024400F030D5DE02086274
:100E5B00E53E242AF8E6053E227827300702782A59
:100E6B00E475F00112091E0206332000EB7F2ED22F
:100E7B00008018EF540F2490D43440D4FF30040B6F
:100E8B00EF24BFB41A0050032461FFE53F60021545
:100E9B003F0542E5427002054130070D7827E475A6
:100EAB00F00112091EEF020679022C887403D20797
:100EBB008003E4C207F53E8B278A288929E4F53F96
:100ECB00F541F542E53F60077F20120E9680F575E0
:100EDB0040FFC201C200C202C203C205C206C20861
:100EEB00120E64FF700D3007057F00120EA7AF4284
:100EFB00AE4122B4255FC2D5C204120E64FF24D0CA
:100F0B00B40A00501A75F00A783F30D50508B6FFC1
:100F1B000106C6A426F620D5047002D20380D9247C
:100F2B00CFB41A00EF5004C2E5D204021194D201DF
:100F3B0080C6D20080C0D20280BCD2D580BAD20586
:100F4B0080B47F20120E962002077401B53F00403B
:100F5B00F1120E5BFF120E96020ECFD208D2068054
:100F6B0095120E5BFB120E5BFA120E5BF94A4B707D
:100F7B0006798B7A127BFF20022EE53F602A7E00DA
:100F8B008E8275830012064C60060EEE654070F083
:100F9B00C2D5EBC0E0EAC0E0E9C0E0EE1211F4D03C
:100FAB00E0F9D0E0FAD0E0FB120633FF60AAEBC009
:100FBB00E0EAC0E0E9C0E0120E96D0E02401F9D0DF
:100FCB00E03400FAD0E0FBE5400460DCD540D9808A
:100FDB0087D20280A21211D760F7E540700104128C
:100FEB000295A940600DE540600914F54012127E90
:100FFB00EF60F3EA30E702F404C3995077EAF42583
:10100B00400430E701E404F540800D1211D760C1B4
:10101B00EA05402540120295EA783DF630E701E4F7
:10102B00254004D54004200501141211F4E4C0E05E
:10103B0012127E783DE6601320E70714F6120E7E3F
:10104B00802204F6D0E014C0E07F00120E7EE54053
:10105B006007120E751540800B300503120E75D00C
:10106B00E0020ECFD0E00480C51211D760A0E5409E
:10107B0004120295783DEAF6E54020050260010472
:05108B0024041211F421
:1010900074FF04C0E012127E120E7EE540200502AD
:1010A0006003120E75D0E0B540E87F45120E8878D7
:1010B0003DE67F2B30E7047F2DF404C0E0120E964E
:1010C000D0E075F00A84C0F0120E7FD0E0120E7FDF
:1010D000020ECF791080027908C206C2088008D2B9
:1010E000D5790A8004790AC2D5E540047002F5403A
:1010F000E4FAFDFEFF120E5BFC7B08200113120ECA
:101100005BFD7B1030000A120E5BFE120E5BFF7B54
:1011100020EC3382D592D55013C3E43000069FFFF4
:10112000E49EFEE42001039DFDE49CFCE4CBF8C2B8
:1011300001EC700CCFCECDCCE824F8F870F380171A
:10114000C3EF33FFEE33FEED33FDEC33FCEB33FB4B
:10115000994002FB0FD8E9EB300105F8D0E0C44814
:10116000B201C0E00AEC4D4E4F78207B0070C2EA1D
:10117000B5400040BCC0E01211F6D0F0D0E0200134
:1011800004C4C0E0C4B201C0F0120E7FD0F0D5F0AC
:10119000EB020ECF12092E0F6C5310D3580F3D4C9B
:1011A0000F394210D74F10DF4410DF490F52431060
:1011B000E5551016461074450FE04712AB500F412D
:1011C0002D0F452E0F682B0F49230F662012942AEE
:1011D0000F014800000F60E540B4FF0375400612A0
:1011E0000E5BFC120E5BFD120E5BFE120E5BFF78B7
:1011F000360202C4790AA2D5200314300509B910B9
:10120000020404B9080104A2D520060250010420FA
:1012100002689202B53F005034C0E07F20300319CD
:101220007F30A20272067205500F12124DC202C226
:1012300006C205C2087F30800F300503E9C0E01206
:101240000E96300503D0E0F9D0E0B53FCC3005175D
:101250007F30B9100C120E967F583004077F7880CB
:1012600003B90803120E963002057F2D020E967FF9
:10127000202008F87F2B2006F322920280CF7F00E7
:10128000B4070050052436F8E6FF22286E756C6C12
:101290002900D201120E5B3001F8C201783F30D52F
:1012A0000108F6020F012D50434958120E5B24032A
:1012B000B405004001E49012A693120E87743A120E
:0A12C0000E87D203753F040210D31D
:10024B00E9D2E7C933E833F892D5EDD2E7CD33ECF9
:07025B0033FC5002B2D52272
:10026200EC30E7100FBF000C0EBE00080DBD0004FD
:100272000BEB6014A2D5EB13FCED92E7FD2274FFA9
:10028200FCFDFEFF22E480F8A2D574FF13FC7D8002
:03029200E480EF16
:10029500F920E72824F950037907E4F42402FB1830
:1002A500DBFDE624FB5014E9600DE4F618E604F6E0
:0F02B500B40A08E4F6D9F57401F60A22C2D5227C
:1002C400ED33EC3392D5FA602AB4FF33EDC2E77B09
:1002D400FF60067A0279E9E4227A0279F220D504F1
:1002E4007A0279ED224E614E002B494E46002D498B
:1002F4004E4600E47A08F608DAFC7B00740722E82C
:10030400C0E0ECC0E0EDC0E0EEC0E0EFC0E0EA75B4
:10031400F010A4CAABF075F04DA42BFBE435F0FC4F
:10032400EA2410FAEB34C5FBEC34D9FCEDC2E7FF48
:1003340075F056A4F42411C5F0F434C58FF0A42A42
:10034400E5F03BE43CF620E7141204FDD0E0FFD0D6
:10035400E0FED0E0FDD0E0FC1201398014F4041278
:1003640004FDD0E0FFD0E0FED0E0FDD0E0FC1203BD
:10037400C7D0E0F8E6FAEDD2E7CD33EC332482FBC4
:10038400E4C3CF33CFCE33CECD33CD33DBF37B07D2
:1003940075F00A846004F6081B0AE5F0F6088FF08D
:1003A400740AA4FFACF08EF0740AA42CFEACF050D6
:1003B400010C8DF0740AA42CFDE435F0F608DBDEA4
:0303C40074072299
:1003C700EC4D6011E8497017ED33EC3304600DE430
:1003D700FCFFFEFD22E933E8330470F802028012C5
:1003E700024B58046009E4CC2481500628500902C6
:1003F700028A284003020287C0E0EB4A7044B980B2
:1004070006D0E0FB020276EF4E701CBD8008EBFFC2
:10041700EAFEE9FD80EBE98DF0A4FEE5F00204B009
:10042700E9CDF9EAFEEBFFEF89F0A4FCE5F0CE8910
:10043700F0A42EFFE435F0CD89F0A42DFEE435F0CD
:100447008067EF4E7005BD80D780C3EF8BF0A4ACFB
:10045700F0EE8BF0A42CFCE435F0F8EF8AF0A42C36
:10046700E5F038FCE433CB8DF0A42CFCE5F03BF849
:10047700EE8AF0A42CFCE5F038F8E433CF89F0A439
:100487002CFCE5F038CF3400CE89F0A42FFFE5F03F
:100497003EFEE433C98DF0A42EFEE5F039CD8AF097
:1004A700A42FFFE5F03EFEE43DFD33D0E0FB50070F
:1004B7000BBB000F02028AEC2CFCEF33FFEE33FE7E
:0604C700ED33FD020262AC
:1004CD003F8000004120000042C80000447A000037
:1004DD00461C400047C35000497424004B189680B9
:1004ED004CBEBC205A0E1BCA6753C21C749DC5AEB0
:1004FD00FB60065407601C232312052BEB54386058
:10050D00091205171205261203C7ECF8EDF9EEFADC
:10051D00EFCB22EB12052680F1543803241C9004F6
:10052D00CDFE93FC0EEE93FD0EEE930ECE93FF22B9
:1020DD000212CAE493A3F8E493A34003F68001F23D
:1020ED0008DFF48029E493A3F85407240CC8C33304
:1020FD00C4540F4420C8834004F456800146F6DFD3
:10210D00E4800B01020408102040809018EEE47E5C
:10211D00019360BCA3FF543F30E509541FFEE493C7
:10212D00A360010ECF54C025E060A840B8E493A38E
:10213D00FAE493A3F8E493A3C8C582C8CAC583CAB9
:10214D00F0A3C8C582C8CAC583CADFE9DEE780BE71
:011A160000CF
:10053D00E709F608DFFA8046E709F208DFFA803EA0
:10054D0088828C83E709F0A3DFFA8032E309F6088D
:10055D00DFFA8078E309F208DFFA807088828C83F5
:10056D00E309F0A3DFFA806489828A83E0A3F608A9
:10057D00DFFA805889828A83E0A3F208DFFA804C83
:10058D0080D280FA80C680D4806980F2803380105A
:10059D0080A680EA809A80A880DA80E280CA8033C3
:1005AD0089828A83ECFAE493A3C8C582C8CCC5833B
:1005BD00CCF0A3C8C582C8CCC583CCDFE9DEE7800B
:1005CD000D89828A83E493A3F608DFF9ECFAA9F08A
:1005DD00EDFB2289828A83ECFAE0A3C8C582C8CCE0
:1005ED00C583CCF0A3C8C582C8CCC583CCDFEADEF9
:1005FD00E880DB89828A83E493A3F208DFF980CC5B
:10060D0088F0EF60010E4E60C388F0ED2402B40453
:10061D000050B9F582EB2402B4040050AF232345FA
:06062D00822390058D738D
:10063300BB010689828A83E0225002E722BBFE02C5
:09064300E32289828A83E49322F8
:10064C00BB010CE58229F582E5833AF583E0225063
:10065C0006E92582F8E622BBFE06E92582F8E222AD
:0D066C00E58229F582E5833AF583E49322C7
:10067900BB010689828A83F0225002F722BBFE0160
:02068900F3225A
:10068B00F8BB010DE58229F582E5833AF583E8F0A5
:10069B00225006E92582C8F622BBFE05E92582C851
:0206AB00F22239
:1006AD00EF8DF0A4A8F0CF8CF0A428CE8DF0A42E61
:0206BD00FE221B
:1006BF00BC000BBE0029EF8DF084FFADF022E4CC1F
:1006CF00F875F008EF2FFFEE33FEEC33FCEE9DECE8
:1006DF00984005FCEE9DFE0FD5F0E9E4CEFD22ED2E
:1006EF00F8F5F0EE8420D21CFEADF075F008EF2F78
:1006FF00FFED33FD4007985006D5F0F222C398FD69
:05070F000FD5F0EA2205
:10071400C5F0F8A3E028F0C5F0F8E5821582700270
:060724001583E038F0220D
:0D072A00EF2BFFEE3AFEED39FDEC38FC221E
:0E073700C3EF9BFFEE9AFEED99FDEC98FC22BD
:10074500E88FF0A4CC8BF0A42CFCE98EF0A42CFC53
:100755008AF0EDA42CFCEA8EF0A4CDA8F08BF0A4D1
:100765002DCC3825F0FDE98FF0A42CCD35F0FCEB30
:100775008EF0A4FEA9F0EB8FF0A4CFC5F02ECD39F5
:0F078500FEE43CFCEAA42DCE35F0FDE43CFC2262
:1007940075F008758200EF2FFFEE33FECD33CDCC1C
:1007A40033CCC58233C5829BED9AEC99E58298409F
:1007B4000CF582EE9BFEED9AFDEC99FC0FD5F0D67C
:1007C400E4CEFBE4CDFAE4CCF9A88222B800C1B9A6
:1007D4000059BA002DEC8BF084CFCECDFCE5F0CBE4
:1007E400F97818EF2FFFEE33FEED33FDEC33FCEB1D
:1007F40033FB10D703994004EB99FB0FD8E5E4F9D8
:10080400FA227818EF2FFFEE33FEED33FDEC33FCC4
:10081400C933C910D7059BE99A4007EC9BFCE99AB8
:10082400F90FD8E0E4C9FAE4CCFB2275F010EF2FFD
:10083400FFEE33FEED33FDCC33CCC833C810D707FD
:100844009BEC9AE899400AED9BFDEC9AFCE899F838
:0E0854000FD5F0DAE4CDFBE4CCFAE4C8F922CB
:0E086200C3E49FFFE49EFEE49DFDE49CFC22A7
:10087000EB9FF5F0EA9E42F0E99D42F0EC6480C8FF
:0608800064809845F0229F
:10088600EB9FF5F0EA9E42F0E99D42F0E89C45F0C8
:01089600223F
:10089700E8600FECC313FCED13FDEE13FEEF13FF3F
:0308A700D8F12263
:1008AA00E8600FEFC333FFEE33FEED33FDEC33FCAC
:0308BA00D8F12250
:0C08BD00E0FCA3E0FDA3E0FEA3E0FF22AE
:0C08C900E0F8A3E0F9A3E0FAA3E0FB22B2
:0C08D500ECF0A3EDF0A3EEF0A3EFF02296
:1008E100A8828583F0D083D0821208F81208F8120A
:1008F10008F81208F8E473E493A3C583C5F0C5832F
:10090100C8C582C8F0A3C583C5F0C583C8C582C860
:0109110022C3
:0C091200A42582F582E5F03583F58322F0
:10091E00FAE6FB0808E6F925F0F618E6CA3AF622DA
:10092E00D083D082F8E4937012740193700DA3A358
:10093E0093F8740193F5828883E47374029368606C
:06094E00EFA3A3A380DF6C
:102C8800EFB40A07740D122C93740A309811A8999E
:102C9800B8130CC2983098FDA899C298B811F630AC
:072CA80099FDC299F5992284
:00000001FF
