:030000000221B525
:0C21B500787FE4F6D8FD7581970221FCCC
:1018DD00041A00000000410077004100A80C4100EF
:1018ED00A9404400A0000000004400860000000054
:1018FD0044008A000000004400BD000000004400C8
:10190D00AD000000004400C400000000420094003F
:10191D0001420084000041007B0041009D00420017
:10192D00C9000042007C0000410075084100AB0079
:10193D004100CB00011E00011F004100C20041000B
:10194D00830041008E014100970A4100AC00410027
:10195D00AA0A41009C0041009E004200790000410E
:10196D0000760002960000029400004100820041C2
:10197D0000C10041009F0010840000000000000025
:10198D000000000000000000000180000181000146
:10199D008300018200017F004A00B30000000000B7
:0919AD0000000000004100780078
:102B47008E228F238B248A258926AF051DEF6021CE
:102B57000523E523AE227002052214F5828E83E455
:102B670093FF7824E475F0011208C9EF1206798003
:022B7700D92261
:102E2700E4FDFCC3ED9FEC9E50070DBD00010C8037
:012E3700F2A8
:012E38002277
:102C2F008F828E83E4F51DF51CF51BF51AAF82AE6E
:102C3F0083E4FCFDAB1DAA1CA91BA81AC312083103
:082C4F00500543BD1080E62290
:092DAE00E0FF7C2F122C577F641A
:102DB700E4FDFCC3ED9FEC9E50070DBD00010C80A8
:012DC700F219
:012DC80022E8
:10000300758E5190FE917401F0A37410F075BD5F6D
:0700130090FEA07420F02212
:102D5600E490FE80F0758901758DFA758BCB43A8DA
:0E2D660008438840758CCB758AEB4388102299
:102B790090FF10E054F04408F090FF02E054F04454
:102B890002F0D28490FFA07420F0A37404F075CCF5
:102B99000675CEFF75CD98759E0275981043A810DD
:012BA9002209
:102DE20043B40343B4807F147E00122E2775B501CD
:072DF20090FE9B744BF022E0
:102D920090FF08E054F04408F090FF00E0540F4424
:0C2DA20030F090FF11E054F04403F022E8
:0B2E47008F99E59830E1FB5398FD22C5
:102918008FB543B440E5B430E5FB53B4DF7F647E44
:1029280000122E27E4FBFAF943B440E5B430E5FB86
:1029380053B4DFE5B62BFBE5B73AFA7F147E0012F5
:102948002E2709B910E275B501A9027F647E00122D
:042958002E27AF0176
:01295C002258
:1017B4007B017A0079B37D0A7F007E2F122B47903C
:1017C40000B3E0FFE4FCFDFE90007E120880900070
:1017D4007E120868780812085590007E12088090DE
:1017E400007E1208749000B4E0FFE4FCFDFE1206D3
:1017F400D590007E12088090007E120868E47BE891
:101804007A03F9F81206F090007E120880E47F3023
:101814007E75FDFC90007E120874C31208314014DA
:101824007F007E097D3D7C0090007E120874D312F7
:101834000831400A90007E12088C00009C40900001
:10184400B5E09000C8F0700280079000C8E0B4FED4
:101854000374FFF09000B6E0FF900099E4F0A3EF6A
:10186400F0E0F8E4F0E8900099F09000B7E0FF9021
:101874000099E48FF01206BF900099E0FEA3E0FF08
:101884004E6009D3EF9408EE94074009900099E460
:10189400F0A37405F09000B8E0900097F090009EDB
:1018A400F09000B9E090008FF06006E0D394FF4020
:1018B4000690008F7401F09000BAE0540190008EFD
:1018C400F07B017A0079787D017F807E2F122B478F
:0918D400900078E090009CF022E5
:1008FF00E51E6003020F8343B440E5B430E5FB53BC
:10090F00B4DF85B72285B623900084E475F0011219
:10091F0006BF9000C4120874AE22AF23E4FCFD1290
:10092F0006D59000C41208809000B1E0FEA3E0FF4E
:10093F00C39523EE9522500DC3E5239FF523E522A2
:10094F009EF522800BC3EF9523F523EE9522F5221A
:10095F0090008A120874AE22AF23E4FCFD1206D574
:10096F0090008A120880900084E05401FEA3E04EAC
:10097F007061D39000CAE094009000C9E0940040E9
:10098F00179000AAE094645042E02402F0E0D39460
:10099F006440387464F0803390007CE07004A3E00E
:1009AF006401702F900097E0FF9000AAE0FED39FA4
:1009BF004019EE94024004E024FEF09000AAE0C338
:1009CF009F5008900097E09000AAF09000AAE0FFD7
:1009DF00122BAAC3900084E094205003020FCE4341
:1009EF00BD10E4F0A3F09000ABE004F09000AD1266
:1009FF0008689000C41208741206D59000AD120852
:100A0F00809000ABE0C394084037E4F09000AD1243
:100A1F00086878101208429000AD1208809000AD5F
:100A2F001208689000B1EE8FF01206BF9000B1E08F
:100A3F00C313F0A3E013F09000AD12088C00000078
:100A4F0000900075E0C394085005E004F0805690C4
:100A5F0000C9E07002A3E0704C7F0A1229189000C1
:100A6F0098EFF09000C3E0FE2402FDE433FCEFD3D7
:100A7F009DEC6480F8748098501E900098E02402DA
:100A8F00FDE433FCEED39DEC6480F874809850083D
:100A9F009000C3E0900098F0900098E09000C3F0B1
:100AAF00E4900075F0E4FFFEFDFC900086120874E0
:100ABF00C3120831704190008A120868EF2488FF32
:100ACF00EE3413FEE43DFDE43CFC900086120880FA
:100ADF00900094E07002A3E0701D7F407E427D0F76
:100AEF00FC900086120874D3120831400A900086D9
:100AFF0012088C000F4240900077E0701690008A29
:100B0F001208689000A012088090009012088C00C4
:100B1F0000000190009012086890008A1208741269
:100B2F0006D59000A0120874C31208314003020DBD
:100B3F00C89000901208689000A01208741206D591
:100B4F0090008A120874C31208314003020DC89036
:100B5F000077E004F09000BD12086890008A120838
:100B6F00741206D59000BD120880900077E0FFFB4D
:100B7F00E4FAF9F89000BD12086812077B9000A004
:100B8F001208809000A012086878031208429000A3
:100B9F0090120880E47F207E4EFDFC90009012089A
:100BAF0074C3120831500A90009012088C00004E46
:100BBF0020E47F607EEAFDFC900090120874D3124F
:100BCF000831400A90009012088C0000EA609000F3
:100BDF00A0120868900086120874D3120831404C96
:100BEF009000A01208749000861208681206E29016
:100BFF0000C41208807F807E387D017C009000C485
:100C0F00120874D312083140089000A87406F080BF
:100C1F0021E47F407E9CFDFC9000C4120874D31227
:100C2F0008319000A840087409F080069000A8745D
:100C3F000CF09000A8E0FF900077E0C39F407B90FE
:100C4F0000861208689000A0120874C31208315071
:100C5F00699000A9E094105003020DD79000A8E00E
:100C6F00D3940950089000A012086880449000A007
:100C7F00120868EF24A0FFEE340FFEE43DFDE43CC4
:100C8F00FC900086120874D3120831402A90008617
:100C9F001208689000A01208741206D590008612F0
:100CAF000880900086120868E47B02FAF9F81207B0
:100CBF007B900086120880020DC89000A9E0FF907B
:100CCF000077E0C39F5003020DD79000861208688B
:100CDF00EF24A0FFEE340FFEE43DFDE43CFC90005A
:100CEF00A0120874D31208315003020DB890008679
:100CFF001208749000A01208681206E29000C41245
:100D0F0008807F007E127D7A7C009000A01208740C
:100D1F00C31208314003020DB87F807E1A7D067C16
:100D2F00009000C4120874C3120831507C9000A9BF
:100D3F00E09410400280487FE07E937D047C009019
:100D4F0000C4120874D312083140089000A974101F
:100D5F00F0801F7FF07E497D027C009000C4120856
:100D6F0074D31208319000A94005740CF0800374FD
:100D7F0008F09000A9E0FF900077E0C39F402A9011
:100D8F0000861208689000A01208741206D5900011
:100D9F0086120880900086120868E47B02FAF9F840
:100DAF0012077B9000861208809000A9E0FF900048
:100DBF0077E0C39F4012E48004E4900077F0900046
:100DCF00BD12088C0000000090009DE0D3940040FD
:100DDF0066E014F09000A4120868EF2470FFEE3460
:100DEF0017FEE43DFDE43CFC900086120874D3121C
:100DFF0008315003020F3F9000A4120868EF2498A7
:100E0F00FFEE343AFEE43DFDE43CFC90008A12080C
:100E1F0074C31208314003020F3F9000A4120868F8
:100E2F00EF2470FFEE3417FEE43DFDE43CFC900030
:100E3F0086120880020F3FD3900095E09400900037
:100E4F0094E09400407B74FFF5F01206BFD390003E
:100E5F0095E09400900094E0940040657F007E122E
:100E6F007D7A7C00900086120874D3120831400CF2
:100E7F0090007E12088C000C3500804590007E1289
:100E8F0008689000861208741206D59000C41208E4
:100E9F00807F407E547D897C009000C4120874D3FB
:100EAF00120831401C900086120874C374409BFFD7
:100EBF0074549AFE748999FDE498FC90007E120890
:100ECF008090007E1208689000861208741206D572
:100EDF0090008A120874D312083140549000C8E071
:100EEF00FF900098E0D39F400FD3900095E09400BF
:100EFF00900094E0940040389000C9E07002A3E0A5
:100F0F00700C9000861208689000A4120880900060
:100F1F00C9E4F0A304F07882F69000A97408F0E415
:100F2F0090007CF0A3F07896F608F67894F608F621
:100F3F009000C412088C0000000090008A12088CE8
:100F4F00000000009000C9E0FEA3E0FFD39400EE84
:100F5F009400406B900099E0FCA3E0FDD3EF9DEE71
:100F6F009C405CE49000C9F0A3F0751E017882F6F6
:100F7F00787FF62290007CE4F0A304F0E4F51E9055
:100F8F000079F0A3F0900076F07FFAFE122C2F90EC
:100F9F0000AD12088C00000000E49000ABF0900050
:100FAF00A97440F090009D7402F09000757406F0E3
:0F0FBF00E4900077F09000BD12088C0000000055
:010FCE002200
:1023A900E4F5239000C412088C00000000E4F52233
:1023B90043B440E5B430E5FB53B4DF9000C41208E0
:1023C90074AFB6AEB7E4FCFD1206D59000C412088E
:1023D900800522E522B480D87F907E01122C2F90AF
:1023E90000C4120868780B1208428F22E522D394A0
:1023F9000C400CE522948D5006E5239414500A05EF
:0924090023E523D39450409B22EB
:0124120022A7
:102413009000C412088C00000000E4F522E4F525C6
:10242300F52643B440E5B430E5FB53B4DF85B72369
:1024330085B6249000C4120874AE23AF24E4FCFDD7
:102443001206D59000C41208800526E52670020501
:1024530025B400CEE525B420C943BD100522E522ED
:10246300B408BA9000C412086878101208429000A9
:06247300B1EEF0A3EFF052
:012479002240
:102BAA007E007C007DFF1206ADAC06AD07E4120084
:102BBA00E3E4FBFA79C8784212004112011C90FF43
:0E2BCA009C7410F075DEFF8FDF75DD947F00C8
:012BD80022DA
:10143E00122DC9120003122D927F64122BAA122DA7
:10144E0056122B79122DE275BBAA90FEA774FFF0EF
:10145E0053BBF7D2AF7FC87E00122C2F7F64122BA6
:10146E00AA9000C27401F07F0A122918900098EF1A
:10147E00F09000C3F0C2AF1217B490009CE004F0DD
:10148E007F807E2F122CCB7F107E27122DB79000DF
:10149E009CE0FF7D807C2F122C577F647E00122DE6
:1014AE00B7D2AF1223A9900097E0FF9000AAF012D6
:1014BE002BAA7F2C7E01122C2F1224139000C41203
:1014CE00088C0000000090009CE0C394034002E4EE
:1014DE00F043BD10E51E700B900085E0541F7003A5
:1014EE001215FB90008EE0640160030215A5E51F46
:1014FE00703DF51E751F01900097E09000AAF090C8
:10150E0000AD12088C00000000E49000ABF09000DB
:10151E00A97440F090009D7402F09000757406F06E
:10152E00E4900077F09000BD12088C0000000012CD
:10153E0008FFD390007DE0940090007CE094004082
:10154E002D900076E0B40126E4F090007C75F00159
:10155E001206BF90008FE0FFC390007DE09F9000C9
:10156E007CE094004008E4F0A3F0FF122BAAD39085
:10157E0000CAE094009000C9E0940040127895E60D
:10158E00640118467009F608F675F0011206BF7868
:10159E0083E664010214D4E4F51F900083E0700723
:1015AE00FF122BAA0214D490009EE0FF122BAAE485
:1015BE00F51E900097E09000AAF09000AD12088CF6
:1015CE0000000000E49000ABF09000A97440F09091
:1015DE00009D7402F09000757406F0E4900077F0B0
:0D15EE009000BD12088C000000000214D413
:03001B00021FD7EA
:101FD700C0E0C0F0C083C082C0D075D000C000C0D0
:101FE70001C002C003C004C005C006C007AF1DAED4
:101FF7001CAD1BAC1AEF2401FFE43EFEE43DFDE4FB
:102007003C8F1D8E1C8D1BF51A900079E475F0012D
:102017001206BF900079E0FEA3E0FFE4FCFD7B60C1
:102027007AEAF9F8D312081B500C900079E4F0A370
:10203700F090007604F0789706E618700106C378EA
:1020470097E694E818E6940340127880760178962C
:10205700760008760078947600087601D007D006D7
:10206700D005D004D003D002D001D000D0D0D08288
:07207700D083D0F0D0E0326D
:0300230002288A26
:10288A00C0E0C0F0C083C082C0D075D000C000C014
:0D289A0001C002C003C004C005C006C00795
:0F28A700E59830E00AAF9912247A5398FED2AF29
:1028B600D007D006D005D004D003D002D001D00076
:0B28C600D0D0D082D083D0F0D0E03220
:03003B0002001AA6
:01001A0032B3
:102CCB0053BBF7C280E5BB20E3F6D280C2AF75FDE4
:102CDB00F075FC0F8EFA8FF975FDD275FC2D75FD15
:052CEB00E175FC1E2252
:102C570053BBF7C280E5BB20E3F6D280C2AF8FFB40
:102C670075FDF075FC0F8CFA8DF975FDB475FC4B8D
:072C770075FDE175FC1E2252
:10207E007F007E2F122CCB7F107E27122DB7E47B94
:10208E00E87A03F9F890007E12086812077B780848
:10209E001208427D007C2F122C577F647E00122D79
:1020AE00B7E47BE87A03F9F890007E12086812070D
:1020BE007B7D017C2F122C577F647E00122DB790F2
:1020CE0000C87D02122DAE9000997D03122DAEA395
:1020DE00E0FF7D04122DB0900097E0FF7D05122DDC
:1020EE00B090008FE0FF7D06122DB090008EE0FFC5
:1020FE007D07122DB07F807E2F122CCB7F107E2776
:0E210E00122DB77D807C2FE4FF122C57D2AF2C
:01211C0022A0
:102CA500637263206572726F7220286372633A30B3
:102CB500782558202062757420646174613A3078F3
:062CC5002558290D0A004C
:0419B600027D0000AE
:10233800EFC39430400CEFD39439500674D02FFF7C
:102348008022EFC39441400CEFD394465006EF240B
:10235800C9FF8010EFC39461400AEFD3946650041C
:10236800EF24A9FFEF540FC454F0FFEDC39430409D
:102378000CEDD39439500674D02DFD801EEDC39416
:10238800414008EDD394465002800CEDC39461405F
:102398000AEDD394665004ED24A9FDED540F4207CD
:0123A8002212
:06279A008B3A8A3B893CEA
:1027A000E4F540F53FF53EF53DE94A4B7005FFFE87
:1027B000FDFC22E4F540F53FF53EF53D783AE47541
:1027C000F0011208C9120633601AE5402401FFE443
:1027D000353FFEE4353EFDE4353D8F408E3F8D3E76
:0C27E000F53D80D8AF40AE3FAD3EAC3DB3
:0127EC0022CA
:062AD9008B088A09890A3E
:102ADF008B0E8A0F8910E94A4B7004FBFAF922E535
:102AEF000D150DAE0C7002150C4E600F780EE475BF
:102AFF00F0011208C9ED12067980E4AB08AA09A902
:012B0F000ABB
:012B100022A2
:061DA4008B418A428943D5
:101DAA008B498A4A894B85444C85454D85464EE97F
:101DBA004A4B6008E5464545454470077B007A0072
:101DCA00790022D3854D83854E82E54B9582E54A7B
:101DDA0095834019E54E2548F9E54D3547FA8A833A
:101DEA008982D3E54B9582E54A95834038E4F54FDD
:101DFA00F550C3E5509548E54F95475067AB4CAA57
:101E0A004DA94E855082854F8312064CAB49AA4A8A
:101E1A00A94B855082854F8312068B0550E5507079
:101E2A00D1054F80CD85474F854850D3E550940062
:101E3A00E54F9400402EAB4CAA4DA94EE55024FF25
:101E4A00FFE54F34FFFE8F82F58312064CAB49AA99
:101E5A004AA94B8F828E8312068BE550155070CBA0
:0A1E6A00154F80C7AB41AA42A943FF
:011E7400224B
:06295D008B118A128913A0
:102963008B178A188919AB14AA15A9161206336096
:102973001C7814E475F0011208C9120633FF7811AC
:10298300E475F0011208C9EF12067980D9AB11AAD8
:0D29930012A913E4120679AB17AA18A919AE
:0129A0002214
:1024DD008B678A688969AB67AA68A969120633FF99
:1024ED006026AB6AAA6BA96C120633601BB5071880
:1024FD0074012569F569E43568F5687401256CF595
:10250D006CE4356BF56B80CEAB6AAA6BA96C1206C9
:10251D0033FF3395E0FEAB67AA68A969120633FD58
:0C252D003395E0FCC3ED9FFFEC9EFE2206
:1029A1008F7C8E7B8D7A8C797818120842EF120613
:1029B10079AF7CAE7BAD7AAC797810120842900089
:1029C10001EF12068BAF7CAE7BAD7AAC7978081241
:1029D1000842900002EF12068BE57CFF900003EFA6
:0329E10002068B60
:10211D00E4F546F545F544F543120633FFE48F46E5
:10212D00F545F544F543AE45AD44AC43780812088A
:10213D00558F468E458D448C4390000112064CFF01
:10214D00E5464FFFE545FEE544FDE5438F468E45EB
:10215D008D44F543FC78081208558F468E458D4405
:10216D008C4390000212064CFFE5464FFFE545FEFD
:10217D00E544FDE5438F468E458D44F543FC7808D7
:10218D001208558F468E458D448C439000031206E0
:10219D004CFFE5464FFFE545FEE544FDE5438F4623
:0721AD008E458D44F543FC53
:0121B4002208
:08269B008B6E8A6F8970AD0798
:1026A300E4FBFA900001E0B401037F0122AF03AE23
:1026B30002120026AA06AB07E4FD120026AA06AB07
:1026C30007E571FD120026AA06AB07AD72120026BC
:1026D300AB6EAA6FA97085713F857240122A68AAF2
:0C26E30006AB077D037F071227457F012F
:0126EF0022C8
:0425EE008D3DAC076C
:1025F200E4FBFA900001E0B401037F0122AF03AED5
:1026020002AD04120026AA06AB077D01120026AA1B
:1026120006AB07E4FD120026AA06AB077D011200F5
:1026220026AA06AB07E53D7003FD8006AF03AE02A6
:102632007D01120026AA06AB077D037F07122745FC
:022642007F0116
:012644002273
:021F2D00AD07FE
:101F2F00E4FBFA900001E0B401037F0122AF03AE9E
:101F3F0002120026AA06AB077D02120026AA06ABE4
:101F4F0007E4FD120026AA06AB077D04120026AA9D
:101F5F0006AB07C006C007AF45AE44AD43AC4278F1
:101F6F0018120842AD07D007D006120026AA06ABFA
:101F7F0007C006C007AF45AE44AD43AC4278101260
:101F8F000842AD07D007D006120026AA06AB07C03D
:101F9F0006C007AF45AE44AD43AC427808120842C5
:101FAF00AD07D007D006120026AA06AB07C007E57B
:101FBF0045FFE4AD07D007120026AA06AB077D0345
:071FCF007F071227457F0187
:011FD60022E8
:0826F0008B748A758976AD0731
:1026F800E4FBFA900001E0B401037F0122AF03AECE
:1027080002120026AA06AB077D03120026AA06AB12
:1027180007E577FD120026AA06AB07AD781200265A
:10272800AB74AA75A97685773F857840122A68AA7E
:0C27380006AB077D037F071227457F01D9
:012744002272
:04283E008D3DAC0719
:10284200E4FBFA900001E0B401037F0122AF03AE82
:1028520002AD04120026AA06AB077D04120026AAC6
:1028620006AB07E4FD120026AA06AB077D011200A3
:1028720026AA06AB07AD3D120026AA06AB077D03CA
:072882007F071227457F01CB
:01288900222C
:021B0900AD0726
:101B0B00E4F557F558900001E0B401037F0122AFD3
:101B1B0058AE571200268E578F587D051200268E11
:101B2B00578F58E4FD1200268E578F5874FFFFE530
:101B3B0055FEE554FDE553FCE47BFFFAF9F8C312BF
:101B4B00083170117D01AF58AE571200268E578F9A
:101B5B0058AD56807E74FFFFFEE554FDE553FCE463
:101B6B007BFF7AFFF9F8C312083170047D028036CF
:101B7B007D04AF58AE571200268E578F58AF56AE16
:101B8B0055AD54AC537818120842AD07AF58AE5749
:101B9B001200268E578F58AF56AE55AD54AC5378B6
:101BAB0010120842AD07AF58AE571200268E578F52
:101BBB0058AF56AE55AD54AC537808120842AD072A
:101BCB00AF58AE571200268E578F58E556FFE4AD2F
:101BDB0007AF581200268E578F58AB58AA577D0364
:071BEB007F071227457F016F
:011BF20022D0
:082E66008C3D8D3E120633FF86
:012E6E002241
:082E6F008C3D8D3E120633FF7D
:012E77002238
:072E78008C418D4212211D67
:012E7F002230
:10247A008F51C3E5669563FFE5659562FEEF6401DA
:10248A004E604FD3856583856682E5639582E562F2
:10249A0095834015E5639566FFE5629565FEC3EF92
:1024AA00941BEE648094805029C390003DE56395A7
:1024BA0082E5629583400D7A007922756101756221
:1024CA00007563227861E475F0011208C9E55112BA
:0324DA000679225E
:1015FB00E4F522F523F524F525C3E57E941FE57D5F
:10160B0094005024122D74EFD39400401B1228D158
:10161B00057EE57EAC7D7002057D142402F5827497
:10162B00003CF583EFF080D1C3E57E9407E57D9414
:10163B000050030217B3C3E57E9523FDE57D95228C
:10164B00FCC3ED9407EC9400500302177C74022545
:10165B0023F58274003522F583E06455600A052377
:10166B00E52370D2052280CE74032523F582740006
:10167B003522F583E064AA600A0523E52370B705DC
:10168B002280B374042523F58274003522F583E0A0
:10169B0060047402803C74062523F58274003522A5
:1016AB00F583E0752500F52474072523F582740076
:1016BB003522F583E02407FFE433FEEF2525F525DE
:1016CB00EE3524F524D3E5259426E5249400400A31
:1016DB0074032523F523E4021775C3ED9525EC95CB
:1016EB0024500302177C74022523F974003522FA67
:1016FB007B01E52524FFFDE52434FFFC122BD9E506
:10170B00232525FDE5223524FC74012DF58274007B
:10171B003CF583E06F604474022523F97400352295
:10172B00FA7B01E52524FFFDE52434FFFC122BD9C0
:10173B008F297BFF7A2C79A5E5232525FFE522351B
:10174B0024FE74012FF58274003EF583E0F52A1216
:10175B00103174032523F523E4800FAF23AE22123F
:10176B0019F3E5252523F523E5243522F522021669
:10177B0041C3E57E9523F57EE57D9522F57DD3E589
:10178B007E9400E57D9400401F74022523F97400BC
:10179B003522754401F5458946857D47857E487B15
:0817AB00017A007902121DA46D
:0117B3002213
:102DC9007561017562007563227564017565007529
:092DD900662290007474FFF022E0
:062E8000900021E0FF229A
:0E2E3900E4900021F0FBFA7D037F04022745A0
:062E8600900000E0FF22B5
:022DF900AD0724
:102DFB00E4FF900000F0FE120026EFFB7A007D034B
:052E0B007F05022745D0
:062E8C00900074E0FF223B
:0A2E5200E4FBFA7D037F0E02274522
:1019BA004100D0004400CC00000000015E00015B41
:1019CA0000015A00015900015D00015C00015F003D
:1019DA005200D114011602650466026701680269A1
:0519EA00027101720111
:102CF0007F55122E477FAA122E477F03122E477F41
:102D000004122E47E4FF122E47E4FF122E477F06DF
:032D1000022E4749
:032E9200022E47C6
:101E7500900000E0FD7F141225EE900083E0FD7FC9
:101E8500711225EE900097E0FFE48F45F544F54388
:101E9500F5427F16121F2D9000C8E0FFB4FF05E440
:101EA500F52F801EEFB4C805752F028015EFB428F5
:101EB50005752F03800CEFB41405752F0480037589
:101EC5002F05AD2F7F6512283E900099E0FEA3E017
:101ED500FFE48F458E44F543F5427F66121F2D9032
:101EE500008EE0FD7F671225EE90008FE0FFE48F06
:101EF50045F544F543F5427F68121F2DE47B107AC2
:101F050027F9F890007E12086812077BC374329F88
:101F1500FFE48F45F544F543F5427F69121F2D789F
:081F250083E6FD7F720225EE48
:102E1000122E66900000EFF0FD7F141225EEBF0128
:062E2000037F01227F0088
:012E26002289
:10264500122E788F408E3F8D3E8C3D055A90009717
:10265500E0FFE4FCFDFEAB40AA3FA93EA83DC31246
:1026650008316008E4F55AFF0FBF08FCAF40900041
:1026750097EFF090009EF012207E900097E0FFE427
:102685008F45F544F543F5427F16121F2DBF010313
:052695007F01227F001F
:01269A00221D
:10224100122E6F05599000D0E0B50714BF05199003
:1022510000C8E0FE900098E06E600DE4F55980083A
:10226100E4F559FE0EBE08FCEF146010146015145D
:10227100601A14601F146024240570289000C8742B
:10228100FFF080209000C874C8F080189000C874D6
:1022910028F080109000C87414F08008900098E035
:1022A1009000C8F09000D0EFF012207E9000D0E0B6
:0E22B100FD7F6512283EBF01037F01227F00E2
:0122BF0022FC
:10259400122E788F408E3F8D3E8C3D055D900099C4
:1025A400E0FEA3E0FFE4FCFDAB40AA3FA93EA83D4A
:1025B400C31208316008E4F55DFF0FBF08FC90000A
:1025C40099E53FF0A3E540F012207E900099E0FEEB
:1025D400A3E0FFE48F458E44F543F5427F66121F66
:0925E4002DBF01037F01227F00DD
:0125ED0022CB
:102B1100122E66055B90008EE06F6008E4F55BFEA7
:102B21000EBE08FCEF90008E7003F080037401F07C
:102B310012207E90008EE0FD7F671225EEBF01031B
:052B41007F01227F006E
:012B4600226C
:1027ED00122E788F408E3F8D3E8C3D055C90008F74
:1027FD00E0FFE4FCFDFEAB40AA3FA93EA83DC3129D
:10280D0008316008E4F55CFF0FBF08FC90008FE510
:10281D0040F012207E90008FE0FFE48F45F544F5E7
:10282D0043F5427F68121F2DBF01037F01227F00F8
:01283D002278
:1022C000122E788F408E3F8D3E8C3D055F9000CC66
:1022D000120868AB40AA3FA93EA83DC3120831606E
:1022E00008E4F55FFF0FBF08FCAF40AE3FAD3EAC6A
:1022F0003D9000CC120880C374329540FFE4953FB6
:10230000FEE4953EFDE4953DFCE47B107A27F9F868
:102310001206F090007E12088012207E9000CC12EF
:1023200008688F458E448D438C427F69121F2DBFF4
:0723300001037F01227F0081
:012337002283
:1029E400122E66055E900083E06F6008E4F55EFEDB
:1029F4000EBE08FCEF7006900083F0801190008EEC
:102A0400E0B40104788276019000837401F09000B0
:102A140083E0FD7F711225EEBF01037F01227F0059
:012A2400228F
:102C0600122E66AD077883E66D6006E4FF0FBF08F7
:102C1600FCED78837003F6800276017F721225EE52
:082C2600BF01037F01227F00C2
:012C2E002283
:061BF3008B378A388939A6
:101BF900EF1208D91C1C141C4B161C5A651C69666B
:101C09001C78671C87681C96691CA5711CB4720036
:101C1900001CC5AB37AA38A939AD3BAC3A122E1016
:101C29008F3CE53C64016003021CCA9000ACE004EF
:101C3900F0E0C394055003021CCAE4F0122CF00230
:101C49001CCAAB37AA38A939AD3BAC3A1226458034
:101C590067AB37AA38A939AD3BAC3A122241805853
:101C6900AB37AA38A939AD3BAC3A1225948049ABB8
:101C790037AA38A939AD3BAC3A122B11803AAB37A8
:101C8900AA38A939AD3BAC3A1227ED802BAB37AA5C
:101C990038A939AD3BAC3A1222C0801CAB37AA38FF
:101CA900A939AD3BAC3A1229E4800DAB37AA38A962
:101CB90039AD3BAC3A122C068F3C8000E49000AC65
:031CC900F0AF3C3D
:011CCC0022F5
:032E95007F092290
:05001E008F2F8D302240
:102A9E007B2270223A22003762616A696A30797548
:102AAE006D6F6B796F667600222C2276223A2200A9
:102ABE00312E302E3000222C226D223A0030007D35
:0B2ACE000000000000000000000000FD
:0319EF0001600094
:1000260074432FF974003EFA7B01ED1206790FBF77
:0300360000010EB8
:0100390022A4
:062A6200AF2F7E007BFF98
:0A2A68008E3A8F3B8B3C8A3D893E7D
:102A720074432FF974003EFA7B01853C44853D4541
:102A8200853E46853F47854048121DA4E540253BCB
:0B2A9200F53BE53F353AF53AFEAF3B5F
:012A9D002216
:0A2BD9008B488A49894A8C4B8D4CC9
:102BE300E4FFFDFCC3ED954CEC954B50157848E4A0
:102BF30075F0011208C91206332FFF0DBD00010C39
:022C030080E26D
:012C050022AC
:102A25008B488A49894A8C4B8D4CE94A4B602DE588
:102A35004C454B6027E54C154CAE4B7002154B4E83
:102A4500601AAB48AA49A94A120633FF122E92749E
:0D2A550001254AF54AE43549F54980D922AA
:042745008A468B47EE
:1027490090003D7455F0A374AAF0A3EDF0A3EFF047
:10275900E546A3F0E547A3F02407F547E43546F538
:10276900467B017A00793DE54724FFFDE54634FFC4
:10277900FC122BD9AE07743C2547F5827400354607
:10278900F583EFF07B017A00793DAD47AC46022A2B
:01279900251A
:102D1300E4FFE560700AFEFD12002675600180077E
:102D23007E007D01120026EFFB7A007D03E4FF02A3
:022D3300274532
:101CCD00E4F52F78307C00FD7BFF7A2A79CFFE7FFB
:101CDD000A12060D7BFF7A2A799E12279A8E3F8F64
:101CED00407A2A799E122A628F2F7BFF7A2A79A554
:101CFD0012279A8E3F8F407A2A79A5122A628F2F4A
:101D0D007BFF7A2A79B612279A8E3F8F40AF2F7EAE
:101D1D00007BFF7A2A79B6122A688F2F7BFF7A2AE9
:101D2D0079BE12279A8E3F8F40AF2F7E007BFF7AB0
:101D3D002A79BE122A688F2F7BFF7A2A79C412273F
:101D4D009A8E3F8F40AF2F7E007BFF7A2A79C41287
:101D5D002A688F2F7BFF7A2A79CB12279A8E3F8F95
:101D6D0040AF2F7E007BFF7A2A79CB122A688F2F06
:101D7D007BFF7A2A79CD12279A8E3F8F40AF2F7E27
:101D8D00007BFF7A2A79CD122A688F2FEFFB7A001C
:071D9D007D037F01022745D1
:0A2E5C00E4FBFA7D037F0202274524
:022D35008F36D7
:102D3700122E95E4FEEEC39F501275F002EE90003E
:0E2D4700D11208BDE0653660030E80E9AF06CC
:012D5500225B
:062539008B2F8A3089316E
:10253F00120633F53290000112064CF5339000026B
:10254F0012064C753500F53490000312064C2535F4
:10255F00F535E43534F534AF32122D3575F002EF21
:10256F009000D21208BDE0653360037F0022AB2FCD
:10257F00E5312404F9E43530FA85343A85353BAF3B
:04258F0032121BF3F6
:012593002225
:0419F3008E268F2786
:1019F70074052FF58274003EF583E0FF1208D91AAB
:101A070025001A28011A2B021A2E031A49041A4E06
:101A1700051A55061AE6081AE90E00001B08022DDA
:101A270013021CCD022E5C74082527F5827400353D
:101A370026F583E0900074F0E4FBFA7D037F030250
:101A4700274590002180039000007401F02274065E
:101A57002527F58274003526F583E0FE74072527D0
:101A6700F58274003526F583E0FDEEF52DEDF52EB4
:101A7700E4F52BF52CC3E52C952EE52B952D40038E
:101A8700021B08E527252CFDE526352BFC740A2DBE
:101A9700F58274003CF583E0752900F528740B2D59
:101AA700F58274003CF583E02529F529E43528F50E
:101AB7002874082527F974003526FA7B01E9252CB7
:101AC700F9EA352BFA1225398F2AE5292404FFE490
:101AD7003528FEEF252CF52CEE352BF52B809602BD
:101AE7001E7574082527F58274003526F583E0FFF7
:101AF70074092527F58274003526F583E0FD120069
:011B07001EBF
:011B080022BA
:102D7400E5648565838566826561700AE5636582BD
:0E2D84007004E562658360037F01227F0022F8
:1028D100AB64AA65A966E5618562838563826564E7
:1028E100700AE56665827004E56565836028C390BA
:1028F100003DE5669582E5659583400D7A00792274
:102901007564017565007566227864E475F00112DD
:0629110008C9120633FFA5
:01291700229D
:10003E00020192EC5D046005E85904700302018828
:10004E00120153580460F6EC4860F2EC7004FDFEA9
:10005E00FF22C860DB2481C85009C3986002500695
:10006E0002018F9850CAF582E9294B4A7005AB827E
:10007E0002017E75F0007C1A7880C3EF9BEE9AED3C
:10008E0099400DC3EF9BFFEE9AFEED99FDE842F00D
:10009E00DC23ACF0D0E0FFD0E0FED0E0FDAB822060
:1000AE00E7101BEB60BAEC2CFCEF33FFEE33FEEDEA
:1000BE0033FD02016AE803F830E705C0F075F00081
:1000CE00EF2FFFEE33FEED33FD40B830E7C280AACE
:1000DE0075F020800E75F010800575F0087D007E9D
:1000EE00007F003392D530D50312080DEC3340104B
:1000FE00EF33FFEE33FEED33FDEC33FCD5F0ED22A6
:0E010E00E5F0247EA2D513CC92E7CDCEFF22E1
:10011C00EDD2E7CD33EC3392D524814006E4FFFEDB
:10012C00FDFC22FCE4CFCECDCC24E0501174FF803A
:10013C00EDC3CC13CCCD13CDCE13CECF13CF0470D7
:07014C00F030D5DE02080DC2
:100FCF00E53D2429F8E6053D2278263007027829E9
:100FDF00E475F0011208C90206332000EB7F2ED210
:100FEF00008018EF540F2490D43440D4FF30040BFA
:100FFF00EF24BFB41A0050032461FFE53E600215D1
:10100F003E0541E5417002054030070D7826E47535
:10101F00F0011208C9EF020679022C7E7403D20781
:10102F008003E4C207F53D8B268A278928E4F53E25
:10103F00F540F541E53E60077F2012100A80F575F7
:10104F003FFFC201C200C202C203C205C206C208EC
:10105F00120FD8FF700D3007057F0012101BAF4124
:10106F00AE4022B4255FC2D5C204120FD8FF24D0E0
:10107F00B40A00501A75F00A783E30D50508B6FF4D
:10108F000106C6A426F620D5047002D20380D92407
:10109F00CFB41A00EF5004C2E5D204021308D201F4
:1010AF0080C6D20080C0D20280BCD2D580BAD20511
:1010BF0080B47F2012100A2002077401B53E004051
:1010CF00F1120FCFFF12100A021043D208D206807E
:1010DF0095120FCFFB120FCFFA120FCFF94A4B70A9
:1010EF000679FF7A137BFF20022EE53E602A7E00F1
:1010FF008E8275830012064C60060EEE653F70F00F
:10110F00C2D5EBC0E0EAC0E0E9C0E0EE121368D050
:10111F00E0F9D0E0FAD0E0FB120633FF60AAEBC093
:10112F00E0EAC0E0E9C0E012100AD0E02401F9D0F3
:10113F00E03400FAD0E0FBE53F0460DCD53FD98016
:10114F0087D20280A212134B60F7E53F70010412A1
:10115F00019DA93F600DE53F600914F53F1213F2A1
:10116F00EF60F3EA30E702F404C3995077EAF4250D
:10117F003F0430E701E404F53F800D12134B60C1CB
:10118F00EA053F253F12019DEA783CF630E701E47E
:10119F00253F04D53F0420050114121368E4C0E075
:1011AF001213F2783CE6601320E70714F6120FF2E1
:1011BF00802204F6D0E014C0E07F00120FF2E53F6A
:1011CF006007120FE9153F800B300503120FE9D0AE
:1011DF00E0021043D0E00480C512134B60A0E53F3E
:1011EF000412019D783CEAF6E53F200502600104F8
:0511FF00240412136836
:1012040074FF04C0E01213F2120FF2E53F2005024E
:101214006003120FE9D0E0B53FE87F45120FFC7878
:101224003CE67F2B30E7047F2DF404C0E012100A63
:10123400D0E075F00A84C0F0120FF3D0E0120FF37F
:10124400021043791080027908C206C2088008D2CD
:10125400D5790A8004790AC2D5E53F047002F53FC6
:10126400E4FAFDFEFF120FCFFC7B08200113120FDE
:10127400CFFD7B1030000A120FCFFE120FCFFF7B81
:1012840020EC3382D592D55013C3E43000069FFF7F
:10129400E49EFEE42001039DFDE49CFCE4CBF8C243
:1012A40001EC700CCFCECDCCE824F8F870F38017A5
:1012B400C3EF33FFEE33FEED33FDEC33FCEB33FBD6
:1012C400994002FB0FD8E9EB300105F8D0E0C4489F
:1012D400B201C0E00AEC4D4E4F78207B0070C2EAA8
:1012E400B53F0040BCC0E012136AD0F0D0E020014A
:1012F40004C4C0E0C4B201C0F0120FF3D0F0D5F0C2
:10130400EB0210431208D910E05312475810B14CA5
:1013140010AD42124B4F12534412534910C643129C
:101324005955118A4611E845115447141F5010B5F8
:101334002D10B92E10DC2B10BD2310DA2014082A2E
:10134400107548000010D4E53FB4FF03753F061242
:101354000FCFFC120FCFFD120FCFFE120FCFFF786D
:10136400350201CC790AA2D5200314300509B9103D
:10137400020404B9080104A2D52006025001042085
:1013840002689202B53E005034C0E07F2030031959
:101394007F30A20272067205500F1213C1C202C23C
:1013A40006C205C2087F30800F300503E9C0E01291
:1013B400100A300503D0E0F9D0E0B53ECC30051773
:1013C4007F30B9100C12100A7F583004077F7880E0
:1013D40003B9080312100A3002057F2D02100A7F98
:1013E400202008F87F2B2006F322920280CF7F0072
:1013F400B4070050052435F8E6FF22286E756C6C9E
:101404002900D201120FCF3001F8C201783E30D545
:101414000108F60210752D50434958120FCF2403CA
:10142400B405004001E490141A93120FFB743A12AD
:0A1434000FFBD203753E04021247BD
:10015300E9D2E7C933E833F892D5EDD2E7CD33ECF2
:0701630033FC5002B2D5226B
:10016A00EC30E7100FBF000C0EBE00080DBD0004F6
:10017A000BEB6014A2D5EB13FCED92E7FD2274FFA2
:10018A00FCFDFEFF22E480F8A2D574FF13FC7D80FB
:03019A00E480EF0F
:10019D00F920E72824F950037907E4F42402FB1829
:1001AD00DBFDE624FB5014E9600DE4F618E604F6D9
:0F01BD00B40A08E4F6D9F57401F60A22C2D52275
:1001CC00ED33EC3392D5FA602AB4FF33EDC2E77B02
:1001DC00FF60067A0179F1E4227A0179FA20D504DC
:1001EC007A0179F5224E614E002B494E46002D497D
:1001FC004E4600E47A08F608DAFC7B00740722E825
:10020C00C0E0ECC0E0EDC0E0EEC0E0EFC0E0EA75AD
:10021C00F010A4CAABF075F04DA42BFBE435F0FC48
:10022C00EA2410FAEB34C5FBEC34D9FCEDC2E7FF41
:10023C0075F056A4F42411C5F0F434C58FF0A42A3B
:10024C00E5F03BE43CF620E7141204FDD0E0FFD0CF
:10025C00E0FED0E0FDD0E0FC1200418014F404126A
:10026C0004FDD0E0FFD0E0FED0E0FDD0E0FC1203B6
:10027C00C7D0E0F8E6FAEDD2E7CD33EC332482FBBD
:10028C00E4C3CF33CFCE33CECD33CD33DBF37B07CB
:10029C0075F00A846004F6081B0AE5F0F6088FF086
:1002AC00740AA4FFACF08EF0740AA42CFEACF050CF
:1002BC00010C8DF0740AA42CFDE435F0F608DBDE9D
:0302CC0074072292
:1002CF00020188E86480F8E933E83360110460F0D4
:1002DF00ED33EC337009E8FCE9FDEAFEEBFF220495
:1002EF0060DED3EB9FEA9EE99DE8C2E78CF0C2F790
:1002FF0095F0400CE8CCF8E9CDF9EACEFAEBCFFB5C
:10030F0012015385D0F05804700320D5B3E8047060
:10031F00075002B2D502019292D5EC0460F7E4CCFB
:10032F00C0E0C398F8603B94186008400DD0E0FB24
:10033F0002016AE4FBFAC9FC8028E830E406E4C94C
:10034F00FBE4CAFCE830E305E4C9CACBFCE8540778
:10035F006010F8C3E913F9EA13FAEB13FBEC13FC83
:10036F00D8F130F52FC3E49CFCEF9BFFEE9AFEED26
:10037F0099FDD0E0FBEF4E4D4C701222DB030201D2
:10038F008FEC2CFCEF33FFEE33FEED33FDED30E75A
:10039F00EB02016AEF2BFFEE3AFEED39FDD0E0FBE9
:1003AF0050130BBB0003020192ED13FDEE13FEEF92
:0803BF0013FFEC13FC02016ABC
:1003C700EC4D6011E8497017ED33EC3304600DE430
:1003D700FCFFFEFD22E933E8330470F802018812BE
:1003E700015358046009E4CC2481500628500902BF
:1003F700019228400302018FC0E0EB4A7044B980A4
:1004070006D0E0FB02017EEF4E701CBD8008EBFFBB
:10041700EAFEE9FD80EBE98DF0A4FEE5F00204B009
:10042700E9CDF9EAFEEBFFEF89F0A4FCE5F0CE8910
:10043700F0A42EFFE435F0CD89F0A42DFEE435F0CD
:100447008067EF4E7005BD80D780C3EF8BF0A4ACFB
:10045700F0EE8BF0A42CFCE435F0F8EF8AF0A42C36
:10046700E5F038FCE433CB8DF0A42CFCE5F03BF849
:10047700EE8AF0A42CFCE5F038F8E433CF89F0A439
:100487002CFCE5F038CF3400CE89F0A42FFFE5F03F
:100497003EFEE433C98DF0A42EFEE5F039CD8AF097
:1004A700A42FFFE5F03EFEE43DFD33D0E0FB50070F
:1004B7000BBB000F020192EC2CFCEF33FFEE33FE77
:0604C700ED33FD02016AA5
:1004CD003F8000004120000042C80000447A000037
:1004DD00461C400047C35000497424004B189680B9
:1004ED004CBEBC205A0E1BCA6753C21C749DC5AEB0
:1004FD00FB60065407601C232312052BEB54386058
:10050D00091205171205261203C7ECF8EDF9EEFADC
:10051D00EFCB22EB12052680F1543803241C9004F6
:10052D00CDFE93FC0EEE93FD0EEE930ECE93FF22B9
:1021C10002143EE493A3F8E493A34003F68001F2E2
:1021D10008DFF48029E493A3F85407240CC8C3331F
:1021E100C4540F4420C8834004F456800146F6DFEE
:1021F100E4800B01020408102040809018DDE47E89
:10220100019360BCA3FF543F30E509541FFEE493E2
:10221100A360010ECF54C025E060A840B8E493A3A9
:10222100FAE493A3F8E493A3C8C582C8CAC583CAD4
:10223100F0A3C8C582C8CAC583CADFE9DEE780BE8C
:0119F20000F4
:10053D00E709F608DFFA8046E709F208DFFA803EA0
:10054D0088828C83E709F0A3DFFA8032E309F6088D
:10055D00DFFA8078E309F208DFFA807088828C83F5
:10056D00E309F0A3DFFA806489828A83E0A3F608A9
:10057D00DFFA805889828A83E0A3F208DFFA804C83
:10058D0080D280FA80C680D4806980F2803380105A
:10059D0080A680EA809A80A880DA80E280CA8033C3
:1005AD0089828A83ECFAE493A3C8C582C8CCC5833B
:1005BD00CCF0A3C8C582C8CCC583CCDFE9DEE7800B
:1005CD000D89828A83E493A3F608DFF9ECFAA9F08A
:1005DD00EDFB2289828A83ECFAE0A3C8C582C8CCE0
:1005ED00C583CCF0A3C8C582C8CCC583CCDFEADEF9
:1005FD00E880DB89828A83E493A3F208DFF980CC5B
:10060D0088F0EF60010E4E60C388F0ED2402B40453
:10061D000050B9F582EB2402B4040050AF232345FA
:06062D00822390058D738D
:10063300BB010689828A83E0225002E722BBFE02C5
:09064300E32289828A83E49322F8
:10064C00BB010CE58229F582E5833AF583E0225063
:10065C0006E92582F8E622BBFE06E92582F8E222AD
:0D066C00E58229F582E5833AF583E49322C7
:10067900BB010689828A83F0225002F722BBFE0160
:02068900F3225A
:10068B00F8BB010DE58229F582E5833AF583E8F0A5
:10069B00225006E92582C8F622BBFE05E92582C851
:0206AB00F22239
:1006AD00EF8DF0A4A8F0CF8CF0A428CE8DF0A42E61
:0206BD00FE221B
:1006BF00C5F0F8A3E028F0C5F0F8E58215827002C6
:0606CF001583E038F02263
:0D06D500EF2BFFEE3AFEED39FDEC38FC2274
:0E06E200C3EF9BFFEE9AFEED99FDEC98FC2213
:1006F000E88FF0A4CC8BF0A42CFCE98EF0A42CFCA9
:100700008AF0EDA42CFCEA8EF0A4CDA8F08BF0A426
:100710002DCC3825F0FDE98FF0A42CCD35F0FCEB85
:100720008EF0A4FEA9F0EB8FF0A4CFC5F02ECD394A
:0F073000FEE43CFCEAA42DCE35F0FDE43CFC22B7
:10073F0075F008758200EF2FFFEE33FECD33CDCC71
:10074F0033CCC58233C5829BED9AEC99E5829840F4
:10075F000CF582EE9BFEED9AFDEC99FC0FD5F0D6D1
:10076F00E4CEFBE4CDFAE4CCF9A88222B800C1B9FB
:10077F000059BA002DEC8BF084CFCECDFCE5F0CB39
:10078F00F97818EF2FFFEE33FEED33FDEC33FCEB72
:10079F0033FB10D703994004EB99FB0FD8E5E4F92D
:1007AF00FA227818EF2FFFEE33FEED33FDEC33FC1A
:1007BF00C933C910D7059BE99A4007EC9BFCE99A0E
:1007CF00F90FD8E0E4C9FAE4CCFB2275F010EF2F53
:1007DF00FFEE33FEED33FDCC33CCC833C810D70753
:1007EF009BEC9AE899400AED9BFDEC9AFCE899F88E
:0E07FF000FD5F0DAE4CDFBE4CCFAE4C8F92221
:0E080D00C3E49FFFE49EFEE49DFDE49CFC22FC
:10081B00EB9FF5F0EA9E42F0E99D42F0EC6480C854
:06082B0064809845F022F4
:10083100EB9FF5F0EA9E42F0E99D42F0E89C45F01D
:010841002294
:10084200E8600FECC313FCED13FDEE13FEEF13FF94
:03085200D8F122B8
:10085500E8600FEFC333FFEE33FEED33FDEC33FC01
:03086500D8F122A5
:0C086800E0FCA3E0FDA3E0FEA3E0FF2203
:0C087400E0F8A3E0F9A3E0FAA3E0FB2207
:0C088000ECF0A3EDF0A3EEF0A3EFF022EB
:10088C00A8828583F0D083D0821208A31208A31209
:10089C0008A31208A3E473E493A3C583C5F0C5832E
:1008AC00C8C582C8F0A3C583C5F0C583C8C582C8B6
:0108BC002219
:0C08BD00A42582F582E5F03583F5832246
:1008C900FAE6FB0808E6F925F0F618E6CA3AF62230
:1008D900D083D082F8E4937012740193700DA3A3AE
:1008E90093F8740193F5828883E4737402936860C2
:0608F900EFA3A3A380DFC2
:102C7E00EFB40A07740D122C89740A309811A899B2
:102C8E00B8130CC2983098FDA899C298B811F630B6
:072C9E0099FDC299F599228E
:00000001FF
